:100000000C943E020C94B8020C9466020C946602A6
:100010000C9466020C948E020C9466020C94660298
:100020000C9466020C9466020C9466020C946602B0
:100030000C9466020C9466020C9466020C946602A0
:100040000C9425120C9466020C9426140C947414CF
:100050000C9466020C9466020C9466020C94660280
:100060000C9466020C946602464C4153482045525B
:10007000524F522121212043616E277420776F72E5
:100080006B21004572726F72207265616420736526
:100090007474696E677321000D0A4261796368693F
:1000A00020736F66742032303133005458204F7003
:1000B000656E204578706572742056322046005077
:1000C0007265737320276D2720746F2073746172BB
:1000D00074204D454E550046486E3A204D696E20BD
:1000E000417672204D6178000A0D546F20456E7480
:1000F0006572204D454E5520507265737320454EF4
:1001000054455200547970652052656720616E64D1
:1001100020707265737320454E5445522C207479BB
:1001200070652056616C756520616E642070726523
:10013000737320454E5445522028713D51756974A2
:100140003B204E782D79203D2053686F77206E6FCD
:1001500069736529000D0A52673D56616C20094399
:100160006F6D6D656E7473202D2D2D2D2D2D2D2D04
:100170002D2D2D2D2D2D2D2D2D2D2D2D2D2D2D00DC
:100180004D616B65206E65772062696E643F20412A
:10019000726520796F75207375726528792F6E29C5
:1001A0003F000D0A54727920746F206E65772062CB
:1001B000696E642E2E2E000A0D467265712F6E6FC9
:1001C0006973653A20004572726F723A20746F6FDE
:1001D000206E6F697365210042696E64204E3D0098
:1001E00042696E64204E0000000000000000000024
:1001F00000000000000000000000000000000000FF
:100200004672657120636F7272656374696F6E20E8
:10021000636F6E73740000000000000000000000B7
:100220005465726D20636F727220656E61626C65D9
:1002300000000000000000000000000000000000BE
:10024000465320636865636B20656E61626C650070
:10025000000000000000000000000000000000009E
:100260003131206269742F313020636820656E61FE
:10027000626C65000000000000000000000000004B
:100280004465627567206F75742028312D50504D7C
:100290002C20322D706572662E29000000000000AF
:1002A000486F70652046310000000000000000002B
:1002B000000000000000000000000000000000003E
:1002C000486F70652046320000000000000000000A
:1002D000000000000000000000000000000000001E
:1002E000486F7065204633000000000000000000E9
:1002F00000000000000000000000000000000000FE
:10030000486F7065204634000000000000000000C7
:1003100000000000000000000000000000000000DD
:10032000486F7065204635000000000000000000A6
:1003300000000000000000000000000000000000BD
:10034000486F706520463600000000000000000085
:10035000000000000000000000000000000000009D
:10036000486F706520463700000000000000000064
:10037000000000000000000000000000000000007D
:10038000486F706520463800000000000000000043
:10039000000000000000000000000000000000005D
:1003A000506F776572207377697463682063686142
:1003B0006E2028312D31332C303D6F6666290000C8
:1003C000506F776572206D696E2028302D372900B7
:1003D000000000000000000000000000000000001D
:1003E000506F776572206D6964646C652028302DCC
:1003F000372900000000000000000000000000009D
:10040000506F776572206D61782028302D37290074
:1004100000000000000000000000000000000000DC
:1004200000000000240027002A0000000000250032
:1004300028002B00000000002300260029000404EF
:10044000040404040404020202020202030303037C
:100450000303010204081020408001020408102058
:100460000102040810200000000700020100000340
:1004700004060000000000000000E01511241FBE6B
:10048000CFEFD8E0DEBFCDBF11E0A0E0B1E0EEEAF3
:10049000F0E302C005900D92AC3AB107D9F714E031
:1004A000ACEAB1E001C01D92A834B107E1F714E055
:1004B000CCE7D4E004C02297FE010E945118CA374D
:1004C000D107C9F70E9436160C9455180C940000F9
:1004D000FC0188279927E89421912032E9F32930FB
:1004E00010F02E30C8F32B3241F02D3239F46894DD
:1004F00004C00E948602820F911D219120532A3050
:10050000C0F31EF4909581959F4F08957AE0979FD0
:10051000902D879F802D910D112408951F920F9289
:100520000FB60F9211248F939F93EF93FF938091B7
:10053000840090918500E0917201F09173019183A4
:1005400080833296F0937301E0937201E255F34099
:1005500030F08AEE91E09093730180937201FF91E5
:10056000EF919F918F910F900FBE0F901F90189554
:100570001F920F920FB60F9211240F900FBE0F9083
:100580001F901895FF920F931F93909171039931CB
:1005900008F449C080915203882309F044C0809137
:1005A00055038F3009F03FC080916D038823D9F542
:1005B000ABECB1E0FF24F39411E02CC0660F771F81
:1005C000EF2DF0E0EB5AFC4F808190E0212F30E0DE
:1005D00082239323892B11F0462B572B103819F4C3
:1005E000F39411E001C0110F0F5F0B3039F7CA010E
:1005F000880F991F880F991F840F951F96958795CF
:10060000969587958052994F8D939D9381E0A53E55
:10061000B80731F000E040E050E061E070E0D0CF9A
:100620001092E7010BC0992349F0809153039091F8
:1006300054030196909354038093530310925203F2
:1006400010927203109271031092700310926F0354
:1006500010926E031F910F91FF9008952091BD019C
:1006600080918503821B71F1992787FD909597FFF3
:1006700003C0909581959F4F02978CF460918803F9
:100680008091860390918703332727FD3095633649
:1006900070F070E00E941A186217730799F01092B8
:1006A0008703109286031092880381E00895820FD9
:1006B000931F90938703809386036F5F60938803F3
:1006C00080E0089580E0089580917A018823E1F028
:1006D00081E080938C038091E8018F3F31F030916D
:1006E0008303EBECF1E020E00DC080916C0383FF0D
:1006F0000BC00EC081919191885B97408F5F9740AE
:1007000038F42F5F2317B0F310928C0381E0089523
:1007100080E008955C9A5F9800005C9898E010C0B3
:1007200087FF07C05F980000289A00005F9A0000CA
:1007300006C05F980000289800005F9A0000880FAC
:10074000915070F75F9808958F770E948A030895FB
:100750005F98000098E010C087FF07C05F98000016
:10076000289A00005F9A000006C05F980000289851
:1007700000005F9A0000880F915070F75F9808950D
:100780005F98000080E090E0880F5F9A0000199960
:1007900081605F9800009F5F9830B1F708950E94D4
:1007A000A4030E94C0035C9A08951F93162F8068CB
:1007B0000E948A03812F0E94A8035C9A1F910895CA
:1007C0003F924F925F926F927F928F929F92AF92E1
:1007D000BF92CF92DF92EF92FF920F931F93CF932E
:1007E000DF93F82EF894A0907201B0907301789482
:1007F00080917C0181FF56C00E947B128B019C017D
:100800008091730390917403A801481B590B809148
:10081000C0019091C1018417950720F45093C10144
:100820004093C001009373031093740320937503E6
:100830003093760380917703909178039C0175E063
:10084000369527957A95E1F7821B930B840F951FB8
:100850009093780380937703809174019091750150
:100860009501281B390BC9019595879590937A03BB
:1008700080937903843B910530F08C549F4F909383
:100880007A03809379032091790330917A038091E0
:100890007B0390917C038217930720F430937C03B1
:1008A00020937B03E090910320918F03309190037C
:1008B0000091920310919303C0E0D0E06F2C772455
:1008C0005AEE452E51E0552E992493944CE0842EF7
:1008D00033243A94CBC0C190D190F0937501E0934A
:1008E0007401E255F34020F050927501409274017A
:1008F000C601821B930B3091E8013F3F09F453C0BE
:10090000E394E0FEB0C0800F911F2091710122237B
:1009100031F1233388F0109271018091E9018B301D
:1009200018F03092E8019EC03B3018F09092E80138
:1009300099C01092E80196C08436910530F48091F8
:10094000E9018F5F8093E90106C08054964018F456
:100950003F5F3093E8012F5F2093710183C0332301
:1009600011F0880F991FF3E188389F0728F0109243
:1009700070011092E70176C025E08C3D920780F06F
:10098000209170012C3060F4E22FF0E0EE0FFF1F99
:10099000E553FE4F918380832F5F2093700162C0E7
:1009A000809270015FC00A9664E170E00E940618B0
:1009B0006B3018F00E94C20255C0809170038823EA
:1009C00019F4615090927003F0906F03AF2DB0E076
:1009D00050916E0320917003309172037091520315
:1009E000409171032DC03F0D822F90E00197FD01D2
:1009F00002C0EE0FFF1F8A95E2F75E2B2F5F2C30AF
:100A000021F02A30E0F04831D0F0E42FF0E0EB5A4A
:100A1000FC4F50833170730F4F5F493168F0109273
:100A20006E031092700310927203709352034093FE
:100A300071030E94C20210C050E020E030E061501B
:100A4000662389F650936E032093700330937203EC
:100A5000709352034093710380916F03F92DF81B3B
:100A6000F0936F03C801219696018C01E091740107
:100A7000F0917501EA15FB0521F0C615D70508F4BC
:100A80002ACFE09291033093900320938F03109329
:100A9000930300939203DF91CF911F910F91FF90E9
:100AA000EF90DF90CF90BF90AF909F908F907F900E
:100AB0006F905F904F903F9008956091780166230A
:100AC00069F080917901882319F08091BE01680F47
:100AD00089E00E94D5038CE00E94E0038091BC0174
:100AE0008F5F8093BC01883010F01092BC01E091C0
:100AF000BC01F0E0EE57FE4F89E760810E94D5030C
:100B0000089583E00E94CF0380938D0384E00E94C8
:100B1000CF0380938E038CE00E94E00387E061E0C6
:100B20000E94D503089587E061E00E94D5038EE717
:100B300064E20E94D5038CE00E94E00388E063E059
:100B40000E94D50388E060E00E94D5038CE00E94FB
:100B5000E00387E065E00E94D50385E062E00E9443
:100B6000D5038CE00E94E00383E00E94CF038093D2
:100B70008D0384E00E94CF0380938E030895EF924B
:100B8000FF920F931F938C010E946D12780100E079
:100B900010E0E60EF71E081F191F03C08CE00E942C
:100BA000E0030E946D126E157F0580079107B0F378
:100BB0001F910F91FF90EF9008950E94810582E3AD
:100BC00090E00E94BF050E9493050895EF92FF9266
:100BD0000F931F938C010E947B12780100E010E0BC
:100BE000E60EF71E081F191F03C08CE00E94E003E9
:100BF0000E947B126E157F0580079107B0F31F914D
:100C00000F91FF90EF9008958FE060E80E94D50368
:100C10008DE491E00E94E60581E10E94CF03282F38
:100C200020542093BD01243154F4332727FD3095FF
:100C30008EE190E0821B930B6AE070E00BC02F31D5
:100C400074F0332727FD30958EE190E0821B930BE3
:100C500067E070E00E941A186093BE0102C0109213
:100C6000BE018CE00E94E00308952F923F924F92C4
:100C70005F926F927F928F929F92AF92BF92CF922C
:100C8000DF92EF92FF920F931F93CF93DF930E9417
:100C90008105E0917D018E2F81508D30B0F4F89464
:100CA000F0E0EE0FFF1FE753FE4F808191817894B3
:100CB0002AE08832920718F460917E0108C08854B7
:100CC0009D4018F460917F0102C0609180016770BF
:100CD0004091BF014F5F4093BF0150E028E030E0FA
:100CE000261B3109C901880F991F820F931F841792
:100CF00095071CF41092BF012D9A685F8DE60E9443
:100D0000D50388E063E00E94D50388E060E00E949C
:100D1000D503609177016093AC018FE70E94D50302
:100D200085E064E00E94D50383E00E94CF038093B6
:100D30008D0384E00E94CF0380938E0303C081E083
:100D40000E94E0030E947B122091C7013091C801EC
:100D50004091C9015091CA01621B730B840B950B22
:100D600066577A478040904050F387E069E00E94E0
:100D7000D5038091C7019091C801A091C901B0919C
:100D8000CA01845F9448AF4FBF4F8093C7019093CF
:100D9000C801A093C901B093CA010E947B124B0104
:100DA0005C01DD24D3946FE1262E64E0362ECC2442
:100DB000C39451E0652E712C42E0442E512C67C142
:100DC0000E947B12681979098A099B09E616F706C1
:100DD0000807190708F06BC181E0D81609F05CC05C
:100DE000ABECB1E0EEEAF1E060E010E000E040E002
:100DF00050E0742F8D919C91119727E0883B9207CA
:100E000018F420E030E016C03FE0883B930718F06C
:100E10002FEF37E007C09C01285B374084E020308B
:100E2000380740F0C301072E02C0880F991F0A94AB
:100E3000E2F7682BC90196958795969587958083EB
:100E4000473099F021FF08C0C201072E02C0880F69
:100E5000991F0A94E2F7182B20FF07C0C30102C0B4
:100E6000880F991F7A95E2F7082B4F5F5F4F129614
:100E700031964830510509F0BCCF6093AD018FE742
:100E80000E94D5031093BB0180917B01882309F454
:100E9000FDC00093B901FAC02DE02D1508F4CEC0B5
:100EA0003EEFD30EED2DF0E042E0D40EEE0FFF1F2B
:100EB000E553FE4F0190F081E02D87E0E83BF80715
:100EC00018F440E050E00AC02FE0E83BF20718F0C9
:100ED0004FEF57E003C0AF01485B574039E03D1585
:100EE00008F44BC0229793010C2E02C0220F331F2F
:100EF0000A94E2F72296722F84E04030580710F0EF
:100F0000622F01C060E0872F90E02091AD0130E0BA
:100F100082239323262F30E08217930709F089C09C
:100F2000FE01E455FE4FCA019695879596958795E3
:100F3000808380917B01882369F040FF04C0809109
:100F4000B901872B05C0872F80959091B90189231E
:100F50008093B90129E0D21609F46BC0972F990F3D
:100F600041FF04C08091BB01982B04C090958091F3
:100F7000BB0198239093BB015CC080917B018823C7
:100F800021F08D2D8C50823050F0FE01E455FE4F43
:100F9000B3E056954795BA95E1F740834AC03CE0E7
:100FA000D31609F046C047E0E83BF40718F480E0A8
:100FB00090E00AC08FE0E83BF80718F08FEF97E069
:100FC00003C0CF01885B97402091E1013091E2019D
:100FD00047E0283B340718F420E030E009C04FE038
:100FE000283B340718F02FEF37E002C0285B37406A
:100FF0002770220F220F220F8770282B8091D90192
:101000009091DA0137E0883B930718F480E090E094
:1010100009C04FE0883B940718F08FEF97E002C0BB
:10102000885B974082708295880F807E822B8093A8
:10103000B801C455DE4F8FE7688126C08EE0D81610
:10104000D1F4EEEAF1E060E08081682720E0862FAD
:1010500090E0BC017595679580FF02C03CE863276E
:101060002F5F2830A1F7319641E0EA3BF40761F7A2
:1010700060838FE709C08091C201823011F4C09271
:10108000BB018FE76091BB010E94D503D394CD2DA6
:10109000D0E0C29DC001C39D900DD29D900D112442
:1010A000825C974F7C010027F7FC0095102F4A9B2C
:1010B00031C00E947B12681979098A099B096F5F08
:1010C0007C478040904030F58CE00E94E0033FE098
:1010D0003D1568F375CE86E294E060E071E00E9411
:1010E000D41780E004C02D980E94810581E0DF9133
:1010F000CF911F910F91FF90EF90DF90CF90BF9015
:10110000AF909F908F907F906F905F904F903F90A7
:101110002F9008954A9BE7CFDECF87E060E80E94DA
:10112000D50361E070E080E090E00E94A11283E0CE
:101130000E94CF0380938D0384E00E94CF038093AD
:101140008E0386E060E00E94D50387E061E00E94A4
:10115000D50360917801662311F089E002C089E02F
:1011600067EC0E94D5038AE065E00E94D5038BE01E
:1011700062E10E94D5038CE065E10E94D5038EE018
:1011800060E00E94D5038FE163E00E94D5038EE109
:101190006AE00E94D50382E160E60E94D50383E104
:1011A00068EF0E94D5038FE060E80E94D5038DE1CF
:1011B00060E40E94D5038CE166E20E94D50380E2E0
:1011C00064E40E94D50381E260E00E94D50382E2DC
:1011D00062EF0E94D50383E26CE70E94D50384E2AC
:1011E00066E00E94D50385E26DE70E94D5038AE29E
:1011F0006FE00E94D50380E36CEA0E94D50382E38E
:101200006CE80E94D50383E36AE00E94D50384E37F
:1012100064E00E94D50385E362E20E94D50386E381
:101220006DE20E94D50387E364ED0E94D50388E355
:1012300060E00E94D50389E360E00E94D5038EE35D
:1012400060E10E94D5038DE66FE00E94D5038EE633
:101250006CE30E94D5038FE66FE90E94D50389E60F
:1012600060E60E94D50380E76EE20E94D50389E71D
:1012700060E00E94D5038AE766E00E94D50381E71B
:1012800060E00E94D50381E763E20E94D50382E714
:101290006EE00E94D50385E763E50E94D50386E7EB
:1012A0006CE40E94D50387E760EE0E94D5030895A1
:1012B0001F93182F8A3038F486E294E068E071E0DA
:1012C0000E94D11707C0843628F486E294E060E2D9
:1012D0000E94A01586E294E0612F4AE050E00E944F
:1012E0002F1786E294E060E20E94A0151F910895F6
:1012F0000F931F9390918101899F802D1124980F46
:101300001FEF0FEF0EC0E82FF0E0E651FE4FE08137
:10131000EE3D20F4E11710F4082F01C0E12F8F5F9C
:101320001E2F891780F31E3D88F586E294E060E267
:101330000E94A01586E294E0602F4AE050E00E94EF
:101340002F1786E294E06BE071E00E94D1171695AA
:10135000169586E294E0612F70E04AE050E00E942A
:101360009F17002359F0E02FF0E0E651FE4F8FEF7A
:1013700082933196023010F032978083E02FF0E0B4
:10138000E651FE4F8FEF828381838083802F1F91F0
:101390000F9108951F93182F0E947809893E70F0CD
:1013A000112341F0812F81500E947809883E30F04E
:1013B000173020F4812F81500E9478091F910895E1
:1013C0001F938091C0019091C101805A9F4020F0ED
:1013D0001092C1011092C0010E942E03882369F56A
:1013E00020917F03309180038091530390915403A7
:1013F0002817390711F5909184038091E701981718
:10140000E1F420917D0330917E038091C0019091A1
:10141000C1012817390789F4209181033091820393
:1014200080917B0390917C032817390731F49091C8
:101430008C0380918B03981739F18091C0019091B2
:10144000C10190937E0380937D038091530390911B
:1014500054039093800380937F038091BD01809318
:1014600085038091E7018093840380917B039091B1
:101470007C03909382038093810380918C038093FB
:101480008B0381E080938A0380918A03823009F480
:1014900074C0833038F4882309F40DC1813009F019
:1014A00039C107C0833009F491C0843009F032C1DA
:1014B000E8C086E294E06DE00E94A01580918C0364
:1014C000882329F086E294E06DE071E04FC08091BE
:1014D000E7018F3F29F486E294E063E171E046C0C2
:1014E000863028F086E294E062E271E03FC08091AD
:1014F0008303882399F4EBECF1E080819181892BBF
:1015000029F0809183038F5F80938303329681E07B
:10151000E33EF80791F78CE00E94E0038091E80138
:101520008F3F39F486E294E06EE271E00E94D117B9
:1015300019C0882331F086E294E063E371E00E94F1
:10154000D11786E294E06CE371E00E94D1178CE041
:101550000E94E00386E294E0609183034AE050E059
:101560000E942F1786E294E060E471E00E94D11798
:101570008CE00E94E00382E026C086E294E067E40B
:1015800071E00E94D11760918503772767FD709500
:1015900086E294E04AE050E00E949F1786E294E0E1
:1015A0006BE471E00E94D1176091BE01772767FD5F
:1015B000709586E294E04AE050E00E949F178CE02C
:1015C0000E94E00383E080938A03A4C080917C01A1
:1015D00081FF55C086E294E060E571E00E94D1177A
:1015E00060917D0370917E0386E294E04AE050E0D2
:1015F0000E941E178CE00E94E00386E294E064E5FE
:1016000071E00E94D117609177037091780315E023
:10161000769567951A95E1F786E294E04AE050E006
:101620000E941E178CE00E94E0038091E8018F3F2A
:1016300031F586E294E068E571E00E94D11760918F
:1016400081037091820386E294E04AE050E00E94B8
:101650001E178CE00E94E00386E294E06CE571E0E6
:101660000E94D11760917F037091800386E294E01D
:101670004AE050E00E941E178CE00E94E00384E0E4
:10168000A2CF80917C0180FF0DC010E086E294E043
:1016900060E671E00E94D11782E00E94E0031F5FC4
:1016A0001830A1F786E294E00E946F161092890329
:1016B00010928A032FC080917C0180FF2BC0809103
:1016C0008303833038F1E0918903F0E0EE0FFF1FD0
:1016D000E553FE4F6081718186E294E04AE050E07C
:1016E0000E941E178CE00E94E00386E294E060E214
:1016F0000E94A015809189038F5F80938903909148
:101700008303891738F086E294E06DE00E94A0150B
:10171000109289031F9108951F93CF93DF93EC01DB
:10172000162FFE0121966491662329F086E294E04B
:101730000E94A015F6CF112321F086E294E00E94CA
:101740006F16DF91CF911F910895AF92BF92CF9204
:10175000DF92EF92FF920F931F93CF93DF935C0181
:1017600001960E9468029C0101978E3F910510F03E
:1017700010E01EC0122F82E090E0F501E80FF91F83
:10178000E081EE23A9F00196ED3279F48A0D9B1DDC
:101790000E9468029C01812F90E08217930740F419
:1017A0002F3F310528F4C22E05C08A30910529F754
:1017B0004EEFC42E0E948D080E94DD0587ED90E05B
:1017C00061E00E948C0BE12EAEC089E76E2D0E9475
:1017D000D5038DEE92E00E94FA12FF24C0E0D0E023
:1017E00010E00FEF83E690E00E94FA1286E20E947A
:1017F000CF03C80FD11D801708F4082FF81608F47E
:10180000F82E1F5F173C71F789E08E1538F086E2DD
:1018100094E068E071E00E94D11708C0E3E6EE159D
:1018200028F086E294E060E20E94A01586E294E04F
:101830006E2D4AE050E00E942F17E2E8F1E06AE3E3
:1018400080818E1509F463E2319681E0EA38F80769
:10185000B9F786E294E00E94A01586E294E060E287
:101860000E94A015802F0E945809CE0167EC70E0FD
:101870000E940618162F862F0E9458098F2D0E944D
:101880005809F50180818E3409F047C00A3010F400
:10189000DD2408C0083418F03DE3D32E03C026EF42
:1018A000D22ED00EF9E0FF1510F000E007C087E45B
:1018B0008F1510F40DE302C00F2D0A501A3010F4EA
:1018C000FF2408C0183418F09DE3F92E03C086EFFA
:1018D000F82EF10E10E01F1521F486E294E06AE282
:1018E00017C01D1521F486E294E06CE311C01017B7
:1018F00021F486E294E06EE30BC0D11630F41017A9
:1019000020F486E294E06EE203C086E294E060E2B6
:101910000E94A0151F5F0117F0F686E294E00E9476
:101920006F16A895E394CE1408F04FCFDF91CF91B6
:101930001F910F91FF90EF90DF90CF90BF90AF90ED
:101940000895EF92FF920F931F93CF93DF937C0143
:10195000FC01108200E010E0A89586E294E00E946D
:1019600036151816190694F586E294E00E9467155C
:10197000EC011816190684F786E294E06C2F0E9499
:10198000A015CD30D10519F0CA30D10559F486E241
:1019900094E00E946F16DF91CF911F910F91FF90FD
:1019A000EF900895C830D10531F401151105A1F269
:1019B00001501040D1CFF701E00FF11FC083118219
:1019C000063011054CF60F5F1F4FC6CF61E070E087
:1019D00080E090E00E94A112BFCF86E294E00E94D6
:1019E00036151816190614F020E01AC086E294E0A5
:1019F0000E9467158336910519F08334910541F4EF
:101A00001092C1011092C00110927C0310927B03CE
:101A10008D36910521F020E08D34910509F421E007
:101A2000822F0895462FBC016C5F7F4F84E993E0BD
:101A30000E9419120895DF92EF92FF920F931F9365
:101A40008C01D62E472F54E9E52E53E0F52EC70121
:101A5000B8010E9419120F5F1F4FC701B8014D2D29
:101A60000E9419121F910F91FF90EF90DF9008953F
:101A7000EF92FF920F931F93CF93DF9306E711E04E
:101A8000EE24FF24C0E0D0E0CE01F80160810E9486
:101A9000120DF80181918F01E80EF11C2196C730DB
:101AA000D10591F7C2E8D1E00BE010E0C8016881F0
:101AB0000E94120D8991E80EF11C0F5F1F4FF1E09B
:101AC000CA38DF0799F7CDE7D1E003E110E0C8019C
:101AD00068810E94120D8991E80EF11C0F5F1F4F63
:101AE00081E0C138D80799F784E490E0B7010E94FB
:101AF0001B0DDF91CF911F910F91FF90EF900895F3
:101B0000BC016C5F7F4F84E993E00E94121208953C
:101B1000FF920F931F93CF93DF9385E591E061E0F0
:101B20000E948C0BFF24C1E0D0E00F2D10E0F801E3
:101B3000E657FE4F808190E08C179D0739F586E2CD
:101B400094E0BE014AE050E00E949F1786E294E0D4
:101B50006DE30E94A015CE010E94800D682F86E2E1
:101B600094E04AE050E00E942F1786E294E069E09A
:101B70000E94A01565E0000F111F6A95E1F7C801EA
:101B800080529E4F61E00E948C0BF3942196CB32E1
:101B9000D10559F6DF91CF911F910F91FF900895D4
:101BA00088E990E061E00E948C0B8BEA90E060E0B5
:101BB0000E948C0B86E294E060916E014AE050E056
:101BC0000E9441170E94880D8FEB90E061E00E9417
:101BD0008C0B0895DF92EF92FF920F931F938C016D
:101BE00074E9E72E73E0F72EC701B8010E941212C4
:101BF000D82E0F5F1F4FC701B8010E9412123D2D52
:101C000020E0280F311DC9011F910F91FF90EF9027
:101C1000DF9008950F931F93CF93DF9300E010E0C0
:101C2000C0E0D0E0CE010E94800DFE01EA58FE4FD8
:101C30008083080F111D2196C730D10599F7CBE09D
:101C4000D0E0CE010E94800DFE01E958FE4F808356
:101C5000080F111D2196C331D10599F7C3E1D0E0DA
:101C6000CE010E94800DFE01E659FE4F8083080FD1
:101C7000111D2196C731D10599F784E490E00E94A7
:101C8000EA0D20E08017910709F421E0822FDF910F
:101C9000CF911F910F9108950F931F93CF93DF93CF
:101CA000E0E0F0E000E010E08491080F111D3196B3
:101CB00080E4E030F807C1F790916F0180E0209157
:101CC0006E01EC01C20FD11D80E490E00E94EA0D8C
:101CD000C817D90761F080E490E0BE010E941B0D97
:101CE00082E490E0B8010E941B0D81E00AC082E40A
:101CF00090E00E94EA0D8017910711F480E001C086
:101D00008FEFDF91CF911F910F91089589E060E0EF
:101D10000E943F1388E061E00E943F1387E061E08A
:101D20000E943F1382E060E00E943F1382E061E086
:101D30000E947E1384E061E00E943F1380E060E037
:101D40000E943F1381E061E00E943F1380E061E068
:101D50000E947E1381E061E00E947E138CE061E0CE
:101D60000E943F138DE061E00E943F138BE060E032
:101D70000E943F138BE061E00E947E1383E060E0ED
:101D80000E943F1383E061E00E947E1386E294E0AC
:101D900040E056E960E070E00E94AF1481E080937B
:101DA00071011092E80183E0809380008AE18093C2
:101DB00081008FEF9FEF90938900809388001092AD
:101DC0006F0088E080936D00E8E6F0E08081846039
:101DD0008083E898789408951F93182F8091C2010A
:101DE0008130C1F0813018F08230D1F52FC08BE006
:101DF0000E94D213892BA1F581E08093C2010E9439
:101E00006D126093C3017093C4018093C5019093D8
:101E1000C60126C08BE00E94D213892BE1F40E94F8
:101E20006D122091C3013091C4014091C5015091C0
:101E3000C601621B730B840B950B655F714080407C
:101E4000904070F082E08093C2010AC08BE00E9453
:101E5000D213892B19F01092C20102C011112D9AD0
:101E60001F910895BF92CF92DF92EF92FF920F934E
:101E70001F93CF93DF93882351F50E946D127B014E
:101E80008C0187E893E1A0E0B0E0E80EF91E0A1F9C
:101E90001B1F2D98A89580E00E94EC0E0E946D12E9
:101EA000E616F7060807190708F42D9A8091C20173
:101EB000882381F70E946D126E157F0580079107B8
:101EC00008F4C8C00E940A0E882351F01DC08F3F3D
:101ED00021F0EE24FF24870116C0EE24FF248701A1
:101EE00081E08093790110927C0110927B01109225
:101EF0007A0110927D0110927E0182E080937F0131
:101F000087E0809380012D9AF7ECBF2EEDE1CE2E75
:101F1000809178018A5A8D3310F0B09278010E9436
:101F20008D080E94DD050E94930582EA91E060E041
:101F30000E948C0B80E090E0FC01E651FE4F108285
:101F400001968F3F9105C1F7DD24A895C0E0D0E050
:101F500089E76C2F0E94D50387EE93E00E94FA1266
:101F600086E20E94CF03982F969596959695983085
:101F700008F098E0FE01E651FE4F8081890F8083D2
:101F80002196C83ED10521F7D3949FE1D916E9F6F1
:101F90002D98C092810187EB91E060E00E948C0B4C
:101FA00080E00E94CA098093820184E00E94CA09ED
:101FB0008093830181E00E94CA098093840185E0B7
:101FC0000E94CA098093850182E00E94CA09809319
:101FD000860186E00E94CA098093870183E00E94FF
:101FE000CA098093880187E00E94CA098093890109
:101FF00086E294E00E946F16E2E8F1E08081893E7B
:1020000050F086EC91E061E00E948C0B85E090E05E
:102010000E94DE107DCF3196A1E0EA38FA0771F711
:102020000E946D126E197F09800B910B162F66238B
:1020300009F411E088ED91E060E00E948C0B86E2EB
:1020400094E0612F4AE050E00E944117109377011D
:102050000E94380DDF91CF911F910F91FF90EF906B
:10206000DF90CF90BF900895CF92DF92EF92FF92D2
:102070000F931F93DF93CF93CDB7DEB728970FB69B
:10208000F894DEBF0FBECDBF0E94DD0588EE90E064
:1020900061E00E948C0B8E010F5F1F4FC8010E94F0
:1020A000A10C8981813709F47AC0813509F477C0A0
:1020B00068010E94880D84E091E061E00E948C0B31
:1020C000C6010E94A10C89818E3611F08E3421F454
:1020D000C6010E94A50BF4CF823701F58A818536AF
:1020E000E9F48B818236D1F48C818936B9F48D8103
:1020F0008E36A1F48E81843689F480E891E060E028
:102100000E948C0BC6010E94A10C8981893711F0B5
:10211000893521F481E00E94320FCBCF898181374C
:10212000F1F18135E1F1C6010E9468027C018BE288
:10213000E816F10408F0BDCFC6010E94A10C898108
:10214000813769F1813559F1C6010E9468028C011D
:102150008F3F910511F008F0ACCFE114F10419F4B0
:10216000009709F4A6CF86E294E0B7014AE050E078
:102170000E949F1786E294E06DE30E94A01586E21C
:1021800094E0B8014AE050E00E94B217C701602F06
:102190000E94120D0E940A0E0E94380D8ACF2896C6
:1021A0000FB6F894DEBF0FBECDBFCF91DF911F9168
:1021B0000F91FF90EF90DF90CF9008950F931F93B2
:1021C000CF93DF938C01C0E0D0E016C0A8958AEFD2
:1021D00090E00E94BF052D9A8AEF90E00E94BF0513
:1021E0002D980333110538F00E94ED0C882319F067
:1021F0000E94341004C02196C017D10738F3DF9134
:10220000CF911F910F9108951F930E944C0E182F8C
:102210008F3F51F488E690E061E00E948C0B8FE5DF
:102220009AEE0E94DE100DC00E940A0E882349F427
:10223000113021F48FEF0E94320F03C083E890E049
:10224000EBCF1F910895EF92FF920F931F930E947F
:10225000D00D2EE088E190E00FB6F894A895809319
:1022600060000FBE209360002C9A63E670E080E06F
:1022700090E00E94A112EBECF1E01192119221E0AA
:10228000E33EF207D1F72C9880E00E94320F0E94C3
:1022900004110E948D080E9493058FEF8093E7013F
:1022A00086E294E00E946F160E94E00910E00E940E
:1022B00004068091BD01893D0CF4A7C08CE00E940A
:1022C000CF03882309F4A1C00E9493051092C10195
:1022D0001092C00110927C0310927B030E947B122B
:1022E0006093C7017093C8018093C9019093CA019C
:1022F0008CE00E94E003A8950E94ED0C882361F019
:102300000E9434100E947B126093C7017093C80131
:102310008093C9019093CA018CE00E94CF03882367
:10232000C1F486E294E065E671E00E94D4172D9A2C
:1023300089EF90E00E94BF050E948D080E949305DE
:102340001092C1011092C00110927C0310927B0385
:10235000CFCF8CE00E94E0030E947B127B018C01B6
:102360000E946403982F8823C1F18091E701873090
:10237000A0F581E00E94EC0E8091C7019091C80108
:10238000D701A81BB90BCD01B1E787349B0708F42F
:10239000AFCF885E904880F084EF94E8AFEFBFEF56
:1023A000E80EF91E0A1F1B1FE092C701F092C80138
:1023B0000093C9011093CA010E945D050E94350671
:1023C000882309F4B9CF0E9404068091E7018F5F4A
:1023D0008093E7010E94E0098BCF8091E7018F3F56
:1023E00059F0863018F4992309F082CF80918B033D
:1023F000882311F40E94DD050E9404060E94E00972
:1024000083E690E00E94BF0573CF0E948D0863E6CB
:1024100070E080E090E00E94A1121F5F103209F08E
:1024200046CF52CFF999FECF72BD61BDF89A80B503
:102430000895F999FECF1FBA72BD61BD40BD0FB6B8
:10244000F894FA9AF99A0FBE08951F920F920FB658
:102450000F9211242F933F938F939F93AF93BF932A
:102460008091990390919A03A0919B03B0919C0352
:1024700030919D030196A11DB11D232F2D5F2D3796
:1024800020F02D570196A11DB11D20939D0380932F
:10249000990390939A03A0939B03B0939C0380911C
:1024A000950390919603A0919703B091980301969C
:1024B000A11DB11D8093950390939603A09397035C
:1024C000B0939803BF91AF919F918F913F912F91BE
:1024D0000F900FBE0F901F9018958FB7F894209112
:1024E000990330919A0340919B0350919C038FBFB5
:1024F000B901CA0108959FB7F894209195033091CE
:102500009603409197035091980386B5A89B06C007
:102510008F3F21F02F5F3F4F4F4F5F4F9FBF542F93
:10252000432F322F2227280F311D411D511D82E0DC
:10253000220F331F441F551F8A95D1F7B901CA01D5
:1025400008959B01AC017FB7F89480919503909119
:102550009603A0919703B091980366B5A89B05C018
:102560006F3F19F00196A11DB11D7FBFBA2FA92F92
:10257000982F8827860F911DA11DB11D62E0880F3D
:10258000991FAA1FBB1F6A95D1F7BC012DC0FFB7C9
:10259000F8948091950390919603A0919703B09140
:1025A0009803E6B5A89B05C0EF3F19F00196A11D61
:1025B000B11DFFBFBA2FA92F982F88278E0F911D0D
:1025C000A11DB11DE2E0880F991FAA1FBB1FEA954C
:1025D000D1F7861B970B885E9340C8F2215030409C
:1025E0004040504068517C4F21153105410551054F
:1025F00071F60895019739F0880F991F880F991F78
:1026000002970197F1F70895789484B5826084BDAC
:1026100084B5816084BD85B5826085BD85B58160E6
:1026200085BDEEE6F0E0808181608083E1E8F0E046
:102630001082808182608083808181608083E0E875
:10264000F0E0808181608083E1EBF0E08081846054
:102650008083E0EBF0E0808181608083EAE7F0E056
:1026600080818460808380818260808380818160BA
:1026700080838081806880831092C1000895CF9309
:10268000DF93482F50E0CA018E5A9B4FFC013491D2
:10269000425C5B4FFA018491882369F190E0880FD6
:1026A000991FFC01E05EFB4FA591B491FC01E65D32
:1026B000FB4FC591D491662351F42FB7F8948C91B8
:1026C000932F909589238C93888189230BC0623046
:1026D00061F42FB7F8948C91932F909589238C9364
:1026E0008881832B88832FBF06C09FB7F8948C9175
:1026F000832B8C939FBFDF91CF910895482F50E09B
:10270000CA018A599B4FFC012491CA018E5A9B4FE2
:10271000FC019491425C5B4FFA013491332309F43C
:1027200040C0222351F1233071F0243028F42130AD
:10273000A1F0223011F514C02630B1F02730C1F0DD
:102740002430D9F404C0809180008F7703C0809139
:1027500080008F7D8093800010C084B58F7702C089
:1027600084B58F7D84BD09C08091B0008F7703C090
:102770008091B0008F7D8093B000E32FF0E0EE0FEA
:10278000FF1FE65DFB4FA591B4912FB7F894662328
:1027900021F48C919095892302C08C91892B8C9384
:1027A0002FBF0895682F70E0CB018A599B4FFC0121
:1027B0002491CB018E5A9B4FFC014491625C7B4F6C
:1027C000FB019491992319F420E030E03CC02223CE
:1027D00051F1233071F0243028F42130A1F022305F
:1027E00011F514C02630B1F02730C1F02430D9F4EF
:1027F00004C0809180008F7703C0809180008F7D1E
:102800008093800010C084B58F7702C084B58F7D1F
:1028100084BD09C08091B0008F7703C08091B00063
:102820008F7D8093B000892F90E0880F991F8C5C7A
:102830009B4FFC01A591B4918C9120E030E0842362
:1028400011F021E030E0C901089508951F920F9220
:102850000FB60F9211242F933F934F938F939F9313
:10286000EF93FF938091C00082FD1DC04091C60090
:102870002091DE033091DF032F5F3F4F2F733070C5
:102880008091E0039091E1032817390771F0E091FE
:10289000DE03F091DF03E256FC4F40833093DF0309
:1028A0002093DE0302C08091C600FF91EF919F91BB
:1028B0008F914F913F912F910F900FBE0F901F90CE
:1028C0001895E0913204F0913304E05CFF4F819160
:1028D000919120813181821B930B8F739070892B92
:1028E00011F00E94251408951F920F920FB60F92B7
:1028F00011242F933F938F939F93EF93FF932091F6
:1029000022043091230480912404909125042817F7
:10291000390731F48091C1008F7D8093C10014C0CC
:10292000E0912404F0912504EE51FC4F2081809128
:1029300024049091250401968F7390709093250440
:10294000809324042093C600FF91EF919F918F9173
:102950003F912F910F900FBE0F901F901895AF923F
:10296000BF92DF92EF92FF920F931F93CF93DF936B
:10297000EC017A018B01DD24403081EE580780E0C4
:10298000680780E0780711F0DD24D39491E0A92E48
:10299000B12CEC89FD89DD2069F0C50108A002C0D9
:1029A000880F991F0A94E2F7808360E079E08DE355
:1029B00090E005C0108260E874E88EE190E0A80124
:1029C00097010E942D1821503040404050405695AC
:1029D00047953795279580E12030380720F0DD2096
:1029E00011F0DD24D6CFE889F9893083EA89FB89A3
:1029F000208319A2EE89FF89408121E030E0C901DE
:102A00000C8C02C0880F991F0A94E2F7482B408370
:102A1000EE89FF894081C9010D8C02C0880F991F82
:102A20000A94E2F7482B4083EE89FF894081C9016F
:102A30000E8C02C0880F991F0A94E2F7482B40833E
:102A4000EE89FF8980810F8C02C0220F331F0A9408
:102A5000E2F7209528232083DF91CF911F910F91DA
:102A6000FF90EF90DF90BF90AF900895DC011C962F
:102A7000ED91FC911D97E05CFF4F21913191808198
:102A80009181281B390B2F733070C9010895DC0127
:102A90001C96ED91FC911D97E05CFF4F20813181E8
:102AA000E054F040DF01AE5BBF4F8D919C911197D8
:102AB0002817390719F42FEF3FEF07C08D919C912C
:102AC000E80FF91F8081282F30E0C9010895DC014B
:102AD0001C96ED91FC911D97E05CFF4F20813181A8
:102AE000E054F040DF01AE5BBF4F8D919C91119798
:102AF0002817390719F42FEF3FEF10C08D919C91E3
:102B00001197E80FF91F20818D919C9111970196E3
:102B10008F73907011969C938E9330E0C901089545
:102B2000DC0191968C919197882339F05496ED9120
:102B3000FC915597808186FFF9CF91961C9208955C
:102B4000CF93DF93EC01EE85FF85E05CFF4F2081A2
:102B50003181E054F0402F5F3F4F2F733070DF0121
:102B6000AE5BBF4F8D919C91119728173907D1F318
:102B7000E05CFF4F80819181E054F040E80FF91F45
:102B80006083EE85FF85E05CFF4F31832083EE8913
:102B9000FF89208181E090E00F8C02C0880F991F8F
:102BA0000A94E2F7282B208381E089A3EC89FD8930
:102BB00080818064808381E090E0DF91CF910895EF
:102BC000109229041092280488EE93E0A0E0B0E06F
:102BD00080932A0490932B04A0932C04B0932D048B
:102BE00080EA91E090932704809326048EE993E095
:102BF000909333048093320482EE93E090933504F3
:102C00008093340485EC90E09093370480933604ED
:102C100084EC90E0909339048093380480EC90E049
:102C200090933B0480933A0481EC90E090933D04B0
:102C300080933C0482EC90E090933F0480933E04A8
:102C400086EC90E0909341048093400484E080936C
:102C5000420483E08093430487E08093440485E04A
:102C60008093450481E0809346040895CF93DF93D9
:102C70000E9404130E94860EC1E6D4E10E94231133
:102C80002097E1F30E946114F9CFCF92DF92EF9287
:102C9000FF920F931F93CF93DF937C016B018A0107
:102CA000C0E0D0E00FC0D6016D916D01D701ED916C
:102CB000FC910190F081E02DC7010995C80FD91F43
:102CC000015010400115110571F7CE01DF91CF9130
:102CD0001F910F91FF90EF90DF90CF900895EF92AA
:102CE000FF920F931F938C01DC01ED91FC910190F9
:102CF000F081E02D6DE009957C01D801ED91FC910A
:102D00000190F081E02DC8016AE009959C012E0D2B
:102D10003F1DC9011F910F91FF90EF900895CF9330
:102D2000DF93EC016115710519F420E030E00FC06C
:102D3000DB010D900020E9F71197A61BB70BE88186
:102D4000F9810280F381E02DAD0109959C01C90153
:102D5000DF91CF9108954F925F927F928F929F92D1
:102D6000AF92BF92CF92DF92EF92FF920F931F9399
:102D7000DF93CF93CDB7DEB7A1970FB6F894DEBF40
:102D80000FBECDBF2C01742ECB01223008F42AE0F7
:102D900019A231E2C32ED12CCC0EDD1E822E992435
:102DA000AA24BB24672D752FA50194010E942D181C
:102DB00079018A01C801B701A50194010E94E717B2
:102DC000472D461B0894C108D1084A3014F4405DD1
:102DD00001C0495CF6014083E114F10401051105CD
:102DE00021F07E2C5F2DC801DDCFC201B6010E940B
:102DF0008F16A1960FB6F894DEBF0FBECDBFCF9150
:102E0000DF911F910F91FF90EF90DF90CF90BF90D7
:102E1000AF909F908F907F905F904F900895DC01CE
:102E20002115310541F4ED91FC910190F081E02DE7
:102E3000642F099508950E94AB160895EF92FF92B2
:102E40000F931F939A017B0100E010E0B801A701E6
:102E50000E940F171F910F91FF90EF900895EF922E
:102E6000FF920F931F939A01E62EFF2400E010E0DB
:102E7000B801A7010E940F171F910F91FF90EF90CB
:102E80000895CF92DF92EF92FF920F931F936C0100
:102E9000E62E9A01FF2400E010E0B801A7010E948D
:102EA0000F178C01C6010E946F16080F191FC80169
:102EB0001F910F91FF90EF90DF90CF900895CF92E8
:102EC000DF92EF92FF920F931F93CF93DF93EC016A
:102ED0006A017B012115310541F4E881F9810190F6
:102EE000F081E02D642F09951FC02A303105D1F4FF
:102EF00077FF17C0E881F9810190F081E02D6DE244
:102F000009958C0144275527BA014C195D096E09B2
:102F10007F09CE012AE00E94AB169801280F391FC5
:102F200004C02AE00E94AB169C01C901DF91CF9139
:102F30001F910F91FF90EF90DF90CF900895EF9247
:102F4000FF920F931F937B019A010027F7FC0095D6
:102F5000102FB801A7010E945F171F910F91FF90DA
:102F6000EF900895CF92DF92EF92FF920F931F930D
:102F70006C017B019A010027F7FC0095102FB80126
:102F8000A7010E945F178C01C6010E946F16080FEF
:102F9000191FC8011F910F91FF90EF90DF90CF9004
:102FA00008950E948F160895EF92FF920F931F933A
:102FB0007C010E948F168C01C7010E946F16080FBA
:102FC000191FC8011F910F91FF90EF900895629F04
:102FD000D001739FF001829FE00DF11D649FE00D11
:102FE000F11D929FF00D839FF00D749FF00D659F72
:102FF000F00D9927729FB00DE11DF91F639FB00D71
:10300000E11DF91FBD01CF0111240895AA1BBB1BAF
:1030100051E107C0AA1FBB1FA617B70710F0A61BD8
:10302000B70B881F991F5A95A9F780959095BC01F9
:10303000CD01089597FB092E07260AD077FD04D00D
:10304000E5DF06D000201AF4709561957F4F089552
:10305000F6F7909581959F4F0895A1E21A2EAA1B2D
:10306000BB1BFD010DC0AA1FBB1FEE1FFF1FA21738
:10307000B307E407F50720F0A21BB30BE40BF50B35
:10308000661F771F881F991F1A9469F760957095BE
:10309000809590959B01AC01BD01CF010895EE0F85
:0E30A000FF1F0590F491E02D0994F894FFCFE6
:1030AE0054696D656F7574002020002F0053746F86
:1030BE00703A0057616974696E6720737461727437
:1030CE003A00496E707574206C6F73743A005342F7
:1030DE0055530046757437353075200050504D00ED
:1030EE00206D6F64653A0020543D002054633D000E
:1030FE00204D3D0020413D0020423D0020453D0039
:10310E00202020200052464D206C6F636B0005017D
:10311E000C01EA01EA016348CC010000000800023C
:10312E00071D4D9359A76DBD7FD1010203040506FE
:10313E000B0C0D0E0F1011121314151600000000BB
:0C314E00A015451636156715471590159D
:00000001FF
