:100000000C946A020C94EB020C9492020C949202EF
:100010000C9492020C9492020C9492020C94920210
:100020000C9492020C9492020C94BA020C949202D8
:100030000C9492020C9492020C9492020C949202F0
:100040000C944C140C9492020C944D160C949B1628
:100050000C9492020C9492020C9492020C949202D0
:100060000C9492020C949202464C41534820455203
:10007000524F522121212043616E277420776F72E5
:100080006B21004572726F72207265616420736526
:100090007474696E677321000D0A4261796368693F
:1000A00020736F66742032303133005458204F7003
:1000B000656E204578706572742056322046005077
:1000C0007265737320276D2720746F2073746172BB
:1000D00074204D454E550046486E3A204D696E20BD
:1000E000417672204D6178000A0D546F20456E7480
:1000F0006572204D454E5520507265737320454EF4
:1001000054455200547970652052656720616E64D1
:1001100020707265737320454E5445522C207479BB
:1001200070652056616C756520616E642070726523
:10013000737320454E5445522028713D51756974A2
:100140003B204E782D793D53686F77206E6F697331
:100150006529000D0A52673D56616C2009436F6D99
:100160006D656E7473202D2D2D2D2D2D2D2D2D2D86
:100170002D2D2D2D2D2D2D2D2D2D2D2D2D004D6188
:100180006B65206E65772062696E643F2041726501
:1001900020796F75207375726528792F6E293F005D
:1001A0000D0A54727920746F206E65772062696E33
:1001B000642E2E2E000A0D467265712F6E6F6973C4
:1001C000653A20004572726F723A20746F6F206E2C
:1001D0006F697365210042696E64204E3D00547260
:1001E000616E736D6974696E673A20463D34002014
:1001F0004D487A2C20506F77657228302D37293D75
:10020000002046636F7272283C3E293D20002E205C
:1002100050726573732045534320746F2073746F5D
:10022000702E2E2E000102030405060B0C0D0E0F7E
:100230001011121314151642696E64204E0000004E
:1002400000000000000000000000000000000000AE
:10025000000000000000004672657120636F72723A
:10026000656374696F6E20636F6E737400000000C5
:10027000000000000000005465726D20636F727210
:100280002E28303D6E6F2C20313D2B2C2032353501
:100290003D2D2900000000465320636865636B20F4
:1002A000656E61626C6500000000000000000000E7
:1002B0000000000000000031316269742F313063AA
:1002C0006828313D7965732C322F333D4675746152
:1002D000626129000000004465627567206F7574D3
:1002E0002028312D50504D2C20322D706572662EF5
:1002F00029000000000000486F7020463100000017
:1003000000000000000000000000000000000000ED
:1003100000000000000000486F702046320000001E
:1003200000000000000000000000000000000000CD
:1003300000000000000000486F70204633000000FD
:1003400000000000000000000000000000000000AD
:1003500000000000000000486F70204634000000DC
:10036000000000000000000000000000000000008D
:1003700000000000000000486F70204635000000BB
:10038000000000000000000000000000000000006D
:1003900000000000000000486F702046360000009A
:1003A000000000000000000000000000000000004D
:1003B00000000000000000486F7020463700000079
:1003C000000000000000000000000000000000002D
:1003D00000000000000000486F7020463800000058
:1003E000000000000000000000000000000000000D
:1003F00000000000000000506F776572207377697D
:10040000746368206368616E2028312D31332C308D
:100410003D535729000000506F776572206D696E5B
:100420002028302D372900000000000000000000C7
:1004300000000000000000506F776572206D696455
:10044000646C652028302D37290000000000000072
:1004500000000000000000506F776572206D617829
:100460002028302D37290000000000000000000087
:100470000000000000000000000000240027002A07
:100480000000000000250028002B000000000023D1
:1004900000260029000404040404040404020202E7
:1004A00002020203030303030301020408102040B5
:1004B000800102040810200102040810200000003E
:1004C0000700020100000304060000000000000015
:1004D0000000071811241FBECFEFD4E0DEBFCDBF50
:1004E00011E0A0E0B1E0ECEFF4E302C005900D9262
:1004F000A639B107D9F714E0A6E9B1E001C01D9211
:10050000AB33B107E1F714E0C4EDD4E004C02297A7
:10051000FE010E94781AC23DD107C9F70E945D18FA
:100520000C947C1A0C940000FC0188279927E8940D
:1005300021912032E9F3293010F02E30C8F32B320C
:1005400041F02D3239F4689404C00E94B202820F47
:10055000911D219120532A30C0F31EF4909581956E
:100560009F4F08957AE0979F902D879F802D910D42
:10057000112408951F920F920FB60F9211248F939A
:100580009F93EF93FF938091860090918700E09175
:100590006E01F0916F01918380833296809181008A
:1005A00090914503892780938100F0936F01E09338
:1005B0006E01E254F34030F082ED91E090936F01D0
:1005C00080936E01FF91EF919F918F910F900FBEDD
:1005D0000F901F9018951F920F920FB60F92112433
:1005E0000F900FBE0F901F901895EF92FF920F93F0
:1005F0001F9390918603993108F45DC08091420366
:10060000882309F058C0809146038F3009F053C009
:1006100080915E03882309F04EC0E0907701A5EB3E
:10062000B1E0FF24F39401E03DC0660F771FEF2D8A
:10063000F0E0EA5BFC4F808190E0202F30E08223E5
:100640009323892B11F0462B572B003819F4F39480
:1006500001E001C0000F1F5F1B3039F722E0E216F6
:10066000D9F0CA01880F991F880F991F840F951F11
:100670009695879596958795883D910518F440E065
:1006800050E00AC028E0883D920718F04FEF57E08D
:1006900003C0AC01485D50404D935D9381E0AF3C99
:1006A000B80731F010E040E050E061E070E0BFCF0B
:1006B0001092CF010BC0992349F080914303909190
:1006C00044030196909344038093430310924203A2
:1006D0001092840310928603109281031092820379
:1006E000109285031F910F91FF90EF900895209134
:1006F000A70180917103821B71F1992787FD909565
:1007000097FF03C0909581959F4F02978CF460915D
:1007100074038091720390917303332727FD309502
:10072000633670F070E00E94411A6217730799F007
:1007300010927303109272031092740381E0089573
:10074000820F931F90937303809372036F5F609384
:10075000740380E0089580E00895809176018823F5
:10076000B9F181E0809378038091D1018F3F41F00E
:1007700060916F0350917701E5EBF1E040E026C016
:1007800080915D0383FF24C027C0208131812F5FCA
:100790003F4F523079F4C901880F991F880F991F74
:1007A000820F931FB3E096958795BA95E1F780592C
:1007B0009C4F05C0C9019695879584529C4F3296EF
:1007C000885E9340885E934038F44F5F4617E8F2A6
:1007D0001092780381E0089580E008952A9A2D9878
:1007E00000002A9898E010C087FF07C02D980000ED
:1007F0002B9A00002D9A000006C02D9800002B981F
:1008000000002D9A0000880F915070F72D980895E0
:100810008F770E94EE0308952D98000098E010C095
:1008200087FF07C02D9800002B9A00002D9A00002A
:1008300006C02D9800002B9800002D9A0000880F0C
:10084000915070F72D9808952D98000090E080E069
:10085000880F2D9A00001C9981602D9800009F5FE1
:100860009830B1F708950E9408040E9424042A9A3F
:1008700008951F93162F80680E94EE03812F0E9417
:100880000C042A9A1F91089550917D038517A8F1B1
:100890008091770190917E03833099F4EAE0F0E053
:1008A000E91BF109EE0FFF1FEB54FE4F2081318150
:1008B0009F5F90937E0380917C0390917B0340E047
:1008C00005C0E92FF0E0EECF3695279520FD982B57
:1008D000803849F45F5FE52FF0E0EA56FE4F9083E1
:1008E00081E090E001C0880F4F5F4B3069F7809343
:1008F0007C0390937B0350937D03089587E060E829
:100900000E94390461E070E080E090E00E94C81429
:1009100083E00E9433048093790384E00E943304CF
:1009200080937A0386E060E00E94390487E061E00A
:100930000E94390460917401662311F089E002C0BD
:1009400089E067EC0E9439048AE065E00E9439047E
:100950008BE062E10E9439048CE065E10E94390479
:100960008EE060E00E9439048FE163E00E94390468
:100970008EE16AE00E94390482E160E60E94390457
:1009800083E168EF0E9439048FE060E80E94390437
:100990008DE160E40E9439048CE166E20E94390432
:1009A00080E264E40E94390481E260E00E9439043C
:1009B00082E262EF0E94390483E26CE70E9439040C
:1009C00084E266E00E94390485E26DE70E94390402
:1009D0008AE26FE00E94390480E36CEA0E943904E5
:1009E00082E36CE80E94390483E36AE00E943904E0
:1009F00084E364E00E94390485E362E20E943904E2
:100A000086E36DE20E94390487E364ED0E943904B5
:100A100088E360E00E94390489E360E00E943904C1
:100A20008EE360E10E9439048DE66FE00E94390494
:100A30008EE66CE30E9439048FE66FE90E94390468
:100A400089E660E60E94390480E76EE20E9439047C
:100A500089E760E00E9439048AE766E00E94390471
:100A600081E760E00E94390481E763E20E94390473
:100A700082E76EE00E94390485E763E50E9439044D
:100A800086E76CE40E94390487E760EE0E9439042F
:100A9000089589E194E00E945D171816190614F074
:100AA00020E01AC089E194E00E948E1783369105F8
:100AB00019F08334910541F41092AB011092AA0110
:100AC00010926803109267038D36910521F020E0A3
:100AD0008D34910509F421E0822F08954F925F92A1
:100AE0006F927F928F929F92AF92BF92CF92DF923E
:100AF000EF92FF920F931F93CF93DF93E82EF8941A
:100B0000C0906E01D0906F0178948091780181FF40
:100B100056C00E94A2148B019C0180915F039091AA
:100B20006003A801481B590B8091AA019091AB0169
:100B30008417950720F45093AB014093AA010093CA
:100B40005F031093600320936103309362038091ED
:100B50006303909164039C01E5E036952795EA953F
:100B6000E1F7821B930B840F951F9093640380938E
:100B7000630380917001909171019601281B390BDC
:100B8000C901959587959093660380936503883B8B
:100B9000910530F088549F4F9093660380936503CE
:100BA00020916503309166038091670390916803FB
:100BB0008217930720F430936803209367037090A3
:100BC000770180917F0390918003F090830300E090
:100BD00010E0AE2CBB2462ED862E61E0962EEE2452
:100BE000E3945CE0652E55245A9440E4442EF5C00D
:100BF000C191D191F0937101E0937001E254F340FF
:100C000020F090927101809270019E01281B390B97
:100C1000C9013091D1013F3F09F477C02091D00143
:100C2000222341F1223398F01092D00180914203A7
:100C30008A3028F05092D10140924503CBC03B301E
:100C400018F0E092D101C6C01092D101C3C0813F1B
:100C5000910530F4809142038F5F8093420306C078
:100C60008054964018F43F5F3093D1012F5F20935A
:100C7000D001B0C0332311F0880F991F23E18838C9
:100C8000920728F010926D011092CF01A3C035E0B9
:100C90008C3D9307B8F1E0916D01EC3098F5EF5F72
:100CA000E0936D01E15042E07416A1F426E0803E2D
:100CB0009207D8F030E1803E9307D0F4805E9640F2
:100CC000880F991F880F991F65E070E00E942D1A08
:100CD000CB0110C047E0883B940738F02FE0883BF9
:100CE000920730F4885B974005C080E090E002C036
:100CF0008FEF97E0F0E0EE0FFF1FEB54FE4F918374
:100D0000808368C060926D0165C00A9664E170E0FE
:100D10000E942D1A6B3018F00E94F5025BC0809182
:100D20008103882361F46150E09281038091420342
:100D300090918203890F80934203FF24F394509192
:100D4000820380918103909184034091420330910A
:100D50008503209186032CC0552311F09F5F3F2906
:100D6000FF0C8F5F8C3029F08A3008F1283108F4AD
:100D700056C0E22FF0E0EA5BFC4F30839170490FE0
:100D80002F5F293120F480E090E030E010C0109215
:100D900081031092840340934203109285032093B1
:100DA00086030E94F50210C0552309F44F5F61507D
:100DB000662391F6809381039093840340934203CA
:100DC0003093850320938603809182033E2D381B48
:100DD000309382030F5F1F4FCE01E0917001F091BD
:100DE0007101EC15FD0521F00A151B0508F400CF73
:100DF0009093800380937F03F0928303DF91CF91E0
:100E00001F910F91FF90EF90DF90CF90BF90AF9028
:100E10009F908F907F906F905F904F9008958B3050
:100E200019F2C5CF60917401662369F08091750154
:100E3000882319F08091A801680F89E00E94390485
:100E40008CE00E946E058091A6018F5F8093A601C1
:100E5000883010F01092A601E091A601F0E0E2586F
:100E6000FE4F89E760810E943904089583E00E9463
:100E700033048093790384E00E94330480937A03DF
:100E80008CE00E946E0587E061E00E9439040895BD
:100E90001F93182F0E943607183018F1E09179013E
:100EA0008E2F81508D3078F4F0E0EE0FFF1FED545F
:100EB000FE4F8081918122E08A3A920740F084556A
:100EC000954050F00CC0EE2351F4329903C01091BC
:100ED0007A0107C0339B03C010917B0102C01091BF
:100EE0007C011770612F685F8DE60E943904812FA5
:100EF0001F91089587E061E00E9439048EE764E263
:100F00000E9439048CE00E946E0588E063E00E9434
:100F1000390488E060E00E9439048CE00E946E058C
:100F200087E065E00E94390485E062E00E943904B0
:100F30008CE00E946E0583E00E9433048093790365
:100F400084E00E94330480937A030895EF92FF9225
:100F50000F931F938C010E949414780100E010E01D
:100F6000E60EF71E081F191F03C08CE00E946E05D5
:100F70000E9494146E157F0580079107B0F31F91AE
:100F80000F91FF90EF9008950E94360782E390E062
:100F90000E94A6070E947A0708956F927F928F920F
:100FA0009F92AF92BF92CF92DF92EF92FF920F93F8
:100FB0001F93CF93DF930E94A2144B015C01109208
:100FC0007B0381E080937C0310927D0310927E036B
:100FD000DD24D3940FE1602E04E0702E1CE8C12EB6
:100FE00043C00E94A214681979098A099B09E61670
:100FF000F7060807190708F047C02FE0D216D9F402
:10100000E7E9F1E090E08081982740E0892F90E0C7
:101010009C013595279580FF03C09C2D922701C028
:10102000922F4F5F483091F7319681E0E53AF8070B
:1010300051F7908312C08D2D0E9444042EE0D216E9
:1010400061F49091A4019F739093A4018091AC01ED
:10105000823019F490689093A401CA56DE4F8FE74E
:1010600068810E943904D394CD2DD0E0C69DC00183
:10107000C79D900DD69D900D1124825C974F7C01E9
:101080000027F7FC0095102F4F9B12C00E94A2145E
:10109000681979098A099B096F5F7C4780409040F5
:1010A00038F48CE00E946E058FE08D1568F399CFBF
:1010B000DF91CF911F910F91FF90EF90DF90CF9034
:1010C000BF90AF909F908F907F906F9008952F92D8
:1010D0003F924F925F926F927F928F929F92AF92C8
:1010E000BF92CF92DF92EF92FF920F931F93CF9315
:1010F000DF930E94A2144B015C01DD24D3947FE1B5
:10110000272E74E0372E6CE8C62E51E0652E712C28
:1011100042E0442E512C0CC10E94A2146819790996
:101120008A099B09E616F7060807190708F010C197
:1011300021E0D21609F04AC0A5EBB1E0E8E9F1E000
:1011400060E010E000E040E050E0742F2D913C9111
:10115000119784E02030380740F0C301042E02C00C
:10116000880F991F0A94E2F7682BC9019695879515
:10117000969587958083473099F021FF08C0C2017A
:10118000072E02C0880F991F0A94E2F7182B20FF40
:1011900007C0C30102C0880F991F7A95E2F7082B98
:1011A0004F5F5F4F129631964830510571F660934C
:1011B00097018FE70E9439041093A5018091770170
:1011C000882309F4B4C00093A301B1C02DE02D150C
:1011D00008F486C0CE010297FC01EE0FFF1FEB540E
:1011E000FE4F4081518129E02D1508F447C093013D
:1011F00002C0220F331F8A95E2F7622F84E040304D
:10120000580710F0E22F01C0E0E0862F90E0209117
:10121000970130E0822393232E2F30E0821793072B
:1012200009F059C0FE01EA56FE4FCA01969587950E
:1012300096958795808380917701882369F040FF98
:1012400004C08091A301862B05C0862F80959091C4
:10125000A30189238093A30129E0D216E1F1962FFF
:10126000990F41FF04C08091A501982B04C090956F
:101270008091A50198239093A5012DC080917701BD
:10128000882321F08D2D8C50823050F0FE01EA56DB
:10129000FE4F33E0569547953A95E1F740831BC0E2
:1012A0008CE0D816C1F4FE01EE0FFF1FED54FE4F87
:1012B00090819770990F990F990F842F8770982BB1
:1012C000FE01EA56FE4F8091C30182708295880F1D
:1012D000807E982B9083CA56DE4F8FE7688125C0A9
:1012E0002EE0D216C1F4E8E9F1E060E080816827E1
:1012F00020E0862F90E0BC017595679580FD6C25F8
:101300002F5F2830B1F7319681E0E43AF80771F7A2
:1013100060838FE70AC08091AC01823019F421E02C
:101320002093A5018FE76091A5010E943904D39411
:10133000CD2DD0E0C29DC001C39D900DD29D900DDA
:101340001124825C974F7C010027F7FC0095102F39
:101350004F9B12C00E94A214681979098A099B093F
:101360006F5F7C478040904038F48CE00E946E05AF
:101370008FE08D1568F3D0CEDF91CF911F910F9143
:10138000FF90EF90DF90CF90BF90AF909F908F90A5
:101390007F906F905F904F903F902F900895EF92C5
:1013A000FF920F931F938C010E94A214780100E01A
:1013B00010E0E60EF71E081F191F03C08CE00E9404
:1013C0006E050E94A2146E157F0580079107B0F389
:1013D0001F910F91FF90EF9008958FE060E80E94B9
:1013E00039048DE491E00E94CF0981E10E94330429
:1013F000282F20542093A70189518C3770F433276C
:1014000027FD309589E190E0821B930B6AE070E044
:101410000E94411A6093A80102C01092A801809115
:1014200075018F3F29F48091A80181958093A801CF
:101430008CE00E946E0508958FEF0E94480740914E
:10144000A9014F5F4093A90150E028E030E0281B3C
:101450003109C901880F991F820F931F84179507BF
:101460001CF41092A9015E9A88E063E00E9439049E
:1014700088E060E00E9439046091730160939601F6
:101480008FE70E94390485E064E00E94390483E01C
:101490000E9433048093790384E00E943304809394
:1014A0007A0303C081E00E946E050E94A21420917D
:1014B000B1013091B2014091B3015091B401621B6E
:1014C000730B840B950B66577A478040904050F31E
:1014D00087E069E00E9439048091B1019091B201E6
:1014E000A091B301B091B401845F9448AF4FBF4F56
:1014F0008093B1019093B201A093B301B093B40172
:1015000080917701823018F00E94CD0702C00E94BE
:1015100067084F9B08C089E194E060E071E00E9499
:10152000FB1980E008955E980E94360781E00895D7
:101530001F93182F843660F489E194E060E20E94E2
:10154000C7171A3028F489E194E060E20E94C717B7
:1015500089E194E0612F4AE050E00E94561989E148
:1015600094E060E20E94C7171F910895EF92FF92E6
:101570000F931F93CF93DF937C01FC01108200E057
:1015800010E0A89589E194E00E945D1718161906ED
:1015900094F589E194E00E948E17EC011816190663
:1015A00084F789E194E06C2F0E94C717CD30D105F4
:1015B00019F0CA30D10559F489E194E00E949618D7
:1015C000DF91CF911F910F91FF90EF900895C83058
:1015D000D10531F401151105A1F201501040D1CF10
:1015E000F701E00FF11FC0831182063011054CF6A0
:1015F0000F5F1F4FC6CF61E070E080E090E00E9477
:10160000C814BFCF0F931F9390917D01899F802DA8
:101610001124980F0FEF1FEF0EC0E82FF0E0EE52ED
:10162000FE4FE081EE3D20F4E11710F4082F01C0D9
:10163000E12F8F5F1E2F891780F31E3D88F589E10A
:1016400094E060E20E94C71789E194E0602F4AE0CD
:1016500050E00E94561989E194E068E071E00E9430
:10166000F8191695169589E194E0612F70E04AE02B
:1016700050E00E94C619002359F0E02FF0E0EE522E
:10168000FE4F8FEF82933196023010F032978083B5
:10169000E02FF0E0EE52FE4F8FEF82838183808354
:1016A000802F1F910F9108951F93182F0E94020BF6
:1016B000893E70F0112341F0812F81500E94020B6E
:1016C000883E30F0173020F4812F81500E94020BA9
:1016D0001F9108951F938091AA019091AB01805AA8
:1016E0009F4020F01092AB011092AA010E94770354
:1016F000882369F520916B0330916C03809143033B
:10170000909144032817390711F590917003809147
:10171000CF019817E1F42091690330916A03809119
:10172000AA019091AB012817390789F420916D0324
:1017300030916E03809167039091680328173907F1
:1017400031F49091780380917703981739F1809163
:10175000AA019091AB0190936A03809369038091F1
:1017600043039091440390936C0380936B038091A7
:10177000A701809371038091CF01809370038091C2
:1017800067039091680390936E0380936D0380913B
:1017900078038093770381E08093760380917603CA
:1017A000823009F474C0833038F4882309F40DC101
:1017B000813009F063C107C0833009F491C08430DF
:1017C00009F05CC1E8C089E194E06DE00E94C717B0
:1017D00080917803882329F089E194E06AE071E040
:1017E0004FC08091CF018F3F29F489E194E060E1FF
:1017F00071E046C0863028F089E194E06FE171E045
:101800003FC080916F03882399F4E5EBF1E080817C
:101810009181892B29F080916F038F5F80936F03F3
:10182000329681E0ED3CF80791F78CE00E946E055E
:101830008091D1018F3F39F489E194E06BE271E04E
:101840000E94F81919C0882331F089E194E060E31F
:1018500071E00E94F81989E194E069E371E00E9467
:10186000F8198CE00E946E0589E194E060916F03A5
:101870004AE050E00E94561989E194E06DE371E07E
:101880000E94F8198CE00E946E0582E026C089E172
:1018900094E064E471E00E94F81960917103772785
:1018A00067FD709589E194E04AE050E00E94C61916
:1018B00089E194E068E471E00E94F8196091A80160
:1018C000772767FD709589E194E04AE050E00E9437
:1018D000C6198CE00E946E0583E080937603CEC02B
:1018E0008091780181FF55C089E194E06DE471E059
:1018F0000E94F8196091690370916A0389E194E08C
:101900004AE050E00E9445198CE00E946E0589E192
:1019100094E061E571E00E94F819609163037091B1
:10192000640395E0769567959A95E1F789E194E0EF
:101930004AE050E00E9445198CE00E946E058091BB
:10194000D1018F3F31F589E194E065E571E00E94B6
:10195000F81960916D0370916E0389E194E04AE09B
:1019600050E00E9445198CE00E946E0589E194E0E8
:1019700069E571E00E94F81960916B0370916C0346
:1019800089E194E04AE050E00E9445198CE00E9411
:101990006E0584E0A2CF8091780180FF0DC010E039
:1019A00089E194E06DE571E00E94F81982E00E94FF
:1019B0006E051F5F1830A1F789E194E00E94961828
:1019C000109275031092760359C080917801982F78
:1019D00080FF54C080916F03833008F44FC0E091C2
:1019E000750392FF0CC0F0E0EE0FFF1FEB54FE4FAB
:1019F0006081718189E194E040E150E025C0F0E030
:101A0000EE0FFF1FEB54FE4F0190F081E02D319659
:101A100080917701823079F4BF01660F771F660FDE
:101A2000771F6E0F7F1FA3E076956795AA95E1F764
:101A300060597C4F05C0BF017695679564527C4F15
:101A400089E194E04AE050E00E9445198CE00E9450
:101A50006E0589E194E060E20E94C71780917503EA
:101A60008F5F8093750390916F03891738F089E138
:101A700094E06DE00E94C717109275031F910895BE
:101A80001F93CF93DF93EC01162FFE0121966491F3
:101A9000662329F089E194E00E94C717F6CF11234D
:101AA00021F089E194E00E949618DF91CF911F9177
:101AB0000895EF92FF920F931F93CF93DF930196B8
:101AC0000E949402EC018F3F910511F008F0B8C01C
:101AD0000E947E0480E76CE20E94390480E360E0AB
:101AE0000E94390481E762E10E94390482E762E0E2
:101AF0000E94390483E760E00E94390484E760E0D3
:101B00000E94390489E76C2F0E9439048CE390E02D
:101B1000C89F9001C99F300DD89F300D1124255BBF
:101B20003F4FC90168EE73E00E942D1AEB01A196A8
:101B3000C90168EE73E00E942D1A7C010FEF8EED53
:101B400091E060E00E94400D89E194E0BE014AE02E
:101B500050E00E94451989E194E06EE20E94C717A7
:101B600089E194E0B7014AE050E00E944519802FD6
:101B70000E944807082F6AE070E080E090E00E9431
:101B8000C8145E9A87E069E00E9439048FEE91E004
:101B900060E00E94400D89E194E0602F4AE050E04F
:101BA0000E94561981E092E060E00E94400D89E1B8
:101BB00094E0609174014AE050E00E9456198EE072
:101BC00092E060E00E94400D0BC0A89587EE93E084
:101BD0000E9421152B9A87EE93E00E9421152B98E5
:101BE00089E194E00E945D17892B79F389E194E003
:101BF0000E948E17182F89E194E00E94961887E0C2
:101C000061E00E9439045E981B31D1F01C3231F042
:101C10001E3279F4809174018F5F03C0809174014A
:101C200081508093740189E0609174010E943904AD
:101C300086CF812F8053883008F081CF082F7FCF47
:101C4000DF91CF911F910F91FF90EF900895AF9288
:101C5000BF92CF92DF92EF92FF920F931F93CF9399
:101C6000DF936C0101960E9494029C0101978E3FC4
:101C7000910510F010E01EC0122F82E090E0F601F6
:101C8000E80FF91FE081EE23A9F00196ED3279F417
:101C90008C0D9D1D0E9494029C01812F90E0821763
:101CA000930740F42F3F310528F4A22E05C08A3057
:101CB000910529F76EEFA62E0E947E040E94C407AC
:101CC00087ED90E061E00E94400DB12E98C089E759
:101CD0006B2D0E9439048DEE92E00E9421150FEFCA
:101CE000FF24C0E0D0E010E083E690E00E942115E0
:101CF00086E20E943304C80FD11D801708F4082F14
:101D0000F81608F4F82E1F5F173C71F78B2D0E9410
:101D1000980AEEE7F1E06AE380818B1509F463E24B
:101D2000319681E0E638F807B9F789E194E00E943E
:101D3000C71789E194E060E20E94C717802F0E94D4
:101D4000980ACE0167EC70E00E942D1A162F862F9C
:101D50000E94980A8F2D0E94980AF60180818E3485
:101D600009F047C00A3010F4EE2408C0073418F018
:101D70005CE3E52E03C046EFE42EE00EF9E0FF152C
:101D800010F000E007C086E48F1510F40CE302C0E9
:101D90000F2D0A501A3010F4FF2408C0173418F021
:101DA0003CE3F32E03C026EFF22EF10E10E01F15D8
:101DB00021F489E194E06AE217C01E1521F489E15B
:101DC00094E06CE311C0101721F489E194E06EE314
:101DD0000BC0E11630F4101720F489E194E06EE2B4
:101DE00003C089E194E060E20E94C7171F5F0117FA
:101DF000F0F689E194E00E949618A895B394AB148C
:101E000008F065CFDF91CF911F910F91FF90EF9078
:101E1000DF90CF90BF90AF900895462FBC016C5FCC
:101E20007F4F87E893E00E9440140895DF92EF927D
:101E3000FF920F931F938C01D62E472F77E8E72E42
:101E400073E0F72EC701B8010E9440140F5F1F4FC7
:101E5000C701B8014D2D0E9440141F910F91FF90B2
:101E6000EF90DF900895EF92FF920F931F93CF931F
:101E7000DF9302E711E0EE24FF24C0E0D0E0CE01C2
:101E8000F80160810E940D0FF80181918F01E80E29
:101E9000F11C2196C730D10591F7CEE7D1E00BE0D8
:101EA00010E0C80168810E940D0F8991E80EF11CB5
:101EB0000F5F1F4FF1E0C638DF0799F7C9E7D1E0A0
:101EC00003E110E0C80168810E940D0F8991E80EBE
:101ED000F11C0F5F1F4F81E0CD37D80799F784E4DD
:101EE00090E0B7010E94160FDF91CF911F910F91E3
:101EF000FF90EF900895BC016C5F7F4F87E893E0FF
:101F00000E9439140895FF920F931F93CF93DF938C
:101F100083E591E060E00E94400D89EB90E060E095
:101F20000E94400D89E194E060916B014AE050E02D
:101F30000E946819FF24C1E0D0E00F2D10E0F801E5
:101F4000EB5DFD4FE4918E2F90E08C179D0739F5E6
:101F500089E194E0BE014AE050E00E94C61989E19F
:101F600094E06DE30E94C717CE010E947B0F682F9B
:101F700089E194E04AE050E00E94561989E194E03A
:101F800069E00E94C717E5E0000F111FEA95E1F72D
:101F9000C801895C9D4F61E00E94400DF394219639
:101FA000CB32D10551F6DF91CF911F910F91FF9068
:101FB000089588E990E061E00E94400D8BEA90E08E
:101FC00060E00E94400D89E194E060916B014AE07D
:101FD00050E00E9468190E94830F8FEB90E061E04F
:101FE0000E94400D0895DF92EF92FF920F931F938E
:101FF0008C01F7E8EF2EF3E0FF2EC701B8010E9435
:102000003914D82E0F5F1F4FC701B8010E94391431
:102010003D2D20E0280F311DC9011F910F91FF9028
:10202000EF90DF9008950F931F93CF93DF9300E01D
:1020300010E0C0E0D0E0CE010E947B0FFE01EE5820
:10204000FE4F8083080F111D2196C730D10599F7E7
:10205000CBE0D0E0CE010E947B0FFE01ED58FE4F99
:102060008083080F111D2196C331D10599F7C3E173
:10207000D0E0CE010E947B0FFE01EA59FE4F808323
:10208000080F111D2196C731D10599F784E490E01E
:102090000E94F30F20E08017910709F421E0822FBE
:1020A000DF91CF911F910F9108950F931F93CF93BD
:1020B000DF9320916C01222379F1E0E0F0E000E071
:1020C00010E08491080F111D319680E4E030F8078C
:1020D000C1F7922F80E020916B01EC01C20FD11D5E
:1020E00080E490E00E94F30FC817D90761F080E404
:1020F00090E0BE010E94160F82E490E0B8010E94B9
:10210000160F81E00AC082E490E00E94F30F80176E
:10211000910711F08FEF01C080E0DF91CF911F9107
:102120000F91089589E061E00E94661589E060E002
:102130000E94A5158CE060E00E9466158BE061E0CE
:102140000E9466158DE061E00E94661587E060E000
:102150000E94661587E061E00E94A5158AE061E0B3
:102160000E94661580E060E00E94661581E061E0F3
:102170000E94661580E061E00E94A51581E061E0A3
:102180000E94A51586E061E00E94661586E061E088
:102190000E94661585E060E00E94661585E061E0BA
:1021A0000E94A51580E160E00E94661580E161E073
:1021B0000E94A51581E160E00E94661581E161E061
:1021C0000E94A51588E060E00E94661588E061E045
:1021D0000E94A51589E194E040E056E960E070E0D6
:1021E0000E94D61681E08093D0011092D10183E045
:1021F000809380008AE1809381008FEF9FEF90931E
:10220000890080938800EFE6F0E08081806280831F
:10221000E898789408951F93182F8091AC0181302D
:10222000C1F0813018F08230D1F52FC085E00E94D6
:10223000F915892BA1F581E08093AC010E949414DB
:102240006093AD017093AE018093AF019093B001A4
:1022500026C085E00E94F915892BE1F40E949414B0
:102260002091AD013091AE014091AF015091B0018C
:10227000621B730B840B950B655F7140804090402F
:1022800070F082E08093AC010AC085E00E94F915ED
:10229000892B19F01092AC0102C011115E9A1F91A6
:1022A0000895BF92CF92DF92EF92FF920F931F9308
:1022B000CF93DF93882351F50E9494147B018C0106
:1022C00087E893E1A0E0B0E0E80EF91E0A1F1B1FAB
:1022D0005E98A89580E00E940B110E949414E61667
:1022E000F7060807190708F45E9A8091AC01882365
:1022F00081F70E9494146E157F058007910708F4FA
:10230000C8C00E941310882351F01DC08F3F21F0D8
:10231000EE24FF24870116C0EE24FF24870181E00C
:1023200080937501109278011092770110927601D6
:102330001092790110927A0182E080937B0187E00C
:1023400080937C015E9AB7ECBB2EADE1CA2E8091E2
:1023500074018A5A8D3310F0B09274010E947E0489
:102360000E94C4070E947A0780EA91E060E00E9420
:10237000400D80E090E0FC01EE52FE4F108201968D
:102380008F3F9105C1F7DD24A895C0E0D0E089E733
:102390006C2F0E94390487EE93E00E94211586E29B
:1023A0000E943304982F969596959695983008F04C
:1023B00098E0FE01EE52FE4F8081890F80832196C6
:1023C000C83ED10521F7D3949FE1D916E9F65E986E
:1023D000C0927D0185EB91E060E00E94400D80E0BD
:1023E0000E94540B80937E0184E00E94540B8093E2
:1023F0007F0181E00E94540B8093800185E00E9460
:10240000540B8093810182E00E94540B80938201DF
:1024100086E00E94540B8093830183E00E94540B5A
:102420008093840187E00E94540B8093850189E1A9
:1024300094E00E949618EEE7F1E08081893E50F02A
:1024400084EC91E061E00E94400D85E090E00E9404
:1024500005137DCF3196A1E0E638FA0771F70E94A7
:1024600094146E197F09800B910B162F662309F4C3
:1024700011E086ED91E060E00E94400D89E194E07A
:10248000612F4AE050E00E946819109373010E9486
:10249000330FDF91CF911F910F91FF90EF90DF905D
:1024A000CF90BF900895CF92DF92EF92FF920F935B
:1024B0001F93DF93CF93CDB7DEB728970FB6F8946D
:1024C000DEBF0FBECDBF0E94C40788EE90E061E082
:1024D0000E94400D8E010F5F1F4FC8010E94B60A77
:1024E0008981813709F482C0813509F47FC0680190
:1024F0000E94830F84E091E061E00E94400DC601DC
:102500000E94B60A89818E3611F08E3421F4C601FC
:102510000E94270EF4CF863611F0863421F4C601CE
:102520000E94590DECCF823701F58A818536E9F496
:102530008B818236D1F48C818936B9F48D818E36C7
:10254000A1F48E81843689F48EE791E060E00E94E8
:10255000400DC6010E94B60A8981893711F089357C
:1025600021F481E00E945111C3CF89818137F1F1BB
:102570008135E1F1C6010E9494027C018BE2E816EC
:10258000F10408F0B5CFC6010E94B60A89818137EF
:1025900069F1813559F1C6010E9494028C018F3F87
:1025A000910511F008F0A4CFE114F10419F400979B
:1025B00009F49ECF89E194E0B7014AE050E00E941F
:1025C000C61989E194E06DE30E94C71789E194E0A0
:1025D000B8014AE050E00E94D919C701602F0E945B
:1025E0000D0F0E9413100E94330F82CF28960FB652
:1025F000F894DEBF0FBECDBFCF91DF911F910F9139
:10260000FF90EF90DF90CF9008950F931F93CF939B
:10261000DF938C01C0E0D0E016C0A8958AEF90E06F
:102620000E94A6075E9A8AEF90E00E94A6075E9835
:102630000333110538F00E944905882319F00E94E0
:10264000531204C02196C017D10738F3DF91CF9100
:102650001F910F9108951F930E945510182F8F3FBF
:1026600051F488E690E061E00E94400D8FE59AEE1B
:102670000E9405130DC00E941310882349F41130E5
:1026800021F48FEF0E94511103C083E890E0EBCF5B
:102690001F910895EF92FF920F931F930E94D90FFD
:1026A0002EE088E190E00FB6F894A8958093600042
:1026B0000FBE209360005E9A63E670E080E090E0D9
:1026C0000E94C814E5EBF1E01192119221E0ED3C7B
:1026D000F207D1F75E9880E00E9451110E942B13FF
:1026E0000E947E040E947A078FEF8093CF0189E1D8
:1026F00094E00E9496180E946A0B10E00E94ED0977
:102700008091A701893D0CF4A7C08CE00E9433049E
:10271000882309F4A1C00E947A071092AB0110929D
:10272000AA0110926803109267030E94A21460939A
:10273000B1017093B2018093B3019093B4018CE026
:102740000E946E05A8950E944905882361F00E94A9
:1027500053120E94A2146093B1017093B20180934E
:10276000B3019093B4018CE00E9433048823C1F438
:1027700089E194E062E671E00E94FB195E9A89EFBC
:1027800090E00E94A6070E947E040E947A071092A1
:10279000AB011092AA011092680310926703CFCF89
:1027A0008CE00E946E050E94A2147B018C010E94A5
:1027B000AD03982F8823C1F18091CF018730A0F518
:1027C00081E00E940B118091B1019091B201D7017B
:1027D000A81BB90BCD01B1E787349B0708F4AFCF35
:1027E000885E904880F084EF94E8AFEFBFEFE80E8A
:1027F000F91E0A1F1B1FE092B101F092B201009373
:10280000B3011093B4010E9412070E941C0A88238E
:1028100009F4B9CF0E94ED098091CF018F5F8093B9
:10282000CF010E946A0B8BCF8091CF018F3F59F06F
:10283000863018F4992309F082CF8091770388239A
:1028400011F40E94C4070E94ED090E946A0B83E6FE
:1028500090E00E94A60773CF0E947E0463E670E0BA
:1028600080E090E00E94C8141F5F103209F046CF4C
:1028700052CFF999FECF72BD61BDF89A80B5089527
:10288000F999FECF1FBA72BD61BD40BD0FB6F89475
:10289000FA9AF99A0FBE08951F920F920FB60F92EF
:1028A00011242F933F938F939F93AF93BF93809166
:1028B0008C0390918D03A0918E03B0918F03309182
:1028C00090030196A11DB11D232F2D5F2D3720F000
:1028D0002D570196A11DB11D2093900380938C0369
:1028E00090938D03A0938E03B0938F038091880300
:1028F00090918903A0918A03B0918B030196A11D49
:10290000B11D8093880390938903A0938A03B093A9
:102910008B03BF91AF919F918F913F912F910F901A
:102920000FBE0F901F9018958FB7F89420918C03CD
:1029300030918D0340918E0350918F038FBFB90169
:10294000CA0108959FB7F8942091880330918903B4
:1029500040918A0350918B0386B5A89B06C08F3F98
:1029600021F02F5F3F4F4F4F5F4F9FBF542F432F9B
:10297000322F2227280F311D411D511D82E0220FC9
:10298000331F441F551F8A95D1F7B901CA01089515
:102990009B01AC017FB7F8948091880390918903E3
:1029A000A0918A03B0918B0366B5A89B05C06F3FC9
:1029B00019F00196A11DB11D7FBFBA2FA92F982F25
:1029C0008827860F911DA11DB11D62E0880F991FF8
:1029D000AA1FBB1F6A95D1F7BC012DC0FFB7F894A1
:1029E0008091880390918903A0918A03B0918B0311
:1029F000E6B5A89B05C0EF3F19F00196A11DB11DDA
:102A0000FFBFBA2FA92F982F88278E0F911DA11DC8
:102A1000B11DE2E0880F991FAA1FBB1FEA95D1F7ED
:102A2000861B970B885E9340C8F22150304040408F
:102A3000504068517C4F211531054105510571F613
:102A40000895019739F0880F991F880F991F0297F1
:102A50000197F1F70895789484B5826084BD84B5B8
:102A6000816084BD85B5826085BD85B5816085BD89
:102A7000EEE6F0E0808181608083E1E8F0E01082A2
:102A8000808182608083808181608083E0E8F0E0E3
:102A9000808181608083E1EBF0E0808184608083CD
:102AA000E0EBF0E0808181608083EAE7F0E0808104
:102AB0008460808380818260808380818160808364
:102AC0008081806880831092C1000895CF93DF9346
:102AD000482F50E0CA0187559B4FFC0134914B565B
:102AE0005B4FFA018491882369F190E0880F991F68
:102AF000FC01E958FB4FA591B491FC01EF57FB4F46
:102B0000C591D491662351F42FB7F8948C91932FEB
:102B1000909589238C93888189230BC0623061F45E
:102B20002FB7F8948C91932F909589238C9388815B
:102B3000832B88832FBF06C09FB7F8948C91832B7B
:102B40008C939FBFDF91CF910895482F50E0CA0129
:102B500083549B4FFC012491CA0187559B4FFC0174
:102B600094914B565B4FFA013491332309F440C0E2
:102B7000222351F1233071F0243028F42130A1F0C8
:102B8000223011F514C02630B1F02730C1F02430C6
:102B9000D9F404C0809180008F7703C080918000B9
:102BA0008F7D8093800010C084B58F7702C084B57C
:102BB0008F7D84BD09C08091B0008F7703C0809164
:102BC000B0008F7D8093B000E32FF0E0EE0FFF1F89
:102BD000EF57FB4FA591B4912FB7F894662321F4DA
:102BE0008C919095892302C08C91892B8C932FBF57
:102BF0000895682F70E0CB0183549B4FFC01249112
:102C0000CB0187559B4FFC0144916B567B4FFB01D9
:102C10009491992319F420E030E03CC0222351F133
:102C2000233071F0243028F42130A1F0223011F546
:102C300014C02630B1F02730C1F02430D9F404C0DC
:102C4000809180008F7703C0809180008F7D80937A
:102C5000800010C084B58F7702C084B58F7D84BD9D
:102C600009C08091B0008F7703C08091B0008F7D44
:102C70008093B000892F90E0880F991F85579B4F54
:102C8000FC01A591B4918C9120E030E0842311F0F7
:102C900021E030E0C901089508951F920F920FB608
:102CA0000F9211242F933F934F938F939F93EF9302
:102CB000FF938091C00082FD1DC04091C60020910D
:102CC000D1033091D2032F5F3F4F2F73307080912B
:102CD000D3039091D4032817390771F0E091D10301
:102CE000F091D203EF56FC4F40833093D2032093F0
:102CF000D10302C08091C600FF91EF919F918F9107
:102D00004F913F912F910F900FBE0F901F901895EC
:102D1000E0912504F0912604E05CFF4F81919191B0
:102D200020813181821B930B8F739070892B11F05E
:102D30000E944C1608951F920F920FB60F92112405
:102D40002F933F938F939F93EF93FF9320911504BD
:102D500030911604809117049091180428173907B0
:102D600031F48091C1008F7D8093C10014C0E09147
:102D70001704F0911804EB52FC4F20818091170446
:102D80009091180401968F7390709093180480931B
:102D900017042093C600FF91EF919F918F913F916F
:102DA0002F910F900FBE0F901F901895AF92BF926A
:102DB000DF92EF92FF920F931F93CF93DF93EC017B
:102DC0007A018B01DD24403081EE580780E06807EE
:102DD00080E0780711F0DD24D39491E0A92EB12C86
:102DE000EC89FD89DD2069F0C50108A002C0880FCB
:102DF000991F0A94E2F7808360E079E08DE390E028
:102E000005C0108260E874E88EE190E0A8019701A7
:102E10000E94541A215030404040504056954795EA
:102E20003795279580E12030380720F0DD2011F01C
:102E3000DD24D6CFE889F9893083EA89FB892083AC
:102E400019A2EE89FF89408121E030E0C9010C8C94
:102E500002C0880F991F0A94E2F7482B4083EE893D
:102E6000FF894081C9010D8C02C0880F991F0A9407
:102E7000E2F7482B4083EE89FF894081C9010E8C1F
:102E800002C0880F991F0A94E2F7482B4083EE890D
:102E9000FF8980810F8C02C0220F331F0A94E2F752
:102EA000209528232083DF91CF911F910F91FF90D0
:102EB000EF90DF90BF90AF900895DC011C96ED91EC
:102EC000FC911D97E05CFF4F2191319180819181B0
:102ED000281B390B2F733070C9010895DC011C9633
:102EE000ED91FC911D97E05CFF4F20813181E05412
:102EF000F040DF01AE5BBF4F8D919C911197281779
:102F0000390719F42FEF3FEF07C08D919C91E80F1F
:102F1000F91F8081282F30E0C9010895DC011C963B
:102F2000ED91FC911D97E05CFF4F20813181E054D1
:102F3000F040DF01AE5BBF4F8D919C911197281738
:102F4000390719F42FEF3FEF10C08D919C91119725
:102F5000E80FF91F20818D919C91119701968F7335
:102F6000907011969C938E9330E0C9010895DC0116
:102F700091968C919197882339F05496ED91FC911C
:102F80005597808186FFF9CF91961C920895CF9333
:102F9000DF93EC01EE85FF85E05CFF4F20813181FE
:102FA000E054F0402F5F3F4F2F733070DF01AE5B76
:102FB000BF4F8D919C91119728173907D1F3E05C91
:102FC000FF4F80819181E054F040E80FF91F60834A
:102FD000EE85FF85E05CFF4F31832083EE89FF891A
:102FE000208181E090E00F8C02C0880F991F0A9425
:102FF000E2F7282B208381E089A3EC89FD89808179
:103000008064808381E090E0DF91CF9108951092F9
:103010001C0410921B0488EE93E0A0E0B0E08093C3
:103020001D0490931E04A0931F04B09320048AE80B
:1030300091E090931A048093190481E993E09093AE
:1030400026048093250485ED93E0909328048093D3
:10305000270485EC90E090932A048093290484EC63
:1030600090E090932C0480932B0480EC90E090935C
:103070002E0480932D0481EC90E090933004809393
:103080002F0482EC90E0909332048093310486EC1C
:1030900090E0909334048093330484E0809335046B
:1030A00083E08093360487E08093370485E0809343
:1030B000380481E0809339040895CF93DF930E9410
:1030C0002B150E949210C8E8D6E10E944A1320975F
:1030D000E1F30E948816F9CFCF92DF92EF92FF9230
:1030E0000F931F93CF93DF937C016B018A01C0E0A4
:1030F000D0E00FC0D6016D916D01D701ED91FC912B
:103100000190F081E02DC7010995C80FD91F01502A
:1031100010400115110571F7CE01DF91CF911F917C
:103120000F91FF90EF90DF90CF900895EF92FF9274
:103130000F931F938C01DC01ED91FC910190F081C4
:10314000E02D6DE009957C01D801ED91FC91019095
:10315000F081E02DC8016AE009959C012E0D3F1D0C
:10316000C9011F910F91FF90EF900895CF93DF93C6
:10317000EC016115710519F420E030E00FC0DB01AE
:103180000D900020E9F71197A61BB70BE881F98194
:103190000280F381E02DAD0109959C01C901DF9109
:1031A000CF9108954F925F927F928F929F92AF92AC
:1031B000BF92CF92DF92EF92FF920F931F93DF9314
:1031C000CF93CDB7DEB7A1970FB6F894DEBF0FBE91
:1031D000CDBF2C01742ECB01223008F42AE019A2B5
:1031E00031E2C32ED12CCC0EDD1E822E9924AA24CE
:1031F000BB24672D752FA50194010E94541A7901F3
:103200008A01C801B701A50194010E940E1A472D39
:10321000461B0894C108D1084A3014F4405D01C02F
:10322000495CF6014083E114F1040105110521F028
:103230007E2C5F2DC801DDCFC201B6010E94B618F9
:10324000A1960FB6F894DEBF0FBECDBFCF91DF9130
:103250001F910F91FF90EF90DF90CF90BF90AF90B4
:103260009F908F907F905F904F900895DC01211583
:10327000310541F4ED91FC910190F081E02D642F36
:10328000099508950E94D2180895EF92FF920F9326
:103290001F939A017B0100E010E0B801A7010E9492
:1032A00036191F910F91FF90EF900895EF92FF92C2
:1032B0000F931F939A01E62EFF2400E010E0B8015F
:1032C000A7010E9436191F910F91FF90EF9008956A
:1032D000CF92DF92EF92FF920F931F936C01E62E35
:1032E0009A01FF2400E010E0B801A7010E943619FE
:1032F0008C01C6010E949618080F191FC8011F9162
:103300000F91FF90EF90DF90CF900895CF92DF92D2
:10331000EF92FF920F931F93CF93DF93EC016A011B
:103320007B012115310541F4E881F9810190F0819B
:10333000E02D642F09951FC02A303105D1F477FFA5
:1033400017C0E881F9810190F081E02D6DE20995C7
:103350008C0144275527BA014C195D096E097F0974
:10336000CE012AE00E94D2189801280F391F04C00C
:103370002AE00E94D2189C01C901DF91CF911F91D0
:103380000F91FF90EF90DF90CF900895EF92FF9212
:103390000F931F937B019A010027F7FC0095102FD4
:1033A000B801A7010E9486191F910F91FF90EF901D
:1033B0000895CF92DF92EF92FF920F931F936C01CB
:1033C0007B019A010027F7FC0095102FB801A70197
:1033D0000E9486198C01C6010E949618080F191FB9
:1033E000C8011F910F91FF90EF90DF90CF9008954B
:1033F0000E94B6180895EF92FF920F931F937C01DD
:103400000E94B6188C01C7010E949618080F191F58
:10341000C8011F910F91FF90EF900895629FD00116
:10342000739FF001829FE00DF11D649FE00DF11D7F
:10343000929FF00D839FF00D749FF00D659FF00D2E
:103440009927729FB00DE11DF91F639FB00DE11D1B
:10345000F91FBD01CF0111240895AA1BBB1B51E127
:1034600007C0AA1FBB1FA617B70710F0A61BB70BF4
:10347000881F991F5A95A9F780959095BC01CD0199
:10348000089597FB092E07260AD077FD04D0E5DFC3
:1034900006D000201AF4709561957F4F0895F6F7D5
:1034A000909581959F4F0895A1E21A2EAA1BBB1BF0
:1034B000FD010DC0AA1FBB1FEE1FFF1FA217B30700
:1034C000E407F50720F0A21BB30BE40BF50B661F16
:1034D000771F881F991F1A9469F7609570958095DA
:1034E00090959B01AC01BD01CF010895EE0FFF1F28
:0C34F0000590F491E02D0994F894FFCFB2
:1034FC0054696D656F7574002F0053746F703A00CA
:10350C0057616974696E672073746172743A00490B
:10351C006E707574206C6F73743A0053425553007F
:10352C0046757437353075200050504D00206D6F46
:10353C0064653A0020543D002054633D00204D3D0D
:10354C000020413D0020423D0020453D0020202030
:10355C00200052464D206C6F636B0007010CD201AA
:10356C00D2016348CC01000000080002071D4D93F6
:10357C0059A76DBD7FD100000000C7176C185D17EF
:06358C008E176E17B71741
:00000001FF
