:100000000C940E020C9488020C9436020C94360266
:100010000C9436020C945E020C9436020C94360258
:100020000C9436020C9436020C9436020C94360270
:100030000C9436020C9436020C9436020C94360260
:100040000C940D100C9436020C940E120C945C124D
:100050000C9436020C9436020C9436020C94360240
:100060000C9436020C943602464C415348204552BB
:10007000524F522121212043616E277420776F72E5
:100080006B21004572726F72207265616420736526
:100090007474696E677321000D0A4261796368693F
:1000A00020736F66742032303133005458204F7003
:1000B000656E204578706572742056322046005077
:1000C0007265737320276D2720746F2073746172BB
:1000D00074204D454E550046486E3A204D696E20BD
:1000E000417672204D6178000A0D546F20456E7480
:1000F0006572204D454E5520507265737320454EF4
:1001000054455200547970652052656720616E64D1
:1001100020707265737320454E5445522C207479BB
:1001200070652056616C756520616E642070726523
:10013000737320454E5445522028713D51756974A2
:100140003B204E782D79203D2053686F77206E6FCD
:1001500069736529000D0A52673D56616C20094399
:100160006F6D6D656E7473202D2D2D2D2D2D2D2D04
:100170002D2D2D2D2D2D2D2D2D2D2D2D2D2D2D00DC
:1001800042696E64204E0000000000000000000084
:10019000000000000000000000000000000000005F
:1001A0004672657120636F7272656374696F6E2049
:1001B000636F6E7374000000000000000000000018
:1001C0005465726D20636F727220656E61626C653A
:1001D000000000000000000000000000000000001F
:1001E000465320636865636B20656E61626C6500D1
:1001F00000000000000000000000000000000000FF
:100200003131206269742F313120636820656E615D
:10021000626C6500000000000000000000000000AB
:100220004465627567206F75742028312D50504DDC
:100230002C20322D706572662E290000000000000F
:10024000486F70652046310000000000000000008B
:10025000000000000000000000000000000000009E
:10026000486F70652046320000000000000000006A
:10027000000000000000000000000000000000007E
:10028000486F706520463300000000000000000049
:10029000000000000000000000000000000000005E
:1002A000486F706520463400000000000000000028
:1002B000000000000000000000000000000000003E
:1002C000486F706520463500000000000000000007
:1002D000000000000000000000000000000000001E
:1002E000486F7065204636000000000000000000E6
:1002F00000000000000000000000000000000000FE
:10030000486F7065204637000000000000000000C4
:1003100000000000000000000000000000000000DD
:10032000486F7065204638000000000000000000A3
:1003300000000000000000000000000000000000BD
:10034000506F7765722073776974636820636861A2
:100350006E2028312D31332C303D6F666629000028
:10036000506F776572206D696E2028302D37290017
:10037000000000000000000000000000000000007D
:10038000506F776572206D6964646C652028302D2C
:1003900037290000000000000000000000000000FD
:1003A000506F776572206D61782028302D372900D5
:1003B000000000000000000000000000000000003D
:1003C00000000000240027002A0000000000250093
:1003D00028002B0000000000230026002900040450
:1003E00004040404040402020202020203030303DD
:1003F00003030102040810204080010204081020B9
:1004000001020408102000000007000201000003A0
:1004100004060000000000000000C81311241FBEE5
:10042000CFEFD8E0DEBFCDBF11E0A0E0B1E0EEE756
:10043000FCE202C005900D92AA3AB107D9F714E088
:10044000AAEAB1E001C01D92A634B107E1F714E0B9
:10045000CCE1D4E004C02297FE010E943916CA31D3
:10046000D107C9F70E941E140C943D160C9400008D
:10047000FC0188279927E89421912032E9F329305B
:1004800010F02E30C8F32B3241F02D3239F468943D
:1004900004C00E945602820F911D219120532A30E0
:1004A000C0F31EF4909581959F4F08957AE0979F31
:1004B000902D879F802D910D112408951F920F92EA
:1004C0000FB60F9211248F939F93EF93FF93809118
:1004D000840090918500E0917001F0917101918309
:1004E00080833296F0937101E0937001E055F34000
:1004F00030F088EE91E09093710180937001FF914C
:10050000EF919F918F910F900FBE0F901F901895B4
:100510001F920F920FB60F9211240F900FBE0F90E3
:100520001F901895FF920F931F9390916F0399312D
:1005300008F449C080915003882309F044C0809199
:1005400053038F3009F03FC080916B038823D9F5A6
:10055000A9ECB1E0FF24F39411E02CC0660F771FE3
:10056000EF2DF0E0ED5AFC4F808190E0212F30E03C
:1005700082239323892B11F0462B572B103819F423
:10058000F39411E001C0110F0F5F0B3039F7CA016E
:10059000880F991F880F991F840F951F969587952F
:1005A000969587958052994F8D939D9381E0A33EB8
:1005B000B80731F000E040E050E061E070E0D0CFFB
:1005C0001092E5010BC0992349F08091510390915D
:1005D000520301969093520380935103109250035B
:1005E0001092700310926F0310926E0310926D03BD
:1005F00010926C031F910F91FF9008952091BB0101
:1006000080918303821B71F1992787FD909597FF55
:1006100003C0909581959F4F02978CF4609186035B
:100620008091840390918503332727FD30956336AD
:1006300070F070E00E9402166217730799F0109232
:100640008503109284031092860381E00895820F3F
:10065000931F90938503809384036F5F6093860359
:1006600080E0089580E00895809178018823E1F08A
:1006700081E080938A038091E6018F3F31F03091D1
:100680008103E9ECF1E020E00DC080916A0383FF73
:100690000BC00EC081919191885B97408F5F97400E
:1006A00038F42F5F2317B0F310928A0381E0089586
:1006B00080E008955C9A5F9800005C9898E010C014
:1006C00087FF07C05F980000289A00005F9A00002B
:1006D00006C05F980000289800005F9A0000880F0D
:1006E000915070F75F9808958F770E945A0308958C
:1006F0005F98000098E010C087FF07C05F98000077
:10070000289A00005F9A000006C05F9800002898B1
:1007100000005F9A0000880F915070F75F9808956D
:100720005F98000080E090E0880F5F9A00001999C0
:1007300081605F9800009F5F9830B1F708950E9434
:1007400074030E9490035C9A08951F93162F80688B
:100750000E945A03812F0E9478035C9A1F9108958A
:100760003F924F925F926F927F928F929F92AF9241
:10077000BF92CF92DF92EF92FF920F931F93CF938E
:10078000DF93F82EF894A0907001B09071017894E6
:1007900080917A0181FF56C00E9463108B019C01F9
:1007A0008091710390917203A801481B590B8091AD
:1007B000BE019091BF018417950720F45093BF01AB
:1007C0004093BE010093710310937203209373034F
:1007D0003093740380917503909176039C0175E0CA
:1007E000369527957A95E1F7821B930B840F951F19
:1007F00090937603809375038091720190917301B9
:100800009501281B390BC90195958795909378031D
:1008100080937703843B910530F08C549F4F9093E5
:100820007803809377032091770330917803809148
:10083000790390917A038217930720F430937A0317
:1008400020937903E0908F0320918D0330918E03E4
:100850000091900310919103C0E0D0E06F2C7724B9
:1008600058EE452E51E0552E992493944CE0842E59
:1008700033243A94CBC0C190D190F0937301E093AC
:100880007201E055F34020F05092730140927201E2
:10089000C601821B930B3091E6013F3F09F453C020
:1008A000E394E0FEB0C0800F911F20916F012223DE
:1008B00031F1233388F010926F018091E7018B3082
:1008C00018F03092E6019EC03B3018F09092E6019D
:1008D00099C01092E60196C08436910530F480915B
:1008E000E7018F5F8093E70106C08054964018F4BB
:1008F0003F5F3093E6012F5F20936F0183C0332366
:1009000011F0880F991FF3E188389F0728F01092A3
:100910006E011092E50176C025E08C3D920780F0D3
:1009200020916E012C3060F4E22FF0E0EE0FFF1FFB
:10093000E753FE4F918380832F5F20936E0162C047
:1009400080926E015FC00A9664E170E00E94EE152D
:100950006B3018F00E94920255C080916E0388237C
:1009600019F4615090926E03F0906D03AF2DB0E0DA
:1009700050916C0320916E0330917003709150037D
:1009800040916F032DC03F0D822F90E00197FD0134
:1009900002C0EE0FFF1F8A95E2F75E2B2F5F2C300F
:1009A00021F02A30E0F04831D0F0E42FF0E0ED5AA9
:1009B000FC4F50833170730F4F5F493168F01092D4
:1009C0006C0310926E031092700370935003409367
:1009D0006F030E94920210C050E020E030E06150AE
:1009E000662389F650936C0320936E033093700353
:1009F0007093500340936F0380916D03F92DF81BA2
:100A0000F0936D03C801219696018C01E09172016B
:100A1000F0917301EA15FB0521F0C615D70508F41E
:100A20002ACFE0928F0330938E0320938D0310938F
:100A3000910300939003DF91CF911F910F91FF904D
:100A4000EF90DF90CF90BF90AF909F908F907F906E
:100A50006F905F904F903F9008956091760166236C
:100A600069F080917701882319F08091BC01680FAB
:100A700089E00E94A5038CE00E94B0038091BA0136
:100A80008F5F8093BA01883010F01092BA01E09124
:100A9000BA01F0E0E558FE4F89E760810E94A503A6
:100AA000089583E00E949F0380938B0384E00E945B
:100AB0009F0380938C038CE00E94B00387E061E089
:100AC0000E94A503089587E061E00E94A5038EE7D8
:100AD00064E20E94A5038CE00E94B00388E063E01A
:100AE0000E94A50388E060E00E94A5038CE00E94BC
:100AF000B00387E065E00E94A50385E062E00E9404
:100B0000A5038CE00E94B00383E00E949F038093C2
:100B10008B0384E00E949F0380938C030895EF92DF
:100B2000FF920F931F938C010E946310780100E0E5
:100B300010E0E60EF71E081F191F03C08CE00E948C
:100B4000B0030E9463106E157F0580079107B0F314
:100B50001F910F91FF90EF9008958FE060E80E9441
:100B6000A5038DE491E00E948F0581E10E949F031F
:100B7000282F20542093BB01243154F4332727FD20
:100B800030958EE190E0821B930B6AE070E00BC021
:100B90002F3174F0332727FD30958EE190E0821BD2
:100BA000930B67E070E00E9402166093BC0102C0E4
:100BB0001092BC018CE00E94B00308952F923F92E6
:100BC0004F925F926F927F928F929F92AF92BF925D
:100BD000CF92DF92EF92FF920F931F93CF93DF9309
:100BE0000E945105E09183018E2F81508D30B0F429
:100BF000F894F0E0EE0FFF1FE953FE4F80819181E2
:100C000078942AE08832920748F088549D4018F082
:100C10006091860105C06091850102C060918401E8
:100C200067704091BD014F5F4093BD0150E028E0E7
:100C300030E0261B3109C901880F991F820F931FCD
:100C4000841795071CF41092BD012D9A685F8DE6FC
:100C50000E94A50388E063E00E94A50388E060E0AD
:100C60000E94A503609175016093AA018FE70E941D
:100C7000A50385E064E00E94A50383E00E949F0332
:100C800080938B0384E00E949F0380938C0303C0B6
:100C900081E00E94B0030E9463102091C501309151
:100CA000C6014091C7015091C801621B730B840BB0
:100CB000950B66577A478040904050F387E069E093
:100CC0000E94A5038091C5019091C601A091C70122
:100CD000B091C801845F9448AF4FBF4F8093C50166
:100CE0009093C601A093C701B093C8010E946310FE
:100CF0004B015C01DD24D3946FE1262E64E0362E97
:100D0000CC24C39451E0652E712C42E0442E512C2A
:100D100018C10E946310681979098A099B09E616AF
:100D2000F7060807190708F01CC181E0D81609F07A
:100D30005CC0A9ECB1E0ECEAF1E060E010E000E0BA
:100D400040E050E0742F8D919C91119727E0883BF3
:100D5000920718F420E030E016C02FE0883B92079D
:100D600018F02FEF37E007C09C01285B374084E084
:100D70002030380740F0C301072E02C0880F991FAA
:100D80000A94E2F7682BC901969587959695879501
:100D90008083473099F021FF08C0C201072E02C0AE
:100DA000880F991F0A94E2F7182B20FF07C0C30190
:100DB00002C0880F991F7A95E2F7082B4F5F5F4FAB
:100DC000129631964830510509F0BCCF6093AB01C3
:100DD0008FE70E94A5031093B901809179018823C0
:100DE00009F4AEC00093B701ABC02DE02D1508F497
:100DF0007FC08EEFD80EED2DF0E022E0D20EEE0F88
:100E0000FF1FE753FE4F8081918127E0883B9207C7
:100E100018F440E050E00AC02FE0883B920718F039
:100E20004FEF57E003C0AC01485B574089E08D1598
:100E300008F449C0229793010C2E02C0220F331FE1
:100E40000A94E2F72296722F84E04030580710F09F
:100E5000622F01C060E0872F90E02091AB0130E06D
:100E600082239323262F30E082179307E1F5FE01BA
:100E7000E655FE4FCA01969587959695879580838E
:100E800029E0D21681F180917901882369F040FF31
:100E900004C08091B701872B05C0872F8095909162
:100EA000B70189238093B701972F990F41FF04C0A1
:100EB0008091B901982B04C090958091B901982335
:100EC0009093B90110C08DE0D81621F4809179017A
:100ED000882349F4FE01E655FE4FB3E05695479549
:100EE000BA95E1F74083C655DE4F8FE7688126C08B
:100EF0002EE0D216D1F4ECEAF1E060E080816827C0
:100F000020E0862F90E0BC017595679580FF02C0B8
:100F10008CE868272F5F2830A1F7319621E0E83B65
:100F2000F20761F760838FE709C08091C0018230CA
:100F300011F4C092B9018FE76091B9010E94A50335
:100F4000D394CD2DD0E0C29DC001C39D900DD29D04
:100F5000900D1124825C974F7C010027F7FC0095CF
:100F6000102F4A9B31C00E946310681979098A09C1
:100F70009B096F5F7C478040904030F58CE00E9479
:100F8000B0038FE08D1568F3C4CE84E294E060E096
:100F900071E00E94BC1580E004C02D980E945105AC
:100FA00081E0DF91CF911F910F91FF90EF90DF9043
:100FB000CF90BF90AF909F908F907F906F905F90F9
:100FC0004F903F902F9008954A9BE7CFDECF87E068
:100FD00060E80E94A50361E070E080E090E00E947C
:100FE000891083E00E949F0380938B0384E00E941A
:100FF0009F0380938C0386E060E00E94A50387E056
:1010000061E00E94A50360917601662311F089E0FA
:1010100002C089E067EC0E94A5038AE065E00E94B7
:10102000A5038BE062E10E94A5038CE065E10E94CC
:10103000A5038EE060E00E94A5038FE163E00E94BB
:10104000A5038EE16AE00E94A50382E160E60E94AA
:10105000A50383E168EF0E94A5038FE060E80E948A
:10106000A5038DE160E40E94A5038CE166E20E9485
:10107000A50380E264E40E94A50381E260E00E948F
:10108000A50382E262EF0E94A50383E26CE70E945F
:10109000A50384E266E00E94A50385E26DE70E9455
:1010A000A5038AE26FE00E94A50380E36CEA0E9438
:1010B000A50382E36CE80E94A50383E36AE00E9433
:1010C000A50384E364E00E94A50385E362E20E9435
:1010D000A50386E36DE20E94A50387E364ED0E9409
:1010E000A50388E360E00E94A50389E360E00E9415
:1010F000A5038EE360E10E94A5038DE66FE00E94E8
:10110000A5038EE66CE30E94A5038FE66FE90E94BB
:10111000A50389E660E60E94A50380E76EE20E94CF
:10112000A50389E760E00E94A5038AE766E00E94C4
:10113000A50381E760E00E94A50381E763E20E94C6
:10114000A50382E76EE00E94A50385E763E50E94A0
:10115000A50386E76CE40E94A50387E760EE0E9482
:10116000A50308951F93182F8A3038F484E294E081
:1011700068E071E00E94B91507C0843628F484E263
:1011800094E060E20E94881384E294E0612F4AE0D8
:1011900050E00E94171584E294E060E20E948813F8
:1011A0001F9108951F938091BE019091BF01805AB5
:1011B0009F4020F01092BF011092BE010E94FE02DB
:1011C000882369F520917D0330917E03809151033E
:1011D000909152032817390711F59091820380915D
:1011E000E5019817E1F420917B0330917C03809115
:1011F000BE019091BF012817390789F420917F0320
:10120000309180038091790390917A0328173907F0
:1012100031F490918A0380918903981739F1809174
:10122000BE019091BF0190937C0380937B038091DA
:1012300051039091520390937E0380937D0380919C
:10124000BB01809383038091E501809382038091A9
:10125000790390917A039093800380937F03809128
:101260008A038093890381E08093880380918803B7
:10127000823009F474C0833038F4882309F40DC136
:10128000813009F039C107C0833009F491C084303E
:1012900009F032C1E8C084E294E06DE00E94881356
:1012A00080918A03882329F084E294E06BE071E066
:1012B0004FC08091E5018F3F29F484E294E061E121
:1012C00071E046C0863028F084E294E060E271E08C
:1012D0003FC080918103882399F4E9ECF1E080819B
:1012E0009181892B29F0809181038F5F8093810305
:1012F000329681E0E13EF80791F78CE00E94B0035E
:101300008091E6018F3F39F484E294E06CE271E071
:101310000E94B91519C0882331F084E294E061E39A
:1013200071E00E94B91584E294E06AE371E00E94E2
:10133000B9158CE00E94B00384E294E060918103CF
:101340004AE050E00E94171584E294E06EE371E0F9
:101350000E94B9158CE00E94B00382E026C084E2AE
:1013600094E065E471E00E94B915609183037727EA
:1013700067FD709584E294E04AE050E00E94871592
:1013800084E294E069E471E00E94B9156091BC01C7
:10139000772767FD709584E294E04AE050E00E9470
:1013A00087158CE00E94B00383E080938803A4C07B
:1013B00080917A0181FF55C084E294E06EE471E08F
:1013C0000E94B91560917B0370917C0384E294E0E4
:1013D0004AE050E00E9406158CE00E94B00384E2CF
:1013E00094E062E571E00E94B91560917503709117
:1013F000760315E0769567951A95E1F784E294E017
:101400004AE050E00E9406158CE00E94B0038091F3
:10141000E6018F3F31F584E294E066E571E00E94D9
:10142000B91560917F037091800384E294E04AE0F3
:1014300050E00E9406158CE00E94B00384E294E024
:101440006AE571E00E94B91560917D0370917E0399
:1014500084E294E04AE050E00E9406158CE00E948D
:10146000B00384E0A2CF80917A0180FF0DC010E02C
:1014700084E294E06EE571E00E94B91582E00E947A
:10148000B0031F5F1830A1F784E294E00E94571464
:1014900010928703109288032FC080917A0180FFF9
:1014A0002BC080918103833038F1E0918703F0E015
:1014B000EE0FFF1FE753FE4F6081718184E294E0DD
:1014C0004AE050E00E9406158CE00E94B00384E2DE
:1014D00094E060E20E948813809187038F5F80937D
:1014E000870390918103891738F084E294E06DE0DE
:1014F0000E948813109287031F9108951F93CF9322
:10150000DF93EC01162FFE0121966491662329F0EA
:1015100084E294E00E948813F6CF112321F084E244
:1015200094E00E945714DF91CF911F910895EF929C
:10153000FF920F931F93CF93DF937C01FC011082E6
:1015400000E010E0A89584E294E00E941E131816B3
:10155000190694F584E294E00E944F13EC011816EA
:10156000190684F784E294E06C2F0E948813CD3032
:10157000D10519F0CA30D10559F484E294E00E94F3
:101580005714DF91CF911F910F91FF90EF90089525
:10159000C830D10531F401151105A1F201501040F8
:1015A000D1CFF701E00FF11FC08311820630110582
:1015B0004CF60F5F1F4FC6CF61E070E080E090E017
:1015C0000E948910BFCF84E294E00E941E13181677
:1015D000190614F020E01AC084E294E00E944F1330
:1015E0008336910519F08334910541F41092BF01BF
:1015F0001092BE0110927A03109279038D369105F4
:1016000021F020E08D34910509F421E0822F089526
:10161000EF92FF920F931F938C010E945510780157
:1016200000E010E0E60EF71E081F191F03C08CE053
:101630000E94B0030E9455106E157F058007910728
:10164000B0F31F910F91FF90EF9008950E94510504
:1016500082E390E00E94080B0E9463050895AF9218
:10166000BF92CF92DF92EF92FF920F931F93CF938F
:10167000DF935C0101960E9438029C0101978E3F26
:10168000910510F010E01EC0122F82E090E0F501ED
:10169000E80FF91FE081EE23A9F00196ED3279F40D
:1016A0008A0D9B1D0E9438029C01812F90E08217B9
:1016B000930740F42F3F310528F4C22E05C08A302D
:1016C000910529F74EEFC42E0E94E7070E94260BD2
:1016D00087ED90E061E00E947E0AE12EAEC089E7CE
:1016E0006E2D0E94A5038DEE92E00E94E2100FEF96
:1016F000FF24C0E0D0E010E083E690E00E94E2101A
:1017000086E20E949F03C80FD11D801708F4082F9E
:10171000F81608F4F82E1F5F173C71F789E08E1554
:1017200038F084E294E068E071E00E94B91508C0E6
:10173000E3E6EE1528F084E294E060E20E9488136C
:1017400084E294E06E2D4AE050E00E941715EBE72A
:10175000F1E06AE380818E1509F463E2319681E05D
:10176000E338F807B9F784E294E00E94881384E232
:1017700094E060E20E948813802F0E94B208CE019C
:1017800067EC70E00E94EE15162F862F0E94B208BB
:101790008F2D0E94B208F50180818E3409F047C078
:1017A0000A3010F4DD2408C0083418F03DE3D32ECD
:1017B00003C026EFD22ED00EF9E0FF1510F000E0A6
:1017C00007C087E48F1510F40DE302C00F2D0A50F7
:1017D0001A3010F4FF2408C0183418F09DE3F92ED5
:1017E00003C086EFF82EF10E10E01F1521F484E2FD
:1017F00094E06AE217C01D1521F484E294E06CE3E2
:1018000011C0101721F484E294E06EE30BC0D116EE
:1018100030F4101720F484E294E06EE203C084E216
:1018200094E060E20E9488131F5F0117F0F684E2E3
:1018300094E00E945714A895E394CE1408F04FCF7B
:10184000DF91CF911F910F91FF90EF90DF90CF909C
:10185000BF90AF900895462FBC016C5F7F4F82E927
:1018600093E00E9401100895DF92EF92FF920F9390
:101870001F938C01D62E472F52E9E52E53E0F52E0B
:10188000C701B8010E9401100F5F1F4FC701B801C7
:101890004D2D0E9401101F910F91FF90EF90DF904E
:1018A0000895EF92FF920F931F93CF93DF9304E776
:1018B00011E0EE24FF24C0E0D0E0CE01F801608109
:1018C0000E942B0CF80181918F01E80EF11C2196EA
:1018D000C730D10591F7CBE7D1E00BE010E0C801AC
:1018E00068810E942B0C8991E80EF11C0F5F1F4F3D
:1018F000F1E0C338DF0799F7C3E8D1E003E110E076
:10190000C80168810E942B0C8991E80EF11C0F5FC1
:101910001F4F81E0C738D80799F784E490E0B701FA
:101920000E94340CDF91CF911F910F91FF90EF90A7
:101930000895BC016C5F7F4F82E993E00E94FA0F2B
:101940000895FF920F931F93CF93DF9385E591E066
:1019500061E00E947E0AFF24C1E0D0E00F2D10E07C
:10196000F801E957FE4F808190E08C179D0739F50B
:1019700084E294E0BE014AE050E00E94871584E2D0
:1019800094E06DE30E948813CE010E94990C682FA9
:1019900084E294E04AE050E00E94171584E294E06B
:1019A00069E00E94881365E0000F111F6A95E1F756
:1019B000C80180589E4F61E00E947E0AF3942196F0
:1019C000CB32D10559F6DF91CF911F910F91FF9046
:1019D000089588E990E061E00E947E0A8BEA90E039
:1019E00060E00E947E0A84E294E060916C014AE02B
:1019F00050E00E9429150E94A10C8FEB90E061E05D
:101A00000E947E0A0895DF92EF92FF920F931F9338
:101A10008C0172E9E72E73E0F72EC701B8010E942E
:101A2000FA0FD82E0F5F1F4FC701B8010E94FA0F9F
:101A30003D2D20E0280F311DC9011F910F91FF900E
:101A4000EF90DF9008950F931F93CF93DF9300E003
:101A500010E0C0E0D0E0CE010E94990CFE01EC58ED
:101A6000FE4F8083080F111D2196C730D10599F7CD
:101A7000CBE0D0E0CE010E94990CFE01E059FE4F70
:101A80008083080F111D2196C331D10599F7C3E159
:101A9000D0E0CE010E94990CFE01E059FE4F8083F8
:101AA000080F111D2196C731D10599F784E490E004
:101AB0000E94030D20E08017910709F421E0822F96
:101AC000DF91CF911F910F910895CF92DF92EF9206
:101AD000FF920F931F93DF93CF93CDB7DEB7289775
:101AE0000FB6F894DEBF0FBECDBF0E94260B88EE66
:101AF00090E061E00E947E0A8E010F5F1F4FC801D7
:101B00000E94970A8981813709F454C0813509F40C
:101B100051C068010E94A10C84E091E061E00E9444
:101B20007E0AC6010E94970A89818E3611F08E3492
:101B300021F4C6010E942F0BF4CF8137D9F18135F2
:101B4000C9F1C6010E9438027C018BE2E816F1045B
:101B500008F7C6010E94970A8981813759F18135BA
:101B600049F1C6010E9438028C018F3F910509F0AE
:101B700088F6E114F10411F4009761F284E294E034
:101B8000B7014AE050E00E94871584E294E06DE3DB
:101B90000E94881384E294E0B8014AE050E00E9479
:101BA0009A15C701602F0E942B0C0E94230D0E94E2
:101BB000510CB0CF28960FB6F894DEBF0FBECDBF44
:101BC000CF91DF911F910F91FF90EF90DF90CF9019
:101BD00008950F931F93CF93DF938C01C0E0D0E063
:101BE00015C08AEF90E00E94080B2D9A8AEF90E0D2
:101BF0000E94080B2D980333110538F00E94E30A68
:101C0000882319F00E94650D04C02196C017D107E2
:101C100040F3DF91CF911F910F9108950F931F9380
:101C2000CF93DF9300E010E0E0E0F0E08491080F54
:101C3000111D319680E4E030F807C1F790916D01F5
:101C400080E020916C01EC01C20FD11D80E490E096
:101C50000E94030DC817D90769F080E490E0BE0127
:101C60000E94340C82E490E0B8010E94340C20E021
:101C700030E00BC082E490E00E94030D20E030E0F1
:101C80008017910711F021E030E0C901DF91CF9179
:101C90001F910F9108950E940E0E892B49F088E63E
:101CA00090E061E00E947E0A8FE59AEE0E94E90DC5
:101CB0000E94230D882349F483E890E061E00E94AC
:101CC0007E0A8FE59AEE0E94E90D089589E060E0B2
:101CD0000E94271188E061E00E94271187E061E0FF
:101CE0000E94271182E060E00E94271182E061E0FB
:101CF0000E94661184E061E00E94271180E060E0AC
:101D00000E94271181E061E00E94271180E061E0DC
:101D10000E94661181E061E00E9466118CE061E042
:101D20000E9427118DE061E00E9427118BE060E0A6
:101D30000E9427118BE061E00E94661183E060E061
:101D40000E94271183E061E00E94661184E294E022
:101D500040E056E960E070E00E94971281E08093D5
:101D60006F011092E60183E0809380008AE1809306
:101D700081008FEF9FEF90938900809388001092ED
:101D80006F0088E080936D00E8E6F0E08081846079
:101D90008083E898789408958091C0018130C1F0E3
:101DA000813018F08230D1F530C08BE00E94BA113A
:101DB000892BA1F581E08093C0010E9455106093AA
:101DC000C1017093C2018093C3019093C40108952F
:101DD0008BE00E94BA11892BE9F40E9455102091E2
:101DE000C1013091C2014091C3015091C401621BF5
:101DF000730B840B950B655F71408040904070F0D1
:101E000082E08093C0012D9A08958BE00E94BA1160
:101E1000892B19F01092C00108952D9A0895EF9220
:101E2000FF920F931F930E94E90C0E944B0E2C9A75
:101E30000E94E70763E670E080E090E00E9489106E
:101E4000E9ECF1E01192119221E0E13EF207D1F7C5
:101E50002C980E9463058FEF8093E50184E294E063
:101E60000E9457140E94D20810E00E94AD05809194
:101E7000BB01893D0CF4B1C08CE00E949F03882314
:101E800009F4ABC02EE088E190E00FB6F894A89575
:101E9000809360000FBE209360000E946305109243
:101EA000BF011092BE0110927A03109279030E9432
:101EB00063106093C5017093C6018093C70190932E
:101EC000C8018CE00E94B003A8950E94E30A882311
:101ED00061F00E94650D0E9463106093C5017093CC
:101EE000C6018093C7019093C8018CE00E949F03B4
:101EF0008823C1F484E294E063E671E00E94BC159B
:101F00002D9A89EF90E00E94080B0E94E7070E943B
:101F100063051092BF011092BE0110927A031092D5
:101F20007903CFCF8CE00E94B0030E9463107B0145
:101F30008C010E943403982F8823B9F18091E50128
:101F4000873098F50E94CC0E8091C5019091C60112
:101F5000D701A81BB90BCD01B1E787349B0708F463
:101F6000B0CF885E904880F084EF94E8AFEFBFEF89
:101F7000E80EF91E0A1F1B1FE092C501F092C60170
:101F80000093C7011093C8010E942D050E94DE0531
:101F9000882309F4BACF0E94AD058091E5018F5FD7
:101FA0008093E5010E94D2088CCF8091E5018F3F9C
:101FB00059F0863018F4992309F083CF8091890372
:101FC000882311F40E94260B0E94AD050E94D208BE
:101FD00083E690E00E94080B74CF0E94E70763E657
:101FE00070E080E090E00E9489101F5F103209F0DD
:101FF0003CCF48CFF999FECF72BD61BDF89A80B54C
:102000000895F999FECF1FBA72BD61BD40BD0FB6EC
:10201000F894FA9AF99A0FBE08951F920F920FB68C
:102020000F9211242F933F938F939F93AF93BF935E
:102030008091970390919803A0919903B0919A038E
:1020400030919B030196A11DB11D232F2D5F2D37CC
:1020500020F02D570196A11DB11D20939B03809365
:10206000970390939803A0939903B0939A03809158
:10207000930390919403A0919503B09196030196D8
:10208000A11DB11D8093930390939403A093950396
:10209000B0939603BF91AF919F918F913F912F91F4
:1020A0000F900FBE0F901F9018958FB7F894209146
:1020B0009703309198034091990350919A038FBFF1
:1020C000B901CA0108959FB7F89420919303309104
:1020D0009403409195035091960386B5A89B06C042
:1020E0008F3F21F02F5F3F4F4F4F5F4F9FBF542FC8
:1020F000432F322F2227280F311D411D511D82E011
:10210000220F331F441F551F8A95D1F7B901CA0109
:1021100008959B01AC017FB7F8948091930390914F
:102120009403A0919503B091960366B5A89B05C052
:102130006F3F19F00196A11DB11D7FBFBA2FA92FC6
:10214000982F8827860F911DA11DB11D62E0880F71
:10215000991FAA1FBB1F6A95D1F7BC012DC0FFB7FD
:10216000F8948091930390919403A0919503B0917A
:102170009603E6B5A89B05C0EF3F19F00196A11D97
:10218000B11DFFBFBA2FA92F982F88278E0F911D41
:10219000A11DB11DE2E0880F991FAA1FBB1FEA9580
:1021A000D1F7861B970B885E9340C8F221503040D0
:1021B0004040504068517C4F211531054105510583
:1021C00071F60895019739F0880F991F880F991FAC
:1021D00002970197F1F70895789484B5826084BDE1
:1021E00084B5816084BD85B5826085BD85B581601B
:1021F00085BDEEE6F0E0808181608083E1E8F0E07B
:102200001082808182608083808181608083E0E8A9
:10221000F0E0808181608083E1EBF0E08081846088
:102220008083E0EBF0E0808181608083EAE7F0E08A
:1022300080818460808380818260808380818160EE
:1022400080838081806880831092C1000895CF933D
:10225000DF93482F50E0CA018E509C4FFC0134910F
:1022600042525C4FFA018491882369F190E0880F13
:10227000991FFC01E054FC4FA591B491FC01E65379
:10228000FC4FC591D491662351F42FB7F8948C91EB
:10229000932F909589238C93888189230BC062307A
:1022A00061F42FB7F8948C91932F909589238C9398
:1022B0008881832B88832FBF06C09FB7F8948C91A9
:1022C000832B8C939FBFDF91CF910895482F50E0CF
:1022D000CA018A5F9B4FFC012491CA018E509C4F1A
:1022E000FC01949142525C4FFA013491332309F47A
:1022F00040C0222351F1233071F0243028F42130E2
:10230000A1F0223011F514C02630B1F02730C1F011
:102310002430D9F404C0809180008F7703C080916D
:1023200080008F7D8093800010C084B58F7702C0BD
:1023300084B58F7D84BD09C08091B0008F7703C0C4
:102340008091B0008F7D8093B000E32FF0E0EE0F1E
:10235000FF1FE653FC4FA591B4912FB7F894662365
:1023600021F48C919095892302C08C91892B8C93B8
:102370002FBF0895682F70E0CB018A5F9B4FFC014F
:102380002491CB018E509C4FFC01449162527C4FB2
:10239000FB019491992319F420E030E03CC0222302
:1023A00051F1233071F0243028F42130A1F0223093
:1023B00011F514C02630B1F02730C1F02430D9F423
:1023C00004C0809180008F7703C0809180008F7D52
:1023D0008093800010C084B58F7702C084B58F7D54
:1023E00084BD09C08091B0008F7703C08091B00098
:1023F0008F7D8093B000892F90E0880F991F8C52B9
:102400009C4FFC01A591B4918C9120E030E0842395
:1024100011F021E030E0C901089508951F920F9254
:102420000FB60F9211242F933F934F938F939F9347
:10243000EF93FF938091C00082FD1DC04091C600C4
:102440002091DC033091DD032F5F3F4F2F733070FD
:102450008091DE039091DF032817390771F0E09136
:10246000DC03F091DD03E456FC4F40833093DD0341
:102470002093DC0302C08091C600FF91EF919F91F1
:102480008F914F913F912F910F900FBE0F901F9002
:102490001895E0913004F0913104E05CFF4F819198
:1024A000919120813181821B930B8F739070892BC6
:1024B00011F00E940D1208951F920F920FB60F9205
:1024C00011242F933F938F939F93EF93FF9320912A
:1024D0002004309121048091220490912304281734
:1024E000390731F48091C1008F7D8093C10014C001
:1024F000E0912204F0912304E052FC4F208180916E
:1025000022049091230401968F739070909323047A
:10251000809322042093C600FF91EF919F918F91A9
:102520003F912F910F900FBE0F901F901895AF9273
:10253000BF92DF92EF92FF920F931F93CF93DF939F
:10254000EC017A018B01DD24403081EE580780E0F8
:10255000680780E0780711F0DD24D39491E0A92E7C
:10256000B12CEC89FD89DD2069F0C50108A002C00D
:10257000880F991F0A94E2F7808360E079E08DE389
:1025800090E005C0108260E874E88EE190E0A80158
:1025900097010E94151621503040404050405695FA
:1025A00047953795279580E12030380720F0DD20CA
:1025B00011F0DD24D6CFE889F9893083EA89FB89D7
:1025C000208319A2EE89FF89408121E030E0C90112
:1025D0000C8C02C0880F991F0A94E2F7482B4083A5
:1025E000EE89FF894081C9010D8C02C0880F991FB7
:1025F0000A94E2F7482B4083EE89FF894081C901A4
:102600000E8C02C0880F991F0A94E2F7482B408372
:10261000EE89FF8980810F8C02C0220F331F0A943C
:10262000E2F7209528232083DF91CF911F910F910E
:10263000FF90EF90DF90BF90AF900895DC011C9663
:10264000ED91FC911D97E05CFF4F219131918081CC
:102650009181281B390B2F733070C9010895DC015B
:102660001C96ED91FC911D97E05CFF4F208131811C
:10267000E054F040DF01AE5BBF4F8D919C9111970C
:102680002817390719F42FEF3FEF07C08D919C9160
:10269000E80FF91F8081282F30E0C9010895DC017F
:1026A0001C96ED91FC911D97E05CFF4F20813181DC
:1026B000E054F040DF01AE5BBF4F8D919C911197CC
:1026C0002817390719F42FEF3FEF10C08D919C9117
:1026D0001197E80FF91F20818D919C911197019618
:1026E0008F73907011969C938E9330E0C90108957A
:1026F000DC0191968C919197882339F05496ED9155
:10270000FC915597808186FFF9CF91961C92089590
:10271000CF93DF93EC01EE85FF85E05CFF4F2081D6
:102720003181E054F0402F5F3F4F2F733070DF0155
:10273000AE5BBF4F8D919C91119728173907D1F34C
:10274000E05CFF4F80819181E054F040E80FF91F79
:102750006083EE85FF85E05CFF4F31832083EE8947
:10276000FF89208181E090E00F8C02C0880F991FC3
:102770000A94E2F7282B208381E089A3EC89FD8964
:1027800080818064808381E090E0DF91CF91089523
:10279000109227041092260488EE93E0A0E0B0E0A7
:1027A0008093280490932904A0932A04B0932B04C7
:1027B0008DE991E090932504809324048CE993E0C3
:1027C000909331048093300480EE93E0909333042F
:1027D0008093320485EC90E0909335048093340428
:1027E00084EC90E0909337048093360480EC90E082
:1027F000909339048093380481EC90E090933B04EB
:1028000080933A0482EC90E090933D0480933C04E2
:1028100086EC90E090933F0480933E0484E08093A4
:10282000400483E08093410487E08093420485E084
:102830008093430481E0809344040895CF93DF9311
:102840000E94EC100E94660EC9E4D2E10E940F0FB4
:102850002097E1F30E944912F9CFCF92DF92EF92D5
:10286000FF920F931F93CF93DF937C016B018A013B
:10287000C0E0D0E00FC0D6016D916D01D701ED91A0
:10288000FC910190F081E02DC7010995C80FD91F77
:10289000015010400115110571F7CE01DF91CF9164
:1028A0001F910F91FF90EF90DF90CF900895EF92DE
:1028B000FF920F931F938C01DC01ED91FC9101902D
:1028C000F081E02D6DE009957C01D801ED91FC913E
:1028D0000190F081E02DC8016AE009959C012E0D60
:1028E0003F1DC9011F910F91FF90EF900895CF9365
:1028F000DF93EC016115710519F420E030E00FC0A1
:10290000DB010D900020E9F71197A61BB70BE881BA
:10291000F9810280F381E02DAD0109959C01C90187
:10292000DF91CF9108954F925F927F928F929F9205
:10293000AF92BF92CF92DF92EF92FF920F931F93CD
:10294000DF93CF93CDB7DEB7A1970FB6F894DEBF74
:102950000FBECDBF2C01742ECB01223008F42AE02B
:1029600019A231E2C32ED12CCC0EDD1E822E992469
:10297000AA24BB24672D752FA50194010E9415166A
:1029800079018A01C801B701A50194010E94CF1500
:10299000472D461B0894C108D1084A3014F4405D05
:1029A00001C0495CF6014083E114F1040105110501
:1029B00021F07E2C5F2DC801DDCFC201B6010E943F
:1029C0007714A1960FB6F894DEBF0FBECDBFCF919E
:1029D000DF911F910F91FF90EF90DF90CF90BF900C
:1029E000AF909F908F907F905F904F900895DC0103
:1029F0002115310541F4ED91FC910190F081E02D1C
:102A0000642F099508950E9493140895EF92FF9200
:102A10000F931F939A017B0100E010E0B801A7011A
:102A20000E94F7141F910F91FF90EF900895EF927D
:102A3000FF920F931F939A01E62EFF2400E010E00F
:102A4000B801A7010E94F7141F910F91FF90EF901A
:102A50000895CF92DF92EF92FF920F931F936C0134
:102A6000E62E9A01FF2400E010E0B801A7010E94C1
:102A7000F7148C01C6010E945714080F191FC801D2
:102A80001F910F91FF90EF90DF90CF900895CF921C
:102A9000DF92EF92FF920F931F93CF93DF93EC019E
:102AA0006A017B012115310541F4E881F98101902A
:102AB000F081E02D642F09951FC02A303105D1F433
:102AC00077FF17C0E881F9810190F081E02D6DE278
:102AD00009958C0144275527BA014C195D096E09E7
:102AE0007F09CE012AE00E9493149801280F391F14
:102AF00004C02AE00E9493149C01C901DF91CF9188
:102B00001F910F91FF90EF90DF90CF900895EF927B
:102B1000FF920F931F937B019A010027F7FC00950A
:102B2000102FB801A7010E9447151F910F91FF9028
:102B3000EF900895CF92DF92EF92FF920F931F9341
:102B40006C017B019A010027F7FC0095102FB8015A
:102B5000A7010E9447158C01C6010E945714080F57
:102B6000191FC8011F910F91FF90EF90DF90CF9038
:102B700008950E9477140895EF92FF920F931F9388
:102B80007C010E9477148C01C7010E945714080F22
:102B9000191FC8011F910F91FF90EF900895629F38
:102BA000D001739FF001829FE00DF11D649FE00D45
:102BB000F11D929FF00D839FF00D749FF00D659FA6
:102BC000F00D9927729FB00DE11DF91F639FB00DA5
:102BD000E11DF91FBD01CF0111240895AA1BBB1BE4
:102BE00051E107C0AA1FBB1FA617B70710F0A61B0D
:102BF000B70B881F991F5A95A9F780959095BC012E
:102C0000CD01089597FB092E07260AD077FD04D041
:102C1000E5DF06D000201AF4709561957F4F089586
:102C2000F6F7909581959F4F0895A1E21A2EAA1B61
:102C3000BB1BFD010DC0AA1FBB1FEE1FFF1FA2176C
:102C4000B307E407F50720F0A21BB30BE40BF50B69
:102C5000661F771F881F991F1A9469F760957095F2
:102C6000809590959B01AC01BD01CF010895EE0FB9
:0E2C7000FF1F0590F491E02D0994F894FFCF1A
:102C7E0054696D656F75740020200053746F703A3F
:102C8E000057616974696E672073746172743A00DB
:102C9E00496E707574206C6F73743A0053425553BD
:102CAE000046757437353075200050504D00206D3C
:102CBE006F64653A0020543D002054633D00204D62
:102CCE003D0020413D0020423D0020453D0020209A
:102CDE0020200052464D206C6F636B0004010C01E6
:102CEE00E801E8016348CC010000004D9359A76D3F
:102CFE00BD7FD1080002070102030405060B0C0D6F
:102D0E000E0F101112131415160000000088132D4B
:0A2D1E00141E134F132F1378130037
:00000001FF
