:100000000C943E020C94C1020C9466020C9466029D
:100010000C9466020C9466020C9466020C946602C0
:100020000C9466020C9466020C948E020C94660288
:100030000C9466020C9466020C9466020C946602A0
:100040000C9429120C9466020C942A140C947814C3
:100050000C9466020C9466020C9466020C94660280
:100060000C9466020C946602464C4153482045525B
:10007000524F522121212043616E277420776F72E5
:100080006B21004572726F72207265616420736526
:100090007474696E677321000D0A4261796368693F
:1000A00020736F66742032303133005458204F7003
:1000B000656E204578706572742056322046005077
:1000C0007265737320276D2720746F2073746172BB
:1000D00074204D454E550046486E3A204D696E20BD
:1000E000417672204D6178000A0D546F20456E7480
:1000F0006572204D454E5520507265737320454EF4
:1001000054455200547970652052656720616E64D1
:1001100020707265737320454E5445522C207479BB
:1001200070652056616C756520616E642070726523
:10013000737320454E5445522028713D51756974A2
:100140003B204E782D79203D2053686F77206E6FCD
:1001500069736529000D0A52673D56616C20094399
:100160006F6D6D656E7473202D2D2D2D2D2D2D2D04
:100170002D2D2D2D2D2D2D2D2D2D2D2D2D2D2D00DC
:100180004D616B65206E65772062696E643F20412A
:10019000726520796F75207375726528792F6E29C5
:1001A0003F000D0A54727920746F206E65772062CB
:1001B000696E642E2E2E000A0D467265712F6E6FC9
:1001C0006973653A20004572726F723A20746F6FDE
:1001D000206E6F697365210042696E64204E3D0098
:1001E00042696E64204E0000000000000000000024
:1001F00000000000000000000000000000000000FF
:100200004672657120636F7272656374696F6E20E8
:10021000636F6E73740000000000000000000000B7
:100220005465726D20636F727220656E61626C65D9
:1002300000000000000000000000000000000000BE
:10024000465320636865636B20656E61626C650070
:10025000000000000000000000000000000000009E
:100260003131206269742F313020636820656E61FE
:10027000626C65000000000000000000000000004B
:100280004465627567206F75742028312D50504D7C
:100290002C20322D706572662E29000000000000AF
:1002A000486F70652046310000000000000000002B
:1002B000000000000000000000000000000000003E
:1002C000486F70652046320000000000000000000A
:1002D000000000000000000000000000000000001E
:1002E000486F7065204633000000000000000000E9
:1002F00000000000000000000000000000000000FE
:10030000486F7065204634000000000000000000C7
:1003100000000000000000000000000000000000DD
:10032000486F7065204635000000000000000000A6
:1003300000000000000000000000000000000000BD
:10034000486F706520463600000000000000000085
:10035000000000000000000000000000000000009D
:10036000486F706520463700000000000000000064
:10037000000000000000000000000000000000007D
:10038000486F706520463800000000000000000043
:10039000000000000000000000000000000000005D
:1003A000506F776572207377697463682063686142
:1003B0006E2028312D31332C303D6F6666290000C8
:1003C000506F776572206D696E2028302D372900B7
:1003D000000000000000000000000000000000001D
:1003E000506F776572206D6964646C652028302DCC
:1003F000372900000000000000000000000000009D
:10040000506F776572206D61782028302D37290074
:1004100000000000000000000000000000000000DC
:1004200000000000240027002A0000000000250032
:1004300028002B00000000002300260029000404EF
:10044000040404040404020202020202030303037C
:100450000303010204081020408001020408102058
:100460000102040810200000000700020100000340
:1004700004060000000000000000E41511241FBE67
:10048000CFEFD8E0DEBFCDBF11E0A0E0B1E0E6EBFA
:10049000F0E302C005900D92AC3AB107D9F714E031
:1004A000ACEAB1E001C01D92A834B107E1F714E055
:1004B000CCE7D4E004C02297FE010E945518CA3749
:1004C000D107C9F70E943A160C9459180C940000F1
:1004D000FC0188279927E89421912032E9F32930FB
:1004E00010F02E30C8F32B3241F02D3239F46894DD
:1004F00004C00E948602820F911D219120532A3050
:10050000C0F31EF4909581959F4F08957AE0979FD0
:10051000902D879F802D910D112408951F920F9289
:100520000FB60F9211248F939F93EF93FF938091B7
:10053000860090918700E0917201F09173019183A0
:1005400080833296F0937301E0937201E255F34099
:1005500030F08AEE91E09093730180937201809164
:1005600081008A3111F48AE501C08AE1809381001B
:10057000FF91EF919F918F910F900FBE0F901F9061
:1005800018951F920F920FB60F9211240F900FBE65
:100590000F901F901895FF920F931F9390917103E6
:1005A000993108F449C080915203882309F044C06E
:1005B000809155038F3009F03FC080916D038823EF
:1005C000D9F5ABECB1E0FF24F39411E02CC0660F39
:1005D000771FEF2DF0E0EB5AFC4F808190E0212F48
:1005E00030E082239323892B11F0462B572B1038B0
:1005F00019F4F39411E001C0110F0F5F0B3039F7BC
:10060000CA01880F991F880F991F840F951F96950F
:100610008795969587958052994F8D939D9381E00C
:10062000A53EB80731F000E040E050E061E070E046
:10063000D0CF1092E7010BC0992349F0809153036A
:100640009091540301969093540380935303109216
:100650005203109272031092710310927003109261
:100660006F0310926E031F910F91FF9008952091D8
:10067000BD0180918503821B71F1992787FD9095BB
:1006800097FF03C0909581959F4F02978CF46091DE
:1006900088038091860390918703332727FD309547
:1006A000633670F070E00E941E186217730799F0AD
:1006B00010928703109286031092880381E00895B8
:1006C000820F931F90938703809386036F5F6093DD
:1006D000880380E0089580E0089580917A0188235E
:1006E000E1F081E080938C038091E8018F3F31F04D
:1006F00030918303EBECF1E020E00DC080916C03BE
:1007000083FF0BC00EC081919191885B97408F5FF2
:10071000974038F42F5F2317B0F310928C0381E0D9
:10072000089580E008955C9A429800005C9898E0F3
:1007300010C087FF07C042980000419A0000429A0B
:10074000000006C04298000041980000429A000054
:10075000880F915070F7429808958F770E94930305
:1007600008954298000098E010C087FF07C04298A3
:100770000000419A0000429A000006C04298000022
:1007800041980000429A0000880F915070F74298FB
:1007900008954298000080E090E0880F429A00009F
:1007A00030998160429800009F5F9830B1F70895BA
:1007B0000E94AD030E94C9035C9A08951F93162FEF
:1007C00080680E949303812F0E94B1035C9A1F915D
:1007D00008953F924F925F926F927F928F929F9275
:1007E000AF92BF92CF92DF92EF92FF920F931F933F
:1007F000CF93DF93F82EF894A0907201B09073011C
:10080000789480917C0181FF56C00E947F128B01F9
:100810009C018091730390917403A801481B590BAC
:100820008091C0019091C1018417950720F45093E5
:10083000C1014093C001009373031093740320938C
:1008400075033093760380917703909178039C0130
:1008500075E0369527957A95E1F7821B930B840F07
:10086000951F909378038093770380917401909102
:1008700075019501281B390BC901959587959093B2
:100880007A0380937903843B910530F08C549F4F19
:1008900090937A03809379032091790330917A03BE
:1008A00080917B0390917C038217930720F430930F
:1008B0007C0320937B03E090910320918F03309180
:1008C00090030091920310919303C0E0D0E06F2C4D
:1008D00077245AEE452E51E0552E992493944CE0FE
:1008E000842E33243A94CBC0C190D190F0937501FB
:1008F000E0937401E255F34020F05092750140926C
:100900007401C601821B930B3091E8013F3F09F44B
:1009100053C0E394E0FEB0C0800F911F209171019D
:10092000222331F1233388F0109271018091E90183
:100930008B3018F03092E8019EC03B3018F0909256
:10094000E80199C01092E80196C08436910530F410
:100950008091E9018F5F8093E90106C08054964041
:1009600018F43F5F3093E8012F5F2093710183C03B
:10097000332311F0880F991FF3E188389F0728F07F
:10098000109270011092E70176C025E08C3D92072D
:1009900080F0209170012C3060F4E22FF0E0EE0F37
:1009A000FF1FE553FE4F918380832F5F20937001DB
:1009B00062C0809270015FC00A9664E170E00E949C
:1009C0000A186B3018F00E94CB0255C0809170035A
:1009D000882319F4615090927003F0906F03AF2D4B
:1009E000B0E050916E0320917003309172037091CA
:1009F0005203409171032DC03F0D822F90E001976B
:100A0000FD0102C0EE0FFF1F8A95E2F75E2B2F5FFC
:100A10002C3021F02A30E0F04831D0F0E42FF0E023
:100A2000EB5AFC4F50833170730F4F5F493168F0C0
:100A300010926E031092700310927203709352031F
:100A4000409371030E94CB0210C050E020E030E0E0
:100A50006150662389F650936E03209370033093A0
:100A60007203709352034093710380916F03F92DC9
:100A7000F81BF0936F03C801219696018C01E09159
:100A80007401F0917501EA15FB0521F0C615D70533
:100A900008F42ACFE09291033093900320938F03C0
:100AA0001093930300939203DF91CF911F910F91C5
:100AB000FF90EF90DF90CF90BF90AF909F908F907E
:100AC0007F906F905F904F903F9008956091780174
:100AD000662369F080917901882319F08091BE0125
:100AE000680F89E00E94DE038CE00E94E903809198
:100AF000BC018F5F8093BC01883010F01092BC0164
:100B0000E091BC01F0E0EE57FE4F89E760810E9462
:100B1000DE03089583E00E94D80380938D0384E070
:100B20000E94D80380938E038CE00E94E90387E043
:100B300061E00E94DE03089587E061E00E94DE0329
:100B40008EE764E20E94DE038CE00E94E90388E005
:100B500063E00E94DE0388E060E00E94DE038CE038
:100B60000E94E90387E065E00E94DE0385E062E021
:100B70000E94DE038CE00E94E90383E00E94D80318
:100B800080938D0384E00E94D80380938E030895A0
:100B9000EF92FF920F931F938C010E9471127801C4
:100BA00000E010E0E60EF71E081F191F03C08CE0DE
:100BB0000E94E9030E9471126E157F05800791075C
:100BC000B0F31F910F91FF90EF9008950E948A0556
:100BD00082E390E00E94C8050E949C050895EF9270
:100BE000FF920F931F938C010E947F12780100E007
:100BF00010E0E60EF71E081F191F03C08CE00E94CC
:100C0000E9030E947F126E157F0580079107B0F3FC
:100C10001F910F91FF90EF9008958FE060E80E9480
:100C2000DE038DE491E00E94EF0581E10E94D8038C
:100C3000282F20542093BD01243154F4332727FD5D
:100C400030958EE190E0821B930B6AE070E00BC060
:100C50002F3174F0332727FD30958EE190E0821B11
:100C6000930B67E070E00E941E186093BE0102C003
:100C70001092BE018CE00E94E90308952F923F92EA
:100C80004F925F926F927F928F929F92AF92BF929C
:100C9000CF92DF92EF92FF920F931F93CF93DF9348
:100CA0000E948A05E0917D018E2F81508D30B0F435
:100CB000F894F0E0EE0FFF1FE753FE4F8081918123
:100CC00078942AE08832920718F460917E0108C077
:100CD00088549D4018F460917F0102C060918001AA
:100CE00067704091BF014F5F4093BF0150E028E023
:100CF00030E0261B3109C901880F991F820F931F0D
:100D0000841795071CF41092BF012D9A685F8DE639
:100D10000E94DE0388E063E00E94DE0388E060E07A
:100D20000E94DE03609177016093AC018FE70E941F
:100D3000DE0385E064E00E94DE0383E00E94D803C6
:100D400080938D0384E00E94D80380938E0303C0B8
:100D500081E00E94E9030E947F122091C701309137
:100D6000C8014091C9015091CA01621B730B840BE9
:100D7000950B66577A478040904050F387E069E0D2
:100D80000E94DE038091C7019091C801A091C90122
:100D9000B091CA01845F9448AF4FBF4F8093C701A1
:100DA0009093C801A093C901B093CA010E947F1219
:100DB0004B015C01DD24D3946FE1262E64E0362ED6
:100DC000CC24C39451E0652E712C42E0442E512C6A
:100DD00067C10E947F12681979098A099B09E61682
:100DE000F7060807190708F06BC181E0D81609F06B
:100DF0005CC0ABECB1E0EEEAF1E060E010E000E0F6
:100E000040E050E0742F8D919C91119727E0883B32
:100E1000920718F420E030E016C03FE0883B9307CB
:100E200018F02FEF37E007C09C01285B374084E0C3
:100E30002030380740F0C301072E02C0880F991FE9
:100E40000A94E2F7682BC901969587959695879540
:100E50008083473099F021FF08C0C201072E02C0ED
:100E6000880F991F0A94E2F7182B20FF07C0C301CF
:100E700002C0880F991F7A95E2F7082B4F5F5F4FEA
:100E8000129631964830510509F0BCCF6093AD0100
:100E90008FE70E94DE031093BB0180917B018823C2
:100EA00009F4FDC00093B901FAC02DE02D1508F436
:100EB000CEC03EEFD30EED2DF0E042E0D40EEE0FAB
:100EC000FF1FE553FE4F0190F081E02D87E0E83BE6
:100ED000F80718F440E050E00AC02FE0E83BF207C2
:100EE00018F04FEF57E003C0AF01485B574039E0BF
:100EF0003D1508F44BC0229793010C2E02C0220F1F
:100F0000331F0A94E2F72296722F84E0403058078C
:100F100010F0622F01C060E0872F90E02091AD01BA
:100F200030E082239323262F30E08217930709F0C5
:100F300089C0FE01E455FE4FCA01969587959695A6
:100F40008795808380917B01882369F040FF04C0EE
:100F50008091B901872B05C0872F80959091B901A9
:100F600089238093B90129E0D21609F46BC0972F29
:100F7000990F41FF04C08091BB01982B04C090954C
:100F80008091BB0198239093BB015CC080917B0151
:100F9000882321F08D2D8C50823050F0FE01E455D5
:100FA000FE4FB3E056954795BA95E1F740834AC0A6
:100FB0003CE0D31609F046C047E0E83BF40718F4DC
:100FC00080E090E00AC08FE0E83BF80718F08FEF70
:100FD00097E003C0CF01885B97402091E1013091F9
:100FE000E20147E0283B340718F420E030E009C074
:100FF0004FE0283B340718F02FEF37E002C0285BA2
:1010000037402770220F220F220F8770282B8091E4
:10101000D9019091DA0137E0883B930718F480E01A
:1010200090E009C04FE0883B940718F08FEF97E0FD
:1010300002C0885B974082708295880F807E822BE9
:101040008093B801C455DE4F8FE7688126C08EE0DB
:10105000D816D1F4EEEAF1E060E08081682720E064
:10106000862F90E0BC017595679580FF02C03CE833
:1010700063272F5F2830A1F7319641E0EA3BF40760
:1010800061F760838FE709C08091C201823011F45B
:10109000C092BB018FE76091BB010E94DE03D39435
:1010A000CD2DD0E0C29DC001C39D900DD29D900D6D
:1010B0001124825C974F7C010027F7FC0095102FCC
:1010C0004A9B31C00E947F12681979098A099B09DD
:1010D0006F5F7C478040904030F58CE00E94E903D0
:1010E0003FE03D1568F375CE86E294E060E071E084
:1010F0000E94D81780E004C02D980E948A0581E0E4
:10110000DF91CF911F910F91FF90EF90DF90CF90E3
:10111000BF90AF909F908F907F906F905F904F9017
:101120003F902F9008954A9BE7CFDECF87E060E89D
:101130000E94DE0361E070E080E090E00E94A51272
:1011400083E00E94D80380938D0384E00E94D8033B
:1011500080938E0386E060E00E94DE0387E061E01A
:101160000E94DE0360917801662311F089E002C0DD
:1011700089E067EC0E94DE038AE065E00E94DE03FE
:101180008BE062E10E94DE038CE065E10E94DE03F9
:101190008EE060E00E94DE038FE163E00E94DE03E8
:1011A0008EE16AE00E94DE0382E160E60E94DE03D7
:1011B00083E168EF0E94DE038FE060E80E94DE03B7
:1011C0008DE160E40E94DE038CE166E20E94DE03B2
:1011D00080E264E40E94DE0381E260E00E94DE03BC
:1011E00082E262EF0E94DE0383E26CE70E94DE038C
:1011F00084E266E00E94DE0385E26DE70E94DE0382
:101200008AE26FE00E94DE0380E36CEA0E94DE0364
:1012100082E36CE80E94DE0383E36AE00E94DE035F
:1012200084E364E00E94DE0385E362E20E94DE0361
:1012300086E36DE20E94DE0387E364ED0E94DE0335
:1012400088E360E00E94DE0389E360E00E94DE0341
:101250008EE360E10E94DE038DE66FE00E94DE0314
:101260008EE66CE30E94DE038FE66FE90E94DE03E8
:1012700089E660E60E94DE0380E76EE20E94DE03FC
:1012800089E760E00E94DE038AE766E00E94DE03F1
:1012900081E760E00E94DE0381E763E20E94DE03F3
:1012A00082E76EE00E94DE0385E763E50E94DE03CD
:1012B00086E76CE40E94DE0387E760EE0E94DE03AF
:1012C00008951F93182F8A3038F486E294E068E07E
:1012D00071E00E94D51707C0843628F486E294E0B6
:1012E00060E20E94A41586E294E0612F4AE050E09B
:1012F0000E94331786E294E060E20E94A4151F91D9
:1013000008950F931F9390918101899F802D11243F
:10131000980F1FEF0FEF0EC0E82FF0E0E651FE4FE1
:10132000E081EE3D20F4E11710F4082F01C0E12F19
:101330008F5F1E2F891780F31E3D88F586E294E0AB
:1013400060E20E94A41586E294E0602F4AE050E03B
:101350000E94331786E294E06BE071E00E94D5179B
:101360001695169586E294E0612F70E04AE050E011
:101370000E94A317002359F0E02FF0E0E651FE4F42
:101380008FEF82933196023010F032978083E02FF6
:10139000F0E0E651FE4F8FEF828381838083802FC0
:1013A0001F910F9108951F93182F0E948109893E64
:1013B00070F0112341F0812F81500E948109883EF5
:1013C00030F0173020F4812F81500E9481091F9145
:1013D00008951F938091C0019091C101805A9F4050
:1013E00020F01092C1011092C0010E94370388239F
:1013F00069F520917F033091800380915303909190
:1014000054032817390711F5909184038091E7015F
:101410009817E1F420917D0330917E038091C00103
:101420009091C1012817390789F4209181033091E7
:10143000820380917B0390917C032817390731F454
:1014400090918C0380918B03981739F18091C001A2
:101450009091C10190937E0380937D03809153030B
:10146000909154039093800380937F038091BD01FA
:10147000809385038091E7018093840380917B03AF
:1014800090917C03909382038093810380918C03DD
:1014900080938B0381E080938A0380918A0382305A
:1014A00009F474C0833038F4882309F40DC1813005
:1014B00009F039C107C0833009F491C0843009F0C4
:1014C00032C1E8C086E294E06DE00E94A4158091EC
:1014D0008C03882329F086E294E06DE071E04FC030
:1014E0008091E7018F3F29F486E294E063E171E0A7
:1014F00046C0863028F086E294E062E271E03FC0A8
:1015000080918303882399F4EBECF1E08081918151
:10151000892B29F0809183038F5F80938303329618
:1015200081E0E33EF80791F78CE00E94E9038091A7
:10153000E8018F3F39F486E294E06EE271E00E94A8
:10154000D51719C0882331F086E294E063E371E097
:101550000E94D51786E294E06CE371E00E94D517F3
:101560008CE00E94E90386E294E0609183034AE004
:1015700050E00E94331786E294E060E471E00E943C
:10158000D5178CE00E94E90382E026C086E294E051
:1015900067E471E00E94D51760918503772767FDA6
:1015A000709586E294E04AE050E00E94A31786E23C
:1015B00094E06BE471E00E94D5176091BE0177273B
:1015C00067FD709586E294E04AE050E00E94A31720
:1015D0008CE00E94E90383E080938A03A4C0809199
:1015E0007C0181FF55C086E294E060E571E00E94D5
:1015F000D51760917D0370917E0386E294E04AE006
:1016000050E00E9422178CE00E94E90386E294E0F9
:1016100064E571E00E94D5176091770370917803BB
:1016200015E0769567951A95E1F786E294E04AE031
:1016300050E00E9422178CE00E94E9038091E801AB
:101640008F3F31F586E294E068E571E00E94D5179E
:10165000609181037091820386E294E04AE050E059
:101660000E9422178CE00E94E90386E294E06CE578
:1016700071E00E94D51760917F037091800386E22C
:1016800094E04AE050E00E9422178CE00E94E903B7
:1016900084E0A2CF80917C0180FF0DC010E086E243
:1016A00094E060E671E00E94D51782E00E94E903B1
:1016B0001F5F1830A1F786E294E00E947316109223
:1016C000890310928A032FC080917C0180FF2BC078
:1016D00080918303833038F1E0918903F0E0EE0FCD
:1016E000FF1FE553FE4F6081718186E294E04AE07E
:1016F00050E00E9422178CE00E94E90386E294E009
:1017000060E20E94A415809189038F5F8093890312
:1017100090918303891738F086E294E06DE00E948F
:10172000A415109289031F9108951F93CF93DF93FF
:10173000EC01162FFE0121966491662329F086E2C2
:1017400094E00E94A415F6CF112321F086E294E0E4
:101750000E947316DF91CF911F910895AF92BF92AF
:10176000CF92DF92EF92FF920F931F93CF93DF936D
:101770005C0101960E9468029C0101978E3F9105D1
:1017800010F010E01EC0122F82E090E0F501E80F8B
:10179000F91FE081EE23A9F00196ED3279F48A0D6C
:1017A0009B1D0E9468029C01812F90E08217930785
:1017B00040F42F3F310528F4C22E05C08A30910530
:1017C00029F74EEFC42E0E9496080E94E60587ED89
:1017D00090E061E00E94950BE12EAEC089E76E2D8E
:1017E0000E94DE038DEE92E00E94FE120FEFFF24B6
:1017F000C0E0D0E010E083E690E00E94FE1286E2B6
:101800000E94D803C80FD11D801708F4082FF816BE
:1018100008F4F82E1F5F173C71F789E08E1538F039
:1018200086E294E068E071E00E94D51708C0E3E624
:10183000EE1528F086E294E060E20E94A41586E2AC
:1018400094E06E2D4AE050E00E943317E2E8F1E0A8
:101850006AE380818E1509F463E2319681E0EA380B
:10186000F807B9F786E294E00E94A41586E294E0B6
:1018700060E20E94A415802F0E946109CE0167ECEE
:1018800070E00E940A18162F862F0E9461098F2D82
:101890000E946109F50180818E3409F047C00A3049
:1018A00010F4DD2408C0083418F03DE3D32E03C043
:1018B00026EFD22ED00EF9E0FF1510F000E007C0A1
:1018C00087E48F1510F40DE302C00F2D0A501A3073
:1018D00010F4FF2408C0183418F09DE3F92E03C05B
:1018E00086EFF82EF10E10E01F1521F486E294E049
:1018F0006AE217C01D1521F486E294E06CE311C082
:10190000101721F486E294E06EE30BC0D11630F498
:10191000101720F486E294E06EE203C086E294E0C1
:1019200060E20E94A4151F5F0117F0F686E294E0C2
:101930000E947316A895E394CE1408F04FCFDF9160
:10194000CF911F910F91FF90EF90DF90CF90BF90BC
:10195000AF900895EF92FF920F931F93CF93DF9371
:101960007C01FC01108200E010E0A89586E294E082
:101970000E943A151816190694F586E294E00E9422
:101980006B15EC011816190684F786E294E06C2FAB
:101990000E94A415CD30D10519F0CA30D10559F4F3
:1019A00086E294E00E947316DF91CF911F910F9110
:1019B000FF90EF900895C830D10531F4011511055D
:1019C000A1F201501040D1CFF701E00FF11FC08309
:1019D0001182063011054CF60F5F1F4FC6CF61E034
:1019E00070E080E090E00E94A512BFCF86E294E014
:1019F0000E943A151816190614F020E01AC086E263
:101A000094E00E946B158336910519F0833491059B
:101A100041F41092C1011092C00110927C03109207
:101A20007B038D36910521F020E08D34910509F47A
:101A300021E0822F0895462FBC016C5F7F4F84E91F
:101A400093E00E941D120895DF92EF92FF920F9390
:101A50001F938C01D62E472F54E9E52E53E0F52E27
:101A6000C701B8010E941D120F5F1F4FC701B801C7
:101A70004D2D0E941D121F910F91FF90EF90DF904E
:101A80000895EF92FF920F931F93CF93DF9306E792
:101A900011E0EE24FF24C0E0D0E0CE01F801608127
:101AA0000E941B0DF80181918F01E80EF11C219617
:101AB000C730D10591F7C2E8D1E00BE010E0C801D2
:101AC00068810E941B0D8991E80EF11C0F5F1F4F6A
:101AD000F1E0CA38DF0799F7CDE7D1E003E110E084
:101AE000C80168810E941B0D8991E80EF11C0F5FEF
:101AF0001F4F81E0C138D80799F784E490E0B7011F
:101B00000E94240DDF91CF911F910F91FF90EF90D4
:101B10000895BC016C5F7F4F84E993E00E94161228
:101B20000895FF920F931F93CF93DF9385E591E084
:101B300061E00E94950BFF24C1E0D0E00F2D10E082
:101B4000F801E657FE4F808190E08C179D0739F52C
:101B500086E294E0BE014AE050E00E94A31786E2CC
:101B600094E06DE30E94A415CE010E94890D682FB8
:101B700086E294E04AE050E00E94331786E294E067
:101B800069E00E94A41565E0000F111F6A95E1F756
:101B9000C80180529E4F61E00E94950BF3942196FC
:101BA000CB32D10559F6DF91CF911F910F91FF9064
:101BB000089588E990E061E00E94950B8BEA90E03F
:101BC00060E00E94950B86E294E060916E014AE02D
:101BD00050E00E9445170E94910D8FEB90E061E06C
:101BE0000E94950B0895DF92EF92FF920F931F933F
:101BF0008C0174E9E72E73E0F72EC701B8010E944B
:101C00001612D82E0F5F1F4FC701B8010E9416127F
:101C10003D2D20E0280F311DC9011F910F91FF902C
:101C2000EF90DF9008950F931F93CF93DF9300E021
:101C300010E0C0E0D0E0CE010E94890DFE01EA581C
:101C4000FE4F8083080F111D2196C730D10599F7EB
:101C5000CBE0D0E0CE010E94890DFE01E958FE4F95
:101C60008083080F111D2196C331D10599F7C3E177
:101C7000D0E0CE010E94890DFE01E659FE4F80831F
:101C8000080F111D2196C731D10599F784E490E022
:101C90000E94F30D20E08017910709F421E0822FC4
:101CA000DF91CF911F910F9108950F931F93CF93C1
:101CB000DF93E0E0F0E000E010E08491080F111DF8
:101CC000319680E4E030F807C1F790916F0180E031
:101CD00020916E01EC01C20FD11D80E490E00E94C2
:101CE000F30DC817D90761F080E490E0BE010E94AF
:101CF000240D82E490E0B8010E94240D81E00AC026
:101D000082E490E00E94F30D8017910711F480E0C7
:101D100001C08FEFDF91CF911F910F9108958EE059
:101D200060E00E9443138FE061E00E94431380E172
:101D300061E00E94431382E060E00E94431382E06E
:101D400061E00E94821384E061E00E94431380E01E
:101D500060E00E94431381E061E00E94431380E051
:101D600061E00E94821381E061E00E94821381E1C0
:101D700061E00E9443138DE061E00E94431386E01E
:101D800060E00E94431386E061E00E94821388E0D5
:101D900060E00E94431388E061E00E94821386E2C3
:101DA00094E040E056E960E070E00E94B31481E006
:101DB000809371011092E80183E0809380008AE1B2
:101DC000809381008FEF9FEF90938900809388002C
:101DD000EFE6F0E0808180628083E898789408954F
:101DE0001F93182F8091C2018130C1F0813018F00B
:101DF0008230D1F52FC086E00E94D613892BA1F541
:101E000081E08093C2010E9471126093C3017093BC
:101E1000C4018093C5019093C60126C086E00E944C
:101E2000D613892BE1F40E9471122091C3013091E5
:101E3000C4014091C5015091C601621B730B840B14
:101E4000950B655F71408040904070F082E0809318
:101E5000C2010AC086E00E94D613892B19F01092A5
:101E6000C20102C011112D9A1F910895BF92CF9205
:101E7000DF92EF92FF920F931F93CF93DF9388230C
:101E800051F50E9471127B018C0187E893E1A0E07B
:101E9000B0E0E80EF91E0A1F1B1F2D98A89580E0E0
:101EA0000E94F00E0E947112E616F7060807190745
:101EB00008F42D9A8091C201882381F70E94711243
:101EC0006E157F058007910708F4C8C00E94130EA5
:101ED000882351F01DC08F3F21F0EE24FF2487019D
:101EE00016C0EE24FF24870181E0809379011092CF
:101EF0007C0110927B0110927A0110927D01109268
:101F00007E0182E080937F0187E0809380012D9A9B
:101F1000F7ECBF2EEDE1CE2E809178018A5A8D33F9
:101F200010F0B09278010E9496080E94E6050E9487
:101F30009C0582EA91E060E00E94950B80E090E0D1
:101F4000FC01E651FE4F108201968F3F9105C1F7CB
:101F5000DD24A895C0E0D0E089E76C2F0E94DE0365
:101F600087EE93E00E94FE1286E20E94D803982F2B
:101F7000969596959695983008F098E0FE01E65172
:101F8000FE4F8081890F80832196C83ED10521F7BD
:101F9000D3949FE1D916E9F62D98C092810187EB81
:101FA00091E060E00E94950B80E00E94D30980934D
:101FB000820184E00E94D3098093830181E00E9422
:101FC000D3098093840185E00E94D3098093850121
:101FD00082E00E94D3098093860186E00E94D309A3
:101FE0008093870183E00E94D3098093880187E072
:101FF0000E94D3098093890186E294E00E947316BF
:10200000E2E8F1E08081893E50F086EC91E061E009
:102010000E94950B85E090E00E94E2107DCF319602
:10202000A1E0EA38FA0771F70E9471126E197F0970
:10203000800B910B162F662309F411E088ED91E0D7
:1020400060E00E94950B86E294E0612F4AE050E048
:102050000E944517109377010E94410DDF91CF91A7
:102060001F910F91FF90EF90DF90CF90BF90089558
:10207000CF92DF92EF92FF920F931F93DF93CF9354
:10208000CDB7DEB728970FB6F894DEBF0FBECDBF31
:102090000E94E60588EE90E061E00E94950B8E01BB
:1020A0000F5F1F4FC8010E94AA0C8981813709F474
:1020B0007AC0813509F477C068010E94910D84E0EF
:1020C00091E061E00E94950BC6010E94AA0C8981F3
:1020D0008E3611F08E3421F4C6010E94AE0BF4CF7F
:1020E000823701F58A818536E9F48B818236D1F415
:1020F0008C818936B9F48D818E36A1F48E81843637
:1021000089F480E891E060E00E94950BC6010E948E
:10211000AA0C8981893711F0893521F481E00E9468
:10212000360FCBCF89818137F1F18135E1F1C601DD
:102130000E9468027C018BE2E816F10408F0BDCF32
:10214000C6010E94AA0C8981813769F1813559F154
:10215000C6010E9468028C018F3F910511F008F0C2
:10216000ACCFE114F10419F4009709F4A6CF86E28C
:1021700094E0B7014AE050E00E94A31786E294E0A1
:102180006DE30E94A41586E294E0B8014AE050E0B5
:102190000E94B617C701602F0E941B0D0E94130EEC
:1021A0000E94410D8ACF28960FB6F894DEBF0FBE6D
:1021B000CDBFCF91DF911F910F91FF90EF90DF90F6
:1021C000CF9008950F931F93CF93DF938C01C0E0BE
:1021D000D0E016C0A8958AEF90E00E94C8052D9A1D
:1021E0008AEF90E00E94C8052D980333110538F05E
:1021F0000E94F60C882319F00E94381004C0219622
:10220000C017D10738F3DF91CF911F910F91089537
:102210001F930E94550E182F8F3F51F488E690E0CF
:1022200061E00E94950B8FE59AEE0E94E2100DC0CE
:102230000E94130E882349F4113021F48FEF0E947D
:10224000360F03C083E890E0EBCF1F910895EF9223
:10225000FF920F931F930E94D90D2EE088E190E02A
:102260000FB6F894A895809360000FBE209360008D
:10227000439A63E670E080E090E00E94A512EBECE8
:10228000F1E01192119221E0E33EF207D1F7439879
:1022900080E00E94360F0E9408110E9496080E945A
:1022A0009C058FEF8093E70186E294E00E9473160D
:1022B0000E94E90910E00E940D068091BD01893D50
:1022C0000CF4A7C08CE00E94D803882309F4A1C0B5
:1022D0000E949C051092C1011092C00110927C03D3
:1022E00010927B030E947F126093C7017093C80114
:1022F0008093C9019093CA018CE00E94E903A895DC
:102300000E94F60C882361F00E9438100E947F1210
:102310006093C7017093C8018093C9019093CA016B
:102320008CE00E94D8038823C1F486E294E065E63D
:1023300071E00E94D8172D9A89EF90E00E94C8059D
:102340000E9496080E949C051092C1011092C00143
:1023500010927C0310927B03CFCF8CE00E94E903A4
:102360000E947F127B018C010E946D03982F8823AD
:10237000C1F18091E7018730A0F581E00E94F00E65
:102380008091C7019091C801D701A81BB90BCD015D
:10239000B1E787349B0708F4AFCF885E904880F0A0
:1023A00084EF94E8AFEFBFEFE80EF91E0A1F1B1F82
:1023B000E092C701F092C8010093C9011093CA01CD
:1023C0000E9466050E943E06882309F4B9CF0E9448
:1023D0000D068091E7018F5F8093E7010E94E90974
:1023E0008BCF8091E7018F3F59F0863018F4992305
:1023F00009F082CF80918B03882311F40E94E605B7
:102400000E940D060E94E90983E690E00E94C8053B
:1024100073CF0E94960863E670E080E090E00E942F
:10242000A5121F5F103209F046CF52CFF999FECFA7
:1024300072BD61BDF89A80B50895F999FECF1FBAB3
:1024400072BD61BD40BD0FB6F894FA9AF99A0FBEFD
:1024500008951F920F920FB60F9211242F933F935E
:102460008F939F93AF93BF938091990390919A0319
:10247000A0919B03B0919C0330919D030196A11DF7
:10248000B11D232F2D5F2D3720F02D570196A11D53
:10249000B11D20939D038093990390939A03A09379
:1024A0009B03B0939C038091950390919603A09118
:1024B0009703B09198030196A11DB11D80939503D8
:1024C00090939603A0939703B0939803BF91AF9115
:1024D0009F918F913F912F910F900FBE0F901F9062
:1024E00018958FB7F8942091990330919A034091F1
:1024F0009B0350919C038FBFB901CA0108959FB7F8
:10250000F894209195033091960340919703509150
:10251000980386B5A89B06C08F3F21F02F5F3F4FE1
:102520004F4F5F4F9FBF542F432F322F2227280F2B
:10253000311D411D511D82E0220F331F441F551FC5
:102540008A95D1F7B901CA0108959B01AC017FB703
:10255000F8948091950390919603A0919703B09180
:10256000980366B5A89B05C06F3F19F00196A11DA1
:10257000B11D7FBFBA2FA92F982F8827860F911DD5
:10258000A11DB11D62E0880F991FAA1FBB1F6A958C
:10259000D1F7BC012DC0FFB7F894809195039091BD
:1025A0009603A0919703B0919803E6B5A89B05C048
:1025B000EF3F19F00196A11DB11DFFBFBA2FA92F42
:1025C000982F88278E0F911DA11DB11DE2E0880F65
:1025D000991FAA1FBB1FEA95D1F7861B970B885E30
:1025E0009340C8F2215030404040504068517C4FE9
:1025F000211531054105510571F60895019739F00E
:10260000880F991F880F991F02970197F1F7089576
:10261000789484B5826084BD84B5816084BD85B5BD
:10262000826085BD85B5816085BDEEE6F0E0808184
:1026300081608083E1E8F0E01082808182608083A5
:10264000808181608083E0E8F0E080818160808328
:10265000E1EBF0E0808184608083E0EBF0E080815A
:1026600081608083EAE7F0E08081846080838081FC
:1026700082608083808181608083808180688083A4
:102680001092C1000895CF93DF93482F50E0CA0104
:102690008E5A9B4FFC013491425C5B4FFA0184914E
:1026A000882369F190E0880F991FFC01E05EFB4FE1
:1026B000A591B491FC01E65DFB4FC591D4916623D1
:1026C00051F42FB7F8948C91932F909589238C9384
:1026D000888189230BC0623061F42FB7F8948C9104
:1026E000932F909589238C938881832B88832FBF88
:1026F00006C09FB7F8948C91832B8C939FBFDF917A
:10270000CF910895482F50E0CA018A599B4FFC0190
:102710002491CA018E5A9B4FFC019491425C5B4FFD
:10272000FA013491332309F440C0222351F12330BC
:1027300071F0243028F42130A1F0223011F514C0BA
:102740002630B1F02730C1F02430D9F404C0809194
:1027500080008F7703C0809180008F7D8093800000
:1027600010C084B58F7702C084B58F7D84BD09C049
:102770008091B0008F7703C08091B0008F7D8093EF
:10278000B000E32FF0E0EE0FFF1FE65DFB4FA591D9
:10279000B4912FB7F894662321F48C9190958923F6
:1027A00002C08C91892B8C932FBF0895682F70E005
:1027B000CB018A599B4FFC012491CB018E5A9B4F30
:1027C000FC014491625C7B4FFB019491992319F4C5
:1027D00020E030E03CC0222351F1233071F024305E
:1027E00028F42130A1F0223011F514C02630B1F0C8
:1027F0002730C1F02430D9F404C0809180008F7755
:1028000003C0809180008F7D8093800010C084B5CC
:102810008F7702C084B58F7D84BD09C08091B000E0
:102820008F7703C08091B0008F7D8093B000892F97
:1028300090E0880F991F8C5C9B4FFC01A591B4918F
:102840008C9120E030E0842311F021E030E0C901D8
:10285000089508951F920F920FB60F9211242F938F
:102860003F934F938F939F93EF93FF938091C0007B
:1028700082FD1DC04091C6002091DE033091DF0330
:102880002F5F3F4F2F7330708091E0039091E103F1
:102890002817390771F0E091DE03F091DF03E2566B
:1028A000FC4F40833093DF032093DE0302C080910E
:1028B000C600FF91EF919F918F914F913F912F9182
:1028C0000F900FBE0F901F901895E0913204F09179
:1028D0003304E05CFF4F8191919120813181821B13
:1028E000930B8F739070892B11F00E942914089517
:1028F0001F920F920FB60F9211242F933F938F9335
:102900009F93EF93FF9320912204309123048091B1
:102910002404909125042817390731F48091C100CF
:102920008F7D8093C10014C0E0912404F0912504B0
:10293000EE51FC4F20818091240490912504019652
:102940008F73907090932504809324042093C60085
:10295000FF91EF919F918F913F912F910F900FBE1B
:102960000F901F901895AF92BF92DF92EF92FF9257
:102970000F931F93CF93DF93EC017A018B01DD243A
:10298000403081EE580780E0680780E0780711F05A
:10299000DD24D39491E0A92EB12CEC89FD89DD20B2
:1029A00069F0C50108A002C0880F991F0A94E2F7D8
:1029B000808360E079E08DE390E005C0108260E8FC
:1029C00074E88EE190E0A80197010E94311821502F
:1029D000304040405040569547953795279580E1C7
:1029E0002030380720F0DD2011F0DD24D6CFE88933
:1029F000F9893083EA89FB89208319A2EE89FF894E
:102A0000408121E030E0C9010C8C02C0880F991F81
:102A10000A94E2F7482B4083EE89FF894081C9017F
:102A20000D8C02C0880F991F0A94E2F7482B40834F
:102A3000EE89FF894081C9010E8C02C0880F991F61
:102A40000A94E2F7482B4083EE89FF8980810F8C3E
:102A500002C0220F331F0A94E2F720952823208317
:102A6000DF91CF911F910F91FF90EF90DF90BF907A
:102A7000AF900895DC011C96ED91FC911D97E05CF0
:102A8000FF4F2191319180819181281B390B2F7348
:102A90003070C9010895DC011C96ED91FC911D97E1
:102AA000E05CFF4F20813181E054F040DF01AE5BFC
:102AB000BF4F8D919C9111972817390719F42FEF6B
:102AC0003FEF07C08D919C91E80FF91F8081282F5F
:102AD00030E0C9010895DC011C96ED91FC911D9731
:102AE000E05CFF4F20813181E054F040DF01AE5BBC
:102AF000BF4F8D919C9111972817390719F42FEF2B
:102B00003FEF10C08D919C911197E80FF91F208124
:102B10008D919C91119701968F73907011969C9353
:102B20008E9330E0C9010895DC0191968C919197C4
:102B3000882339F05496ED91FC915597808186FF5A
:102B4000F9CF91961C920895CF93DF93EC01EE8517
:102B5000FF85E05CFF4F20813181E054F0402F5F22
:102B60003F4F2F733070DF01AE5BBF4F8D919C9153
:102B7000119728173907D1F3E05CFF4F80819181CD
:102B8000E054F040E80FF91F6083EE85FF85E05CBC
:102B9000FF4F31832083EE89FF89208181E090E01F
:102BA0000F8C02C0880F991F0A94E2F7282B20830C
:102BB00081E089A3EC89FD8980818064808381E044
:102BC00090E0DF91CF91089510922904109228048B
:102BD00088EE93E0A0E0B0E080932A0490932B0469
:102BE000A0932C04B0932D0480EA91E090932704E5
:102BF000809326048EE993E090933304809332040B
:102C000082EE93E0909335048093340485EC90E059
:102C1000909337048093360484EC90E090933904C9
:102C20008093380480EC90E090933B0480933A04C6
:102C300081EC90E090933D0480933C0482EC90E022
:102C400090933F0480933E0486EC90E0909341047F
:102C50008093400484E08093420483E080934304A3
:102C600087E08093440485E08093450481E080936D
:102C700046040895CF93DF930E9408130E948F0E9D
:102C8000C5E6D4E10E9427112097E1F30E94651464
:102C9000F9CFCF92DF92EF92FF920F931F93CF93D2
:102CA000DF937C016B018A01C0E0D0E00FC0D60148
:102CB0006D916D01D701ED91FC910190F081E02DB6
:102CC000C7010995C80FD91F015010400115110502
:102CD00071F7CE01DF91CF911F910F91FF90EF908F
:102CE000DF90CF900895EF92FF920F931F938C0186
:102CF000DC01ED91FC910190F081E02D6DE00995F2
:102D00007C01D801ED91FC910190F081E02DC8018A
:102D10006AE009959C012E0D3F1DC9011F910F917D
:102D2000FF90EF900895CF93DF93EC01611571054B
:102D300019F420E030E00FC0DB010D900020E9F72E
:102D40001197A61BB70BE881F9810280F381E02D72
:102D5000AD0109959C01C901DF91CF9108954F9272
:102D60005F927F928F929F92AF92BF92CF92DF92AB
:102D7000EF92FF920F931F93DF93CF93CDB7DEB700
:102D8000A1970FB6F894DEBF0FBECDBF2C01742EF5
:102D9000CB01223008F42AE019A231E2C32ED12C53
:102DA000CC0EDD1E822E9924AA24BB24672D752FFC
:102DB000A50194010E94311879018A01C801B70167
:102DC000A50194010E94EB17472D461B0894C108EA
:102DD000D1084A3014F4405D01C0495CF6014083DB
:102DE000E114F1040105110521F07E2C5F2DC801CD
:102DF000DDCFC201B6010E949316A1960FB6F894DA
:102E0000DEBF0FBECDBFCF91DF911F910F91FF901D
:102E1000EF90DF90CF90BF90AF909F908F907F907A
:102E20005F904F900895DC012115310541F4ED913B
:102E3000FC910190F081E02D642F099508950E9486
:102E4000AF160895EF92FF920F931F939A017B01A3
:102E500000E010E0B801A7010E9413171F910F9125
:102E6000FF90EF900895EF92FF920F931F939A01B6
:102E7000E62EFF2400E010E0B801A7010E9413171E
:102E80001F910F91FF90EF900895CF92DF92EF92F4
:102E9000FF920F931F936C01E62E9A01FF2400E02E
:102EA00010E0B801A7010E9413178C01C6010E940F
:102EB0007316080F191FC8011F910F91FF90EF9013
:102EC000DF90CF900895CF92DF92EF92FF920F9311
:102ED0001F93CF93DF93EC016A017B01211531052C
:102EE00041F4E881F9810190F081E02D642F09958A
:102EF0001FC02A303105D1F477FF17C0E881F9816E
:102F00000190F081E02D6DE209958C014427552751
:102F1000BA014C195D096E097F09CE012AE00E94B1
:102F2000AF169801280F391F04C02AE00E94AF167F
:102F30009C01C901DF91CF911F910F91FF90EF90FC
:102F4000DF90CF900895EF92FF920F931F937B0134
:102F50009A010027F7FC0095102FB801A7010E94E5
:102F600063171F910F91FF90EF900895CF92DF921A
:102F7000EF92FF920F931F936C017B019A01002740
:102F8000F7FC0095102FB801A7010E9463178C0170
:102F9000C6010E947316080F191FC8011F910F91D7
:102FA000FF90EF90DF90CF9008950E9493160895C0
:102FB000EF92FF920F931F937C010E9493168C0156
:102FC000C7010E947316080F191FC8011F910F91A6
:102FD000FF90EF900895629FD001739FF001829F50
:102FE000E00DF11D649FE00DF11D929FF00D839F98
:102FF000F00D749FF00D659FF00D9927729FB00D35
:10300000E11DF91F639FB00DE11DF91FBD01CF0147
:1030100011240895AA1BBB1B51E107C0AA1FBB1FA7
:10302000A617B70710F0A61BB70B881F991F5A9554
:10303000A9F780959095BC01CD01089597FB092EC5
:1030400007260AD077FD04D0E5DF06D000201AF469
:10305000709561957F4F0895F6F7909581959F4FF4
:103060000895A1E21A2EAA1BBB1BFD010DC0AA1FC9
:10307000BB1FEE1FFF1FA217B307E407F50720F0E1
:10308000A21BB30BE40BF50B661F771F881F991F5C
:103090001A9469F760957095809590959B01AC01A5
:1030A000BD01CF010895EE0FFF1F0590F491E02DB3
:0630B0000994F894FFCF23
:1030B60054696D656F7574002020002F0053746F7E
:1030C600703A0057616974696E672073746172742F
:1030D6003A00496E707574206C6F73743A005342EF
:1030E60055530046757437353075200050504D00E5
:1030F600206D6F64653A0020543D002054633D0006
:10310600204D3D0020413D0020423D0020453D0030
:10311600202020200052464D206C6F636B00050175
:103126000C01EA01EA016348CC0100000008000234
:10313600071D4D9359A76DBD7FD1010203040506F6
:103146000B0C0D0E0F1011121314151600000000B3
:0C315600A41549163A156B154B1594157D
:00000001FF
