:100000000C947A020C94FB020C94A2020C94A202AF
:100010000C94A2020C94A2020C94A2020C94A202D0
:100020000C94A2020C94A2020C94CA020C94A20298
:100030000C94A2020C94A2020C94A2020C94A202B0
:100040000C9484140C94A2020C94E5160C943317AF
:100050000C94A2020C94A2020C94A2020C94A20290
:100060000C94A2020C94A202464C415348204552E3
:10007000524F522121212043616E277420776F72E5
:100080006B21004572726F72207265616420736526
:100090007474696E677321000D0A4261796368693F
:1000A00020736F66742032303133005458204F7003
:1000B000656E204578706572742056322046005077
:1000C0007265737320276D2720746F2073746172BB
:1000D00074204D454E550046486E3A204D696E20BD
:1000E000417672204D6178000A0D546F20456E7480
:1000F0006572204D454E5520507265737320454EF4
:1001000054455200547970652052656720616E64D1
:1001100020707265737320454E5445522C207479BB
:1001200070652056616C756520616E642070726523
:10013000737320454E5445522028713D51756974A2
:100140003B204E782D793D53686F77206E6F697331
:100150006529000D0A52673D56616C2009436F6D99
:100160006D656E7473202D2D2D2D2D2D2D2D2D2D86
:100170002D2D2D2D2D2D2D2D2D2D2D2D2D004D6188
:100180006B65206E65772062696E643F2041726501
:1001900020796F75207375726528792F6E293F005D
:1001A0000D0A54727920746F206E65772062696E33
:1001B000642E2E2E000A0D467265712F6E6F6973C4
:1001C000653A20004572726F723A20746F6F206E2C
:1001D0006F697365210042696E64204E3D00547260
:1001E000616E736D6974696E673A20463D34002014
:1001F0004D487A2C20506F77657228302D37293D75
:10020000002046636F7272283C3E293D20002E205C
:1002100050726573732045534320746F2073746F5D
:10022000702E2E2E000102030405060B0C0D0E0F7E
:10023000101112131415161742696E64204E000037
:1002400000000000000000000000000000000000AE
:1002500000000000000000004672657120636F72AC
:1002600072656374696F6E20636F6E737400000053
:1002700000000000000000005465726D20636F7282
:10028000722E28303D6E6F2C20313D2B2C203235C4
:10029000353D2D2900000000465320636865636BDF
:1002A00020656E61626C65000000000000000000C7
:1002B000000000000000000031316269742F31300D
:1002C000636828313D7965732C322F333D46757450
:1002D00061626129000000004465627567206F75E6
:1002E000742028312D50504D2C20322D70657266AF
:1002F0002E29000000000000486F702046310000E9
:1003000000000000000000000000000000000000ED
:100310000000000000000000486F7020463200001E
:1003200000000000000000000000000000000000CD
:100330000000000000000000486F702046330000FD
:1003400000000000000000000000000000000000AD
:100350000000000000000000486F702046340000DC
:10036000000000000000000000000000000000008D
:100370000000000000000000486F702046350000BB
:10038000000000000000000000000000000000006D
:100390000000000000000000486F7020463600009A
:1003A000000000000000000000000000000000004D
:1003B0000000000000000000486F70204637000079
:1003C000000000000000000000000000000000002D
:1003D0000000000000000000486F70204638000058
:1003E000000000000000000000000000000000000D
:1003F0000000000000000000506F776572207377E6
:1004000069746368206368616E2028312D31332C54
:10041000303D535729000000506F776572206D6999
:100420006E2028302D372C202B3132383D686967FB
:100430006855290000000000506F776572206D69D3
:1004400064646C652028302D372C2B3132383D68A0
:100450006967685529000000506F776572206D61EB
:10046000782028302D372C202B3132383D686967B1
:10047000685529000000000050412063616C6962EA
:100480007220636F6E737428302D32353529000069
:100490000000000000000000000000002400270011
:1004A0002A0000000000250028002B0000000000AA
:1004B00023002600290004040404040404040202A6
:1004C00002020202030303030303010204081020D3
:1004D00040800102040810200102040810200000DE
:1004E00000070002010000030406000000000000F5
:1004F00000009F1811241FBECFEFD8E0DEBFCDBF94
:1005000011E0A0E0B1E0ECE2F6E302C005900D924C
:10051000A839B107D9F714E0A8E9B1E001C01D92EC
:10052000AD33B107E1F714E0C4EFD4E004C0229783
:10053000FE010E94101BC23FD107C9F70E94F518A7
:100540000C94141B0C940000FC0188279927E89454
:1005500021912032E9F3293010F02E30C8F32B32EC
:1005600041F02D3239F4689404C00E94C202820F17
:10057000911D219120532A30C0F31EF4909581954E
:100580009F4F08957AE0979F902D879F802D910D22
:10059000112408951F920F920FB60F9211248F937A
:1005A0009F93EF93FF938091860090918700E09155
:1005B0006E01F0916F01918380833296809181006A
:1005C00090914703892780938100F0936F01E09316
:1005D0006E01E454F34030F084ED91E090936F01AC
:1005E00080936E01FF91EF919F918F910F900FBEBD
:1005F0000F901F9018951F920F920FB60F92112413
:100600000F900FBE0F901F901895EF92FF920F93CF
:100610001F9390918803993108F45DC08091440341
:10062000882309F058C0809148038F3009F053C0E7
:1006300080916003882309F04EC0E0907701A7EB1A
:10064000B1E0FF24F39401E03DC0660F771FEF2D6A
:10065000F0E0E85BFC4F808190E0202F30E08223C7
:100660009323892B11F0462B572B003819F4F39460
:1006700001E001C0000F1F5F1B3039F721E02E158C
:10068000D8F0CA01880F991F880F991F840F951FF2
:100690009695879596958795883D910518F440E045
:1006A00050E00AC028E0883D920718F04FEF57E06D
:1006B00003C0AC01485D50404D935D9381E0A13D86
:1006C000B80731F010E040E050E061E070E0BFCFEB
:1006D0001092D1010BC0992349F08091450390916C
:1006E000460301969093460380934503109244037A
:1006F0001092860310928803109283031092840351
:10070000109287031F910F91FF90EF900895209111
:10071000A90180917303821B71F1992787FD909540
:1007200097FF03C0909581959F4F02978CF460913D
:1007300076038091740390917503332727FD3095DC
:10074000633670F070E00E94D91A6217730799F04F
:1007500010927503109274031092760381E008954D
:10076000820F931F90937503809374036F5F609360
:10077000760380E0089580E00895809176018823D3
:10078000B9F181E080937A038091D3018F3F41F0EA
:100790006091710350917701E7EBF1E040E026C0F2
:1007A00080915F0383FF24C027C0208131812F5FA8
:1007B0003F4F523078F0C901880F991F880F991F59
:1007C000820F931FB3E096958795BA95E1F780590C
:1007D0009C4F05C0C9019695879584529C4F3296CF
:1007E000885E9340885E934038F44F5F4617E8F286
:1007F00010927A0381E0089580E008952A9A2D9856
:1008000000002A9898E010C087FF07C02D980000CC
:100810002B9A00002D9A000006C02D9800002B98FE
:1008200000002D9A0000880F915070F72D980895C0
:100830008F770E94FE0308952D98000098E010C065
:1008400087FF07C02D9800002B9A00002D9A00000A
:1008500006C02D9800002B9800002D9A0000880FEC
:10086000915070F72D9808952D98000080E090E049
:10087000880F2D9A00001C9981602D9800009F5FC1
:100880009830B1F708950E9418040E9434042A9AFF
:1008900008951F93162F80680E94FE03812F0E94E7
:1008A0001C042A9A1F91089550917F038517A8F17F
:1008B0008091770190918003833099F4E9E0F0E032
:1008C000E91BF109EE0FFF1FE954FE4F2081318132
:1008D0009F5F9093800380917E0390917D0340E021
:1008E00005C0E92FF0E0EECF3695279520FD982B37
:1008F000803849F45F5FE52FF0E0E856FE4F9083C3
:1009000081E090E001C0880F4F5F4B3069F7809322
:100910007E0390937D0350937F03089587E060E802
:100920000E94490461E070E080E090E00E940015C0
:1009300083E00E94430480937B0384E00E9443048D
:1009400080937C0386E060E00E94490487E061E0D8
:100950000E94490460917401662311F089E002C08D
:1009600089E067EC0E9449048AE065E00E9449043E
:100970008BE062E10E9449048CE065E10E94490439
:100980008EE060E00E9449048FE163E00E94490428
:100990008EE16AE00E94490482E160E60E94490417
:1009A00083E168EF0E9449048FE060E80E944904F7
:1009B0008DE160E40E9449048CE166E20E944904F2
:1009C00080E264E40E94490481E260E00E944904FC
:1009D00082E262EF0E94490483E26CE70E944904CC
:1009E00084E266E00E94490485E26DE70E944904C2
:1009F0008AE26FE00E94490480E36CEA0E944904A5
:100A000082E36CE80E94490483E36AE00E9449049F
:100A100084E364E00E94490485E362E20E944904A1
:100A200086E36DE20E94490487E364ED0E94490475
:100A300088E360E00E94490489E360E00E94490481
:100A40008EE360E10E9449048DE66FE00E94490454
:100A50008EE66CE30E9449048FE66FE90E94490428
:100A600089E660E60E94490480E76EE20E9449043C
:100A700089E760E00E9449048AE766E00E94490431
:100A800081E763E20E94490482E76EE00E94490424
:100A900085E763E50E94490486E76CE40E94490407
:100AA00087E760EE0E94490408958BE194E00E947C
:100AB000F5171816190614F020E01AC08BE194E01F
:100AC0000E9426188336910519F08334910541F46C
:100AD0001092AD011092AC0110926A03109269035A
:100AE0008D36910521F020E08D34910509F421E047
:100AF000822F08954F925F926F927F928F929F9272
:100B0000AF92BF92CF92DF92EF92FF920F931F931B
:100B1000CF93DF93E82EF894C0906E01D0906F01D0
:100B200078948091780181FF56C00E94DA148B017D
:100B30009C018091610390916203A801481B590BAD
:100B40008091AC019091AD018417950720F45093EA
:100B5000AD014093AC0100936103109362032093B5
:100B600063033093640380916503909166039C0155
:100B7000E5E036952795EA95E1F7821B930B840F04
:100B8000951F909366038093650380917001909107
:100B900071019601281B390BC90195958795909392
:100BA000680380936703883B910530F088549F4F1A
:100BB00090936803809367032091670330916803E3
:100BC0008091690390916A038217930720F4309310
:100BD0006A0320936903709077018091810390915B
:100BE0008203F090850300E010E0AE2CBB2464ED9E
:100BF000862E61E0962EEE24E3945CE0652E55246B
:100C00005A9440E4442EF5C0C191D191F093710102
:100C1000E0937001E454F34020F0909271018092CF
:100C200070019E01281B390BC9013091D3013F3F50
:100C300009F477C02091D201222341F1223398F0A8
:100C40001092D201809144038A3028F05092D3014F
:100C500040924703CBC03B3018F0E092D301C6C0AE
:100C60001092D301C3C0813F910530F480914403B9
:100C70008F5F8093440306C08054964018F43F5F12
:100C80003093D3012F5F2093D201B0C0332311F0F2
:100C9000880F991F23E18838920728F010926D0180
:100CA0001092D101A3C035E08C3D9307B8F1E091DB
:100CB0006D01EC3098F5EF5FE0936D01E15041E09C
:100CC0004715A0F426E0803E9207D8F030E1803E40
:100CD0009307D0F4805E9640880F991F880F991F64
:100CE00065E070E00E94C51ACB0110C047E0883B68
:100CF000940738F02FE0883B920730F4885B9740E8
:100D000005C080E090E002C08FEF97E0F0E0EE0FCA
:100D1000FF1FE954FE4F9183808368C060926D018C
:100D200065C00A9664E170E00E94C51A6B3018F045
:100D30000E9405035BC080918303882361F46150A6
:100D4000E09283038091440390918403890F809300
:100D50004403FF24F3945091840380918303909182
:100D600086034091440330918703209188032CC06F
:100D7000552311F09F5F3F29FF0C8F5F8C3029F0C6
:100D80008A3008F1283108F456C0E22FF0E0E85B21
:100D9000FC4F30839170490F2F5F293120F480E0A0
:100DA00090E030E010C010928303109286034093CD
:100DB000440310928703209388030E94050310C008
:100DC000552309F44F5F6150662391F680938303A6
:100DD00090938603409344033093870320938803C2
:100DE000809184033E2D381B309384030F5F1F4F87
:100DF000CE01E0917001F0917101EC15FD0521F03B
:100E00000A151B0508F400CF909382038093810399
:100E1000F0928503DF91CF911F910F91FF90EF909A
:100E2000DF90CF90BF90AF909F908F907F906F900A
:100E30005F904F9008958B3019F2C5CF6091740187
:100E4000662369F080917501882319F08091AA01C9
:100E5000680F89E00E9449048CE00E947A05809125
:100E6000A8018F5F8093A801883010F01092A8012C
:100E7000E091A801F0E0E158FE4F89E760810E940F
:100E80004904089583E00E94430480937B0384E037
:100E90000E94430480937C038CE00E947A0587E0E3
:100EA00061E00E94490408951F93182F0E94420791
:100EB000183018F1E09179018E2F81508D3078F43F
:100EC000F0E0EE0FFF1FEB54FE4F8081918122E096
:100ED0008A3A920740F08455954050F00CC0EE23BA
:100EE00051F4309903C010917A0107C0319B03C0BF
:100EF00010917B0102C010917C011770612F685F17
:100F00008DE60E944904812F1F91089587E061E0DA
:100F10000E9449048EE764E20E9449048CE00E942A
:100F20007A0588E063E00E94490488E060E00E945E
:100F300049048CE00E947A0587E065E00E9449043C
:100F400085E062E00E9449048CE00E947A0583E01B
:100F50000E94430480937B0384E00E9443048093B7
:100F60007C030895EF92FF920F931F938C010E94D0
:100F7000CC14780100E010E0E60EF71E081F191FE0
:100F800003C08CE00E947A050E94CC146E157F0588
:100F900080079107B0F31F910F91FF90EF90089594
:100FA0000E94420782E390E00E94B2070E948607F7
:100FB00008956F927F928F929F92AF92BF92CF923D
:100FC000DF92EF92FF920F931F93CF93DF930E94D4
:100FD000DA144B015C0110927D0381E080937E0363
:100FE00010927F0310928003DD24D3940FE1602ED2
:100FF00004E0702E1CE8C12E43C00E94DA14681968
:1010000079098A099B09E616F7060807190708F007
:1010100047C02FE0D216D9F4E9E9F1E090E08081F1
:10102000982740E0892F90E09C013595279580FF17
:1010300003C09C2D922701C0922F4F5F483091F73B
:10104000319681E0E73AF80751F7908312C08D2D71
:101050000E9454042EE0D21661F49091A6019F7371
:101060009093A6018091AE01823019F4906890931C
:10107000A601C856DE4F8FE768810E944904D394C9
:10108000CD2DD0E0C69DC001C79D900DD69D900D81
:101090001124825C974F7C010027F7FC0095102FEC
:1010A0004A9B12C00E94DA14681979098A099B09BF
:1010B0006F5F7C478040904038F48CE00E947A0556
:1010C0008FE08D1568F399CFDF91CF911F910F912C
:1010D000FF90EF90DF90CF90BF90AF909F908F9058
:1010E0007F906F9008952F923F924F925F926F92F0
:1010F0007F928F929F92AF92BF92CF92DF92EF92A8
:10110000FF920F931F93CF93DF930E94DA144B014A
:101110005C01DD24D3947FE1272E74E0372E6CE848
:10112000C62E51E0652E712C42E0442E512C0CC18C
:101130000E94DA14681979098A099B09E616F706EC
:101140000807190708F010C121E0D21609F04AC0BB
:10115000A7EBB1E0EAE9F1E060E010E000E040E098
:1011600050E0742F2D913C91119784E02030380786
:1011700040F0C301042E02C0880F991F0A94E2F7C1
:10118000682BC901969587959695879580834730FA
:1011900099F021FF08C0C201072E02C0880F991FD5
:1011A0000A94E2F7182B20FF07C0C30102C0880F82
:1011B000991F7A95E2F7082B4F5F5F4F1296319691
:1011C0004830510571F6609399018FE70E944904F8
:1011D0001093A70180917701882309F4B4C000938C
:1011E000A501B1C02DE02D1508F486C0CE010297EF
:1011F000FC01EE0FFF1FE954FE4F4081518129E0B1
:101200002D1508F447C0930102C0220F331F8A95A1
:10121000E2F7622F84E04030580710F0E22F01C05F
:10122000E0E0862F90E02091990130E08223932323
:101230002E2F30E08217930709F059C0FE01E856BF
:10124000FE4FCA01969587959695879580838091E4
:101250007701882369F040FF04C08091A501862BA7
:1012600005C0862F80959091A50189238093A501C3
:1012700029E0D216E1F1962F990F41FF04C0809129
:10128000A701982B04C090958091A7019823909373
:10129000A7012DC080917701882321F08D2D8C50DE
:1012A000823050F0FE01E856FE4F33E056954795E8
:1012B0003A95E1F740831BC08CE0D816C1F4FE01DB
:1012C000EE0FFF1FEB54FE4F90819770990F990F0F
:1012D000990F842F8770982BFE01E856FE4F80915E
:1012E000C50182708295880F807E982B9083C856A6
:1012F000DE4F8FE7688125C02EE0D216C1F4EAE9FF
:10130000F1E060E08081682720E0862F90E0BC015A
:101310007595679580FD6C252F5F2830B1F7319664
:1013200081E0E63AF80771F760838FE70AC08091A1
:10133000AE01823019F421E02093A7018FE760917C
:10134000A7010E944904D394CD2DD0E0C29DC001D5
:10135000C39D900DD29D900D1124825C974F7C010E
:101360000027F7FC0095102F4A9B12C00E94DA1448
:10137000681979098A099B096F5F7C478040904012
:1013800038F48CE00E947A058FE08D1568F3D0CE9A
:10139000DF91CF911F910F91FF90EF90DF90CF9051
:1013A000BF90AF909F908F907F906F905F904F9085
:1013B0003F902F900895EF92FF920F931F938C010F
:1013C0000E94DA14780100E010E0E60EF71E081F14
:1013D000191F03C08CE00E947A050E94DA146E1572
:1013E0007F0580079107B0F31F910F91FF90EF9059
:1013F00008958FE060E80E9449048DE491E00E9426
:10140000DB0981E10E944304282F20542093A90185
:10141000243154F4332727FD30958EE190E0821B70
:10142000930B6AE070E00BC02F3174F0332727FD77
:1014300030958EE190E0821B930B67E070E00E9494
:10144000D91A6093AA0102C01092AA018091750175
:101450008F3F29F48091AA0181958093AA018CE0A5
:101460000E947A0508958FEF0E9454074091AB01C6
:101470004F5F4093AB0150E028E030E0281B31097A
:10148000C901880F991F820F931F841795071CF4B9
:101490001092AB01439A88E063E00E94490488E01F
:1014A00060E00E94490460917301609398018FE7A6
:1014B0000E94490485E064E00E94490483E00E94A0
:1014C000430480937B0384E00E94430480937C0365
:1014D00003C081E00E947A050E94DA142091B301D2
:1014E0003091B4014091B5015091B601621B730B6C
:1014F000840B950B66577A478040904050F387E005
:1015000069E00E9449048091B3019091B401A091D7
:10151000B501B091B601845F9448AF4FBF4F80933F
:10152000B3019093B401A093B501B093B60180913B
:101530007701823018F00E94D90702C00E94730818
:101540004A9B08C08BE194E060E071E00E94931A2E
:1015500080E0089543980E94420781E008951F9318
:10156000182F843660F48BE194E060E20E945F18EB
:101570001A3028F48BE194E060E20E945F188BE15E
:1015800094E0612F4AE050E00E94EE198BE194E074
:1015900060E20E945F181F910895EF92FF920F93EF
:1015A0001F93CF93DF937C01FC01108200E010E0D9
:1015B000A8958BE194E00E94F5171816190694F58A
:1015C0008BE194E00E942618EC011816190684F7A6
:1015D0008BE194E06C2F0E945F18CD30D10519F09B
:1015E000CA30D10559F48BE194E00E942E19DF91A5
:1015F000CF911F910F91FF90EF900895C830D105C2
:1016000031F401151105A1F201501040D1CFF701BD
:10161000E00FF11FC0831182063011054CF60F5FF9
:101620001F4FC6CF61E070E080E090E00E9400159F
:10163000BFCF0F931F9390917E01899F802D11241E
:10164000980F1FEF0FEF0EC0E82FF0E0EC52FE4FA7
:10165000E081EE3D20F4E11710F4082F01C0E12FE6
:101660008F5F1E2F891780F31E3D88F58BE194E074
:1016700060E20E945F188BE194E0602F4AE050E046
:101680000E94EE198BE194E068E071E00E94901AEC
:10169000169516958BE194E0612F70E04AE050E0DA
:1016A0000E945E1A002359F0E02FF0E0EC52FE4F4A
:1016B0008FEF82933196023010F032978083E02FC3
:1016C000F0E0EC52FE4F8FEF828381838083802F86
:1016D0001F910F9108951F93182F0E94190B893E97
:1016E00070F0112341F0812F81500E94190B883E28
:1016F00030F0173020F4812F81500E94190B1F9178
:1017000008951F938091AC019091AD01805A9F4044
:1017100020F01092AD011092AC010E948703882343
:1017200069F520916D0330916E038091450390918E
:1017300046032817390711F5909172038091D10162
:101740009817E1F420916B0330916C038091AC0108
:101750009091AD012817390789F420916F033091DA
:1017600070038091690390916A032817390731F457
:1017700090917A0380917903981739F18091AC01A7
:101780009091AD0190936C0380936B03809145031E
:101790009091460390936E0380936D038091A9010D
:1017A000809373038091D1018093720380916903C8
:1017B00090916A039093700380936F0380917A03F2
:1017C0008093790381E0809378038091780382305D
:1017D00009F474C0833038F4882309F40DC18130D2
:1017E00009F063C107C0833009F491C0843009F067
:1017F0005CC1E8C08BE194E06DE00E945F188091CD
:101800007A03882329F08BE194E06AE071E04FC00D
:101810008091D1018F3F29F48BE194E060E171E088
:1018200046C0863028F08BE194E06FE171E03FC064
:1018300080917103882399F4E7EBF1E08081918135
:10184000892B29F0809171038F5F80937103329609
:1018500081E0EF3CF80791F78CE00E947A058091D7
:10186000D3018F3F39F48BE194E06BE271E00E9489
:10187000901A19C0882331F08BE194E060E371E0A5
:101880000E94901A8BE194E069E371E00E94901A43
:101890008CE00E947A058BE194E0609171034AE04C
:1018A00050E00E94EE198BE194E06DE371E00E943C
:1018B000901A8CE00E947A0582E026C08BE194E0C9
:1018C00064E471E00E94901A60917303772767FDCA
:1018D00070958BE194E04AE050E00E945E1A8BE143
:1018E00094E068E471E00E94901A6091AA01772761
:1018F00067FD70958BE194E04AE050E00E945E1A2B
:101900008CE00E947A0583E080937803CEC08091BA
:10191000780181FF55C08BE194E06DE471E00E9495
:10192000901A60916B0370916C038BE194E04AE034
:1019300050E00E94DD198CE00E947A058BE194E072
:1019400061E571E00E94901A6091650370916603F1
:1019500095E0769567959A95E1F78BE194E04AE0FA
:1019600050E00E94DD198CE00E947A058091D3013D
:101970008F3F31F58BE194E065E571E00E94901AAC
:1019800060916F03709170038BE194E04AE050E046
:101990000E94DD198CE00E947A058BE194E069E5F4
:1019A00071E00E94901A60916D0370916E038BE15B
:1019B00094E04AE050E00E94DD198CE00E947A0534
:1019C00084E0A2CF8091780180FF0DC010E08BE110
:1019D00094E06DE571E00E94901A82E00E947A0521
:1019E0001F5F1830A1F78BE194E00E942E1910922E
:1019F00077031092780359C080917801982F80FF67
:101A000054C080917103833008F44FC0E091770394
:101A100092FF0CC0F0E0EE0FFF1FE954FE4F608113
:101A200071818BE194E040E150E025C0F0E0EE0FE1
:101A3000FF1FE954FE4F0190F081E02D3196809117
:101A40007701823078F0BF01660F771F660F771F2E
:101A50006E0F7F1FA3E076956795AA95E1F7605911
:101A60007C4F05C0BF017695679564527C4F8BE132
:101A700094E04AE050E00E94DD198CE00E947A0573
:101A80008BE194E060E20E945F18809177038F5FA2
:101A90008093770390917103891738F08BE194E07C
:101AA0006DE00E945F18109277031F9108951F93B5
:101AB000CF93DF93EC01162FFE01219664916623EC
:101AC00029F08BE194E00E945F18F6CF112321F0FA
:101AD0008BE194E00E942E19DF91CF911F91089520
:101AE000AF92BF92CF92DF92EF92FF920F931F932C
:101AF000CF93DF936C0101960E94A4029C01019791
:101B00008E3F910510F010E01EC0122F82E090E091
:101B1000F601E80FF91FE081EE23A9F00196ED32FE
:101B200079F48C0D9D1D0E94A4029C01812F90E0F0
:101B30008217930740F42F3F310528F4A22E05C0E9
:101B40008A30910529F76EEFA62E0E948E040E941E
:101B5000D00787ED90E061E00E94570DB12E98C04C
:101B600089E76B2D0E9449048DEE92E00E94591581
:101B70000FEFFF24C0E0D0E010E083E690E00E9489
:101B8000591586E20E944304C80FD11D801708F43E
:101B9000082FF81608F4F82E1F5F173C71F78B2DED
:101BA0000E94AF0AEFE7F1E06AE380818B1509F448
:101BB00063E2319681E0E738F807B9F78BE194E00A
:101BC0000E945F188BE194E060E20E945F18802F12
:101BD0000E94AF0ACE0167EC70E00E94C51A162F72
:101BE000862F0E94AF0A8F2D0E94AF0AF6018081D6
:101BF0008E3409F047C00A3010F4EE2408C00734D0
:101C000018F05CE3E52E03C046EFE42EE00EF9E0A9
:101C1000FF1510F000E007C086E48F1510F40CE308
:101C200002C00F2D0A501A3010F4FF2408C01734D8
:101C300018F03CE3F32E03C026EFF22EF10E10E075
:101C40001F1521F48BE194E06AE217C01E1521F400
:101C50008BE194E06CE311C0101721F48BE194E068
:101C60006EE30BC0E11630F4101720F48BE194E022
:101C70006EE203C08BE194E060E20E945F181F5F98
:101C80000117F0F68BE194E00E942E19A895B39409
:101C9000AB1408F065CFDF91CF911F910F91FF90AA
:101CA000EF90DF90CF90BF90AF900895462FBC018A
:101CB0006C5F7F4F89E893E00E9478140895DF926B
:101CC000EF92FF920F931F938C01D62E472F79E846
:101CD000E72E73E0F72EC701B8010E9478140F5F5A
:101CE0001F4FC701B8014D2D0E9478141F910F910D
:101CF000FF90EF90DF900895EF92FF920F931F9364
:101D0000CF93DF9302E711E0EE24FF24C0E0D0E0A0
:101D1000CE01F80160810E94560EF80181918F0179
:101D2000E80EF11C2196C730D10591F7CFE7D1E03D
:101D30000BE010E0C80168810E94560E8991E80E00
:101D4000F11C0F5F1F4FF1E0C738DF0799F7C9E7B4
:101D5000D1E003E110E0C80168810E94560E89912C
:101D6000E80EF11C0F5F1F4F81E0CE37D80799F7BF
:101D700084E490E0B7010E945F0EDF91CF911F9144
:101D80000F91FF90EF900895EF92FF920F931F93A2
:101D9000CF93DF9301960E94A402EC018F3F91053F
:101DA00011F008F0C9C00E948E0480E76CE20E9426
:101DB000490480E360E00E94490481E762E10E94F7
:101DC000490482E762E00E94490483E760E00E94E0
:101DD000490484E760E00E94490489E76C2F0E946F
:101DE00049048CE390E0C89F9001C99F300DD89FB3
:101DF000300D1124255B3F4FC90168EE73E00E944E
:101E0000C51A7B0181E290E0E80EF91EC90168EE77
:101E100073E00E94C51AEC010FEF01C0082F8EED90
:101E200091E060E00E94570D8BE194E0B7014AE039
:101E300050E00E94DD198BE194E06EE20E945F1891
:101E4000C436D10528F48BE194E060E30E945F186A
:101E50008BE194E0BE014AE050E00E94DD19802F42
:101E60000E945407082F6AE070E080E090E00E9432
:101E70000015439A87E069E00E9449048FEE91E0E3
:101E800060E00E94570D8BE194E0602F4AE050E043
:101E90000E94EE1981E092E060E00E94570D8BE114
:101EA00094E0609174014AE050E00E94EE198EE0E7
:101EB00092E060E00E94570D0BC0A89587EE93E07A
:101EC0000E9459152B9A87EE93E00E9459152B9882
:101ED0008BE194E00E94F517892B79F38BE194E074
:101EE0000E942618182F8BE194E00E942E1987E09B
:101EF00061E00E94490443981B31F1F01C3231F03B
:101F00001E3279F4809174018F5F03C08091740157
:101F100081508093740189E0609174010E944904AA
:101F20007ECF812F8053883008F478CF1D3009F0A0
:101F300076CF0E947C0E73CFDF91CF911F910F91CE
:101F4000FF90EF900895BC016C5F7F4F89E893E0AC
:101F50000E9471140895FF920F931F93CF93DF9304
:101F600083E591E060E00E94570D89EB90E060E02E
:101F70000E94570D8BE194E060916B014AE050E0C4
:101F80000E94001AFF24C1E0D0E00F2D10E0F801FC
:101F9000EB5DFD4FE4918E2F90E08C179D0739F596
:101FA0008BE194E0BE014AE050E00E945E1A8BE1B2
:101FB00094E06DE30E945F18CE010E94A30F682F8A
:101FC0008BE194E04AE050E00E94EE198BE194E04E
:101FD00069E00E945F18E5E0000F111FEA95E1F744
:101FE000C801885C9D4F61E00E94570DF3942196D3
:101FF000CB32D10551F6DF91CF911F910F91FF9018
:10200000089588E990E061E00E94570D8BEA90E026
:1020100060E00E94570D8BE194E060916B014AE013
:1020200050E00E94001A0E94AB0F8FEB90E061E03D
:102030000E94570D0895DF92EF92FF920F931F9326
:102040008C01F9E8EF2EF3E0FF2EC701B8010E94E2
:102050007114D82E0F5F1F4FC701B8010E94711471
:102060003D2D20E0280F311DC9011F910F91FF90D8
:10207000EF90DF9008950F931F93CF93DF9300E0CD
:1020800010E0C0E0D0E0CE010E94A30FFE01EE58A8
:10209000FE4F8083080F111D2196C730D10599F797
:1020A000CBE0D0E0CE010E94A30FFE01EC58FE4F22
:1020B0008083080F111D2196C331D10599F7C3E123
:1020C000D0E0CE010E94A30FFE01EA59FE4F8083AB
:1020D000080F111D2196C831D10599F784E490E0CD
:1020E0000E941B1020E08017910709F421E0822F45
:1020F000DF91CF911F910F9108950F931F93CF936D
:10210000DF9320916C01222379F1E0E0F0E000E020
:1021100010E08491080F111D319680E4E030F8073B
:10212000C1F7922F80E020916B01EC01C20FD11D0D
:1021300080E490E00E941B10C817D90761F080E48A
:1021400090E0BE010E945F0E82E490E0B8010E9420
:102150005F0E81E00AC082E490E00E941B108017AD
:10216000910711F08FEF01C080E0DF91CF911F91B7
:102170000F91089583E161E00E94FE1583E160E024
:102180000E943D168CE060E00E94FE158BE061E04D
:102190000E94FE158DE061E00E94FE1582E060E085
:1021A0000E94FE1582E061E00E943D168AE061E037
:1021B0000E94FE1580E060E00E94FE1581E061E073
:1021C0000E94FE1580E061E00E943D1681E061E022
:1021D0000E943D1680E161E00E94FE1581E161E010
:1021E0000E94FE1582E160E00E94FE1582E161E03E
:1021F0000E943D1685E061E00E94FE158EE060E0E1
:102200000E94FE158EE061E00E943D168FE060E0C6
:102210000E94FE158FE061E00E943D1688E060E0BC
:102220000E94FE1588E061E00E943D168BE194E07B
:1022300040E056E960E070E00E946E1781E0809314
:10224000D2011092D30183E0809380008AE18093D1
:1022500081008FEF9FEF9093890080938800EFE6D5
:10226000F0E0808180628083E898789408951F93DD
:10227000182F8091AE018130C1F0813018F082308A
:10228000D1F52FC082E10E949116892BA1F581E042
:102290008093AE010E94CC146093AF017093B001A3
:1022A0008093B1019093B20126C082E10E94911601
:1022B000892BE1F40E94CC142091AF013091B00140
:1022C0004091B1015091B201621B730B840B950BCD
:1022D000655F71408040904070F082E08093AE0175
:1022E0000AC082E10E949116892B19F01092AE016A
:1022F00002C01111439A1F910895BF92CF92DF92AD
:10230000EF92FF920F931F93CF93DF93882351F5A2
:102310000E94CC147B018C0187E893E1A0E0B0E03F
:10232000E80EF91E0A1F1B1F4398A89580E00E9423
:1023300037110E94CC14E616F7060807190708F4AF
:10234000439A8091AE01882381F70E94CC146E15C8
:102350007F058007910708F4C8C00E943B108823BE
:1023600051F01DC08F3F21F0EE24FF24870116C0DD
:10237000EE24FF24870181E080937501109278019B
:1023800010927701109276011092790110927A01E1
:1023900082E080937B0187E080937C01439AB7ECD5
:1023A000BB2EADE1CA2E809174018A5A8D3310F094
:1023B000B09274010E948E040E94D0070E9486078A
:1023C00080EA91E060E00E94570D80E090E0FC011F
:1023D000EC52FE4F108201968F3F9105C1F7DD242C
:1023E000A895C0E0D0E089E76C2F0E94490487EEF1
:1023F00093E00E94591586E20E944304982F969517
:1024000096959695983008F098E0FE01EC52FE4FB4
:102410008081890F80832196C83ED10521F7D3940E
:102420009FE1D916E9F64398C0927E0185EB91E0D1
:1024300060E00E94570D80E00E946B0B80937F014B
:1024400084E00E946B0B8093800181E00E946B0B03
:102450008093810185E00E946B0B8093820182E072
:102460000E946B0B8093830186E00E946B0B80932C
:10247000840183E00E946B0B8093850187E00E94BA
:102480006B0B809386018BE194E00E942E19EFE79D
:10249000F1E08081893E50F084EC91E061E00E949F
:1024A000570D85E090E00E9431137DCF3196A1E079
:1024B000E738FA0771F70E94CC146E197F09800B78
:1024C000910B162F662309F411E086ED91E060E090
:1024D0000E94570D8BE194E0612F4AE050E00E948A
:1024E000001A109373010E947C0EDF91CF911F910F
:1024F0000F91FF90EF90DF90CF90BF900895CF9213
:10250000DF92EF92FF920F931F93DF93CF93CDB79C
:10251000DEB728970FB6F894DEBF0FBECDBF0E947E
:10252000D00788EE90E061E00E94570D8E010F5FAA
:102530001F4FC8010E94CD0A8981813709F482C0EA
:10254000813509F47FC068010E94AB0F84E091E0FF
:1025500061E00E94570DC6010E94CD0A89818E3626
:1025600011F08E3421F4C6010E94700DF4CF86362E
:1025700011F0863421F4C6010E94C40EECCF8237DC
:1025800001F58A818536E9F48B818236D1F48C811C
:102590008936B9F48D818E36A1F48E81843689F422
:1025A0008EE791E060E00E94570DC6010E94CD0ABF
:1025B0008981893711F0893521F481E00E947D11EC
:1025C000C3CF89818137F1F18135E1F1C6010E94E4
:1025D000A4027C018BE2E816F10408F0B5CFC60135
:1025E0000E94CD0A8981813769F1813559F1C6018F
:1025F0000E94A4028C018F3F910511F008F0A4CF36
:10260000E114F10419F4009709F49ECF8BE194E0F2
:10261000B7014AE050E00E945E1A8BE194E06DE35E
:102620000E945F188BE194E0B8014AE050E00E94FC
:10263000711AC701602F0E94560E0E943B100E9423
:102640007C0E82CF28960FB6F894DEBF0FBECDBFAA
:10265000CF91DF911F910F91FF90EF90DF90CF907E
:1026600008950F931F93CF93DF938C01C0E0D0E0C8
:1026700016C0A8958AEF90E00E94B207439A8AEFAD
:1026800090E00E94B20743980333110538F00E948E
:102690005505882319F00E947F1204C02196C017A7
:1026A000D10738F3DF91CF911F910F9108951F93B8
:1026B0000E947D10182F8F3F51F488E690E061E072
:1026C0000E94570D8FE59AEE0E9431130DC00E94B3
:1026D0003B10882349F4113021F48FEF0E947D11C3
:1026E00003C083E890E0EBCF1F910895EF92FF9233
:1026F0000F931F930E9401102EE088E190E00FB627
:10270000F894A895809360000FBE20936000429AD1
:1027100063E670E080E090E00E940015E7EBF1E0F6
:102720001192119221E0EF3CF207D1F7429880E03C
:102730000E947D110E9457130E948E040E948607FA
:102740008FEF8093D1018BE194E00E942E190E94BB
:10275000810B10E00E94F9098091A901893D0CF4D8
:10276000B3C08CE00E944304882309F4ADC060919B
:102770007D0185E070E00E949E150E948607109200
:10278000AD011092AC0110926A03109269030E948D
:10279000DA146093B3017093B4018093B501909300
:1027A000B6018CE00E947A05A8950E945505882301
:1027B00091F00E947F1260917D0185E070E00E949F
:1027C0009E150E94DA146093B3017093B401809354
:1027D000B5019093B6018CE00E9443048823C1F4B4
:1027E0008BE194E062E671E00E94931A439A89EFCC
:1027F00090E00E94B2070E948E040E948607109209
:10280000AD011092AC0110926A0310926903C9CF16
:102810008CE00E947A050E94DA147B018C010E94F0
:10282000BD03982F8823C1F18091D1018730A0F595
:1028300081E00E9437118091B3019091B401D701DA
:10284000A81BB90BCD01B1E787349B0708F4A9CFCA
:10285000885E904880F084EF94E8AFEFBFEFE80E19
:10286000F91E0A1F1B1FE092B301F092B4010093FE
:10287000B5011093B6010E941E070E94330A8823F7
:1028800009F4B9CF0E94F9098091D1018F5F80933B
:10289000D1010E94810B85CF8091D1018F3F59F0EA
:1028A000863018F4992309F07CCF8091790388232E
:1028B00011F40E94D0070E94F9090E94810B83E65F
:1028C00090E00E94B2076DCF0E948E0463E670E034
:1028D00080E090E00E9400151F5F103209F03ACFAF
:1028E00046CFF999FECF72BD61BDF89A80B50895C3
:1028F000F999FECF1FBA72BD61BD40BD0FB6F89405
:10290000FA9AF99A0FBE08951F920F920FB60F927E
:1029100011242F933F938F939F93AF93BF938091F5
:102920008E0390918F03A0919003B0919103309109
:1029300092030196A11DB11D232F2D5F2D3720F08D
:102940002D570196A11DB11D2093920380938E03F4
:1029500090938F03A0939003B093910380918A0387
:1029600090918B03A0918C03B0918D030196A11DD2
:10297000B11D80938A0390938B03A0938C03B09333
:102980008D03BF91AF919F918F913F912F910F90A8
:102990000FBE0F901F9018958FB7F89420918E035B
:1029A00030918F0340919003509191038FBFB901F3
:1029B000CA0108959FB7F89420918A0330918B0340
:1029C00040918C0350918D0386B5A89B06C08F3F24
:1029D00021F02F5F3F4F4F4F5F4F9FBF542F432F2B
:1029E000322F2227280F311D411D511D82E0220F59
:1029F000331F441F551F8A95D1F7B901CA010895A5
:102A00009B01AC017FB7F89480918A0390918B036E
:102A1000A0918C03B0918D0366B5A89B05C06F3F54
:102A200019F00196A11DB11D7FBFBA2FA92F982FB4
:102A30008827860F911DA11DB11D62E0880F991F87
:102A4000AA1FBB1F6A95D1F7BC012DC0FFB7F89430
:102A500080918A0390918B03A0918C03B0918D0398
:102A6000E6B5A89B05C0EF3F19F00196A11DB11D69
:102A7000FFBFBA2FA92F982F88278E0F911DA11D58
:102A8000B11DE2E0880F991FAA1FBB1FEA95D1F77D
:102A9000861B970B885E9340C8F22150304040401F
:102AA000504068517C4F211531054105510571F6A3
:102AB0000895019739F0880F991F880F991F029781
:102AC0000197F1F70895789484B5826084BD84B548
:102AD000816084BD85B5826085BD85B5816085BD19
:102AE000EEE6F0E0808181608083E1E8F0E0108232
:102AF000808182608083808181608083E0E8F0E073
:102B0000808181608083E1EBF0E08081846080835C
:102B1000E0EBF0E0808181608083EAE7F0E0808193
:102B200084608083808182608083808181608083F3
:102B30008081806880831092C10008951F93CF9395
:102B4000DF93182FEB0161E00E94FE15209709F436
:102B50004AC0CF3FD10509F449C0E12FF0E0E2526D
:102B6000FB4F84918330C1F0843028F4813051F0E0
:102B70008230B1F50CC0863019F1873049F18430CC
:102B800079F514C084B5806884BDC7BD33C084B5F1
:102B9000806284BDC8BD2EC0809180008068809313
:102BA0008000D0938900C093880024C08091800069
:102BB000806280938000D0938B00C0938A001AC0FB
:102BC0008091B00080688093B000C093B30012C0C1
:102BD0008091B00080628093B000C093B4000AC0BE
:102BE000C038D1051CF4812F60E002C0812F61E064
:102BF0000E943D16DF91CF911F910895CF93DF93EF
:102C0000482F50E0CA0186539B4FFC0134914A542F
:102C10005B4FFA018491882369F190E0880F991F36
:102C2000FC01E856FB4FA591B491FC01EE55FB4F1A
:102C3000C591D491662351F42FB7F8948C91932FBA
:102C4000909589238C93888189230BC0623061F42D
:102C50002FB7F8948C91932F909589238C9388812A
:102C6000832B88832FBF06C09FB7F8948C91832B4A
:102C70008C939FBFDF91CF910895482F50E0CA01F8
:102C800082529B4FFC012491CA0186539B4FFC0149
:102C900094914A545B4FFA013491332309F440C0B4
:102CA000222351F1233071F0243028F42130A1F097
:102CB000223011F514C02630B1F02730C1F0243095
:102CC000D9F404C0809180008F7703C08091800088
:102CD0008F7D8093800010C084B58F7702C084B54B
:102CE0008F7D84BD09C08091B0008F7703C0809133
:102CF000B0008F7D8093B000E32FF0E0EE0FFF1F58
:102D0000EE55FB4FA591B4912FB7F894662321F4AB
:102D10008C919095892302C08C91892B8C932FBF25
:102D20000895682F70E0CB0182529B4FFC012491E3
:102D3000CB0186539B4FFC0144916A547B4FFB01AE
:102D40009491992319F420E030E03CC0222351F102
:102D5000233071F0243028F42130A1F0223011F515
:102D600014C02630B1F02730C1F02430D9F404C0AB
:102D7000809180008F7703C0809180008F7D809349
:102D8000800010C084B58F7702C084B58F7D84BD6C
:102D900009C08091B0008F7703C08091B0008F7D13
:102DA0008093B000892F90E0880F991F84559B4F26
:102DB000FC01A591B4918C9120E030E0842311F0C6
:102DC00021E030E0C901089508951F920F920FB6D7
:102DD0000F9211242F933F934F938F939F93EF93D1
:102DE000FF938091C00082FD1DC04091C6002091DC
:102DF000D3033091D4032F5F3F4F2F7330708091F6
:102E0000D5039091D6032817390771F0E091D303C9
:102E1000F091D403ED56FC4F40833093D4032093BC
:102E2000D30302C08091C600FF91EF919F918F91D3
:102E30004F913F912F910F900FBE0F901F901895BB
:102E4000E0912704F0912804E05CFF4F819191917B
:102E500020813181821B930B8F739070892B11F02D
:102E60000E94E41608951F920F920FB60F9211243C
:102E70002F933F938F939F93EF93FF93209117048A
:102E8000309118048091190490911A042817390779
:102E900031F48091C1008F7D8093C10014C0E09116
:102EA0001904F0911A04E952FC4F20818091190411
:102EB00090911A0401968F73907090931A048093E6
:102EC00019042093C600FF91EF919F918F913F913C
:102ED0002F910F900FBE0F901F901895AF92BF9239
:102EE000DF92EF92FF920F931F93CF93DF93EC014A
:102EF0007A018B01DD24403081EE580780E06807BD
:102F000080E0780711F0DD24D39491E0A92EB12C54
:102F1000EC89FD89DD2069F0C50108A002C0880F99
:102F2000991F0A94E2F7808360E079E08DE390E0F6
:102F300005C0108260E874E88EE190E0A801970176
:102F40000E94EC1A21503040404050405695479521
:102F50003795279580E12030380720F0DD2011F0EB
:102F6000DD24D6CFE889F9893083EA89FB8920837B
:102F700019A2EE89FF89408121E030E0C9010C8C63
:102F800002C0880F991F0A94E2F7482B4083EE890C
:102F9000FF894081C9010D8C02C0880F991F0A94D6
:102FA000E2F7482B4083EE89FF894081C9010E8CEE
:102FB00002C0880F991F0A94E2F7482B4083EE89DC
:102FC000FF8980810F8C02C0220F331F0A94E2F721
:102FD000209528232083DF91CF911F910F91FF909F
:102FE000EF90DF90BF90AF900895DC011C96ED91BB
:102FF000FC911D97E05CFF4F21913191808191817F
:10300000281B390B2F733070C9010895DC011C9601
:10301000ED91FC911D97E05CFF4F20813181E054E0
:10302000F040DF01AE5BBF4F8D919C911197281747
:10303000390719F42FEF3FEF07C08D919C91E80FEE
:10304000F91F8081282F30E0C9010895DC011C960A
:10305000ED91FC911D97E05CFF4F20813181E054A0
:10306000F040DF01AE5BBF4F8D919C911197281707
:10307000390719F42FEF3FEF10C08D919C911197F4
:10308000E80FF91F20818D919C91119701968F7304
:10309000907011969C938E9330E0C9010895DC01E5
:1030A00091968C919197882339F05496ED91FC91EB
:1030B0005597808186FFF9CF91961C920895CF9302
:1030C000DF93EC01EE85FF85E05CFF4F20813181CD
:1030D000E054F0402F5F3F4F2F733070DF01AE5B45
:1030E000BF4F8D919C91119728173907D1F3E05C60
:1030F000FF4F80819181E054F040E80FF91F608319
:10310000EE85FF85E05CFF4F31832083EE89FF89E8
:10311000208181E090E00F8C02C0880F991F0A94F3
:10312000E2F7282B208381E089A3EC89FD89808147
:103130008064808381E090E0DF91CF9108951092C8
:103140001E0410921D0488EE93E0A0E0B0E080938E
:103150001F0490932004A0932104B09322048BE8D1
:1031600091E090931C0480931B0483E993E0909377
:1031700028048093270487ED93E090932A0480939A
:10318000290485EC90E090932C0480932B0484EC2C
:1031900090E090932E0480932D0480EC90E0909327
:1031A000300480932F0481EC90E09093320480935C
:1031B000310482EC90E0909334048093330486ECE5
:1031C00090E0909336048093350484E08093370434
:1031D00083E08093380487E08093390485E080930E
:1031E0003A0481E080933B040895CF93DF930E94DB
:1031F00063150E94BA10C0E2D7E10E9476132097AF
:10320000E1F30E942017F9CFCF92DF92EF92FF9265
:103210000F931F93CF93DF937C016B018A01C0E072
:10322000D0E00FC0D6016D916D01D701ED91FC91F9
:103230000190F081E02DC7010995C80FD91F0150F9
:1032400010400115110571F7CE01DF91CF911F914B
:103250000F91FF90EF90DF90CF900895EF92FF9243
:103260000F931F938C01DC01ED91FC910190F08193
:10327000E02D6DE009957C01D801ED91FC91019064
:10328000F081E02DC8016AE009959C012E0D3F1DDB
:10329000C9011F910F91FF90EF900895CF93DF9395
:1032A000EC016115710519F420E030E00FC0DB017D
:1032B0000D900020E9F71197A61BB70BE881F98163
:1032C0000280F381E02DAD0109959C01C901DF91D8
:1032D000CF9108954F925F927F928F929F92AF927B
:1032E000BF92CF92DF92EF92FF920F931F93DF93E3
:1032F000CF93CDB7DEB7A1970FB6F894DEBF0FBE60
:10330000CDBF2C01742ECB01223008F42AE019A283
:1033100031E2C32ED12CCC0EDD1E822E9924AA249C
:10332000BB24672D752FA50194010E94EC1A790129
:103330008A01C801B701A50194010E94A61A472D70
:10334000461B0894C108D1084A3014F4405D01C0FE
:10335000495CF6014083E114F1040105110521F0F7
:103360007E2C5F2DC801DDCFC201B6010E944E192F
:10337000A1960FB6F894DEBF0FBECDBFCF91DF91FF
:103380001F910F91FF90EF90DF90CF90BF90AF9083
:103390009F908F907F905F904F900895DC01211552
:1033A000310541F4ED91FC910190F081E02D642F05
:1033B000099508950E946A190895EF92FF920F935C
:1033C0001F939A017B0100E010E0B801A7010E9461
:1033D000CE191F910F91FF90EF900895EF92FF92F9
:1033E0000F931F939A01E62EFF2400E010E0B8012E
:1033F000A7010E94CE191F910F91FF90EF900895A1
:10340000CF92DF92EF92FF920F931F936C01E62E03
:103410009A01FF2400E010E0B801A7010E94CE1934
:103420008C01C6010E942E19080F191FC8011F9197
:103430000F91FF90EF90DF90CF900895CF92DF92A1
:10344000EF92FF920F931F93CF93DF93EC016A01EA
:103450007B012115310541F4E881F9810190F0816A
:10346000E02D642F09951FC02A303105D1F477FF74
:1034700017C0E881F9810190F081E02D6DE2099596
:103480008C0144275527BA014C195D096E097F0943
:10349000CE012AE00E946A199801280F391F04C042
:1034A0002AE00E946A199C01C901DF91CF911F9106
:1034B0000F91FF90EF90DF90CF900895EF92FF92E1
:1034C0000F931F937B019A010027F7FC0095102FA3
:1034D000B801A7010E941E1A1F910F91FF90EF9053
:1034E0000895CF92DF92EF92FF920F931F936C019A
:1034F0007B019A010027F7FC0095102FB801A70166
:103500000E941E1A8C01C6010E942E19080F191F55
:10351000C8011F910F91FF90EF90DF90CF90089519
:103520000E944E190895EF92FF920F931F937C0112
:103530000E944E198C01C7010E942E19080F191FF5
:10354000C8011F910F91FF90EF900895629FD001E5
:10355000739FF001829FE00DF11D649FE00DF11D4E
:10356000929FF00D839FF00D749FF00D659FF00DFD
:103570009927729FB00DE11DF91F639FB00DE11DEA
:10358000F91FBD01CF0111240895AA1BBB1B51E1F6
:1035900007C0AA1FBB1FA617B70710F0A61BB70BC3
:1035A000881F991F5A95A9F780959095BC01CD0168
:1035B000089597FB092E07260AD077FD04D0E5DF92
:1035C00006D000201AF4709561957F4F0895F6F7A4
:1035D000909581959F4F0895A1E21A2EAA1BBB1BBF
:1035E000FD010DC0AA1FBB1FEE1FFF1FA217B307CF
:1035F000E407F50720F0A21BB30BE40BF50B661FE5
:10360000771F881F991F1A9469F7609570958095A8
:1036100090959B01AC01BD01CF010895EE0FFF1FF6
:0C3620000590F491E02D0994F894FFCF80
:10362C0054696D656F7574002F0053746F703A0098
:10363C0057616974696E672073746172743A0049DA
:10364C006E707574206C6F73743A0053425553004E
:10365C0046757437353075200050504D00206D6F15
:10366C0064653A0020543D002054633D00204D3DDC
:10367C000020413D0020423D0020453D00202020FF
:10368C00200052464D206C6F636B0008010CD40176
:10369C00D4016348CC0100000008000207801D4DD6
:1036AC009359A76DBD7FD1000000005F180419F578
:0836BC0017261806184F18002C
:00000001FF
