:100000000C9447020C94C1020C946F020C946F0282
:100010000C946F020C9497020C946F020C946F0274
:100020000C946F020C946F020C946F020C946F028C
:100030000C946F020C946F020C946F020C946F027C
:100040000C9428130C946F020C9429150C947715BA
:100050000C946F020C946F020C946F020C946F025C
:100060000C946F020C946F02464C41534820455249
:10007000524F522121212043616E277420776F72E5
:100080006B21004572726F72207265616420736526
:100090007474696E677321000D0A4261796368693F
:1000A00020736F66742032303133005458204F7003
:1000B000656E204578706572742056322046005077
:1000C0007265737320276D2720746F2073746172BB
:1000D00074204D454E550046486E3A204D696E20BD
:1000E000417672204D6178000A0D546F20456E7480
:1000F0006572204D454E5520507265737320454EF4
:1001000054455200547970652052656720616E64D1
:1001100020707265737320454E5445522C207479BB
:1001200070652056616C756520616E642070726523
:10013000737320454E5445522028713D51756974A2
:100140003B204E782D79203D2053686F77206E6FCD
:1001500069736529000D0A52673D56616C20094399
:100160006F6D6D656E7473202D2D2D2D2D2D2D2D04
:100170002D2D2D2D2D2D2D2D2D2D2D2D2D2D2D00DC
:100180004D616B65206E65772062696E643F20412A
:10019000726520796F75207375726528792F6E29C5
:1001A0003F000D0A54727920746F206E65772062CB
:1001B000696E642E2E2E000A0D467265712F6E6FC9
:1001C0006973653A20004572726F723A20746F6FDE
:1001D000206E6F697365210042696E64204E3D0098
:1001E0000102030405060B0C0D0E0F10111213145F
:1001F000151642696E64204E0000000000000000E9
:1002000000000000000000000000000000000000EE
:1002100000004672657120636F7272656374696F66
:100220006E20636F6E737400000000000000000019
:1002300000005465726D20636F727220656E61629A
:100240006C650000000000000000000000000000DD
:100250000000465320636865636B20656E61626CC5
:100260006500000000000000000000000000000029
:10027000000031316269742F313063682028313DCC
:100280007965732C20323D467574616261290000E6
:1002900000004465627567206F75742028312D5009
:1002A000504D2C20322D706572662E290000000002
:1002B0000000486F70204631000000000000000080
:1002C000000000000000000000000000000000002E
:1002D0000000486F7020463200000000000000005F
:1002E000000000000000000000000000000000000E
:1002F0000000486F7020463300000000000000003E
:1003000000000000000000000000000000000000ED
:100310000000486F7020463400000000000000001C
:1003200000000000000000000000000000000000CD
:100330000000486F702046350000000000000000FB
:1003400000000000000000000000000000000000AD
:100350000000486F702046360000000000000000DA
:10036000000000000000000000000000000000008D
:100370000000486F702046370000000000000000B9
:10038000000000000000000000000000000000006D
:100390000000486F70204638000000000000000098
:1003A000000000000000000000000000000000004D
:1003B0000000506F776572207377697463682063FB
:1003C00068616E2028312D31332C303D6F666629EF
:1003D0000000506F776572206D696E2028302D37D0
:1003E00029000000000000000000000000000000E4
:1003F0000000506F776572206D6964646C65202819
:10040000302D37290000000000000000000000002F
:100410000000506F776572206D61782028302D378D
:1004200029000000000000000000000000000000A3
:10043000000000000000240027002A000000000047
:10044000250028002B0000000000230026002900C2
:10045000040404040404040402020202020203036A
:100460000303030301020408102040800102040872
:100470001020010204081020000000070002010003
:10048000000304060000000000000000E316112431
:100490001FBECFEFD8E0DEBFCDBF11E0A0E0B1E0DE
:1004A000E4EBF2E302C005900D92A639B107D9F74B
:1004B00014E0A6E9B1E001C01D92AE33B107E1F747
:1004C00014E0CEE8D4E004C02297FE010E94541943
:1004D000CC38D107C9F70E9439170C9458190C94DD
:1004E0000000FC0188279927E89421912032E9F344
:1004F000293010F02E30C8F32B3241F02D3239F470
:10050000689404C00E948F02820F911D2191205394
:100510002A30C0F31EF4909581959F4F08957AE09C
:10052000979F902D879F802D910D112408951F92E4
:100530000F920FB60F9211248F939F93EF93FF9317
:100540008091840090918500E0916E01F0916F019F
:10055000918380833296F0936F01E0936E01E254B1
:10056000F34030F082ED91E090936F0180936E0143
:10057000FF91EF919F918F910F900FBE0F901F9061
:1005800018951F920F920FB60F9211240F900FBE65
:100590000F901F9018950F931F93CF93DF93909117
:1005A0008903993108F45BC080914203882309F0E4
:1005B00056C0809146038F3009F051C080915E0390
:1005C000882309F04CC000917701C5EBD1E011E020
:1005D000B1E03CC0660F771FE12FF0E0EA5BFC4F13
:1005E000808190E02B2F30E082239323892B11F020
:1005F000462B572BB03819F41F5FB1E001C0BB0F79
:10060000AF5FAB3039F70230D9F0CA01880F991FBC
:10061000880F991F840F951F9695879596958795B6
:10062000883D910518F440E050E00AC028E0883D7C
:10063000920718F04FEF57E003C0AC01485D5040FF
:100640004993599381E0CF3CD80731F040E050E026
:1006500061E070E0A0E0C0CF1092CF010BC0992301
:1006600049F0809143039091440301969093440391
:1006700080934303109242031092870310928903E0
:10068000109284031092850310928803DF91CF911A
:100690001F910F9108952091A70180917103821BF2
:1006A00071F1992787FD909597FF03C090958195EB
:1006B0009F4F02978CF46091740380917203909124
:1006C0007303332727FD3095633670F070E00E9486
:1006D0001D196217730799F0109273031092720339
:1006E0001092740381E00895820F931F9093730317
:1006F000809372036F5F6093740380E0089580E0DD
:100700000895809176018823B9F181E08093780380
:100710008091D1018F3F41F060916F03509177013B
:10072000E5EBF1E040E026C080915D0383FF24C04B
:1007300027C0208131812F5F3F4F523079F4C901AA
:10074000880F991F880F991F820F931FB3E096950A
:100750008795BA95E1F780599C4F05C0C9019695D8
:10076000879584529C4F3296885E9340885E934072
:1007700038F44F5F4617E8F21092780381E008954D
:1007800080E008955C9A5F9800005C9898E010C043
:1007900087FF07C05F980000289A00005F9A00005A
:1007A00006C05F980000289800005F9A0000880F3C
:1007B000915070F75F9808958F770E94C203089553
:1007C0005F98000098E010C087FF07C05F980000A6
:1007D000289A00005F9A000006C05F9800002898E1
:1007E00000005F9A0000880F915070F75F9808959D
:1007F0005F98000080E090E0880F5F9A00001999F0
:1008000081605F9800009F5F9830B1F708950E9463
:10081000DC030E94F8035C9A08951F93162F8068EA
:100820000E94C203812F0E94E0035C9A1F910895E9
:1008300050917D03851760F180917E03E82FF0E0F1
:10084000EE0FFF1FEB54FE4F208131818F5F8093AD
:100850007E0380917C0390917B0340E020FD982BE8
:10086000803849F45F5FE52FF0E0EA56FE4F908351
:1008700081E090E001C0880F4F5F4B3019F0369552
:100880002795ECCF80937C0390937B0350937D035B
:1008900008952F923F924F925F926F927F928F9224
:1008A0009F92AF92BF92CF92DF92EF92FF920F93FF
:1008B0001F93CF93DF93D82EF894A0906E01B09041
:1008C0006F0178948091780181FF56C00E947E1359
:1008D0008B019C0180915F0390916003A801481BEC
:1008E000590B8091AA019091AB018417950720F4D0
:1008F0005093AB014093AA0100935F0310936003F0
:1009000020936103309362038091630390916403A9
:100910009C0175E0369527957A95E1F7821B930B3C
:10092000840F951F909364038093630380917001FB
:10093000909171019501281B390BC90195958795F7
:100940009093660380936503883B910530F088544B
:100950009F4F9093660380936503209165033091C8
:10096000660380916703909168038217930720F4D0
:10097000309368032093670380907701E0908103B0
:1009800020917F0330918003F090860300918203D1
:1009900010918303C0E0D0E06D2C772452ED452EFA
:1009A00051E0552E992493944CE0342E22242A941D
:1009B000FBC0C190D190F0937101E0937001E254BB
:1009C000F34020F05092710140927001C601821BE9
:1009D000930B3091D1013F3F09F47DC0E394E0FED9
:1009E000E0C0800F911F2091D001222349F12233D2
:1009F000A0F01092D001809142038A3030F0209212
:100A0000D10180E480934503CBC03B3018F0909235
:100A1000D101C6C01092D101C3C0813F910530F40D
:100A2000809142038F5F8093420306C080549640BA
:100A300018F43F5F3093D1012F5F2093D001B0C0F5
:100A4000332311F0880F991F23E18838920728F08B
:100A500010926D011092CF01A3C035E08C3D930739
:100A6000B8F1E0916D01EC3098F5EF5FE0936D0126
:100A7000E15042E08416A1F426E0803E9207D8F0CF
:100A800030E1803E9307D0F4805E9640880F991F36
:100A9000880F991F65E070E00E940919CB0110C012
:100AA00047E0883B940738F02FE0883B920730F40A
:100AB000885B974005C080E090E002C08FEF97E030
:100AC000F0E0EE0FFF1FEB54FE4F9183808368C070
:100AD00030926D0165C00A9664E170E00E940919C8
:100AE0006B3018F00E94CB025BC080918403882396
:100AF00061F4615090928403809142039091850348
:100B0000890F80934203FF24F394509185038091D1
:100B10008403909187034091420330918803209190
:100B200089032CC0552311F09F5F3F29FF0C8F5F75
:100B30008C3029F08A3008F1283108F45FC0E22FA8
:100B4000F0E0EA5BFC4F30839170490F2F5F293151
:100B500020F480E090E030E010C010928403109206
:100B600087034093420310928803209389030E94D5
:100B7000CB0210C0552309F44F5F6150662391F6F4
:100B800080938403909387034093420330938803B8
:100B90002093890380918503392D381B3093850379
:100BA000C801219696018C01E0917001F0917101CC
:100BB000EA15FB0521F0C615D70508F4FACEE09238
:100BC00081033093800320937F03F0928603109378
:100BD000830300938203DF91CF911F910F91FF90C8
:100BE000EF90DF90CF90BF90AF909F908F907F90CD
:100BF0006F905F904F903F902F9008958B3009F445
:100C0000B9CFBBCF60917401662369F08091750103
:100C1000882319F08091A801680F89E00E940D04D3
:100C20008CE00E9449048091A6018F5F8093A60109
:100C3000883010F01092A601E091A601F0E0E25891
:100C4000FE4F89E760810E940D04089583E00E94B1
:100C500007048093790384E00E94070480937A0359
:100C60008CE00E94490487E061E00E940D04089531
:100C700087E061E00E940D048EE764E20E940D04AB
:100C80008CE00E94490488E063E00E940D0488E043
:100C900060E00E940D048CE00E94490487E065E05A
:100CA0000E940D0485E062E00E940D048CE00E9429
:100CB000490483E00E9407048093790384E00E9442
:100CC000070480937A030895EF92FF920F931F9386
:100CD0008C010E947013780100E010E0E60EF71E10
:100CE000081F191F03C08CE00E9449040E94701362
:100CF0006E157F0580079107B0F31F910F91FF904C
:100D0000EF9008950E94260682E390E00E94640618
:100D10000E94380608956F927F928F929F92AF92B1
:100D2000BF92CF92DF92EF92FF920F931F93CF93D8
:100D3000DF930E947E134B015C0110927B0381E0E4
:100D400080937C0310927D0310927E03DD24D39464
:100D50001FE1612E14E0712EBCE8CB2E43C00E942F
:100D60007E13681979098A099B09E616F7060807B0
:100D7000190708F047C02FE0D216D9F4E7E9F1E0EF
:100D800090E08081982740E0892F90E09C01359584
:100D9000279580FF03C09C2D922701C0922F4F5FA3
:100DA000483091F7319681E0E53AF80751F79083A2
:100DB00012C08D2D0E9418042EE0D21661F490917D
:100DC000A4019F739093A4018091AC01823019F427
:100DD00090689093A401CA56DE4F8FE768810E9405
:100DE0000D04D394CD2DD0E0C69DC001C79D900DBC
:100DF000D69D900D1124825C974F7C010027F7FC53
:100E00000095102F4A9B12C00E947E136819790921
:100E10008A099B096F5F7C478040904038F48CE0E2
:100E20000E9449048FE08D1568F399CFDF91CF912F
:100E30001F910F91FF90EF90DF90CF90BF90AF90F8
:100E40009F908F907F906F9008952F923F924F9236
:100E50005F926F927F928F929F92AF92BF92CF924A
:100E6000DF92EF92FF920F931F93CF93DF930E9435
:100E70007E134B015C01DD24D3947FE1272E74E0C7
:100E8000372E6CE8C62E51E0652E712C42E0442EC0
:100E9000512C0CC10E947E13681979098A099B099B
:100EA000E616F7060807190708F010C121E0D21668
:100EB00009F04AC0A5EBB1E0E8E9F1E060E010E03C
:100EC00000E040E050E0742F2D913C91119784E0B8
:100ED0002030380740F0C301042E02C0880F991F4C
:100EE0000A94E2F7682BC9019695879596958795A0
:100EF0008083473099F021FF08C0C201072E02C04D
:100F0000880F991F0A94E2F7182B20FF07C0C3012E
:100F100002C0880F991F7A95E2F7082B4F5F5F4F49
:100F2000129631964830510571F6609397018FE71C
:100F30000E940D041093A50180917701882309F484
:100F4000B4C00093A301B1C02DE02D1508F486C0F4
:100F5000CE010297FC01EE0FFF1FEB54FE4F4081C4
:100F6000518129E02D1508F447C0930102C0220FDA
:100F7000331F8A95E2F7622F84E04030580710F063
:100F8000E22F01C0E0E0862F90E02091970130E051
:100F9000822393232E2F30E08217930709F059C044
:100FA000FE01EA56FE4FCA0196958795969587955C
:100FB000808380917701882369F040FF04C080918D
:100FC000A301862B05C0862F80959091A3018923CC
:100FD0008093A30129E0D216E1F1962F990F41FFEA
:100FE00004C08091A501982B04C090958091A50123
:100FF00098239093A5012DC080917701882321F03B
:101000008D2D8C50823050F0FE01EA56FE4F93E059
:10101000569547959A95E1F740831BC08CE0D8160A
:10102000C1F4FE01EE0FFF1FED54FE4F908197704B
:10103000990F990F990F842F8770982BFE01EA560C
:10104000FE4F8091C30182708295880F807E982B1D
:101050009083CA56DE4F8FE7688125C02EE0D216F6
:10106000C1F4E8E9F1E060E08081682720E0862FA4
:1010700090E0BC017595679580FD6C252F5F283049
:10108000B1F7319681E0E43AF80771F760838FE7B2
:101090000AC08091AC01823019F421E02093A501AF
:1010A0008FE76091A5010E940D04D394CD2DD0E06F
:1010B000C29DC001C39D900DD29D900D1124825CF4
:1010C000974F7C010027F7FC0095102F4A9B12C018
:1010D0000E947E13681979098A099B096F5F7C4712
:1010E0008040904038F48CE00E9449048FE08D15D8
:1010F00068F3D0CEDF91CF911F910F91FF90EF90C9
:10110000DF90CF90BF90AF909F908F907F906F9027
:101110005F904F903F902F900895EF92FF920F9322
:101120001F938C010E947E13780100E010E0E60E10
:10113000F71E081F191F03C08CE00E9449040E947B
:101140007E136E157F0580079107B0F31F910F91F5
:10115000FF90EF9008958FE060E80E940D048DE409
:1011600091E00E948D0881E10E940704282F2054FD
:101170002093A701243154F4332727FD30958EE1C5
:1011800090E0821B930B6AE070E00BC02F3174F08B
:10119000332727FD30958EE190E0821B930B67E0AB
:1011A00070E00E941D196093A80102C01092A8016E
:1011B0008CE00E94490408950E942606E09179017E
:1011C0008E2F81508D30B0F4F894F0E0EE0FFF1FB9
:1011D000ED54FE4F80819181789422E08A3A920703
:1011E00018F460917A0108C08455954018F4609114
:1011F0007B0102C060917C0167704091A9014F5F43
:101200004093A90150E028E030E0261B3109C901D4
:10121000880F991F820F931F841795071CF4109253
:10122000A9012D9A685F8DE60E940D0488E063E0B5
:101230000E940D0488E060E00E940D04609173013B
:10124000609396018FE70E940D0485E064E00E94A0
:101250000D0483E00E9407048093790384E00E94D8
:10126000070480937A0303C081E00E9449040E942E
:101270007E132091B1013091B2014091B3015091A0
:10128000B401621B730B840B950B66577A47804041
:10129000904050F387E069E00E940D048091B10115
:1012A0009091B201A091B301B091B401845F9448D0
:1012B000AF4FBF4F8093B1019093B201A093B301A0
:1012C000B093B40180917701823019F40E948B06AB
:1012D00002C00E9425074A9B08C08CE194E060E0B0
:1012E00071E00E94D71880E008952D980E9426068C
:1012F00081E0089587E060E80E940D0461E070E0FD
:1013000080E090E00E94A41383E00E940704809391
:10131000790384E00E94070480937A0386E060E00A
:101320000E940D0487E061E00E940D046091740149
:10133000662311F089E002C089E067EC0E940D0489
:101340008AE065E00E940D048BE062E10E940D04DA
:101350008CE065E10E940D048EE060E00E940D04C7
:101360008FE163E00E940D048EE16AE00E940D04AB
:1013700082E160E60E940D0483E168EF0E940D04A3
:101380008FE060E80E940D048DE160E40E940D048E
:101390008CE166E20E940D0480E264E40E940D0488
:1013A00081E260E00E940D0482E262EF0E940D047F
:1013B00083E26CE70E940D0484E266E00E940D0463
:1013C00085E26DE70E940D048AE26FE00E940D0441
:1013D00080E36CEA0E940D0482E36CE80E940D0435
:1013E00083E36AE00E940D0484E364E00E940D043C
:1013F00085E362E20E940D0486E36DE20E940D0423
:1014000087E364ED0E940D0488E360E00E940D0410
:1014100089E360E00E940D048EE360E10E940D0408
:101420008DE66FE00E940D048EE66CE30E940D04D1
:101430008FE66FE90E940D0489E660E60E940D04C4
:1014400080E76EE20E940D0489E760E00E940D04CF
:101450008AE766E00E940D0481E760E00E940D04C7
:1014600081E763E20E940D0482E76EE00E940D04B2
:1014700085E763E50E940D0486E76CE40E940D0495
:1014800087E760EE0E940D0408951F93182F84369D
:1014900060F48CE194E060E20E94A3161A3028F414
:1014A0008CE194E060E20E94A3168CE194E0612F4D
:1014B0004AE050E00E9432188CE194E060E20E9421
:1014C000A3161F9108950F931F9390917D01899FFB
:1014D000802D1124980F1FEF0FEF0EC0E82FF0E0C2
:1014E000EE52FE4FE081EE3D20F4E11710F4082F9C
:1014F00001C0E12F8F5F1E2F891780F31E3D88F5F5
:101500008CE194E060E20E94A3168CE194E0602FED
:101510004AE050E00E9432188CE194E068E071E00B
:101520000E94D418169516958CE194E0612F70E016
:101530004AE050E00E94A218002359F0E02FF0E0AA
:10154000EE52FE4F8FEF82933196023010F03297B9
:101550008083E02FF0E0EE52FE4F8FEF8283818395
:101560008083802F1F910F9108951F93182F0E9441
:10157000630A893E70F0112341F0812F81500E944F
:10158000630A883E30F0173020F4812F81500E948A
:10159000630A1F9108951F938091AA019091AB0156
:1015A000805A9F4020F01092AB011092AA010E9435
:1015B0004B03882369F520916B0330916C03809174
:1015C0004303909144032817390711F59091700354
:1015D0008091CF019817E1F42091690330916A035B
:1015E0008091AA019091AB012817390789F42091C5
:1015F0006D0330916E038091670390916803281703
:10160000390731F49091780380917703981739F175
:101610008091AA019091AB0190936A038093690332
:10162000809143039091440390936C0380936B03E8
:101630008091A701809371038091CF018093700303
:10164000809167039091680390936E0380936D037C
:10165000809178038093770381E080937603809173
:101660007603823009F474C0833038F4882309F497
:101670000DC1813009F063C107C0833009F491C006
:10168000843009F05CC1E8C08CE194E06DE00E9418
:10169000A31680917803882329F08CE194E06AE016
:1016A00071E04FC08091CF018F3F29F48CE194E02D
:1016B00060E171E046C0863028F08CE194E06FE193
:1016C00071E03FC080916F03882399F4E5EBF1E06E
:1016D00080819181892B29F080916F038F5F8093A6
:1016E0006F03329681E0ED3CF80791F78CE00E94A1
:1016F00049048091D1018F3F39F48CE194E06BE291
:1017000071E00E94D41819C0882331F08CE194E074
:1017100060E371E00E94D4188CE194E069E371E029
:101720000E94D4188CE00E9449048CE194E06091FE
:101730006F034AE050E00E9432188CE194E06DE3C0
:1017400071E00E94D4188CE00E94490482E026C017
:101750008CE194E064E471E00E94D418609171031C
:10176000772767FD70958CE194E04AE050E00E9495
:10177000A2188CE194E068E471E00E94D4186091B2
:10178000A801772767FD70958CE194E04AE050E06E
:101790000E94A2188CE00E94490483E080937603A3
:1017A000CEC08091780181FF55C08CE194E06DE45A
:1017B00071E00E94D4186091690370916A038CE112
:1017C00094E04AE050E00E9421188CE00E94490415
:1017D0008CE194E061E571E00E94D41860916303AC
:1017E0007091640335E0769567953A95E1F78CE161
:1017F00094E04AE050E00E9421188CE00E944904E5
:101800008091D1018F3F31F58CE194E065E571E085
:101810000E94D41860916D0370916E038CE194E086
:101820004AE050E00E9421188CE00E9449048CE1BB
:1018300094E069E571E00E94D41860916B037091A7
:101840006C038CE194E04AE050E00E9421188CE0A7
:101850000E94490484E0A2CF8091780180FF0DC0EE
:1018600010E08CE194E06DE571E00E94D41882E014
:101870000E9449041F5F1830A1F78CE194E00E9498
:101880007217109275031092760359C080917801F7
:10189000982F80FF54C080916F03833008F44FC0AD
:1018A000E091750392FF0CC0F0E0EE0FFF1FEB54C8
:1018B000FE4F608171818CE194E040E150E025C0F1
:1018C000F0E0EE0FFF1FEB54FE4F0190F081E02D92
:1018D000319680917701823079F4BF01660F771FCE
:1018E000660F771F6E0F7F1F13E0769567951A9529
:1018F000E1F760597C4F05C0BF017695679564524A
:101900007C4F8CE194E04AE050E00E9421188CE08A
:101910000E9449048CE194E060E20E94A316809149
:1019200075038F5F8093750390916F03891738F06B
:101930008CE194E06DE00E94A316109275031F9154
:1019400008951F93CF93DF93EC01162FFE0121968C
:101950006491662329F08CE194E00E94A316F6CFEF
:10196000112321F08CE194E00E947217DF91CF9156
:101970001F910895AF92BF92CF92DF92EF92FF92A4
:101980000F931F93CF93DF936C0101960E94710216
:101990009C0101978E3F910510F010E01EC0122FA0
:1019A00082E090E0F601E80FF91FE081EE23A9F054
:1019B0000196ED3279F48C0D9D1D0E9471029C01FF
:1019C000812F90E08217930740F42F3F310528F4D0
:1019D000A22E05C08A30910529F7EEEFAE2E0E94A7
:1019E0007A090E94820687ED90E061E00E94A10CD6
:1019F000B12E98C089E76B2D0E940D048DEE92E008
:101A00000E94FD130FEFFF24C0E0D0E010E083E65A
:101A100090E00E94FD1386E20E940704C80FD11DCA
:101A2000801708F4082FF81608F4F82E1F5F173CEB
:101A300071F78B2D0E94450AEEE7F1E06AE38081A1
:101A40008B1509F463E2319681E0E638F807B9F7BF
:101A50008CE194E00E94A3168CE194E060E20E9485
:101A6000A316802F0E94450ACE0167EC70E00E9409
:101A70000919162F862F0E94450A8F2D0E94450AAC
:101A8000F60180818E3409F047C00A3010F4EE244C
:101A900008C0073418F07CE3E72E03C066EFE62E9B
:101AA000E00EF9E0FF1510F000E007C086E48F15A6
:101AB00010F40CE302C00F2D0A501A3010F4FF246A
:101AC00008C0173418F05CE3F52E03C046EFF42E7F
:101AD000F10E10E01F1521F48CE194E06AE217C0CA
:101AE0001E1521F48CE194E06CE311C0101721F471
:101AF0008CE194E06EE30BC0E11630F4101720F493
:101B00008CE194E06EE203C08CE194E060E20E941C
:101B1000A3161F5F0117F0F68CE194E00E94721784
:101B2000A895B394AB1408F065CFDF91CF911F91C6
:101B30000F91FF90EF90DF90CF90BF90AF900895FE
:101B4000EF92FF920F931F93CF93DF937C01FC01E1
:101B5000108200E010E0A8958CE194E00E94391614
:101B60001816190694F58CE194E00E946A16EC01AF
:101B70001816190684F78CE194E06C2F0E94A316C6
:101B8000CD30D10519F0CA30D10559F48CE194E07B
:101B90000E947217DF91CF911F910F91FF90EF90EC
:101BA0000895C830D10531F401151105A1F2015095
:101BB0001040D1CFF701E00FF11FC0831182063032
:101BC00011054CF60F5F1F4FC6CF61E070E080E05B
:101BD00090E00E94A413BFCF8CE194E00E943916DC
:101BE0001816190614F020E01AC08CE194E00E9447
:101BF0006A168336910519F08334910541F41092E9
:101C0000AB011092AA0110926803109267038D36FF
:101C1000910521F020E08D34910509F421E0822F17
:101C20000895462FBC016C5F7F4F8AE893E00E94C5
:101C30001C130895DF92EF92FF920F931F938C0174
:101C4000D62E472FFAE8EF2EF3E0FF2EC701B8019A
:101C50000E941C130F5F1F4FC701B8014D2D0E943A
:101C60001C131F910F91FF90EF90DF900895EF925A
:101C7000FF920F931F93CF93DF9302E711E0EE24BF
:101C8000FF24C0E0D0E0CE01F80160810E94110E77
:101C9000F80181918F01E80EF11C2196C730D10522
:101CA00091F7CEE7D1E00BE010E0C80168810E9417
:101CB000110E8991E80EF11C0F5F1F4FF1E0C6383D
:101CC000DF0799F7C9E7D1E003E110E0C8016881B7
:101CD0000E94110E8991E80EF11C0F5F1F4F81E0E9
:101CE000CD37D80799F784E490E0B7010E941A0E27
:101CF000DF91CF911F910F91FF90EF900895BC015C
:101D00006C5F7F4F8AE893E00E9415130895FF925D
:101D10000F931F93CF93DF9385E591E061E00E94DD
:101D2000A10CFF24C1E0D0E00F2D10E0F801E0523B
:101D3000FE4FE4918E2F90E08C179D0739F58CE1D2
:101D400094E0BE014AE050E00E94A2188CE194E0C9
:101D50006DE30E94A316CE010E947F0E682F8CE1D6
:101D600094E04AE050E00E9432188CE194E069E08F
:101D70000E94A316A5E0000F111FAA95E1F7C80164
:101D80008E509E4F61E00E94A10CF3942196CB32BD
:101D9000D10551F6DF91CF911F910F91FF900895DA
:101DA00088E990E061E00E94A10C8BEA90E060E09D
:101DB0000E94A10C8CE194E060916B014AE050E03C
:101DC0000E9444180E94870E8FEB90E061E00E9411
:101DD000A10C0895DF92EF92FF920F931F938C0155
:101DE000BAE8EB2EB3E0FB2EC701B8010E94151331
:101DF000D82E0F5F1F4FC701B8010E9415133D2D4C
:101E000020E0280F311DC9011F910F91FF90EF9025
:101E1000DF9008950F931F93CF93DF9300E010E0BE
:101E2000C0E0D0E0CE010E947F0EFE01EE58FE4FD2
:101E30008083080F111D2196C730D10599F7CBE09B
:101E4000D0E0CE010E947F0EFE01ED58FE4F808350
:101E5000080F111D2196C331D10599F7C3E1D0E0D8
:101E6000CE010E947F0EFE01EA59FE4F8083080FCB
:101E7000111D2196C731D10599F784E490E00E94A5
:101E8000EA0E20E08017910709F421E0822FDF910C
:101E9000CF911F910F9108950F931F93CF93DF93CD
:101EA00020916C01222379F1E0E0F0E000E010E005
:101EB0008491080F111D319680E4E030F807C1F7D6
:101EC000922F80E020916B01EC01C20FD11D80E4C4
:101ED00090E00E94EA0EC817D90761F080E490E014
:101EE000BE010E941A0E82E490E0B8010E941A0E10
:101EF00081E00AC082E490E00E94EA0E8017910718
:101F000011F08FEF01C080E0DF91CF911F910F9111
:101F1000089589E060E00E94421488E061E00E9438
:101F2000421487E061E00E94421482E060E00E9477
:101F3000421482E061E00E94811484E061E00E942A
:101F4000421480E060E00E94421481E061E00E945F
:101F5000421480E061E00E94811481E061E00E940F
:101F600081148CE061E00E9442148DE061E00E94E7
:101F700042148BE060E00E9442148BE061E00E941A
:101F8000811483E060E00E94421483E061E00E94DB
:101F900081148CE194E040E056E960E070E00E943A
:101FA000B21581E08093D0011092D10183E080933B
:101FB00080008AE1809381008FEF9FEF90938900EA
:101FC0008093880010926F0088E080936D00E8E6AF
:101FD000F0E0808184608083E898789408951F936E
:101FE000182F8091AC018130C1F0813018F082301F
:101FF000D1F52FC08BE00E94D514892BA1F581E08B
:102000008093AC010E9470136093AD017093AE0198
:102010008093AF019093B00126C08BE00E94D5144D
:10202000892BE1F40E9470132091AD013091AE0133
:102030004091AF015091B001621B730B840B950B63
:10204000655F71408040904070F082E08093AC0109
:102050000AC08BE00E94D514892B19F01092AC01B4
:1020600002C011112D9A1F910895BF92CF92DF9255
:10207000EF92FF920F931F93CF93DF93882351F535
:102080000E9470137B018C0187E893E1A0E0B0E02F
:10209000E80EF91E0A1F1B1F2D98A89580E00E94CC
:1020A000EF0F0E947013E616F7060807190708F4E9
:1020B0002D9A8091AC01882381F70E9470136E15D0
:1020C0007F058007910708F4C8C00E940A0F882383
:1020D00051F01DC08F3F21F0EE24FF24870116C070
:1020E000EE24FF24870181E080937501109278012E
:1020F00010927701109276011092790110927A0174
:1021000082E080937B0187E080937C012D9A97EC9D
:10211000B92E8DE1C82E809174018A5A8D3310F04A
:10212000B09274010E947A090E9482060E943806C9
:1021300082EA91E060E00E94A10C80E090E0FC0166
:10214000EE52FE4F108201968F3F9105C1F7DD24BC
:10215000A895C0E0D0E089E76C2F0E940D0487EEBF
:1021600093E00E94FD1386E20E940704982F969543
:1021700096959695983008F098E0FE01EE52FE4F45
:102180008081890F80832196C83ED10521F7D394A1
:102190009FE1D916E9F62D98C0927D0187EB91E079
:1021A00060E00E94A10C80E00E94B50A80937E014D
:1021B00084E00E94B50A80937F0181E00E94B50A05
:1021C0008093800185E00E94B50A8093810182E0BE
:1021D0000E94B50A8093820186E00E94B50A80932E
:1021E000830183E00E94B50A8093840187E00E9406
:1021F000B50A809385018CE194E00E947217EEE7A6
:10220000F1E08081893E50F086EC91E061E00E942F
:10221000A10C85E090E00E94E1117DCF3196A1E014
:10222000E638FA0771F70E9470136E197F09800B68
:10223000910B162F662309F411E088ED91E060E020
:102240000E94A10C8CE194E0612F4AE050E00E94D2
:102250004418109373010E94370EDF91CF911F91A4
:102260000F91FF90EF90DF90CF90BF900895CF92A5
:10227000DF92EF92FF920F931F93DF93CF93CDB72F
:10228000DEB728970FB6F894DEBF0FBECDBF0E9411
:10229000820688EE90E061E00E94A10C8E010F5F43
:1022A0001F4FC8010E94A00D8981813709F47AC0AF
:1022B000813509F477C068010E94870E84E091E0BF
:1022C00061E00E94A10CC6010E94A00D89818E369A
:1022D00011F08E3421F4C6010E94BA0CF4CF82377B
:1022E00001F58A818536E9F48B818236D1F48C81BF
:1022F0008936B9F48D818E36A1F48E81843689F4C5
:1023000080E891E060E00E94A10CC6010E94A00D4F
:102310008981893711F0893521F481E00E943510D7
:10232000CBCF89818137F1F18135E1F1C6010E947E
:1023300071027C018BE2E816F10408F0BDCFC60102
:102340000E94A00D8981813769F1813559F1C6015B
:102350000E9471028C018F3F910511F008F0ACCF03
:10236000E114F10419F4009709F4A6CF8CE194E08C
:10237000B7014AE050E00E94A2188CE194E06DE3BE
:102380000E94A3168CE194E0B8014AE050E00E945C
:10239000B518C701602F0E94110E0E940A0F0E94FB
:1023A000370E8ACF28960FB6F894DEBF0FBECDBF8A
:1023B000CF91DF911F910F91FF90EF90DF90CF9021
:1023C00008950F931F93CF93DF938C01C0E0D0E06B
:1023D00016C0A8958AEF90E00E9464062D9A8AEFB5
:1023E00090E00E9464062D980333110538F00E9496
:1023F000EC0D882319F00E94371104C02196C017F4
:10240000D10738F3DF91CF911F910F9108951F935A
:102410000E944C0F182F8F3F51F488E690E061E046
:102420000E94A10C8FE59AEE0E94E1110DC00E945E
:102430000A0F882349F4113021F48FEF0E943510E0
:1024400003C083E890E0EBCF1F910895EF92FF92D5
:102450000F931F930E94D00E2EE088E190E00FB6FC
:10246000F894A895809360000FBE209360002C9A8A
:1024700063E670E080E090E00E94A413E5EBF1E0F9
:102480001192119221E0ED3CF207D1F72C9880E0F7
:102490000E9435100E9407120E947A090E94380695
:1024A0008FEF8093CF018CE194E00E9472170E941D
:1024B000CB0A10E00E94AB088091A701893D0CF483
:1024C000A7C08CE00E940704882309F4A1C00E94E1
:1024D00038061092AB011092AA0110926803109274
:1024E00067030E947E136093B1017093B2018093E1
:1024F000B3019093B4018CE00E944904A8950E9416
:10250000EC0D882361F00E9437110E947E136093C6
:10251000B1017093B2018093B3019093B4018CE048
:102520000E9407048823C1F48CE194E062E671E024
:102530000E94D7182D9A89EF90E00E9464060E94AD
:102540007A090E9438061092AB011092AA011092EB
:10255000680310926703CFCF8CE00E9449040E9469
:102560007E137B018C010E948103982F8823C1F187
:102570008091CF018730A0F581E00E94EF0F80911C
:10258000B1019091B201D701A81BB90BCD01B1E700
:1025900087349B0708F4AFCF885E904880F084EFC3
:1025A00094E8AFEFBFEFE80EF91E0A1F1B1FE09281
:1025B000B101F092B2010093B3011093B4010E94F3
:1025C00002060E94DC08882309F4B9CF0E94AB08F8
:1025D0008091CF018F5F8093CF010E94CB0A8BCF78
:1025E0008091CF018F3F59F0863018F4992309F07C
:1025F00082CF80917703882311F40E9482060E9483
:10260000AB080E94CB0A83E690E00E94640673CF79
:102610000E947A0963E670E080E090E00E94A413D3
:102620001F5F103209F046CF52CFF999FECF72BD2D
:1026300061BDF89A80B50895F999FECF1FBA72BDB1
:1026400061BD40BD0FB6F894FA9AF99A0FBE08958D
:102650001F920F920FB60F9211242F933F938F93D7
:102660009F93AF93BF9380918F0390919003A0911C
:102670009103B0919203309193030196A11DB11D76
:10268000232F2D5F2D3720F02D570196A11DB11D51
:102690002093930380938F0390939003A0939103CF
:1026A000B093920380918B0390918C03A0918D0342
:1026B000B0918E030196A11DB11D80938B03909361
:1026C0008C03A0938D03B0938E03BF91AF919F9124
:1026D0008F913F912F910F900FBE0F901F901895E3
:1026E0008FB7F89420918F0330919003409191031C
:1026F000509192038FBFB901CA0108959FB7F89412
:1027000020918B0330918C0340918D0350918E0367
:1027100086B5A89B06C08F3F21F02F5F3F4F4F4FDC
:102720005F4F9FBF542F432F322F2227280F311D79
:10273000411D511D82E0220F331F441F551F8A95F2
:10274000D1F7B901CA0108959B01AC017FB7F89494
:1027500080918B0390918C03A0918D03B0918E0397
:1027600066B5A89B05C06F3F19F00196A11DB11D6C
:102770007FBFBA2FA92F982F8827860F911DA11DE3
:10278000B11D62E0880F991FAA1FBB1F6A95D1F780
:10279000BC012DC0FFB7F89480918B0390918C03FE
:1027A000A0918D03B0918E03E6B5A89B05C0EF3FC5
:1027B00019F00196A11DB11DFFBFBA2FA92F982FA7
:1027C00088278E0F911DA11DB11DE2E0880F991F72
:1027D000AA1FBB1FEA95D1F7861B970B885E934013
:1027E000C8F2215030404040504068517C4F211584
:1027F00031054105510571F60895019739F0880FAB
:10280000991F880F991F02970197F1F708957894FF
:1028100084B5826084BD84B5816084BD85B58260E5
:1028200085BD85B5816085BDEEE6F0E08081816083
:102830008083E1E8F0E01082808182608083808183
:1028400081608083E0E8F0E0808181608083E1EB5B
:10285000F0E0808184608083E0EBF0E08081816043
:102860008083EAE7F0E080818460808380818260F9
:1028700080838081816080838081806880831092E2
:10288000C1000895CF93DF93482F50E0CA018C59BF
:102890009B4FFC013491405B5B4FFA01849188238C
:1028A00069F190E0880F991FFC01EE5CFB4FA59148
:1028B000B491FC01E45CFB4FC591D491662351F4C3
:1028C0002FB7F8948C91932F909589238C938881BE
:1028D00089230BC0623061F42FB7F8948C91932F49
:1028E000909589238C938881832B88832FBF06C082
:1028F0009FB7F8948C91832B8C939FBFDF91CF91DE
:102900000895482F50E0CA0188589B4FFC0124913C
:10291000CA018C599B4FFC019491405B5B4FFA01BB
:102920003491332309F440C0222351F1233071F054
:10293000243028F42130A1F0223011F514C02630C3
:10294000B1F02730C1F02430D9F404C08091800068
:102950008F7703C0809180008F7D8093800010C0AE
:1029600084B58F7702C084B58F7D84BD09C0809106
:10297000B0008F7703C08091B0008F7D8093B0004E
:10298000E32FF0E0EE0FFF1FE45CFB4FA591B49145
:102990002FB7F894662321F48C919095892302C077
:1029A0008C91892B8C932FBF0895682F70E0CB01F9
:1029B00088589B4FFC012491CB018C599B4FFC0103
:1029C0004491605B7B4FFB019491992319F420E0C3
:1029D00030E03CC0222351F1233071F0243028F440
:1029E0002130A1F0223011F514C02630B1F027308B
:1029F000C1F02430D9F404C0809180008F7703C0E7
:102A0000809180008F7D8093800010C084B58F7787
:102A100002C084B58F7D84BD09C08091B0008F77DE
:102A200003C08091B0008F7D8093B000892F90E02B
:102A3000880F991F8A5B9B4FFC01A591B4918C91E3
:102A400020E030E0842311F021E030E0C901089556
:102A500008951F920F920FB60F9211242F933F9358
:102A60004F938F939F93EF93FF938091C00082FDCC
:102A70001DC04091C6002091D4033091D5032F5F33
:102A80003F4F2F7330708091D6039091D703281752
:102A9000390771F0E091D403F091D503EC56FC4F67
:102AA00040833093D5032093D40302C08091C600A5
:102AB000FF91EF919F918F914F913F912F910F90A7
:102AC0000FBE0F901F901895E0912804F0912904F3
:102AD000E05CFF4F8191919120813181821B930BAA
:102AE0008F739070892B11F00E94281508951F9202
:102AF0000F920FB60F9211242F933F938F939F93B2
:102B0000EF93FF93209118043091190480911A04D7
:102B100090911B042817390731F48091C1008F7DF3
:102B20008093C10014C0E0911A04F0911B04E85294
:102B3000FC4F208180911A0490911B0401968F73A1
:102B4000907090931B0480931A042093C600FF9109
:102B5000EF919F918F913F912F910F900FBE0F900A
:102B60001F901895AF92BF92DF92EF92FF920F9352
:102B70001F93CF93DF93EC017A018B01DD2440306A
:102B800081EE580780E0680780E0780711F0DD24C7
:102B9000D39491E0A92EB12CEC89FD89DD2069F058
:102BA000C50108A002C0880F991F0A94E2F780832C
:102BB00060E079E08DE390E005C0108260E874E8A1
:102BC0008EE190E0A80197010E9430192150304019
:102BD00040405040569547953795279580E12030E5
:102BE000380720F0DD2011F0DD24D6CFE889F989FF
:102BF0003083EA89FB89208319A2EE89FF8940810D
:102C000021E030E0C9010C8C02C0880F991F0A94A2
:102C1000E2F7482B4083EE89FF894081C9010D8C82
:102C200002C0880F991F0A94E2F7482B4083EE896F
:102C3000FF894081C9010E8C02C0880F991F0A9438
:102C4000E2F7482B4083EE89FF8980810F8C02C018
:102C5000220F331F0A94E2F7209528232083DF9167
:102C6000CF911F910F91FF90EF90DF90BF90AF90A9
:102C70000895DC011C96ED91FC911D97E05CFF4FDF
:102C80002191319180819181281B390B2F733070F4
:102C9000C9010895DC011C96ED91FC911D97E05C43
:102CA000FF4F20813181E054F040DF01AE5BBF4F28
:102CB0008D919C9111972817390719F42FEF3FEF49
:102CC00007C08D919C91E80FF91F8081282F30E07B
:102CD000C9010895DC011C96ED91FC911D97E05C03
:102CE000FF4F20813181E054F040DF01AE5BBF4FE8
:102CF0008D919C9111972817390719F42FEF3FEF09
:102D000010C08D919C911197E80FF91F20818D9132
:102D10009C91119701968F73907011969C938E934E
:102D200030E0C9010895DC0191968C919197882338
:102D300039F05496ED91FC915597808186FFF9CF3B
:102D400091961C920895CF93DF93EC01EE85FF8559
:102D5000E05CFF4F20813181E054F0402F5F3F4F16
:102D60002F733070DF01AE5BBF4F8D919C91119737
:102D700028173907D1F3E05CFF4F80819181E0543F
:102D8000F040E80FF91F6083EE85FF85E05CFF4FA0
:102D900031832083EE89FF89208181E090E00F8CD0
:102DA00002C0880F991F0A94E2F7282B208381E044
:102DB00089A3EC89FD8980818064808381E090E033
:102DC000DF91CF91089510921F0410921E0488EE97
:102DD00093E0A0E0B0E08093200490932104A093BE
:102DE0002204B09323048AE891E090931D04809319
:102DF0001C0484E993E0909329048093280488EDCF
:102E000093E090932B0480932A0485EC90E09093B8
:102E10002D0480932C0484EC90E090932F048093F5
:102E20002E0480EC90E0909331048093300481EC88
:102E300090E0909333048093320482EC90E090937E
:102E400035048093340486EC90E0909337048093AB
:102E5000360484E08093380483E08093390487E06B
:102E600080933A0485E080933B0481E080933C04A6
:102E70000895CF93DF930E9407140E94890FC4E640
:102E8000D5E10E9426122097E1F30E946415F9CF44
:102E9000CF92DF92EF92FF920F931F93CF93DF9326
:102EA0007C016B018A01C0E0D0E00FC0D6016D91BA
:102EB0006D01D701ED91FC910190F081E02DC701EA
:102EC0000995C80FD91F015010400115110571F760
:102ED000CE01DF91CF911F910F91FF90EF90DF9086
:102EE000CF900895EF92FF920F931F938C01DC0116
:102EF000ED91FC910190F081E02D6DE009957C0150
:102F0000D801ED91FC910190F081E02DC8016AE0BB
:102F100009959C012E0D3F1DC9011F910F91FF9036
:102F2000EF900895CF93DF93EC016115710519F4CB
:102F300020E030E00FC0DB010D900020E9F7119791
:102F4000A61BB70BE881F9810280F381E02DAD016A
:102F500009959C01C901DF91CF9108954F925F922D
:102F60007F928F929F92AF92BF92CF92DF92EF9219
:102F7000FF920F931F93DF93CF93CDB7DEB7A19747
:102F80000FB6F894DEBF0FBECDBF2C01742ECB015F
:102F9000223008F42AE019A231E2C32ED12CCC0E43
:102FA000DD1E822E9924AA24BB24672D752FA5012E
:102FB00094010E94301979018A01C801B701A50165
:102FC00094010E94EA18472D461B0894C108D108B5
:102FD0004A3014F4405D01C0495CF6014083E114BD
:102FE000F1040105110521F07E2C5F2DC801DDCF14
:102FF000C201B6010E949217A1960FB6F894DEBFE7
:103000000FBECDBFCF91DF911F910F91FF90EF9039
:10301000DF90CF90BF90AF909F908F907F905F9008
:103020004F900895DC012115310541F4ED91FC919B
:103030000190F081E02D642F099508950E94AE174C
:103040000895EF92FF920F931F939A017B0100E086
:1030500010E0B801A7010E9412181F910F91FF9074
:10306000EF900895EF92FF920F931F939A01E62E2F
:10307000FF2400E010E0B801A7010E9412181F9180
:103080000F91FF90EF900895CF92DF92EF92FF9211
:103090000F931F936C01E62E9A01FF2400E010E0CD
:1030A000B801A7010E9412188C01C6010E94721774
:1030B000080F191FC8011F910F91FF90EF90DF902B
:1030C000CF900895CF92DF92EF92FF920F931F93CC
:1030D000CF93DF93EC016A017B012115310541F4A7
:1030E000E881F9810190F081E02D642F09951FC0DE
:1030F0002A303105D1F477FF17C0E881F9810190BA
:10310000F081E02D6DE209958C0144275527BA0125
:103110004C195D096E097F09CE012AE00E94AE17A5
:103120009801280F391F04C02AE00E94AE179C01A5
:10313000C901DF91CF911F910F91FF90EF90DF9028
:10314000CF900895EF92FF920F931F937B019A0106
:103150000027F7FC0095102FB801A7010E94621804
:103160001F910F91FF90EF900895CF92DF92EF9211
:10317000FF920F931F936C017B019A010027F7FCCC
:103180000095102FB801A7010E9462188C01C6019A
:103190000E947217080F191FC8011F910F91FF900D
:1031A000EF90DF90CF9008950E9492170895EF92CC
:1031B000FF920F931F937C010E9492178C01C7010D
:1031C0000E947217080F191FC8011F910F91FF90DD
:1031D000EF900895629FD001739FF001829FE00DF0
:1031E000F11D649FE00DF11D929FF00D839FF00D86
:1031F000749FF00D659FF00D9927729FB00DE11D32
:10320000F91F639FB00DE11DF91FBD01CF0111240E
:103210000895AA1BBB1B51E107C0AA1FBB1FA6171D
:10322000B70710F0A61BB70B881F991F5A95A9F76F
:1032300080959095BC01CD01089597FB092E072636
:103240000AD077FD04D0E5DF06D000201AF470958F
:1032500061957F4F0895F6F7909581959F4F08955A
:10326000A1E21A2EAA1BBB1BFD010DC0AA1FBB1F8A
:10327000EE1FFF1FA217B307E407F50720F0A21BFC
:10328000B30BE40BF50B661F771F881F991F1A9469
:1032900069F760957095809590959B01AC01BD0193
:1032A000CF010895EE0FFF1F0590F491E02D0994D2
:0432B000F894FFCFC0
:1032B40054696D656F7574002F0053746F703A0014
:1032C40057616974696E672073746172743A004956
:1032D4006E707574206C6F73743A005342555300CA
:1032E40046757437353075200050504D00206D6F91
:1032F40064653A0020543D002054633D00204D3D58
:103304000020413D0020423D0020453D002020207A
:10331400200052464D206C6F636B0006010CD201F5
:10332400D2016348CC01000000080002071D4D9340
:1033340059A76DBD7FD100000000A31648173916A8
:063344006A164A169316FA
:00000001FF
