:100000000C946A020C94E4020C9492020C949202F6
:100010000C9492020C94BA020C9492020C949202E8
:100020000C9492020C9492020C9492020C94920200
:100030000C9492020C9492020C9492020C949202F0
:100040000C9454140C9492020C9455160C94A31610
:100050000C9492020C9492020C9492020C949202D0
:100060000C9492020C949202464C41534820455203
:10007000524F522121212043616E277420776F72E5
:100080006B21004572726F72207265616420736526
:100090007474696E677321000D0A4261796368693F
:1000A00020736F66742032303133005458204F7003
:1000B000656E204578706572742056322046005077
:1000C0007265737320276D2720746F2073746172BB
:1000D00074204D454E550046486E3A204D696E20BD
:1000E000417672204D6178000A0D546F20456E7480
:1000F0006572204D454E5520507265737320454EF4
:1001000054455200547970652052656720616E64D1
:1001100020707265737320454E5445522C207479BB
:1001200070652056616C756520616E642070726523
:10013000737320454E5445522028713D51756974A2
:100140003B204E782D793D53686F77206E6F697331
:100150006529000D0A52673D56616C2009436F6D99
:100160006D656E7473202D2D2D2D2D2D2D2D2D2D86
:100170002D2D2D2D2D2D2D2D2D2D2D2D2D004D6188
:100180006B65206E65772062696E643F2041726501
:1001900020796F75207375726528792F6E293F005D
:1001A0000D0A54727920746F206E65772062696E33
:1001B000642E2E2E000A0D467265712F6E6F6973C4
:1001C000653A20004572726F723A20746F6F206E2C
:1001D0006F697365210042696E64204E3D00547260
:1001E000616E736D6974696E673A20463D34002014
:1001F0004D487A2C20506F77657228302D37293D75
:10020000002046636F7272283C3E293D20002E205C
:1002100050726573732045534320746F2073746F5D
:10022000702E2E2E000102030405060B0C0D0E0F7E
:100230001011121314151642696E64204E0000004E
:1002400000000000000000000000000000000000AE
:10025000000000000000004672657120636F72723A
:10026000656374696F6E20636F6E737400000000C5
:10027000000000000000005465726D20636F727210
:100280002E28303D6E6F2C20313D2B2C2032353501
:100290003D2D2900000000465320636865636B20F4
:1002A000656E61626C6500000000000000000000E7
:1002B0000000000000000031316269742F313063AA
:1002C0006828313D7965732C322F333D4675746152
:1002D000626129000000004465627567206F7574D3
:1002E0002028312D50504D2C20322D706572662EF5
:1002F00029000000000000486F7020463100000017
:1003000000000000000000000000000000000000ED
:1003100000000000000000486F702046320000001E
:1003200000000000000000000000000000000000CD
:1003300000000000000000486F70204633000000FD
:1003400000000000000000000000000000000000AD
:1003500000000000000000486F70204634000000DC
:10036000000000000000000000000000000000008D
:1003700000000000000000486F70204635000000BB
:10038000000000000000000000000000000000006D
:1003900000000000000000486F702046360000009A
:1003A000000000000000000000000000000000004D
:1003B00000000000000000486F7020463700000079
:1003C000000000000000000000000000000000002D
:1003D00000000000000000486F7020463800000058
:1003E000000000000000000000000000000000000D
:1003F00000000000000000506F776572207377697D
:10040000746368206368616E2028312D31332C308D
:100410003D535729000000506F776572206D696E5B
:100420002028302D372C202B3132383D6869676801
:1004300055290000000000506F776572206D6964D7
:10044000646C652028302D372C2B3132383D68699B
:1004500067685529000000506F776572206D6178DC
:100460002028302D372C202B3132383D68696768C1
:100470005529000000000000000000240027002A89
:100480000000000000250028002B000000000023D1
:1004900000260029000404040404040404020202E7
:1004A00002020203030303030301020408102040B5
:1004B000800102040810200102040810200000003E
:1004C0000700020100000304060000000000000015
:1004D00000000F1811241FBECFEFD8E0DEBFCDBF44
:1004E00011E0A0E0B1E0ECE0F5E302C005900D9270
:1004F000A639B107D9F714E0A6E9B1E001C01D9211
:10050000AE33B107E1F714E0C4EDD4E004C02297A4
:10051000FE010E94801AC23DD107C9F70E946518EA
:100520000C94841A0C940000FC0188279927E89405
:1005300021912032E9F3293010F02E30C8F32B320C
:1005400041F02D3239F4689404C00E94B202820F47
:10055000911D219120532A30C0F31EF4909581956E
:100560009F4F08957AE0979F902D879F802D910D42
:10057000112408951F920F920FB60F9211248F939A
:100580009F93EF93FF938091840090918500E09179
:100590006E01F0916F01918380833296F0936F0129
:1005A000E0936E01E254F34030F082ED91E09093DD
:1005B0006F0180936E01FF91EF919F918F910F904A
:1005C0000FBE0F901F9018951F920F920FB60F92AB
:1005D00011240F900FBE0F901F901895EF92FF926D
:1005E0000F931F9390918903993108F45DC0809116
:1005F0004203882309F058C0809146038F3009F0E8
:1006000053C080915E03882309F04EC0E0907701CB
:10061000A5EBB1E0FF24F39401E03DC0660F771F26
:10062000EF2DF0E0EA5BFC4F808190E0202F30E07E
:1006300082239323892B11F0462B572B003819F472
:10064000F39401E001C0000F1F5F1B3039F721E078
:100650002E15D8F0CA01880F991F880F991F840F93
:10066000951F9695879596958795883D910518F4E1
:1006700040E050E00AC028E0883D920718F04FEFB4
:1006800057E003C0AC01485D50404D935D9381E05D
:10069000AF3CB80731F010E040E050E061E070E0BE
:1006A000BFCF1092CF010BC0992349F08091430333
:1006B00090914403019690934403809343031092D6
:1006C00042031092870310928903109284031092C0
:1006D0008503109288031F910F91FF90EF9008956A
:1006E0002091A70180917103821B71F1992787FDE9
:1006F000909597FF03C0909581959F4F02978CF43A
:10070000609174038091720390917303332727FDE6
:100710003095633670F070E00E94491A62177307D3
:1007200099F010927303109272031092740381E097
:100730000895820F931F90937303809372036F5FEA
:100740006093740380E0089580E0089580917601BD
:100750008823B9F181E0809378038091D1018F3FA4
:1007600041F060916F0350917701E5EBF1E040E0DB
:1007700026C080915D0383FF24C027C02081318182
:100780002F5F3F4F523078F0C901880F991F880FB3
:10079000991F820F931FB3E096958795BA95E1F75D
:1007A00080599C4F05C0C9019695879584529C4FEE
:1007B0003296885E9340885E934038F44F5F4617C8
:1007C000E8F21092780381E0089580E008955C9A41
:1007D0005F9800005C9898E010C087FF07C05F98A2
:1007E0000000289A00005F9A000006C05F98000091
:1007F000289800005F9A0000880F915070F75F986A
:1008000008958F770E94E70308955F98000098E0AD
:1008100010C087FF07C05F980000289A00005F9A09
:10082000000006C05F980000289800005F9A000052
:10083000880F915070F75F9808955F98000080E0EE
:1008400090E0880F5F9A0000199981605F9800001E
:100850009F5F9830B1F708950E9401040E941D0423
:100860005C9A08951F93162F80680E94E703812FDA
:100870000E9405045C9A1F91089550917D0385178D
:10088000A8F18091770190917E03833099F4E9E09B
:10089000F0E0E91BF109EE0FFF1FEB54FE4F208142
:1008A00031819F5F90937E0380917C0390917B03C5
:1008B00040E005C0E92FF0E0EECF3695279520FD0A
:1008C000982B803849F45F5FE52FF0E0EA56FE4F41
:1008D000908381E090E001C0880F4F5F4B3069F753
:1008E00080937C0390937B0350937D03089587E06E
:1008F00060E80E94320461E070E080E090E00E94D5
:10090000D01483E00E942C048093790384E00E9439
:100910002C0480937A0386E060E00E94320487E032
:1009200061E00E94320460917401662311F089E055
:1009300002C089E067EC0E9432048AE065E00E9410
:1009400032048BE062E10E9432048CE065E10E9497
:1009500032048EE060E00E9432048FE163E00E9486
:1009600032048EE16AE00E94320482E160E60E9475
:10097000320483E168EF0E9432048FE060E80E9455
:1009800032048DE160E40E9432048CE166E20E9450
:10099000320480E264E40E94320481E260E00E945A
:1009A000320482E262EF0E94320483E26CE70E942A
:1009B000320484E266E00E94320485E26DE70E9420
:1009C00032048AE26FE00E94320480E36CEA0E9403
:1009D000320482E36CE80E94320483E36AE00E94FE
:1009E000320484E364E00E94320485E362E20E9400
:1009F000320486E36DE20E94320487E364ED0E94D4
:100A0000320488E360E00E94320489E360E00E94DF
:100A100032048EE360E10E9432048DE66FE00E94B2
:100A200032048EE66CE30E9432048FE66FE90E9486
:100A3000320489E660E60E94320480E76EE20E949A
:100A4000320489E760E00E9432048AE766E00E948F
:100A5000320481E763E20E94320482E76EE00E9482
:100A6000320485E763E50E94320486E76CE40E9465
:100A7000320487E760EE0E94320408958CE194E02E
:100A80000E9465171816190614F020E01AC08CE1B0
:100A900094E00E9496178336910519F083349105EE
:100AA00041F41092AB011092AA01109268031092C7
:100AB00067038D36910521F020E08D34910509F40E
:100AC00021E0822F08952F923F924F925F926F9272
:100AD0007F928F929F92AF92BF92CF92DF92EF92CE
:100AE000FF920F931F93CF93DF93D82EF894A0908B
:100AF0006E01B0906F0178948091780181FF56C0AB
:100B00000E94AA148B019C0180915F039091600365
:100B1000A801481B590B8091AA019091AB01841741
:100B2000950720F45093AB014093AA0100935F0313
:100B300010936003209361033093620380916303F9
:100B4000909164039C0175E0369527957A95E1F7BD
:100B5000821B930B840F951F909364038093630310
:100B600080917001909171019501281B390BC90189
:100B7000959587959093660380936503883B9105CF
:100B800030F088549F4F90936603809365032091C3
:100B90006503309166038091670390916803821723
:100BA000930720F4309368032093670380907701C4
:100BB000E090810320917F0330918003F0908603C1
:100BC0000091820310918303C0E0D0E06D2C772464
:100BD00052ED452E51E0552E992493944CE0342E3D
:100BE00022242A94FBC0C190D190F0937101E0932C
:100BF0007001E254F34020F0509271014092700174
:100C0000C601821B930B3091D1013F3F09F47DC097
:100C1000E394E0FEE0C0800F911F2091D0012223D9
:100C200049F12233A0F01092D001809142038A3022
:100C300030F02092D10180E480934503CBC03B305B
:100C400018F09092D101C6C01092D101C3C0813F6B
:100C5000910530F4809142038F5F8093420306C078
:100C60008054964018F43F5F3093D1012F5F20935A
:100C7000D001B0C0332311F0880F991F23E18838C9
:100C8000920728F010926D011092CF01A3C035E0B9
:100C90008C3D9307B8F1E0916D01EC3098F5EF5F72
:100CA000E0936D01E15041E04815A0F426E0803E5C
:100CB0009207D8F030E1803E9307D0F4805E9640F2
:100CC000880F991F880F991F65E070E00E94351A00
:100CD000CB0110C047E0883B940738F02FE0883BF9
:100CE000920730F4885B974005C080E090E002C036
:100CF0008FEF97E0F0E0EE0FFF1FEB54FE4F918374
:100D0000808368C030926D0165C00A9664E170E02E
:100D10000E94351A6B3018F00E94EE025BC0809181
:100D20008403882361F4615090928403809142038C
:100D300090918503890F80934203FF24F39450918F
:100D40008503809184039091870340914203309101
:100D50008803209189032CC0552311F09F5F3F2900
:100D6000FF0C8F5F8C3029F08A3008F1283108F4AD
:100D70005FC0E22FF0E0EA5BFC4F30839170490FD7
:100D80002F5F293120F480E090E030E010C0109215
:100D900084031092870340934203109288032093A8
:100DA00089030E94EE0210C0552309F44F5F615081
:100DB000662391F6809384039093870340934203C4
:100DC000309388032093890380918503392D381B44
:100DD00030938503C801219696018C01E091700142
:100DE000F0917101EA15FB0521F0C615D70508F44D
:100DF000FACEE09281033093800320937F03F09238
:100E000086031093830300938203DF91CF911F9198
:100E10000F91FF90EF90DF90CF90BF90AF909F9099
:100E20008F907F906F905F904F903F902F9008959C
:100E30008B3009F4B9CFBBCF60917401662369F0A0
:100E400080917501882319F08091A801680F89E0CD
:100E50000E9432048CE00E9463058091A6018F5F9E
:100E60008093A601883010F01092A601E091A601AF
:100E7000F0E0E258FE4F89E760810E943204089555
:100E800083E00E942C048093790384E00E942C0468
:100E900080937A038CE00E94630587E061E00E9402
:100EA000320408951F93182F0E944007183018F13C
:100EB000E09179018E2F81508D3078F4F0E0EE0FC3
:100EC000FF1FED54FE4F8081918122E08A3A920704
:100ED00040F08455954050F00CC0EE2351F4329907
:100EE00003C010917A0107C0339B03C010917B01AE
:100EF00002C010917C011770612F685F8DE60E941F
:100F00003204812F1F91089587E061E00E9432042E
:100F10008EE764E20E9432048CE00E94630588E060
:100F200063E00E94320488E060E00E9432048CE0BA
:100F30000E94630587E065E00E94320485E062E07C
:100F40000E9432048CE00E94630583E00E942C041E
:100F50008093790384E00E942C0480937A0308959F
:100F6000EF92FF920F931F938C010E949C147801C3
:100F700000E010E0E60EF71E081F191F03C08CE00A
:100F80000E9463050E949C146E157F0580079107DF
:100F9000B0F31F910F91FF90EF9008950E944007CA
:100FA00082E390E00E94B0070E94840708956F9248
:100FB0007F928F929F92AF92BF92CF92DF92EF92E9
:100FC000FF920F931F93CF93DF930E94AA144B01BC
:100FD0005C0110927B0381E080937C0310927D037F
:100FE00010927E03DD24D3940FE1602E04E0702E76
:100FF0001CE8C12E43C00E94AA14681979098A0905
:101000009B09E616F7060807190708F047C02FE006
:10101000D216D9F4E7E9F1E090E08081982740E02A
:10102000892F90E09C013595279580FF03C09C2D6A
:10103000922701C0922F4F5F483091F7319681E09F
:10104000E53AF80751F7908312C08D2D0E943D04B8
:101050002EE0D21661F49091A4019F739093A401A5
:101060008091AC01823019F490689093A401CA5623
:10107000DE4F8FE768810E943204D394CD2DD0E0FB
:10108000C69DC001C79D900DD69D900D1124825C18
:10109000974F7C010027F7FC0095102F4A9B12C048
:1010A0000E94AA14681979098A099B096F5F7C4715
:1010B0008040904038F48CE00E9463058FE08D15ED
:1010C00068F399CFDF91CF911F910F91FF90EF902F
:1010D000DF90CF90BF90AF909F908F907F906F9058
:1010E00008952F923F924F925F926F927F928F92CC
:1010F0009F92AF92BF92CF92DF92EF92FF920F93A7
:101100001F93CF93DF930E94AA144B015C01DD244F
:10111000D3947FE1272E74E0372E6CE8C62E51E081
:10112000652E712C42E0442E512C0CC10E94AA1451
:10113000681979098A099B09E616F706080719074D
:1011400008F010C121E0D21609F04AC0A5EBB1E0C9
:10115000E8E9F1E060E010E000E040E050E0742FEA
:101160002D913C91119784E02030380740F0C30165
:10117000042E02C0880F991F0A94E2F7682BC90158
:1011800096958795969587958083473099F021FFAE
:1011900008C0C201072E02C0880F991F0A94E2F707
:1011A000182B20FF07C0C30102C0880F991F7A9532
:1011B000E2F7082B4F5F5F4F12963196483051058A
:1011C00071F6609397018FE70E9432041093A50196
:1011D00080917701882309F4B4C00093A301B1C0C2
:1011E0002DE02D1508F486C0CE010297FC01EE0F0C
:1011F000FF1FEB54FE4F4081518129E02D1508F46B
:1012000047C0930102C0220F331F8A95E2F7622F75
:1012100084E04030580710F0E22F01C0E0E0862F54
:1012200090E02091970130E0822393232E2F30E02D
:101230008217930709F059C0FE01EA56FE4FCA0112
:1012400096958795969587958083809177018823D9
:1012500069F040FF04C08091A301862B05C0862F52
:1012600080959091A30189238093A30129E0D21650
:10127000E1F1962F990F41FF04C08091A501982BB1
:1012800004C090958091A50198239093A5012DC04D
:1012900080917701882321F08D2D8C50823050F081
:1012A000FE01EA56FE4F33E0569547953A95E1F731
:1012B00040831BC08CE0D816C1F4FE01EE0FFF1F67
:1012C000ED54FE4F90819770990F990F990F842FCD
:1012D0008770982BFE01EA56FE4F8091C301827001
:1012E0008295880F807E982B9083CA56DE4F8FE7B9
:1012F000688125C02EE0D216C1F4E8E9F1E060E093
:101300008081682720E0862F90E0BC017595679565
:1013100080FD6C252F5F2830B1F7319681E0E43AEB
:10132000F80771F760838FE70AC08091AC018230C3
:1013300019F421E02093A5018FE76091A5010E9497
:101340003204D394CD2DD0E0C29DC001C39D900D39
:10135000D29D900D1124825C974F7C010027F7FCF1
:101360000095102F4A9B12C00E94AA14681979098F
:101370008A099B096F5F7C478040904038F48CE07D
:101380000E9463058FE08D1568F3D0CEDF91CF9179
:101390001F910F91FF90EF90DF90CF90BF90AF9093
:1013A0009F908F907F906F905F904F903F902F9085
:1013B0000895EF92FF920F931F938C010E94AA143D
:1013C000780100E010E0E60EF71E081F191F03C0A9
:1013D0008CE00E9463050E94AA146E157F058007A9
:1013E0009107B0F31F910F91FF90EF9008958FE058
:1013F00060E80E9432048DE491E00E94D90981E105
:101400000E942C04282F20542093A701243154F447
:10141000332727FD30958EE190E0821B930B6AE025
:1014200070E00BC02F3174F0332727FD30958EE12B
:1014300090E0821B930B67E070E00E94491A609372
:10144000A80102C01092A801809175018F3F29F474
:101450008091A80181958093A8018CE00E9463058A
:1014600008958FEF0E9452074091A9014F5F40936A
:10147000A90150E028E030E0281B3109C901880F9C
:10148000991F820F931F841795071CF41092A901CE
:101490002D9A88E063E00E94320488E060E00E94B8
:1014A000320460917301609396018FE70E943204C9
:1014B00085E064E00E94320483E00E942C04809363
:1014C000790384E00E942C0480937A0303C081E0B6
:1014D0000E9463050E94AA142091B1013091B201CB
:1014E0004091B3015091B401621B730B840B950BB7
:1014F00066577A478040904050F387E069E00E9449
:1015000032048091B1019091B201A091B301B091E8
:10151000B401845F9448AF4FBF4F8093B101909363
:10152000B201A093B301B093B401809177018230EE
:1015300018F00E94D70702C00E9471084A9B08C099
:101540008CE194E060E071E00E94031A80E008956D
:101550002D980E94400781E008951F93182F84362C
:1015600060F48CE194E060E20E94CF171A3028F416
:101570008CE194E060E20E94CF178CE194E0612F4F
:101580004AE050E00E945E198CE194E060E20E9423
:10159000CF171F910895EF92FF920F931F93CF9350
:1015A000DF937C01FC01108200E010E0A8958CE143
:1015B00094E00E9465171816190694F58CE194E0E2
:1015C0000E949617EC011816190684F78CE194E036
:1015D0006C2F0E94CF17CD30D10519F0CA30D1053C
:1015E00059F48CE194E00E949E18DF91CF911F91F5
:1015F0000F91FF90EF900895C830D10531F4011597
:101600001105A1F201501040D1CFF701E00FF11FF9
:10161000C0831182063011054CF60F5F1F4FC6CFF5
:1016200061E070E080E090E00E94D014BFCF0F93A3
:101630001F9390917D01899F802D1124980F1FEF9A
:101640000FEF0EC0E82FF0E0EE52FE4FE081EE3DCE
:1016500020F4E11710F4082F01C0E12F8F5F1E2F37
:10166000891780F31E3D88F58CE194E060E20E94CA
:10167000CF178CE194E0602F4AE050E00E945E19A1
:101680008CE194E068E071E00E94001A16951695CE
:101690008CE194E0612F70E04AE050E00E94CE19A6
:1016A000002359F0E02FF0E0EE52FE4F8FEF8293CF
:1016B0003196023010F032978083E02FF0E0EE5246
:1016C000FE4F8FEF828381838083802F1F910F9144
:1016D00008951F93182F0E94170B893E70F0112355
:1016E00041F0812F81500E94170B883E30F0173057
:1016F00020F4812F81500E94170B1F9108951F9392
:101700008091AA019091AB01805A9F4020F01092E5
:10171000AB011092AA010E947003882369F5209101
:101720006B0330916C03809143039091440328171D
:10173000390711F5909170038091CF019817E1F46A
:101740002091690330916A038091AA019091AB01C5
:101750002817390789F420916D0330916E03809129
:101760006703909168032817390731F49091780343
:1017700080917703981739F18091AA019091AB017C
:1017800090936A038093690380914303909144038B
:1017900090936C0380936B038091A70180937103F6
:1017A0008091CF01809370038091670390916803CB
:1017B00090936E0380936D038091780380937703F9
:1017C00081E08093760380917603823009F474C0BF
:1017D000833038F4882309F40DC1813009F063C1E6
:1017E00007C0833009F491C0843009F05CC1E8C0BF
:1017F0008CE194E06DE00E94CF17809178038823FC
:1018000029F08CE194E06AE071E04FC08091CF0153
:101810008F3F29F48CE194E060E171E046C08630AE
:1018200028F08CE194E06FE171E03FC080916F039C
:10183000882399F4E5EBF1E080819181892B29F0EF
:1018400080916F038F5F80936F03329681E0ED3C50
:10185000F80791F78CE00E9463058091D1018F3FDA
:1018600039F48CE194E06BE271E00E94001A19C037
:10187000882331F08CE194E060E371E00E94001A6B
:101880008CE194E069E371E00E94001A8CE00E9410
:1018900063058CE194E060916F034AE050E00E94A0
:1018A0005E198CE194E06DE371E00E94001A8CE017
:1018B0000E94630582E026C08CE194E064E471E05C
:1018C0000E94001A60917103772767FD70958CE183
:1018D00094E04AE050E00E94CE198CE194E068E484
:1018E00071E00E94001A6091A801772767FD70954A
:1018F0008CE194E04AE050E00E94CE198CE00E9416
:10190000630583E080937603CEC08091780181FFE8
:1019100055C08CE194E06DE471E00E94001A609182
:10192000690370916A038CE194E04AE050E00E9400
:101930004D198CE00E9463058CE194E061E571E053
:101940000E94001A609163037091640395E076959C
:1019500067959A95E1F78CE194E04AE050E00E94A7
:101960004D198CE00E9463058091D1018F3F31F5C4
:101970008CE194E065E571E00E94001A60916D03CE
:1019800070916E038CE194E04AE050E00E944D19A2
:101990008CE00E9463058CE194E069E571E00E94AF
:1019A000001A60916B0370916C038CE194E04AE043
:1019B00050E00E944D198CE00E94630584E0A2CFA4
:1019C0008091780180FF0DC010E08CE194E06DE51E
:1019D00071E00E94001A82E00E9463051F5F1830C8
:1019E000A1F78CE194E00E949E181092750310926A
:1019F000760359C080917801982F80FF54C0809160
:101A00006F03833008F44FC0E091750392FF0CC060
:101A1000F0E0EE0FFF1FEB54FE4F608171818CE10F
:101A200094E040E150E025C0F0E0EE0FFF1FEB54E2
:101A3000FE4F0190F081E02D319680917701823048
:101A400078F0BF01660F771F660F771F6E0F7F1F3D
:101A5000A3E076956795AA95E1F760597C4F05C09C
:101A6000BF017695679564527C4F8CE194E04AE023
:101A700050E00E944D198CE00E9463058CE194E0D7
:101A800060E20E94CF17809175038F5F809375038A
:101A900090916F03891738F08CE194E06DE00E941B
:101AA000CF17109275031F9108951F93CF93DF9363
:101AB000EC01162FFE0121966491662329F08CE13A
:101AC00094E00E94CF17F6CF112321F08CE194E02F
:101AD0000E949E18DF91CF911F910895AF92BF92FF
:101AE000CF92DF92EF92FF920F931F93CF93DF93EA
:101AF0006C0101960E9494029C0101978E3F910512
:101B000010F010E01EC0122F82E090E0F601E80F06
:101B1000F91FE081EE23A9F00196ED3279F48C0DE6
:101B20009D1D0E9494029C01812F90E082179307D3
:101B300040F42F3F310528F4A22E05C08A309105CC
:101B400029F76EEFA62E0E9477040E94CE0787ED3C
:101B500090E061E00E94550DB12E98C089E76B2D91
:101B60000E9432048DEE92E00E9429150FEFFF24AF
:101B7000C0E0D0E010E083E690E00E94291586E204
:101B80000E942C04C80FD11D801708F4082FF816E6
:101B900008F4F82E1F5F173C71F78B2D0E94AD0AD9
:101BA000EEE7F1E06AE380818B1509F463E2319698
:101BB00081E0E638F807B9F78CE194E00E94CF178E
:101BC0008CE194E060E20E94CF17802F0E94AD0A62
:101BD000CE0167EC70E00E94351A162F862F0E9406
:101BE000AD0A8F2D0E94AD0AF60180818E3409F076
:101BF00047C00A3010F4EE2408C0073418F05CE344
:101C0000E52E03C046EFE42EE00EF9E0FF1510F0DC
:101C100000E007C086E48F1510F40CE302C00F2D1E
:101C20000A501A3010F4FF2408C0173418F03CE3AF
:101C3000F32E03C026EFF22EF10E10E01F1521F453
:101C40008CE194E06AE217C01E1521F48CE194E067
:101C50006CE311C0101721F48CE194E06EE30BC02B
:101C6000E11630F4101720F48CE194E06EE203C02A
:101C70008CE194E060E20E94CF171F5F0117F0F63D
:101C80008CE194E00E949E18A895B394AB1408F0E0
:101C900065CFDF91CF911F910F91FF90EF90DF9073
:101CA000CF90BF90AF900895462FBC016C5F7F4FDF
:101CB0008AE893E00E9448140895DF92EF92FF9221
:101CC0000F931F938C01D62E472F7AE8E72E73E0EF
:101CD000F72EC701B8010E9448140F5F1F4FC701BC
:101CE000B8014D2D0E9448141F910F91FF90EF9065
:101CF000DF900895EF92FF920F931F93CF93DF939E
:101D000002E711E0EE24FF24C0E0D0E0CE01F801AC
:101D100060810E94540EF80181918F01E80EF11C40
:101D20002196C730D10591F7CEE7D1E00BE010E066
:101D3000C80168810E94540E8991E80EF11C0F5F62
:101D40001F4FF1E0C638DF0799F7C9E7D1E003E19B
:101D500010E0C80168810E94540E8991E80EF11CC0
:101D60000F5F1F4F81E0CD37D80799F784E490E0EB
:101D7000B7010E945D0EDF91CF911F910F91FF90EF
:101D8000EF900895EF92FF920F931F93CF93DF93FD
:101D900001960E949402EC018F3F910511F008F02A
:101DA000BEC00E94770480E76CE20E94320480E3A8
:101DB00060E00E94320481E762E10E94320482E71F
:101DC00062E00E94320483E760E00E94320484E70C
:101DD00060E00E94320489E76C2F0E9432048CE399
:101DE00090E0C89F9001C99F300DD89F300D1124FD
:101DF000255B3F4FC90168EE73E00E94351AEB0185
:101E0000A196C90168EE73E00E94351A7C010FEFBC
:101E100001C0082F8EED91E060E00E94550D8CE12D
:101E200094E0BE014AE050E00E944D198CE194E03C
:101E30006EE20E94CF178CE194E0B7014AE050E0D7
:101E40000E944D19802F0E945207082F6AE070E00F
:101E500080E090E00E94D0142D9A87E069E00E9413
:101E600032048FEE91E060E00E94550D8CE194E029
:101E7000602F4AE050E00E945E1981E092E060E04D
:101E80000E94550D8CE194E0609174014AE050E0AD
:101E90000E945E198EE092E060E00E94550D0BC03A
:101EA000A89587EE93E00E942915289A87EE93E083
:101EB0000E94291528988CE194E00E946517892BCF
:101EC00079F38CE194E00E949617182F8CE194E04E
:101ED0000E949E1887E061E00E9432042D981B3119
:101EE000F1F01C3231F01E3279F4809174018F5F71
:101EF00003C08091740181508093740189E06091E6
:101F000074010E94320486CF812F8053883008F4F8
:101F100080CF1D3009F07ECF0E947A0E7BCFDF91FB
:101F2000CF911F910F91FF90EF900895BC016C5FCE
:101F30007F4F8AE893E00E9441140895FF920F9327
:101F40001F93CF93DF9383E591E060E00E94550DEE
:101F500089EB90E060E00E94550D8CE194E0609187
:101F60006B014AE050E00E947019FF24C1E0D0E00C
:101F70000F2D10E0F801EB5DFD4FE4918E2F90E006
:101F80008C179D0739F58CE194E0BE014AE050E0E2
:101F90000E94CE198CE194E06DE30E94CF17CE0130
:101FA0000E94960F682F8CE194E04AE050E00E9476
:101FB0005E198CE194E069E00E94CF17E5E0000F24
:101FC000111FEA95E1F7C801895C9D4F61E00E940D
:101FD000550DF3942196CB32D10551F6DF91CF9177
:101FE0001F910F91FF90089588E990E061E00E94B1
:101FF000550D8BEA90E060E00E94550D8CE194E075
:1020000060916B014AE050E00E9470190E949E0F9F
:102010008FEB90E061E00E94550D0895DF92EF9202
:10202000FF920F931F938C01FAE8EF2EF3E0FF2E3F
:10203000C701B8010E944114D82E0F5F1F4FC7017E
:10204000B8010E9441143D2D20E0280F311DC90127
:102050001F910F91FF90EF90DF9008950F931F93C2
:10206000CF93DF9300E010E0C0E0D0E0CE010E940B
:10207000960FFE01EE58FE4F8083080F111D21962A
:10208000C730D10599F7CBE0D0E0CE010E94960F82
:10209000FE01ED58FE4F8083080F111D2196C331BC
:1020A000D10599F7C3E1D0E0CE010E94960FFE0161
:1020B000EA59FE4F8083080F111D2196C731D105C3
:1020C00099F784E490E00E940E1020E080179107B9
:1020D00009F421E0822FDF91CF911F910F91089594
:1020E0000F931F93CF93DF9320916C01222379F1FB
:1020F000E0E0F0E000E010E08491080F111D31965F
:1021000080E4E030F807C1F7922F80E020916B0166
:10211000EC01C20FD11D80E490E00E940E10C817A0
:10212000D90761F080E490E0BE010E945D0E82E478
:1021300090E0B8010E945D0E81E00AC082E490E068
:102140000E940E108017910711F08FEF01C080E000
:10215000DF91CF911F910F91089589E060E00E9477
:102160006E1588E061E00E946E1587E061E00E94D4
:102170006E1582E060E00E946E1582E061E00E94D0
:10218000AD1584E061E00E946E1580E060E00E9481
:102190006E1581E061E00E946E1580E061E00E94B2
:1021A000AD1581E061E00E94AD158CE061E00E9418
:1021B0006E158DE061E00E946E158BE060E00E947C
:1021C0006E158BE061E00E94AD1583E060E00E9437
:1021D0006E1583E061E00E94AD158CE194E040E073
:1021E00056E960E070E00E94DE1681E08093D00145
:1021F0001092D10183E0809380008AE18093810076
:102200008FEF9FEF909389008093880010926F006A
:1022100088E080936D00E8E6F0E080818460808350
:10222000E898789408951F93182F8091AC0181301D
:10223000C1F0813018F08230D1F52FC08BE00E94C0
:102240000116892BA1F581E08093AC010E949C14BA
:102250006093AD017093AE018093AF019093B00194
:1022600026C08BE00E940116892BE1F40E949C1489
:102270002091AD013091AE014091AF015091B0017C
:10228000621B730B840B950B655F7140804090401F
:1022900070F082E08093AC010AC08BE00E940116CE
:1022A000892B19F01092AC0102C011112D9A1F91C7
:1022B0000895BF92CF92DF92EF92FF920F931F93F8
:1022C000CF93DF93882351F50E949C147B018C01EE
:1022D00087E893E1A0E0B0E0E80EF91E0A1F1B1F9B
:1022E0002D98A89580E00E9413110E949C14E61678
:1022F000F7060807190708F42D9A8091AC01882386
:1023000081F70E949C146E157F058007910708F4E1
:10231000C8C00E942E10882351F01DC08F3F21F0AD
:10232000EE24FF24870116C0EE24FF24870181E0FC
:1023300080937501109278011092770110927601C6
:102340001092790110927A0182E080937B0187E0FC
:1023500080937C012D9AB7ECBB2EADE1CA2E809103
:1023600074018A5A8D3310F0B09274010E94770480
:102370000E94CE070E94840780EA91E060E00E94FC
:10238000550D80E090E0FC01EE52FE4F1082019668
:102390008F3F9105C1F7DD24A895C0E0D0E089E723
:1023A0006C2F0E94320487EE93E00E94291586E28A
:1023B0000E942C04982F969596959695983008F043
:1023C00098E0FE01EE52FE4F8081890F80832196B6
:1023D000C83ED10521F7D3949FE1D916E9F62D988F
:1023E000C0927D0185EB91E060E00E94550D80E098
:1023F0000E94690B80937E0184E00E94690B8093A8
:102400007F0181E00E94690B8093800185E00E943A
:10241000690B8093810182E00E94690B80938201A5
:1024200086E00E94690B8093830183E00E94690B20
:102430008093840187E00E94690B809385018CE181
:1024400094E00E949E18EEE7F1E08081893E50F012
:1024500084EC91E061E00E94550D85E090E00E94DF
:102460000D137DCF3196A1E0E638FA0771F70E948F
:102470009C146E197F09800B910B162F662309F4AB
:1024800011E086ED91E060E00E94550D8CE194E052
:10249000612F4AE050E00E947019109373010E946E
:1024A0007A0EDF91CF911F910F91FF90EF90DF9007
:1024B000CF90BF900895CF92DF92EF92FF920F934B
:1024C0001F93DF93CF93CDB7DEB728970FB6F8945D
:1024D000DEBF0FBECDBF0E94CE0788EE90E061E068
:1024E0000E94550D8E010F5F1F4FC8010E94CB0A3D
:1024F0008981813709F482C0813509F47FC0680180
:102500000E949E0F84E091E061E00E94550DC6019B
:102510000E94CB0A89818E3611F08E3421F4C601D7
:102520000E946E0DF4CF863611F0863421F4C60178
:102530000E94C20EECCF823701F58A818536E9F41C
:102540008B818236D1F48C818936B9F48D818E36B7
:10255000A1F48E81843689F48EE791E060E00E94D8
:10256000550DC6010E94CB0A8981893711F0893542
:1025700021F481E00E945911C3CF89818137F1F1A3
:102580008135E1F1C6010E9494027C018BE2E816DC
:10259000F10408F0B5CFC6010E94CB0A89818137CA
:1025A00069F1813559F1C6010E9494028C018F3F77
:1025B000910511F008F0A4CFE114F10419F400978B
:1025C00009F49ECF8CE194E0B7014AE050E00E940C
:1025D000CE198CE194E06DE30E94CF178CE194E07A
:1025E000B8014AE050E00E94E119C701602F0E9443
:1025F000540E0E942E100E947A0E82CF28960FB69B
:10260000F894DEBF0FBECDBFCF91DF911F910F9128
:10261000FF90EF90DF90CF9008950F931F93CF938B
:10262000DF938C01C0E0D0E016C0A8958AEF90E05F
:102630000E94B0072D9A8AEF90E00E94B0072D9873
:102640000333110538F00E943E05882319F00E94DB
:102650005B1204C02196C017D10738F3DF91CF91E8
:102660001F910F9108951F930E947010182F8F3F94
:1026700051F488E690E061E00E94550D8FE59AEEF6
:102680000E940D130DC00E942E10882349F41130B2
:1026900021F48FEF0E94591103C083E890E0EBCF43
:1026A0001F910895EF92FF920F931F930E94F40FD2
:1026B0002EE088E190E00FB6F894A8958093600032
:1026C0000FBE209360002C9A63E670E080E090E0FB
:1026D0000E94D014E5EBF1E01192119221E0ED3C63
:1026E000F207D1F72C9880E00E9459110E94331311
:1026F0000E9477040E9484078FEF8093CF018CE1C2
:1027000094E00E949E180E947F0B10E00E94F7093F
:102710008091A701893D0CF4A7C08CE00E942C0495
:10272000882309F4A1C00E9484071092AB01109283
:10273000AA0110926803109267030E94AA14609382
:10274000B1017093B2018093B3019093B4018CE016
:102750000E946305A8950E943E05882361F00E94AF
:102760005B120E94AA146093B1017093B20180932E
:10277000B3019093B4018CE00E942C048823C1F42F
:102780008CE194E062E671E00E94031A2D9A89EFD1
:1027900090E00E94B0070E9477040E948407109284
:1027A000AB011092AA011092680310926703CFCF79
:1027B0008CE00E9463050E94AA147B018C010E9498
:1027C000A603982F8823C1F18091CF018730A0F50F
:1027D00081E00E9413118091B1019091B201D70163
:1027E000A81BB90BCD01B1E787349B0708F4AFCF25
:1027F000885E904880F084EF94E8AFEFBFEFE80E7A
:10280000F91E0A1F1B1FE092B101F092B201009362
:10281000B3011093B4010E941C070E94310A88235F
:1028200009F4B9CF0E94F7098091CF018F5F80939F
:10283000CF010E947F0B8BCF8091CF018F3F59F04A
:10284000863018F4992309F082CF8091770388238A
:1028500011F40E94CE070E94F7090E947F0B83E6C5
:1028600090E00E94B00773CF0E94770463E670E0A7
:1028700080E090E00E94D0141F5F103209F046CF34
:1028800052CFF999FECF72BD61BDF89A80B5089517
:10289000F999FECF1FBA72BD61BD40BD0FB6F89465
:1028A000FA9AF99A0FBE08951F920F920FB60F92DF
:1028B00011242F933F938F939F93AF93BF93809156
:1028C0008F0390919003A0919103B0919203309166
:1028D00093030196A11DB11D232F2D5F2D3720F0ED
:1028E0002D570196A11DB11D2093930380938F0353
:1028F00090939003A0939103B093920380918B03E4
:1029000090918C03A0918D03B0918E030196A11D2F
:10291000B11D80938B0390938C03A0938D03B09390
:102920008E03BF91AF919F918F913F912F910F9007
:102930000FBE0F901F9018958FB7F89420918F03BA
:102940003091900340919103509192038FBFB90150
:10295000CA0108959FB7F89420918B0330918C039E
:1029600040918D0350918E0386B5A89B06C08F3F82
:1029700021F02F5F3F4F4F4F5F4F9FBF542F432F8B
:10298000322F2227280F311D411D511D82E0220FB9
:10299000331F441F551F8A95D1F7B901CA01089505
:1029A0009B01AC017FB7F89480918B0390918C03CD
:1029B000A0918D03B0918E0366B5A89B05C06F3FB3
:1029C00019F00196A11DB11D7FBFBA2FA92F982F15
:1029D0008827860F911DA11DB11D62E0880F991FE8
:1029E000AA1FBB1F6A95D1F7BC012DC0FFB7F89491
:1029F00080918B0390918C03A0918D03B0918E03F5
:102A0000E6B5A89B05C0EF3F19F00196A11DB11DC9
:102A1000FFBFBA2FA92F982F88278E0F911DA11DB8
:102A2000B11DE2E0880F991FAA1FBB1FEA95D1F7DD
:102A3000861B970B885E9340C8F22150304040407F
:102A4000504068517C4F211531054105510571F603
:102A50000895019739F0880F991F880F991F0297E1
:102A60000197F1F70895789484B5826084BD84B5A8
:102A7000816084BD85B5826085BD85B5816085BD79
:102A8000EEE6F0E0808181608083E1E8F0E0108292
:102A9000808182608083808181608083E0E8F0E0D3
:102AA000808181608083E1EBF0E0808184608083BD
:102AB000E0EBF0E0808181608083EAE7F0E08081F4
:102AC0008460808380818260808380818160808354
:102AD0008081806880831092C1000895CF93DF9336
:102AE000482F50E0CA0187559B4FFC0134914B564B
:102AF0005B4FFA018491882369F190E0880F991F58
:102B0000FC01E958FB4FA591B491FC01EF57FB4F35
:102B1000C591D491662351F42FB7F8948C91932FDB
:102B2000909589238C93888189230BC0623061F44E
:102B30002FB7F8948C91932F909589238C9388814B
:102B4000832B88832FBF06C09FB7F8948C91832B6B
:102B50008C939FBFDF91CF910895482F50E0CA0119
:102B600083549B4FFC012491CA0187559B4FFC0164
:102B700094914B565B4FFA013491332309F440C0D2
:102B8000222351F1233071F0243028F42130A1F0B8
:102B9000223011F514C02630B1F02730C1F02430B6
:102BA000D9F404C0809180008F7703C080918000A9
:102BB0008F7D8093800010C084B58F7702C084B56C
:102BC0008F7D84BD09C08091B0008F7703C0809154
:102BD000B0008F7D8093B000E32FF0E0EE0FFF1F79
:102BE000EF57FB4FA591B4912FB7F894662321F4CA
:102BF0008C919095892302C08C91892B8C932FBF47
:102C00000895682F70E0CB0183549B4FFC01249101
:102C1000CB0187559B4FFC0144916B567B4FFB01C9
:102C20009491992319F420E030E03CC0222351F123
:102C3000233071F0243028F42130A1F0223011F536
:102C400014C02630B1F02730C1F02430D9F404C0CC
:102C5000809180008F7703C0809180008F7D80936A
:102C6000800010C084B58F7702C084B58F7D84BD8D
:102C700009C08091B0008F7703C08091B0008F7D34
:102C80008093B000892F90E0880F991F85579B4F44
:102C9000FC01A591B4918C9120E030E0842311F0E7
:102CA00021E030E0C901089508951F920F920FB6F8
:102CB0000F9211242F933F934F938F939F93EF93F2
:102CC000FF938091C00082FD1DC04091C6002091FD
:102CD000D4033091D5032F5F3F4F2F733070809115
:102CE000D6039091D7032817390771F0E091D403E8
:102CF000F091D503EC56FC4F40833093D5032093DD
:102D0000D40302C08091C600FF91EF919F918F91F3
:102D10004F913F912F910F900FBE0F901F901895DC
:102D2000E0912804F0912904E05CFF4F819191919A
:102D300020813181821B930B8F739070892B11F04E
:102D40000E94541608951F920F920FB60F921124ED
:102D50002F933F938F939F93EF93FF9320911804AA
:102D60003091190480911A0490911B042817390797
:102D700031F48091C1008F7D8093C10014C0E09137
:102D80001A04F0911B04E852FC4F208180911A0430
:102D900090911B0401968F73907090931B04809305
:102DA0001A042093C600FF91EF919F918F913F915C
:102DB0002F910F900FBE0F901F901895AF92BF925A
:102DC000DF92EF92FF920F931F93CF93DF93EC016B
:102DD0007A018B01DD24403081EE580780E06807DE
:102DE00080E0780711F0DD24D39491E0A92EB12C76
:102DF000EC89FD89DD2069F0C50108A002C0880FBB
:102E0000991F0A94E2F7808360E079E08DE390E017
:102E100005C0108260E874E88EE190E0A801970197
:102E20000E945C1A215030404040504056954795D2
:102E30003795279580E12030380720F0DD2011F00C
:102E4000DD24D6CFE889F9893083EA89FB8920839C
:102E500019A2EE89FF89408121E030E0C9010C8C84
:102E600002C0880F991F0A94E2F7482B4083EE892D
:102E7000FF894081C9010D8C02C0880F991F0A94F7
:102E8000E2F7482B4083EE89FF894081C9010E8C0F
:102E900002C0880F991F0A94E2F7482B4083EE89FD
:102EA000FF8980810F8C02C0220F331F0A94E2F742
:102EB000209528232083DF91CF911F910F91FF90C0
:102EC000EF90DF90BF90AF900895DC011C96ED91DC
:102ED000FC911D97E05CFF4F2191319180819181A0
:102EE000281B390B2F733070C9010895DC011C9623
:102EF000ED91FC911D97E05CFF4F20813181E05402
:102F0000F040DF01AE5BBF4F8D919C911197281768
:102F1000390719F42FEF3FEF07C08D919C91E80F0F
:102F2000F91F8081282F30E0C9010895DC011C962B
:102F3000ED91FC911D97E05CFF4F20813181E054C1
:102F4000F040DF01AE5BBF4F8D919C911197281728
:102F5000390719F42FEF3FEF10C08D919C91119715
:102F6000E80FF91F20818D919C91119701968F7325
:102F7000907011969C938E9330E0C9010895DC0106
:102F800091968C919197882339F05496ED91FC910C
:102F90005597808186FFF9CF91961C920895CF9323
:102FA000DF93EC01EE85FF85E05CFF4F20813181EE
:102FB000E054F0402F5F3F4F2F733070DF01AE5B66
:102FC000BF4F8D919C91119728173907D1F3E05C81
:102FD000FF4F80819181E054F040E80FF91F60833A
:102FE000EE85FF85E05CFF4F31832083EE89FF890A
:102FF000208181E090E00F8C02C0880F991F0A9415
:10300000E2F7282B208381E089A3EC89FD89808168
:103010008064808381E090E0DF91CF9108951092E9
:103020001F0410921E0488EE93E0A0E0B0E08093AD
:10303000200490932104A0932204B09323048AE8EF
:1030400091E090931D0480931C0484E993E0909395
:1030500029048093280488ED93E090932B048093B7
:103060002A0485EC90E090932D0480932C0484EC4A
:1030700090E090932F0480932E0480EC90E0909346
:1030800031048093300481EC90E09093330480937A
:10309000320482EC90E0909335048093340486EC03
:1030A00090E0909337048093360484E08093380452
:1030B00083E08093390487E080933A0485E080932D
:1030C0003B0481E080933C040895CF93DF930E94FA
:1030D00033150E94AD10C0E9D6E10E94521320972B
:1030E000E1F30E949016F9CFCF92DF92EF92FF9218
:1030F0000F931F93CF93DF937C016B018A01C0E094
:10310000D0E00FC0D6016D916D01D701ED91FC911A
:103110000190F081E02DC7010995C80FD91F01501A
:1031200010400115110571F7CE01DF91CF911F916C
:103130000F91FF90EF90DF90CF900895EF92FF9264
:103140000F931F938C01DC01ED91FC910190F081B4
:10315000E02D6DE009957C01D801ED91FC91019085
:10316000F081E02DC8016AE009959C012E0D3F1DFC
:10317000C9011F910F91FF90EF900895CF93DF93B6
:10318000EC016115710519F420E030E00FC0DB019E
:103190000D900020E9F71197A61BB70BE881F98184
:1031A0000280F381E02DAD0109959C01C901DF91F9
:1031B000CF9108954F925F927F928F929F92AF929C
:1031C000BF92CF92DF92EF92FF920F931F93DF9304
:1031D000CF93CDB7DEB7A1970FB6F894DEBF0FBE81
:1031E000CDBF2C01742ECB01223008F42AE019A2A5
:1031F00031E2C32ED12CCC0EDD1E822E9924AA24BE
:10320000BB24672D752FA50194010E945C1A7901DA
:103210008A01C801B701A50194010E94161A472D21
:10322000461B0894C108D1084A3014F4405D01C01F
:10323000495CF6014083E114F1040105110521F018
:103240007E2C5F2DC801DDCFC201B6010E94BE18E1
:10325000A1960FB6F894DEBF0FBECDBFCF91DF9120
:103260001F910F91FF90EF90DF90CF90BF90AF90A4
:103270009F908F907F905F904F900895DC01211573
:10328000310541F4ED91FC910190F081E02D642F26
:10329000099508950E94DA180895EF92FF920F930E
:1032A0001F939A017B0100E010E0B801A7010E9482
:1032B0003E191F910F91FF90EF900895EF92FF92AA
:1032C0000F931F939A01E62EFF2400E010E0B8014F
:1032D000A7010E943E191F910F91FF90EF90089552
:1032E000CF92DF92EF92FF920F931F936C01E62E25
:1032F0009A01FF2400E010E0B801A7010E943E19E6
:103300008C01C6010E949E18080F191FC8011F9149
:103310000F91FF90EF90DF90CF900895CF92DF92C2
:10332000EF92FF920F931F93CF93DF93EC016A010B
:103330007B012115310541F4E881F9810190F0818B
:10334000E02D642F09951FC02A303105D1F477FF95
:1033500017C0E881F9810190F081E02D6DE20995B7
:103360008C0144275527BA014C195D096E097F0964
:10337000CE012AE00E94DA189801280F391F04C0F4
:103380002AE00E94DA189C01C901DF91CF911F91B8
:103390000F91FF90EF90DF90CF900895EF92FF9202
:1033A0000F931F937B019A010027F7FC0095102FC4
:1033B000B801A7010E948E191F910F91FF90EF9005
:1033C0000895CF92DF92EF92FF920F931F936C01BB
:1033D0007B019A010027F7FC0095102FB801A70187
:1033E0000E948E198C01C6010E949E18080F191F99
:1033F000C8011F910F91FF90EF90DF90CF9008953B
:103400000E94BE180895EF92FF920F931F937C01C4
:103410000E94BE188C01C7010E949E18080F191F38
:10342000C8011F910F91FF90EF900895629FD00106
:10343000739FF001829FE00DF11D649FE00DF11D6F
:10344000929FF00D839FF00D749FF00D659FF00D1E
:103450009927729FB00DE11DF91F639FB00DE11D0B
:10346000F91FBD01CF0111240895AA1BBB1B51E117
:1034700007C0AA1FBB1FA617B70710F0A61BB70BE4
:10348000881F991F5A95A9F780959095BC01CD0189
:10349000089597FB092E07260AD077FD04D0E5DFB3
:1034A00006D000201AF4709561957F4F0895F6F7C5
:1034B000909581959F4F0895A1E21A2EAA1BBB1BE0
:1034C000FD010DC0AA1FBB1FEE1FFF1FA217B307F0
:1034D000E407F50720F0A21BB30BE40BF50B661F06
:1034E000771F881F991F1A9469F7609570958095CA
:1034F00090959B01AC01BD01CF010895EE0FFF1F18
:0C3500000590F491E02D0994F894FFCFA1
:10350C0054696D656F7574002F0053746F703A00B9
:10351C0057616974696E672073746172743A0049FB
:10352C006E707574206C6F73743A0053425553006F
:10353C0046757437353075200050504D00206D6F36
:10354C0064653A0020543D002054633D00204D3DFD
:10355C000020413D0020423D0020453D0020202020
:10356C00200052464D206C6F636B0007070CD20194
:10357C00D2016348CC01000000080002071D4D93E6
:10358C0059A76DBD7FD100000000CF1774186517C7
:06359C0096177617BF1719
:00000001FF
