:100000000C94FE010C9481020C9426020C9426029E
:100010000C9426020C9426020C9426020C942602C0
:100020000C9426020C9426020C944E020C94260288
:100030000C9426020C9426020C9426020C942602A0
:100040000C94C90F0C9426020C94CA110C9418122B
:100050000C9426020C9426020C9426020C94260280
:100060000C9426020C942602464C415348204552DB
:10007000524F522121212043616E277420776F72E5
:100080006B21004572726F72207265616420736526
:100090007474696E677321000D0A4261796368693F
:1000A00020736F66742032303133005458204F7003
:1000B000656E204578706572742056322046005077
:1000C0007265737320276D2720746F2073746172BB
:1000D00074204D454E550046486E3A204D696E20BD
:1000E000417672204D6178000A0D546F20456E7480
:1000F0006572204D454E5520507265737320454EF4
:1001000054455200547970652052656720616E64D1
:1001100020707265737320454E5445522C207479BB
:1001200070652056616C756520616E642070726523
:10013000737320454E5445522028713D51756974A2
:100140003B204E782D79203D2053686F77206E6FCD
:1001500069736529000D0A52673D56616C20094399
:100160006F6D6D656E7473202D2D2D2D2D2D2D2D04
:100170002D2D2D2D2D2D2D2D2D2D2D2D2D2D2D00DC
:1001800042696E64204E0000000000000000000084
:10019000000000000000000000000000000000005F
:1001A0004672657120636F7272656374696F6E2049
:1001B000636F6E7374000000000000000000000018
:1001C0005465726D20636F727220656E61626C653A
:1001D000000000000000000000000000000000001F
:1001E000465320636865636B20656E61626C6500D1
:1001F00000000000000000000000000000000000FF
:100200004465627567206F75742028312D50504DFC
:100210002C20322D706572662E290000000000002F
:10022000486F7065204631000000000000000000AB
:1002300000000000000000000000000000000000BE
:10024000486F70652046320000000000000000008A
:10025000000000000000000000000000000000009E
:10026000486F706520463300000000000000000069
:10027000000000000000000000000000000000007E
:10028000486F706520463400000000000000000048
:10029000000000000000000000000000000000005E
:1002A000486F706520463500000000000000000027
:1002B000000000000000000000000000000000003E
:1002C000486F706520463600000000000000000006
:1002D000000000000000000000000000000000001E
:1002E000486F7065204637000000000000000000E5
:1002F00000000000000000000000000000000000FE
:10030000486F7065204638000000000000000000C3
:1003100000000000000000000000000000000000DD
:10032000506F7765722073776974636820636861C2
:100330006E2028312D31332C303D6F666629000048
:10034000506F776572206D696E2028302D37290037
:10035000000000000000000000000000000000009D
:10036000506F776572206D6964646C652028302D4C
:10037000372900000000000000000000000000001D
:10038000506F776572206D61782028302D372900F5
:10039000000000000000000000000000000000005D
:1003A00000000000240027002A00000000002500B3
:1003B00028002B0000000000230026002900040470
:1003C00004040404040402020202020203030303FD
:1003D00003030102040810204080010204081020D9
:1003E00001020408102000000007000201000003C1
:1003F00004060000000000000000841311241FBE4A
:10040000CFEFD8E0DEBFCDBF11E0A0E0B1E0E6EF76
:10041000FBE202C005900D92AA3AB107D9F714E0A9
:10042000AAEAB1E001C01D92A634B107E1F713E0DA
:10043000CCEFD3E004C02297FE010E94F515CA3F1D
:10044000D107C9F70E94DA130C94F9150C94000037
:10045000FC0188279927E89421912032E9F329307B
:1004600010F02E30C8F32B3241F02D3239F468945D
:1004700004C00E944602820F911D219120532A3010
:10048000C0F31EF4909581959F4F08957AE0979F51
:10049000902D879F802D910D112408951F920F920A
:1004A0000FB60F9211248F939F93EF93FF93809138
:1004B000860090918700E0917201F0917301918321
:1004C00080833296F0937301E0937201E055F3401C
:1004D00030F088EE91E090937301809372018091E7
:1004E00081008A3111F48AE501C08AE1809381009C
:1004F000FF91EF919F918F910F900FBE0F901F90E2
:1005000018951F920F920FB60F9211240F900FBEE5
:100510000F901F901895FF920F931F9390916F0368
:10052000993108F44EC080915003882309F049C0E6
:10053000809153038F3009F044C080916B0388236E
:1005400009F03FC0A9ECB1E0FF24F39411E030C002
:10055000660F771FEF2DF0E0ED5AFC4F808190E0A1
:10056000212F30E082239323892B11F0462B572B28
:10057000103819F4F39411E001C0110F0F5F0B3024
:1005800039F7CA01880F991F0596840F951F840FAC
:10059000951F840F951F23E0969587952A95E1F77F
:1005A00080599C4F8D939D9381E0A33EB80731F015
:1005B00000E040E050E061E070E0CCCF1092E50157
:1005C0000BC0992349F080915103909152030196F9
:1005D0009093520380935103109250031092700332
:1005E00010926F0310926E0310926D0310926C03C1
:1005F0001F910F91FF9008952091BB01809183037B
:10060000821B71F1992787FD909597FF03C0909504
:1006100081959F4F02978CF46091860380918403AB
:1006200090918503332727FD3095633670F070E095
:100630000E94BE156217730799F0109285031092FD
:1006400084031092860381E00895820F931F909394
:100650008503809384036F5F6093860380E0089531
:1006600080E0089580917A018823E1F081E0809311
:100670008A038091E6018F3F31F030918103E9ECEC
:10068000F1E020E00DC080916A0383FF0BC00EC033
:1006900081919191865E9340865F934038F42F5FFD
:1006A0002317B0F310928A0381E0089580E0089543
:1006B0005C9A2D9800005C9898E010C087FF07C0F6
:1006C0002D9800002B9A00002D9A000006C02D984E
:1006D00000002B9800002D9A0000880F915070F7B1
:1006E0002D9808958F770E94580308952D98000043
:1006F00098E010C087FF07C02D9800002B9A0000DB
:100700002D9A000006C02D9800002B9800002D9A0D
:100710000000880F915070F72D9808952D980000D3
:1007200080E090E0880F2D9A00001C9981602D9840
:1007300000009F5F9830B1F708950E9472030E94F5
:100740008E035C9A08951F93162F80680E945803A9
:10075000812F0E9476035C9A1F9108953F924F92D9
:100760005F926F927F928F929F92AF92BF92CF9241
:10077000DF92EF92FF920F931F93CF93DF93F82EA8
:10078000F894A0907201B0907301789480917B01ED
:1007900081FF56C00E941F108B019C018091710344
:1007A00090917203A801481B590B8091BE01909152
:1007B000BF018417950720F45093BF014093BE01F9
:1007C00000937103109372032093730330937403A7
:1007D00080917503909176039C0175E0369527957D
:1007E0007A95E1F7821B930B840F951F9093760304
:1007F0008093750380917401909175019501281B78
:10080000390BC90195958795909378038093770369
:10081000843B910530F08C549F4F909378038093E4
:100820007703209177033091780380917903909139
:100830007A038217930720F430937A032093790385
:10084000E0908F0320918D0330918E0300919003EF
:1008500010919103C0E0D0E06F2C772458EE452E24
:1008600051E0552E992493944CE0342E88248A9498
:10087000CCC0C190D190F0937501E0937401E05524
:10088000F34020F05092750140927401C601821B22
:10089000930B3091E6013F3F09F454C0E394E0FE2E
:1008A000B1C0800F911F20917101222331F12333B8
:1008B00088F0109271018091E7018B3018F08092DE
:1008C000E6019FC03B3018F09092E6019AC010926A
:1008D000E60197C08436910530F48091E7018F5F7F
:1008E0008093E70106C08054964018F43F5F309330
:1008F000E6012F5F2093710184C0332319F4019620
:1009000096958795F9E0853C9F0728F01092700135
:100910001092E50176C022E08D3B920780F0209195
:1009200070012C3060F4E22FF0E0EE0FFF1FE75370
:10093000FE4F918380832F5F2093700162C03092BD
:1009400070015FC00A9664E170E00E94AA156B30E6
:1009500018F00E948B0255C080916E03882319F411
:10096000615090926E03F0906D03AF2DB0E0509106
:100970006C0320916E03309170037091500340918D
:100980006F032DC03F0D822F90E00197FD0102C043
:10099000EE0FFF1F8A95E2F75E2B2F5F2C3021F0C0
:1009A0002A30E0F04831D0F0E42FF0E0ED5AFC4F6F
:1009B00050833170730F4F5F493168F010926C03B0
:1009C00010926E03109270037093500340936F0364
:1009D0000E948B0210C050E020E030E0615066239E
:1009E00089F650936C0320936E03309370037093D9
:1009F000500340936F0380916D03F92DF81BF09322
:100A00006D03C801219696018C01E0917401F0916B
:100A10007501EA15FB0521F0C615D70508F429CFA5
:100A2000E0928F0330938E0320938D0310939103F4
:100A300000939003DF91CF911F910F91FF90EF9062
:100A4000DF90CF90BF90AF909F908F907F906F90EE
:100A50005F904F903F90089560917801662369F010
:100A600080917901882319F08091BC01680F89E099
:100A70000E94A3038CE00E94AE038091BA018F5FB5
:100A80008093BA01883010F01092BA01E091BA0157
:100A9000F0E0E458FE4F89E760810E94A3030895C7
:100AA00087E061E00E94A30383E00E949D0380939E
:100AB0008B0384E00E949D0380938C038CE00E9452
:100AC000AE0387E060E00E94A303089583E00E94E4
:100AD0009D0380938B0384E00E949D0380938C038D
:100AE0008CE00E94AE0387E061E00E94A3030895BA
:100AF00087E061E00E94A3038EE764E20E94A30303
:100B00008CE00E94AE0388E063E00E94A30388E0CB
:100B100060E00E94A3038CE00E94AE0387E065E0E2
:100B20000E94A30385E062E00E94A3038CE00E9480
:100B3000AE0383E00E949D0380938B0384E00E94B8
:100B40009D0380938C0308952F923F924F925F9262
:100B50006F927F928F929F92AF92BF92CF92DF92CD
:100B6000EF92FF920F931F93CF93DF930E9466053E
:100B7000E09184018E2F81508D30C8F4F894F0E01C
:100B8000EE0FFF1FE953FE4FC080D180789424E11F
:100B9000C21625E0D20658F034EAC31636E0D30672
:100BA00018F06091870105C06091860102C06091D4
:100BB000850167704091BD014F5F4093BD0150E0DA
:100BC00028E030E0261B3109C901880F991F820FE8
:100BD000931F841795071CF41092BD015D9A685FFE
:100BE0008DE60E94A30388E063E00E94A30388E0EF
:100BF00060E00E94A303609177016093AA018FE7F0
:100C00000E94A30385E064E00E94A30383E00E94A6
:100C10009D0380938B0384E00E949D0380938C034B
:100C200003C081E00E94AE030E941F102091C50105
:100C30003091C6014091C7015091C801621B730BEE
:100C4000840B950B66577A478040904050F387E0BD
:100C500069E00E94A3038091C5019091C601A09113
:100C6000C701B091C801845F9448AF4FBF4F8093D4
:100C7000C5019093C601A093C701B093C8010E941B
:100C80001F103B014C01BB24B394AA24A39441E060
:100C9000442E512C32E0232E312CEAC00E941F102A
:100CA0006619770988099909E616F70608071907EA
:100CB00008F0F0C031E0B31609F043C0C6019695C4
:100CC0008795582FA9ECB1E0ECEAF1E060E010E084
:100CD00020E030E0E601C170D070422F8D919C91F0
:100CE000119773E08C3D970788F077E08C3D97076C
:100CF00028F48C5D93408050924040F0C201042E55
:100D000002C0880F991F0A94E2F7682B508327309E
:100D100049F0209739F0C10102C0880F991F4A9508
:100D2000E2F7182B2F5F3F4F12963196283031058E
:100D3000A1F66093AB018FE70E94A3031093B90162
:100D400096C08DE08B1508F46AC02EEFB20EEB2D25
:100D5000F0E032E0B30EEE0FFF1FE753FE4F80814D
:100D6000918173E08C3D970718F4CC24DD240FC0EB
:100D700027E08C3D920728F08FEFC82E83E0D82E15
:100D800006C004E2C02E0CEFD02EC80ED91E39E0EA
:100D90003B15B8F1229792010C2E02C0220F331F8F
:100DA0000A94E2F72296522F70E0C71672E0D70637
:100DB00010F0422F01C040E0852F90E02091AB0160
:100DC00030E082239323242F30E08217930711F51C
:100DD000FE01E655FE4FC60196958795808389E012
:100DE000B816C1F0952F990FC0FE04C08091B901CB
:100DF000982B04C090958091B90198239093B901E4
:100E000009C0FE01E655FE4FC60196958795969559
:100E100087958083C655DE4F8FE7688126C02EE018
:100E2000B216D1F4ECEAF1E060E08081682720E0BE
:100E3000862F90E0BC017595679580FF02C03CE865
:100E400063272F5F2830A1F7319671E0E83BF70761
:100E500061F760838FE709C08091C001823011F48F
:100E6000A092B9018FE76091B9010E94A303B394E6
:100E7000CB2DD0E02FE134E0C29FC001C39F900D85
:100E8000D29F900D1124825C974F7C010027F7FCC4
:100E90000095102F4A9B31C00E941F1066197709D8
:100EA000880999096F5F7C478040904030F58CE05D
:100EB0000E94AE037FE07B1568F3F0CE84E294E0FD
:100EC00060E071E00E94781580E004C05D980E94A7
:100ED000660581E0DF91CF911F910F91FF90EF9018
:100EE000DF90CF90BF90AF909F908F907F906F904A
:100EF0005F904F903F902F9008954A9BE7CFDECFB1
:100F000087E060E80E94A30361E070E080E090E089
:100F10000E94451083E00E949D0380938B0384E030
:100F20000E949D0380938C0386E060E00E94A303EF
:100F300087E061E00E94A30360917801662311F0CD
:100F400089E002C089E067EC0E94A3038AE065E0C3
:100F50000E94A3038BE065E10E94A3038CE062E1A1
:100F60000E94A3038EE060E00E94A3038FE163E090
:100F70000E94A3038EE16AE00E94A30382E160E67F
:100F80000E94A30383E168EF0E94A3038FE060E85F
:100F90000E94A3038DE160E40E94A3038CE166E25A
:100FA0000E94A30380E264E40E94A30381E260E064
:100FB0000E94A30382E262EF0E94A30383E26CE734
:100FC0000E94A30384E266E00E94A30385E26DE72A
:100FD0000E94A3038AE26FE00E94A30380E36CEA0D
:100FE0000E94A30382E36CE80E94A30383E36AE008
:100FF0000E94A30384E364E00E94A30385E362E20A
:101000000E94A30386E36DE20E94A30387E364EDDD
:101010000E94A30388E360E00E94A30389E360E0E9
:101020000E94A3038EE360E10E94A3038DE66FE0BC
:101030000E94A3038EE66CE30E94A3038FE66FE990
:101040000E94A30389E660E60E94A30380E76EE2A4
:101050000E94A30389E760E00E94A3038AE766E099
:101060000E94A30381E760E00E94A30381E763E29B
:101070000E94A30382E76EE00E94A30385E763E575
:101080000E94A30386E76CE40E94A30387E760EE57
:101090000E94A30308951F93182F8A3038F484E226
:1010A00094E069E071E00E94751507C0843628F469
:1010B00084E294E060E20E94441384E294E0612FB1
:1010C0004AE050E00E94D31484E294E060E20E947F
:1010D00044131F9108951F938091BE019091BF0109
:1010E000805A9F4020F01092BF011092BE010E94D2
:1010F000FC02882369F520917D0330917E03809165
:101100005103909152032817390711F590918203EA
:101110008091E5019817E1F420917B0330917C03E5
:101120008091BE019091BF012817390789F4209161
:101130007F03309180038091790390917A0328177F
:10114000390731F490918A0380918903981739F116
:101150008091BE019091BF0190937C0380937B03AB
:10116000809151039091520390937E0380937D036D
:101170008091BB01809383038091E501809382037A
:101180008091790390917A039093800380937F03F9
:1011900080918A038093890381E080938803809102
:1011A0008803823009F474C0833038F4882309F44A
:1011B0000DC1813009F039C107C0833009F491C0F5
:1011C000843009F032C1E8C084E294E06DE00E940E
:1011D000441380918A03882329F084E294E06CE030
:1011E00071E04FC08091E5018F3F29F484E294E0E3
:1011F00062E171E046C0863028F084E294E061E26A
:1012000071E03FC080918103882399F4E9ECF1E01B
:1012100080819181892B29F0809181038F5F809358
:101220008103329681E0E13EF80791F78CE00E945D
:10123000AE038091E6018F3F39F484E294E06DE2E1
:1012400071E00E94751519C0882331F084E294E0A2
:1012500062E371E00E94751584E294E06BE371E053
:101260000E9475158CE00E94AE0384E294E06091C8
:1012700081034AE050E00E94D31484E294E06FE3DB
:1012800071E00E9475158CE00E94AE0382E026C0DA
:1012900084E294E066E471E00E9475156091830336
:1012A000772767FD709584E294E04AE050E00E9461
:1012B000431584E294E06AE471E00E947515609140
:1012C000BC01772767FD709584E294E04AE050E026
:1012D0000E9443158CE00E94AE0383E08093880354
:1012E000A4C080917B0181FF55C084E294E06FE44B
:1012F00071E00E94751560917B0370917C0384E21C
:1013000094E04AE050E00E94C2148CE00E94AE03D8
:1013100084E294E063E571E00E94751560917503C5
:101320007091760315E0769567951A95E1F784E25A
:1013300094E04AE050E00E94C2148CE00E94AE03A8
:101340008091E6018F3F31F584E294E067E571E03A
:101350000E94751560917F037091800384E294E090
:101360004AE050E00E94C2148CE00E94AE0384E286
:1013700094E06BE571E00E94751560917D037091BA
:101380007E0384E294E04AE050E00E94C2148CE0C4
:101390000E94AE0384E0A2CF80917B0180FF0DC04C
:1013A00010E084E294E06FE571E00E94751582E040
:1013B0000E94AE031F5F1830A1F784E294E00E9400
:1013C000131410928703109288032FC080917B0121
:1013D00080FF2BC080918103833038F1E091870337
:1013E000F0E0EE0FFF1FE753FE4F6081718184E252
:1013F00094E04AE050E00E94C2148CE00E94AE03E8
:1014000084E294E060E20E944413809187038F5F3E
:101410008093870390918103891738F084E294E0E8
:101420006DE00E944413109287031F9108951F934B
:10143000CF93DF93EC01162FFE0121966491662372
:1014400029F084E294E00E944413F6CF112321F0A6
:1014500084E294E00E941314DF91CF911F910895CC
:10146000EF92FF920F931F93CF93DF937C01FC01C8
:10147000108200E010E0A89584E294E00E94DA1265
:101480001816190694F584E294E00E940B13EC01FF
:101490001816190684F784E294E06C2F0E94441316
:1014A000CD30D10519F0CA30D10559F484E294E069
:1014B0000E941314DF91CF911F910F91FF90EF9035
:1014C0000895C830D10531F401151105A1F201507C
:1014D0001040D1CFF701E00FF11FC0831182063019
:1014E00011054CF60F5F1F4FC6CF61E070E080E042
:1014F00090E00E944510BFCF84E294E00E94DA128F
:101500001816190614F020E01AC084E294E00E9434
:101510000B138336910519F08334910541F4109231
:10152000BF011092BE0110927A03109279038D369A
:10153000910521F020E08D34910509F421E0822FFE
:101540000895EF92FF920F931F938C010E94111048
:10155000780100E010E0E60EF71E081F191F03C017
:101560008CE00E94AE030E9411106E157F0580076B
:101570009107B0F31F910F91FF90EF9008958FE0C6
:1015800060E80E94A30382E090E00E94A10A81E14A
:101590000E949D03282F20542093BB0189518C3732
:1015A00070F4332727FD309589E190E0821B930B7F
:1015B0006AE070E00E94BE156093BC0102C0109208
:1015C000BC018CE00E94AE0308950E94660582E390
:1015D00090E00E94A10A0E9478050895AF92BF9200
:1015E000CF92DF92EF92FF920F931F93CF93DF93EF
:1015F0005C0101960E9428029C0101978E3F910593
:1016000010F010E01EC0122F82E090E0F501E80F0C
:10161000F91FE081EE23A9F00196ED3279F48A0DED
:101620009B1D0E9428029C01812F90E08217930746
:1016300040F42F3F310528F4C22E05C08A309105B1
:1016400029F74EEFC42E0E9480070E94E50A87ED1D
:1016500090E061E00E94170AE12EAEC089E76E2D8E
:101660000E94A3038DEE92E00E949E100FEFFF24D4
:10167000C0E0D0E010E083E690E00E949E1086E299
:101680000E949D03C80FD11D801708F4082FF8167B
:1016900008F4F82E1F5F173C71F789E08E1538F0BB
:1016A00084E294E069E071E00E94751508C0E3E609
:1016B000EE1528F084E294E060E20E94441384E294
:1016C00094E06E2D4AE050E00E94D314ECE7F1E084
:1016D0006AE380818E1509F463E2319681E0E43893
:1016E000F807B9F784E294E00E94441384E294E09E
:1016F00060E20E944413802F0E944B08CE0167ECE9
:1017000070E00E94AA15162F862F0E944B088F2D7D
:101710000E944B08F50180818E3409F047C00A30E1
:1017200010F4DD2408C0083418F03DE3D32E03C0C4
:1017300026EFD22ED00EF9E0FF1510F000E007C022
:1017400087E48F1510F40DE302C00F2D0A501A30F4
:1017500010F4FF2408C0183418F09DE3F92E03C0DC
:1017600086EFF82EF10E10E01F1521F484E294E0CC
:101770006AE217C01D1521F484E294E06CE311C005
:10178000101721F484E294E06EE30BC0D11630F41C
:10179000101720F484E294E06EE203C084E294E047
:1017A00060E20E9444131F5F0117F0F684E294E0A8
:1017B0000E941314A895E394CE1408F04FCFDF9144
:1017C000CF911F910F91FF90EF90DF90CF90BF903E
:1017D000AF900895462FBC016C5F7F4F82E993E084
:1017E0000E94BD0F0895DF92EF92FF920F931F9317
:1017F0008C01D62E472F52E9E52E53E0F52EC70176
:10180000B8010E94BD0F0F5F1F4FC701B8014D2DDA
:101810000E94BD0F1F910F91FF90EF90DF900895F0
:10182000EF92FF920F931F93CF93DF9306E711E0A0
:10183000EE24FF24C0E0D0E0CE01F80160810E94D8
:10184000EA0BF80181918F01E80EF11C2196C63058
:10185000D10591F7CCE7D1E00BE010E0C801688139
:101860000E94EA0B8991E80EF11C0F5F1F4FF1E017
:10187000C438DF0799F7C4E8D1E003E110E0C801FC
:1018800068810E94EA0B8991E80EF11C0F5F1F4FDF
:1018900081E0C838D80799F784E490E0B7010E9446
:1018A000F30BDF91CF911F910F91FF90EF9008956F
:1018B000BC016C5F7F4F82E993E00E94B60F0895F0
:1018C000FF920F931F93CF93DF9385E591E061E043
:1018D0000E94170AFF24C1E0D0E00F2D10E0F801AC
:1018E000E857FE4F808190E08C179D0739F584E220
:1018F00094E0BE014AE050E00E94431584E294E087
:101900006DE30E944413CE010E94580C682F84E2BC
:1019100094E04AE050E00E94D31484E294E069E04D
:101920000E94441365E0000F111F6A95E1F7C8019A
:1019300080589E4F61E00E94170AF3942196CB32A3
:10194000D10559F6DF91CF911F910F91FF90089526
:1019500088E990E061E00E94170A8BEA90E060E07D
:101960000E94170A84E294E060916E014AE050E020
:101970000E94E5140E94600C8FEB90E061E00E94F1
:10198000170A0895DF92EF92FF920F931F938C0135
:1019900072E9E72E73E0F72EC701B8010E94B60F77
:1019A000D82E0F5F1F4FC701B8010E94B60F3D2D03
:1019B00020E0280F311DC9011F910F91FF90EF907A
:1019C000DF9008950F931F93CF93DF9300E010E013
:1019D000C0E0D0E0CE010E94580CFE01EA58FE4F54
:1019E0008083080F111D2196C630D10599F7CBE0F1
:1019F000D0E0CE010E94580CFE01EF58FE4F8083CC
:101A0000080F111D2196C331D10599F7C3E1D0E02C
:101A1000CE010E94580CFE01EF58FE4F8083080F44
:101A2000111D2196C731D10599F784E490E00E94F9
:101A3000C20C20E08017910709F421E0822FDF918A
:101A4000CF911F910F910895CF92DF92EF92FF9265
:101A50000F931F93DF93CF93CDB7DEB728970FB6C1
:101A6000F894DEBF0FBECDBF88EE90E061E00E942B
:101A7000170A8E010F5F1F4FC8010E94300A89812B
:101A8000813709F454C0813509F451C068010E94BE
:101A9000600C84E091E061E00E94170AC6010E9498
:101AA000300A89818E3611F08E3421F4C6010E94ED
:101AB000EE0AF4CF8137D9F18135C9F1C6010E9410
:101AC00028027C018BE2E816F10408F7C6010E94A7
:101AD000300A8981813759F1813549F1C6010E9467
:101AE00028028C018F3F910509F088F6E114F1047A
:101AF00011F4009761F284E294E0B7014AE050E00B
:101B00000E94431584E294E06DE30E94441384E252
:101B100094E0B8014AE050E00E945615C701602FDA
:101B20000E94EA0B0E94E20C0E94100CB0CF289693
:101B30000FB6F894DEBF0FBECDBFCF91DF911F91DE
:101B40000F91FF90EF90DF90CF9008950F931F9328
:101B5000CF93DF938C01C0E0D0E015C08AEF90E016
:101B60000E94A10A5D9A8AEF90E00E94A10A5D9806
:101B70000333110538F00E947C0A882319F00E9473
:101B8000240D04C02196C017D10740F3DF91CF91F7
:101B90001F910F9108950F931F93CF93DF93E0E070
:101BA000F0E000E010E08491080F111D319680E410
:101BB000E030F807C1F790916F0180E020916E014D
:101BC000EC01C20FD11D80E490E00E94C20CC81746
:101BD000D90769F080E490E0BE010E94F30B82E433
:101BE00090E0B8010E94F30B20E030E00BC082E4EB
:101BF00090E00E94C20C20E030E08017910711F0C5
:101C000021E030E0C901DF91CF911F910F9108953C
:101C10000E94CB0D892B49F088E690E061E00E949C
:101C2000170A8FE59AEE0E94A60D0E94E20C882307
:101C300049F483E890E061E00E94170A8FE59AEE8C
:101C40000E94A60D089589E061E00E94E31089E0FA
:101C500060E00E9422118CE060E00E94E3108BE0C3
:101C600061E00E94E3108DE061E00E94E31082E0F9
:101C700060E00E94E31082E061E00E94221184E0B3
:101C800061E00E94E31080E060E00E94E31081E0E8
:101C900061E00E94E31080E061E00E94221181E097
:101CA00061E00E94221186E061E00E94E31085E07D
:101CB00061E00E94E3108EE060E00E94E3108EE09D
:101CC00061E00E94221188E060E00E94E31088E059
:101CD00061E00E94221184E294E040E056E960E075
:101CE00070E00E94531281E0809371011092E6012E
:101CF00083E0809380008AE1809381008FEF9FEFE3
:101D00009093890080938800EFE6F0E08081806204
:101D10008083E898789408958091C0018130C1F063
:101D2000813018F08230D1F530C08EE00E947611FB
:101D3000892BA1F581E08093C0010E94111060936E
:101D4000C1017093C2018093C3019093C4010895AF
:101D50008EE00E947611892BE9F40E9411102091E7
:101D6000C1013091C2014091C3015091C401621B75
:101D7000730B840B950B655F71408040904070F051
:101D800082E08093C0015D9A08958EE00E947611F2
:101D9000892B19F01092C00108955D9A0895EF9271
:101DA000FF920F931F930E94A80C0E94080E5E9A48
:101DB0000E94800763E670E080E090E00E9445109A
:101DC000E9ECF1E01192119221E0E13EF207D1F746
:101DD0005E980E9478058FEF8093E50184E294E09D
:101DE0000E9413140E946B0810E00E94BF0A8091A9
:101DF000BB01893D0CF4ADC08CE00E949D0388239B
:101E000009F4A7C02EE088E190E00FB6F894A895F9
:101E1000809360000FBE209360000E9478051092AE
:101E2000BF011092BE0110927A03109279030E94B2
:101E30001F106093C5017093C6018093C7019093F2
:101E4000C8018CE00E94AE03A8950E947C0A8823FA
:101E500061F00E94240D0E941F106093C5017093D1
:101E6000C6018093C7019093C8018CE00E949D0336
:101E70008823C1F484E294E064E671E00E9478155E
:101E80005D9A89EF90E00E94A10A0E9480070E945B
:101E900078051092BF011092BE0110927A03109241
:101EA0007903CFCF8CE00E94AE030E941F107B010C
:101EB0008C010E943203982F8823B9F18091E501AB
:101EC000873098F50E948C0E8091C5019091C601D3
:101ED000D701A81BB90BCD01B1E787349B0708F4E4
:101EE000B0CF885E904880F084EF94E8AFEFBFEF0A
:101EF000E80EF91E0A1F1B1FE092C501F092C601F1
:101F00000093C7011093C8010E942C050E94A405EC
:101F1000882309F4BACF0E94BF0A8091E5018F5F40
:101F20008093E5010E946B088CCF8091E5018F3F83
:101F300039F0863018F4992309F083CF0E945005B8
:101F40000E94BF0A0E946B0883E690E00E94A10AEB
:101F500078CF0E94800763E670E080E090E00E9406
:101F600045101F5F103209F040CF4CCFF999FECFDA
:101F700072BD61BDF89A80B50895F999FECF1FBA78
:101F800072BD61BD40BD0FB6F894FA9AF99A0FBEC2
:101F900008951F920F920FB60F9211242F933F9323
:101FA0008F939F93AF93BF938091970390919803E2
:101FB000A0919903B0919A0330919B030196A11DC2
:101FC000B11D232F2D5F2D3720F02D570196A11D18
:101FD000B11D20939B038093970390939803A09344
:101FE0009903B0939A038091930390919403A091E5
:101FF0009503B09196030196A11DB11D80939303A3
:1020000090939403A0939503B0939603BF91AF91DF
:102010009F918F913F912F910F900FBE0F901F9026
:1020200018958FB7F89420919703309198034091B9
:10203000990350919A038FBFB901CA0108959FB7C0
:10204000F89420919303309194034091950350911B
:10205000960386B5A89B06C08F3F21F02F5F3F4FA8
:102060004F4F5F4F9FBF542F432F322F2227280FF0
:10207000311D411D511D82E0220F331F441F551F8A
:102080008A95D1F7B901CA0108959B01AC017FB7C8
:10209000F8948091930390919403A0919503B0914B
:1020A000960366B5A89B05C06F3F19F00196A11D68
:1020B000B11D7FBFBA2FA92F982F8827860F911D9A
:1020C000A11DB11D62E0880F991FAA1FBB1F6A9551
:1020D000D1F7BC012DC0FFB7F89480919303909184
:1020E0009403A0919503B0919603E6B5A89B05C013
:1020F000EF3F19F00196A11DB11DFFBFBA2FA92F07
:10210000982F88278E0F911DA11DB11DE2E0880F29
:10211000991FAA1FBB1FEA95D1F7861B970B885EF4
:102120009340C8F2215030404040504068517C4FAD
:10213000211531054105510571F60895019739F0D2
:10214000880F991F880F991F02970197F1F708953B
:10215000789484B5826084BD84B5816084BD85B582
:10216000826085BD85B5816085BDEEE6F0E0808149
:1021700081608083E1E8F0E010828081826080836A
:10218000808181608083E0E8F0E0808181608083ED
:10219000E1EBF0E0808184608083E0EBF0E080811F
:1021A00081608083EAE7F0E08081846080838081C1
:1021B0008260808380818160808380818068808369
:1021C0001092C1000895CF93DF93482F50E0CA01C9
:1021D0008E529C4FFC01349142545C4FFA01849121
:1021E000882369F190E0880F991FFC01E056FC4FAD
:1021F000A591B491FC01E655FC4FC591D49166239D
:1022000051F42FB7F8948C91932F909589238C9348
:10221000888189230BC0623061F42FB7F8948C91C8
:10222000932F909589238C938881832B88832FBF4C
:1022300006C09FB7F8948C91832B8C939FBFDF913E
:10224000CF910895482F50E0CA018A519C4FFC015C
:102250002491CA018E529C4FFC01949142545C4FD0
:10226000FA013491332309F440C0222351F1233081
:1022700071F0243028F42130A1F0223011F514C07F
:102280002630B1F02730C1F02430D9F404C0809159
:1022900080008F7703C0809180008F7D80938000C5
:1022A00010C084B58F7702C084B58F7D84BD09C00E
:1022B0008091B0008F7703C08091B0008F7D8093B4
:1022C000B000E32FF0E0EE0FFF1FE655FC4FA591A5
:1022D000B4912FB7F894662321F48C9190958923BB
:1022E00002C08C91892B8C932FBF0895682F70E0CA
:1022F000CB018A519C4FFC012491CB018E529C4F03
:10230000FC01449162547C4FFB019491992319F490
:1023100020E030E03CC0222351F1233071F0243022
:1023200028F42130A1F0223011F514C02630B1F08C
:102330002730C1F02430D9F404C0809180008F7719
:1023400003C0809180008F7D8093800010C084B591
:102350008F7702C084B58F7D84BD09C08091B000A5
:102360008F7703C08091B0008F7D8093B000892F5C
:1023700090E0880F991F8C549C4FFC01A591B4915B
:102380008C9120E030E0842311F021E030E0C9019D
:10239000089508951F920F920FB60F9211242F9354
:1023A0003F934F938F939F93EF93FF938091C00040
:1023B00082FD1DC04091C6002091DC033091DD03F9
:1023C0002F5F3F4F2F7330708091DE039091DF03BA
:1023D0002817390771F0E091DC03F091DD03E45632
:1023E000FC4F40833093DD032093DC0302C08091D7
:1023F000C600FF91EF919F918F914F913F912F9147
:102400000F900FBE0F901F901895E0913004F0913F
:102410003104E05CFF4F8191919120813181821BD9
:10242000930B8F739070892B11F00E94C91108953E
:102430001F920F920FB60F9211242F933F938F93F9
:102440009F93EF93FF93209120043091210480917A
:102450002204909123042817390731F48091C10098
:102460008F7D8093C10014C0E0912204F091230479
:10247000E052FC4F20818091220490912304019628
:102480008F73907090932304809322042093C6004E
:10249000FF91EF919F918F913F912F910F900FBEE0
:1024A0000F901F901895AF92BF92DF92EF92FF921C
:1024B0000F931F93CF93DF93EC017A018B01DD24FF
:1024C000403081EE580780E0680780E0780711F01F
:1024D000DD24D39491E0A92EB12CEC89FD89DD2077
:1024E00069F0C50108A002C0880F991F0A94E2F79D
:1024F000808360E079E08DE390E005C0108260E8C1
:1025000074E88EE190E0A80197010E94D115215056
:10251000304040405040569547953795279580E18B
:102520002030380720F0DD2011F0DD24D6CFE889F7
:10253000F9893083EA89FB89208319A2EE89FF8912
:10254000408121E030E0C9010C8C02C0880F991F46
:102550000A94E2F7482B4083EE89FF894081C90144
:102560000D8C02C0880F991F0A94E2F7482B408314
:10257000EE89FF894081C9010E8C02C0880F991F26
:102580000A94E2F7482B4083EE89FF8980810F8C03
:1025900002C0220F331F0A94E2F7209528232083DC
:1025A000DF91CF911F910F91FF90EF90DF90BF903F
:1025B000AF900895DC011C96ED91FC911D97E05CB5
:1025C000FF4F2191319180819181281B390B2F730D
:1025D0003070C9010895DC011C96ED91FC911D97A6
:1025E000E05CFF4F20813181E054F040DF01AE5BC1
:1025F000BF4F8D919C9111972817390719F42FEF30
:102600003FEF07C08D919C91E80FF91F8081282F23
:1026100030E0C9010895DC011C96ED91FC911D97F5
:10262000E05CFF4F20813181E054F040DF01AE5B80
:10263000BF4F8D919C9111972817390719F42FEFEF
:102640003FEF10C08D919C911197E80FF91F2081E9
:102650008D919C91119701968F73907011969C9318
:102660008E9330E0C9010895DC0191968C91919789
:10267000882339F05496ED91FC915597808186FF1F
:10268000F9CF91961C920895CF93DF93EC01EE85DC
:10269000FF85E05CFF4F20813181E054F0402F5FE7
:1026A0003F4F2F733070DF01AE5BBF4F8D919C9118
:1026B000119728173907D1F3E05CFF4F8081918192
:1026C000E054F040E80FF91F6083EE85FF85E05C81
:1026D000FF4F31832083EE89FF89208181E090E0E4
:1026E0000F8C02C0880F991F0A94E2F7282B2083D1
:1026F00081E089A3EC89FD8980818064808381E009
:1027000090E0DF91CF910895109227041092260453
:1027100088EE93E0A0E0B0E0809328049093290431
:10272000A0932A04B0932B048DE991E090932504A3
:10273000809324048CE993E09093310480933004D7
:1027400080EE93E0909333048093320485EC90E024
:10275000909335048093340484EC90E09093370494
:102760008093360480EC90E0909339048093380491
:1027700081EC90E090933B0480933A0482EC90E0EB
:1027800090933D0480933C0486EC90E090933F044A
:1027900080933E0484E08093400483E0809341046E
:1027A00087E08093420485E08093430481E0809336
:1027B00044040895CF93DF930E94A8100E94230E33
:1027C000C5E0D2E10E94CF0E2097E1F30E940512EE
:1027D000F9CFCF92DF92EF92FF920F931F93CF9397
:1027E000DF937C016B018A01C0E0D0E00FC0D6010D
:1027F0006D916D01D701ED91FC910190F081E02D7B
:10280000C7010995C80FD91F0150104001151105C6
:1028100071F7CE01DF91CF911F910F91FF90EF9053
:10282000DF90CF900895EF92FF920F931F938C014A
:10283000DC01ED91FC910190F081E02D6DE00995B6
:102840007C01D801ED91FC910190F081E02DC8014F
:102850006AE009959C012E0D3F1DC9011F910F9142
:10286000FF90EF900895CF93DF93EC016115710510
:1028700019F420E030E00FC0DB010D900020E9F7F3
:102880001197A61BB70BE881F9810280F381E02D37
:10289000AD0109959C01C901DF91CF9108954F9237
:1028A0005F927F928F929F92AF92BF92CF92DF9270
:1028B000EF92FF920F931F93DF93CF93CDB7DEB7C5
:1028C000A1970FB6F894DEBF0FBECDBF2C01742EBA
:1028D000CB01223008F42AE019A231E2C32ED12C18
:1028E000CC0EDD1E822E9924AA24BB24672D752FC1
:1028F000A50194010E94D11579018A01C801B7018F
:10290000A50194010E948B15472D461B0894C10810
:10291000D1084A3014F4405D01C0495CF60140839F
:10292000E114F1040105110521F07E2C5F2DC80191
:10293000DDCFC201B6010E943314A1960FB6F89400
:10294000DEBF0FBECDBFCF91DF911F910F91FF90E2
:10295000EF90DF90CF90BF90AF909F908F907F903F
:102960005F904F900895DC012115310541F4ED9100
:10297000FC910190F081E02D642F099508950E944B
:102980004F140895EF92FF920F931F939A017B01CA
:1029900000E010E0B801A7010E94B3141F910F914D
:1029A000FF90EF900895EF92FF920F931F939A017B
:1029B000E62EFF2400E010E0B801A7010E94B31446
:1029C0001F910F91FF90EF900895CF92DF92EF92B9
:1029D000FF920F931F936C01E62E9A01FF2400E0F3
:1029E00010E0B801A7010E94B3148C01C6010E9437
:1029F0001314080F191FC8011F910F91FF90EF903A
:102A0000DF90CF900895CF92DF92EF92FF920F93D5
:102A10001F93CF93DF93EC016A017B0121153105F0
:102A200041F4E881F9810190F081E02D642F09954E
:102A30001FC02A303105D1F477FF17C0E881F98132
:102A40000190F081E02D6DE209958C014427552716
:102A5000BA014C195D096E097F09CE012AE00E9476
:102A60004F149801280F391F04C02AE00E944F1408
:102A70009C01C901DF91CF911F910F91FF90EF90C1
:102A8000DF90CF900895EF92FF920F931F937B01F9
:102A90009A010027F7FC0095102FB801A7010E94AA
:102AA00003151F910F91FF90EF900895CF92DF9241
:102AB000EF92FF920F931F936C017B019A01002705
:102AC000F7FC0095102FB801A7010E9403158C0197
:102AD000C6010E941314080F191FC8011F910F91FE
:102AE000FF90EF90DF90CF9008950E9433140895E7
:102AF000EF92FF920F931F937C010E9433148C017D
:102B0000C7010E941314080F191FC8011F910F91CC
:102B1000FF90EF900895629FD001739FF001829F14
:102B2000E00DF11D649FE00DF11D929FF00D839F5C
:102B3000F00D749FF00D659FF00D9927729FB00DF9
:102B4000E11DF91F639FB00DE11DF91FBD01CF010C
:102B500011240895AA1BBB1B51E107C0AA1FBB1F6C
:102B6000A617B70710F0A61BB70B881F991F5A9519
:102B7000A9F780959095BC01CD01089597FB092E8A
:102B800007260AD077FD04D0E5DF06D000201AF42E
:102B9000709561957F4F0895F6F7909581959F4FB9
:102BA0000895A1E21A2EAA1BBB1BFD010DC0AA1F8E
:102BB000BB1FEE1FFF1FA217B307E407F50720F0A6
:102BC000A21BB30BE40BF50B661F771F881F991F21
:102BD0001A9469F760957095809590959B01AC016A
:102BE000BD01CF010895EE0FFF1F0590F491E02D78
:062BF0000994F894FFCFE8
:102BF60054696D656F7574210020200053746F70E1
:102C06003A0057616974696E672073746172743A29
:102C160000496E707574206C6F73743A0053425598
:102C2600530046757437353075200050504D0020DE
:102C36006D6F64653A0020543D002054633D0020CA
:102C46004D3D0020413D0020423D0020453D0020F5
:102C56002020200052464D206C6F636B3F0003011D
:102C66000C01E801E8016348CC0100004D9359A727
:102C76006DBD7FD10800020701020304050B0C0D90
:102C86000E0F10111213141516000000004413E95C
:0A2C960013DA120B13EB12341300D3
:00000001FF
