:100000000C94FC010C947F020C9424020C942402A6
:100010000C9424020C9424020C9424020C942402C8
:100020000C9424020C9424020C944C020C94240290
:100030000C9424020C9424020C9424020C942402A8
:100040000C94750F0C9424020C9476110C94C4112A
:100050000C9424020C9424020C9424020C94240288
:100060000C9424020C942402464C415348204552DF
:10007000524F522121212043616E277420776F72E5
:100080006B21004572726F72207265616420736526
:100090007474696E677321000D0A4261796368693F
:1000A00020736F66742032303133005458204F7003
:1000B000656E204578706572742056322046005077
:1000C0007265737320276D2720746F2073746172BB
:1000D00074204D454E550046486E3A204D696E20BD
:1000E000417672204D617800546F20456E746572C0
:1000F000204D454E5520507265737320454E544532
:100100005200547970652052656720616E642070DA
:100110007265737320454E5445522C207479706576
:100120002056616C756520616E6420707265737312
:1001300020454E5445522028713D517569743B202D
:100140004E782D79203D2053686F77206E6F69734C
:1001500065290052673D56616C2009436F6D6D65DE
:100160006E7473202D2D2D2D2D2D2D2D2D2D2D2DFE
:100170002D2D2D2D2D2D2D2D2D2D2D0042696E6413
:10018000204E000000000000000000000000000001
:1001900000000000000000000000000046726571D1
:1001A00020636F7272656374696F6E20636F6E7324
:1001B0007400000000000000000000005465726D33
:1001C00020636F727220656E61626C6500000000D2
:1001D0000000000000000000000000004653206303
:1001E0006865636B20656E61626C650000000000ED
:1001F000000000000000000000000000446562757F
:1002000067206F75742028312D50504D2C20322DD1
:10021000706572662E29000000000000486F70654E
:100220002046310000000000000000000000000037
:10023000000000000000000000000000486F706532
:100240002046320000000000000000000000000016
:10025000000000000000000000000000486F706512
:1002600020463300000000000000000000000000F5
:10027000000000000000000000000000486F7065F2
:1002800020463400000000000000000000000000D4
:10029000000000000000000000000000486F7065D2
:1002A00020463500000000000000000000000000B3
:1002B000000000000000000000000000486F7065B2
:1002C0002046360000000000000000000000000092
:1002D000000000000000000000000000486F706592
:1002E0002046370000000000000000000000000071
:1002F000000000000000000000000000486F706572
:10030000204638000000000000000000000000004F
:10031000000000000000000000000000506F776542
:100320007220737769746368206368616E20283176
:100330002D31332C303D6F6666290000506F776594
:1003400072206D696E2028302D37290000000000D2
:10035000000000000000000000000000506F776502
:1003600072206D6964646C652028302D3729000087
:10037000000000000000000000000000506F7765E2
:1003800072206D61782028302D3729000000000090
:10039000000000000000000000000000000000005D
:1003A000240027002A0000000000250028002B0060
:1003B00000000000230026002900040404040404B3
:1003C0000404020202020202030303030303010204
:1003D00004081020408001020408102001020408D3
:1003E00010200000000700020100000304060000C6
:1003F000000000000000301311241FBECFEFD8E032
:10040000DEBFCDBF11E0A0E0B1E0EEE4FBE202C050
:1004100005900D92AC3AB107D9F714E0ACEAB1E01F
:1004200001C01D92A634B107E1F713E0C8EFD3E095
:1004300004C02297FE010E94A115C63FD107C9F74B
:100440000E9486130C94A5150C940000FC018827CB
:100450009927E89421912032E9F3293010F02E30C9
:10046000C8F32B3241F02D3239F4689404C00E9455
:100470004402820F911D219120532A30C0F31EF4B3
:10048000909581959F4F08957AE0979F902D879F33
:10049000802D910D112408951F920F920FB60F9287
:1004A00011248F939F93EF93FF93809186009091F7
:1004B0008700E0917401F0917501918380833296F9
:1004C000F0937501E0937401E255F34030F08AEE49
:1004D00091E09093750180937401809181008A313D
:1004E00011F48AE501C08AE180938100FF91EF91C8
:1004F0009F918F910F900FBE0F901F9018951F9294
:100500000F920FB60F9211240F900FBE0F901F90F5
:100510001895FF920F931F9390917103993108F4EE
:100520004EC080915203882309F049C08091550341
:100530008F3009F044C080916D03882309F03FC0DB
:10054000ABECB1E0FF24F39401E030C0660F771FFD
:10055000EF2DF0E0EB5AFC4F808190E0202F30E04F
:1005600082239323892B11F0462B572B003819F443
:10057000F39401E001C0000F1F5F1B3039F7CA017F
:10058000880F991F0596840F951F840F951F840F60
:10059000951F23E0969587952A95E1F780599C4F02
:1005A0008D939D9381E0A53EB80731F040E050E087
:1005B00061E070E010E0CCCF1092E7010BC099230E
:1005C00049F0809153039091540301969093540302
:1005D000809353031092520310927203109271038E
:1005E0001092700310926F0310926E031F910F917F
:1005F000FF9008952091BD0180918503821B71F1C8
:10060000992787FD909597FF03C0909581959F4FFF
:1006100002978CF460918803809186039091870300
:10062000332727FD3095633670F070E00E946A151D
:100630006217730799F01092870310928603109245
:10064000880381E00895820F931F9093870380931E
:1006500086036F5F6093880380E0089580E00895CB
:1006600080917C018823F1F08091E8018F3F31F087
:1006700030918303EBECF1E020E012C080916C0339
:100680008695869586958095817008958191919142
:10069000865E9340865F934010F080E008952F5F60
:1006A0002317A0F381E008955C9A2D985C9898E058
:1006B00010C087FF07C02D9800002B9A00002D9ACC
:1006C000000006C02D9800002B9800002D9A000015
:1006D000880F915070F72D9808958F770E945403DA
:1006E00008952D9898E010C087FF07C02D9800004E
:1006F0002B9A00002D9A000006C02D9800002B9820
:1007000000002D9A0000880F915070F72D980895E1
:100710001F93162F80680E945403812F0E9471033B
:100720005C9A1F9108952D9880E090E0880F2D9A93
:1007300000001C9981602D9800009F5F9830B1F7F0
:1007400008950E946D030E9493035C9A089583E0CC
:100750000E94A10380938B0384E00E94A1038093F5
:100760008C0386E060E00E94880387E061E00E94DD
:10077000880360917A01662311F089E002C089E064
:1007800067EC0E9488038AE065E00E9488038BE0A2
:1007900065E10E9488038CE062E10E9488038EE09C
:1007A00060E00E9488038FE163E00E9488038EE18D
:1007B0006AE00E94880382E160E60E94880383E188
:1007C00068EF0E9488038FE060E80E9488038DE153
:1007D00060E40E9488038CE166E20E94880380E264
:1007E00064E40E94880381E260E00E94880382E260
:1007F00062EF0E94880383E26CE70E94880384E230
:1008000066E00E94880385E26DE70E9488038AE221
:100810006FE00E94880380E36CEA0E94880382E311
:100820006CE80E94880383E36AE00E94880384E303
:1008300064E00E94880385E362E20E94880386E305
:100840006DE20E94880387E364ED0E94880388E3D9
:1008500060E00E94880389E360E00E9488038EE3E1
:1008600060E10E9488038DE668E00E9488038EE6BE
:100870006CE30E9488038FE66FE90E94880389E693
:1008800060E60E94880380E76EE20E94880389E7A1
:1008900060E00E9488038AE766E00E94880381E79F
:1008A00063E20E94880382E76EE00E94880385E786
:1008B00063E50E94880386E76CE40E94880387E76B
:1008C00060EE0E94880308953F924F925F926F926C
:1008D0007F928F929F92AF92BF92CF92DF92EF92D0
:1008E000FF920F931F93CF93DF93F82EF894A0906D
:1008F0007401B0907501789480917D0181FF56C09C
:100900000E94CB0F8B019C01809173039091740323
:10091000A801481B590B8091C0019091C101841717
:10092000950720F45093C1014093C00100937303D5
:1009300010937403209375033093760380917703AB
:10094000909178039C0175E0369527957A95E1F7AB
:10095000821B930B840F951F9093780380937703EA
:1009600080917601909177019501281B390BC9017F
:100970009595879590937A0380937903843B9105AD
:1009800030F08C549F4F90937A0380937903209199
:10099000790330917A0380917B0390917C038217D5
:1009A000930720F430937C0320937B03E0908F0324
:1009B00020918D0330918E0300919003109191034B
:1009C000C0E0D0E06F2C77245AEE452E51E0552E32
:1009D000992493944CE0342E88248A94CCC0C190FE
:1009E000D190F0937701E0937601E255F34020F047
:1009F0005092770140927601C601821B930B309191
:100A0000E8013F3F09F454C0E394E0FEB1C0800F19
:100A1000911F20917301222331F1233388F010922A
:100A200073018091E9018B3018F08092E8019FC03A
:100A30003B3018F09092E8019AC01092E80197C0FC
:100A40008436910530F48091E9018F5F8093E9014C
:100A500006C08054964018F43F5F3093E8012F5F42
:100A60002093730184C0332319F4019696958795DA
:100A7000F9E0853C9F0728F0109272011092E7017F
:100A800076C022E08D3B920780F0209172012C30DD
:100A900060F4E22FF0E0EE0FFF1FE553FE4F91836D
:100AA00080832F5F2093720162C0309272015FC019
:100AB0000A9664E170E00E9456156B3018F00E94AF
:100AC000890255C080917003882319F46150909277
:100AD0007003F0906F03AF2DB0E050916E03209142
:100AE00070033091720370915203409171032DC0D5
:100AF0003F0D822F90E00197FD0102C0EE0FFF1F16
:100B00008A95E2F75E2B2F5F2C3021F02A30E0F03F
:100B10004831D0F0E42FF0E0EB5AFC4F50833170B5
:100B2000730F4F5F493168F010926E03109270039B
:100B30001092720370935203409371030E948902D2
:100B400010C050E020E030E06150662389F65093F9
:100B50006E0320937003309372037093520340939B
:100B6000710380916F03F92DF81BF0936F03C80197
:100B7000219696018C01E0917601F0917701EA15BA
:100B8000FB0521F0C615D70508F429CFE0928F03A5
:100B900030938E0320938D03109391030093900361
:100BA000DF91CF911F910F91FF90EF90DF90CF9049
:100BB000BF90AF909F908F907F906F905F904F907D
:100BC0003F90089560917A01662369F080917B01DE
:100BD000882319F08091BE01680F89E00E94880384
:100BE0008CE00E9464048091BC018F5F8093BC0103
:100BF000883010F01092BC01E091BC01F0E0E258A6
:100C0000FE4F89E760810E948803089587E061E0D4
:100C10000E94880383E00E94A10380938B038CE0F1
:100C20000E94640484E00E94A10380938C0387E007
:100C300060E00E948803089583E00E94A1038093EE
:100C40008B0384E00E94A10380938C038CE00E94BC
:100C5000640487E061E00E948803089587E061E012
:100C60000E9488038EE764E20E9488038CE00E9461
:100C7000640488E063E00E94880388E060E00E94EA
:100C800088038CE00E94640487E065E00E9488038A
:100C900085E062E00E9488038CE00E94640483E0A7
:100CA0000E94A10380938B0384E00E94A1038093A0
:100CB0008C0308952F923F924F925F926F927F9292
:100CC0008F929F92AF92BF92CF92DF92EF92FF925C
:100CD0000F931F93CF93DF930E941C0688E063E07D
:100CE0000E94880388E060E00E948803E09186010A
:100CF0008E2F81508D30C8F4F894F0E0EE0FFF1F76
:100D0000E753FE4FC080D180789424E1C21625E0DD
:100D1000D20658F034EAC31636E0D30618F06091D4
:100D2000890105C06091880102C0609187016770E8
:100D30004091BF014F5F4093BF0150E028E030E099
:100D4000261B3109C901880F991F820F931F841731
:100D500095071CF41092BF015D9A685F8DE60E94B2
:100D60008803609179016093AC018FE70E9488034A
:100D700085E064E00E94880383E00E94A1038093E1
:100D80008B0384E00E94A10380938C0303C081E065
:100D90000E9464040E94CB0F2091C7013091C801CA
:100DA0004091C9015091CA01621B730B840B950BD2
:100DB00066577A478040904050F387E069E00E9490
:100DC00088038091C7019091C801A091C901B09199
:100DD000CA01845F9448AF4FBF4F8093C70190937F
:100DE000C801A093C901B093CA010E94CB0F3B0177
:100DF0004C01BB24B394AA24A39441E0442E512C6B
:100E000032E0232E312CEAC00E94CB0F66197709FD
:100E100088099909E616F7060807190708F0F0C0CF
:100E200031E0B31609F043C0C60196958795582F57
:100E3000ABECB1E0EEEAF1E060E010E020E030E0A1
:100E4000E601C170D070422F8D919C91119773E093
:100E50008C3D970788F077E08C3D970728F48C5DF0
:100E600093408050924040F0C201042E02C0880F8F
:100E7000991F0A94E2F7682B5083273049F0209796
:100E800039F0C10102C0880F991F4A95E2F7182B6B
:100E90002F5F3F4F1296319628303105A1F66093AF
:100EA000AD018FE70E9488031093BB0196C08DE0CF
:100EB0008B1508F46AC02EEFB20EEB2DF0E032E095
:100EC000B30EEE0FFF1FE553FE4F8081918173E05B
:100ED0008C3D970718F4CC24DD240FC027E08C3D0F
:100EE000920728F08FEFC82E83E0D82E06C004E2C8
:100EF000C02E0CEFD02EC80ED91E39E03B15B8F12C
:100F0000229792010C2E02C0220F331F0A94E2F79F
:100F10002296522F70E0C71672E0D70610F0422FCB
:100F200001C040E0852F90E02091AD0130E08223A8
:100F30009323242F30E08217930711F5FE01E45527
:100F4000FE4FC60196958795808389E0B816C1F05B
:100F5000952F990FC0FE04C08091BB01982B04C04F
:100F600090958091BB0198239093BB0109C0FE012D
:100F7000E455FE4FC6019695879596958795808393
:100F8000C455DE4F8FE7688126C02EE0B216D1F43B
:100F9000EEEAF1E060E08081682720E0862F90E0B3
:100FA000BC017595679580FF02C03CE863272F5F01
:100FB0002830A1F7319671E0EA3BF70761F76083CB
:100FC0008FE709C08091C201823011F4A092BB0169
:100FD0008FE76091BB010E948803B394CB2DD0E0D2
:100FE0002FE134E0C29FC001C39F900DD29F900DAE
:100FF0001124825C974F7C010027F7FC0095102F8D
:101000004A9B2FC00E94CB0F66197709880999095E
:10101000675B78488040904020F58CE00E94640433
:101020007FE07B1568F3F0CE84E294E060E071E04D
:101030000E94241501C05D980E941C06DF91CF918B
:101040001F910F91FF90EF90DF90CF90BF90AF90E6
:101050009F908F907F906F905F904F903F902F90D8
:1010600008954A9BE8CFE0CF1F93182F8A3038F4B9
:1010700084E294E069E071E00E94211507C08436A3
:1010800028F484E294E060E20E94F01284E294E0AA
:10109000612F4AE050E00E947F1484E294E060E215
:1010A0000E94F0121F9108951F938091C0019091AA
:1010B000C101805A9F4020F01092C1011092C001DE
:1010C0000E94FA02882339F520917F033091800332
:1010D000809153039091540328173907E1F49091BC
:1010E00084038091E7019817B1F420917D0330913A
:1010F0007E038091C0019091C1012817390759F4EE
:10110000209181033091820380917B0390917C0335
:101110002817390719F18091C0019091C10190936E
:101120007E0380937D0380915303909154039093A9
:10113000800380937F038091BD018093850380911C
:10114000E7018093840380917B0390917C039093CB
:1011500082038093810381E080938A0380918A03D4
:10116000823009F469C0833038F4882309F402C15D
:10117000813009F02EC107C0833009F486C0843065
:1011800009F027C1DDC084E294E06CE071E00E94C8
:1011900021158091E7018F3F29F484E294E06EE00D
:1011A00071E043C0863028F084E294E06DE171E0A4
:1011B0003CC080918303882391F4EBECF1E020E0C4
:1011C00080819181892B09F02F5F329681E0E33E87
:1011D000F807B1F7209383038CE00E9464048091A8
:1011E000E8018F3F29F484E294E069E271E01DC0D8
:1011F000882331F084E294E064E371E00E942115D9
:1012000084E294E06DE371E00E9421158CE00E947D
:10121000640484E294E0609183034AE050E00E9419
:101220007F1484E294E061E471E00E9421158CE077
:101230000E94640482E026C084E294E068E471E0E5
:101240000E94211560918503772767FD709584E2E0
:1012500094E04AE050E00E94EF1484E294E06CE4F1
:1012600071E00E9421156091BE01772767FD70959E
:1012700084E294E04AE050E00E94EF148CE00E9487
:10128000640483E080938A03A4C080917D0181FF80
:1012900055C084E294E061E571E00E9421156091FF
:1012A0007D0370917E0384E294E04AE050E00E9466
:1012B0006E148CE00E94640484E294E065E571E0C1
:1012C0000E942115609177037091780315E076955F
:1012D00067951A95E1F784E294E04AE050E00E94B5
:1012E0006E148CE00E9464048091E8018F3F31F518
:1012F00084E294E069E571E00E9421156091810328
:101300007091820384E294E04AE050E00E946E14FF
:101310008CE00E94640484E294E06DE571E00E9438
:10132000211560917F037091800384E294E04AE08C
:1013300050E00E946E148CE00E94640484E0A2CF0E
:1013400080917D0180FF0DC010E084E294E061E6B1
:1013500071E00E94211586E00E9464041F5F18302E
:10136000A1F784E294E00E94BF13109289031092C7
:101370008A032FC080917D0180FF2BC08091830361
:10138000833038F1E0918903F0E0EE0FFF1FE55361
:10139000FE4F6081718184E294E04AE050E00E9457
:1013A0006E148CE00E94640484E294E060E20E9487
:1013B000F012809189038F5F80938903909183035A
:1013C000891738F084E294E06DE00E94F0121092E8
:1013D00089031F9108951F93CF93DF93EC01162F7C
:1013E000FE0121966491662329F084E294E00E9434
:1013F000F012F6CF112321F084E294E00E94BF1393
:10140000DF91CF911F91089584E294E00E948612AB
:101410001816190614F020E01AC084E294E00E9425
:10142000B7128336910519F08334910541F4109277
:10143000C1011092C00110927C0310927B038D3683
:10144000910521F020E08D34910509F421E0822FEF
:101450000895EF92FF920F931F93CF93DF937C0138
:10146000FC01108200E010E0A89584E294E00E9464
:1014700086121816190694F584E294E00E94B712B9
:10148000EC011816190684F784E294E06C2F0E9490
:10149000F012CD30D10519F0CA30D10559F484E2EB
:1014A00094E00E94BF13DF91CF911F910F91FF90A5
:1014B000EF900895C830D10531F401151105A1F25E
:1014C00001501040D1CFF701E00FF11FC08311820E
:1014D000063011054CF60F5F1F4FC6CF61E070E07C
:1014E00080E090E00E94F10FBFCFEF92FF920F9348
:1014F0001F938C010E94BD0F780100E010E0E60E02
:10150000F71E081F191F03C08CE00E9464040E948C
:10151000BD0F6E157F0580079107B0F31F910F91E6
:10152000FF90EF9008958FE060E80E94880382E0CA
:1015300090E00E94750A81E10E94A103805480938B
:10154000BD0184313CF4992787FD90954E976AE060
:1015500070E008C084325CF0992787FD90958397EE
:1015600065E070E00E946A156093BE0102C01092AF
:10157000BE018CE00E94640408950E941C0682E370
:1015800090E00E94750A0E942E060895AF92BF92C5
:10159000CF92DF92EF92FF920F931F93CF93DF933F
:1015A0005C0101960E9426029C0101978E3F9105E5
:1015B00010F010E01EC0122F82E090E0F501E80F5D
:1015C000F91FE081EE23A9F00196ED3279F48A0D3E
:1015D0009B1D0E9426029C01812F90E08217930799
:1015E00040F42F3F310528F4C22E05C08A30910502
:1015F00029F74EEFC42E0E94A7030E94BD0A87ED73
:1016000090E061E00E94EB09E12EAEC089E76E2D0B
:101610000E9488038DEE92E00E944A100FEFFF2493
:10162000C0E0D0E010E083E690E00E944A1086E23D
:101630000E94A103C80FD11D801708F4082FF816C7
:1016400008F4F82E1F5F173C71F789E08E1538F00B
:1016500084E294E069E071E00E94211508C0E3E6AD
:10166000EE1528F084E294E060E20E94F01284E239
:1016700094E06E2D4AE050E00E947F14EEE7F1E026
:101680006AE380818E1509F463E2319681E0E638E1
:10169000F807B9F784E294E00E94F01284E294E043
:1016A00060E20E94F012802F0E943408CE0167ECA5
:1016B00070E00E945615162F862F0E9434088F2D39
:1016C0000E943408F50180818E3409F047C00A3049
:1016D00010F4DD2408C0083418F03DE3D32E03C015
:1016E00026EFD22ED00EF9E0FF1510F000E007C073
:1016F00087E48F1510F40DE302C00F2D0A501A3045
:1017000010F4FF2408C0183418F09DE3F92E03C02C
:1017100086EFF82EF10E10E01F1521F484E294E01C
:101720006AE217C01D1521F484E294E06CE311C055
:10173000101721F484E294E06EE30BC0D11630F46C
:10174000101720F484E294E06EE203C084E294E097
:1017500060E20E94F0121F5F0117F0F684E294E04D
:101760000E94BF13A895E394CE1408F04FCFDF91E9
:10177000CF911F910F91FF90EF90DF90CF90BF908E
:10178000AF900895462FBC016F5E7F4F82E993E0D2
:101790000E94690F0895DF92EF92FF920F931F93BB
:1017A0008C01D62E472F52E9E52E53E0F52EC701C6
:1017B000B8010E94690F0F5F1F4FC701B8014D2D7F
:1017C0000E94690F1F910F91FF90EF90DF90089595
:1017D000EF92FF920F931F93CF93DF9308E711E0EF
:1017E000EE24FF24C0E0D0E0CE01F80160810E9429
:1017F000C20BF80181918F01E80EF11C2196C630D1
:10180000D10591F7CEE7D1E00BE010E0C801688187
:101810000E94C20B8991E80EF11C0F5F1F4FF1E08F
:10182000C638DF0799F7C6E8D1E003E110E0C80148
:1018300068810E94C20B8991E80EF11C0F5F1F4F57
:1018400081E0CA38D80799F78AE090E0B7010E9492
:10185000CB0BDF91CF911F910F91FF90EF900895E7
:10186000BC016F5E7F4F82E993E00E94620F089592
:10187000FF920F931F93CF93DF93FF24C1E0D0E03B
:101880000F2D10E0F801E657FE4F808190E08C1795
:101890009D0739F584E294E0BE014AE050E00E94E1
:1018A000EF1484E294E06DE30E94F012CE010E94F6
:1018B000300C682F84E294E04AE050E00E947F14EC
:1018C00084E294E069E00E94F01265E0000F111FCD
:1018D0006A95E1F7C80184589E4F61E00E94EB09C8
:1018E000F3942196CB32D10559F6DF91CF911F9118
:1018F0000F91FF90089588E990E061E00E94EB0964
:101900008BEA90E060E00E94EB0984E294E0609151
:1019100070014AE050E00E9491148FEB90E061E08A
:101920000E94EB090E94380C0895DF92EF92FF921B
:101930000F931F938C0172E9E72E73E0F72EC70116
:10194000B8010E94620FD82E0F5F1F4FC701B80168
:101950000E94620F3D2D20E0280F311DC9011F910B
:101960000F91FF90EF90DF9008950F931F93CF9307
:10197000DF9300E010E0C0E0D0E0CE010E94300C28
:10198000FE01E858FE4F8083080F111D2196C630D6
:10199000D10599F7CBE0D0E0CE010E94300CFE01DA
:1019A000ED58FE4F8083080F111D2196C331D105DC
:1019B00099F7C3E1D0E0CE010E94300CFE01ED5852
:1019C000FE4F8083080F111D2196C731D10599F76D
:1019D0008AE090E00E94950C20E08017910709F4BE
:1019E00021E0822FDF91CF911F910F910895CF9227
:1019F000DF92EF92FF920F931F93DF93CF93CDB7B8
:101A0000DEB728970FB6F894DEBF0FBECDBF88EEC5
:101A100090E061E00E94EB098E010F5F1F4FC8014B
:101A20000E94290A8981813709F459C0813509F456
:101A300056C0680183E591E061E00E94EB090E94D5
:101A4000380C82E091E061E00E94EB09C6010E943F
:101A5000290A89818E3611F08E3421F4C6010E9444
:101A6000C60AF4CF8137D9F18135C9F1C6010E9488
:101A700026027C018BE2E816F104E0F6C6010E9422
:101A8000290A8981813759F1813549F1C6010E94BE
:101A900026028C018F3F910509F060F6E114F104F4
:101AA00011F4009739F284E294E0B7014AE050E083
:101AB0000E94EF1484E294E06DE30E94F01284E24D
:101AC00094E0B8014AE050E00E940215C701602F7F
:101AD0000E94C20B0E94B50C0E94E80BABCF289667
:101AE0000FB6F894DEBF0FBECDBFCF91DF911F912F
:101AF0000F91FF90EF90DF90CF9008950F931F9379
:101B0000CF93DF938C01C0E0D0E015C08DE790E06B
:101B10000E94750A5D9A8DE790E00E94750A5D98B3
:101B20000333110538F00E94040A882319F00E943B
:101B3000F70C04C02196C017D10740F3DF91CF9175
:101B40001F910F9108950F931F93CF93DF93E0E0C0
:101B5000F0E000E010E08491080F111D319680E460
:101B6000E030F807C1F79091710180E02091700199
:101B7000EC01C20FD11D86E090E00E94950CC817C1
:101B8000D90769F086E090E0BE010E94CB0B88E0A7
:101B900090E0B8010E94CB0B20E030E00BC088E061
:101BA00090E00E94950C20E030E08017910711F042
:101BB00021E030E0C901DF91CF911F910F9108958D
:101BC0000E94A30D892B49F088E690E061E00E9415
:101BD000EB098FE59AEE0E947E0D0E94B50C8823DA
:101BE00049F483E890E061E00E94EB098FE59AEE0A
:101BF0000E947E0D08958CE060E00E948F108BE0C3
:101C000061E00E948F108DE061E00E948F1082E001
:101C100060E00E948F1084E061E00E948F1080E0FD
:101C200060E00E948F1081E061E00E948F1080E0F0
:101C300061E00E94CE1081E061E00E94CE1086E05B
:101C400061E00E948F1085E061E00E948F108EE0BD
:101C500060E00E948F108EE061E00E94CE1088E06C
:101C600060E00E948F1088E061E00E94CE1084E264
:101C700094E040E056E960E070E00E94FF1181E0EE
:101C8000809373011092E80183E0809380008AE1E1
:101C9000809381008FEF9FEF90938900809388005D
:101CA00080916F00806280936F00E8980E94A70384
:101CB00078945E9A64E670E080E090E00E94F10F14
:101CC000EBECF1E01192119281E0E33EF807D1F7DD
:101CD0005E988FEF8093E7010E942E060895809111
:101CE000C2018130C1F0813018F08230D1F530C0AE
:101CF0008EE00E942211892BA1F581E08093C20120
:101D00000E94BD0F6093C3017093C4018093C5010D
:101D10009093C60108958EE00E942211892BE9F468
:101D20000E94BD0F2091C3013091C4014091C501B3
:101D30005091C601621B730B840B950B655F71405C
:101D40008040904070F082E08093C2015D9A0895D7
:101D50008EE00E942211892B19F01092C201089581
:101D60005D9A0895EF92FF920F931F930E947B0C50
:101D70000E94E00D2EE088E190E00FB6F894A8955F
:101D8000809360000FBE209360001092C1011092FA
:101D9000C00110927C0310927B030E94930A0E9460
:101DA0002E0683E690E00E94750A0E94CB0F609396
:101DB000C7017093C8018093C9019093CA018CE058
:101DC0000E946404A8950E94040A882361F00E947E
:101DD000F70C0E94CB0F6093C7017093C8018093EA
:101DE000C9019093CA018CE00E94A1038823B1F439
:101DF00084E294E066E671E00E9424155D9A0E94F8
:101E0000A7030E942E061092C1011092C0011092E9
:101E10007C0310927B0389EF90E051C08CE00E941C
:101E200064040E94CB0F7B018C010E943003982F29
:101E30008823A1F18091E701873080F50E946F0E21
:101E40008091C7019091C8019701281B390BC901E6
:101E500031E78734930708F4B2CF885E904880F06A
:101E600084EF94E8AFEFBFEFE80EF91E0A1F1B1FC7
:101E7000E092C701F092C8010093C9011093CA0112
:101E80000E94E2050E945A060E94930A8091E7018F
:101E90008F5F8093E7010E94540891CF8091E70102
:101EA0008F3F39F0863018F4992309F088CF0E94CB
:101EB00006060E94930A0E94540883E690E00E945E
:101EC000750A7DCFF999FECF72BD61BDF89A80B5D4
:101ED0000895F999FECF1FBA72BD61BD40BD0FB61E
:101EE000F894FA9AF99A0FBE08951F920F920FB6BE
:101EF0000F9211242F933F938F939F93AF93BF9390
:101F00008091970390919803A0919903B0919A03BF
:101F100030919B030196A11DB11D232F2D5F2D37FD
:101F200020F02D570196A11DB11D20939B03809396
:101F3000970390939803A0939903B0939A03809189
:101F4000930390919403A0919503B0919603019609
:101F5000A11DB11D8093930390939403A0939503C7
:101F6000B0939603BF91AF919F918F913F912F9125
:101F70000F900FBE0F901F9018958FB7F894209177
:101F80009703309198034091990350919A038FBF22
:101F9000B901CA0108959FB7F89420919303309135
:101FA0009403409195035091960386B5A89B06C073
:101FB0008F3F21F02F5F3F4F4F4F5F4F9FBF542FF9
:101FC000432F322F2227280F311D411D511D82E042
:101FD000220F331F441F551F8A95D1F7B901CA013B
:101FE00008959B01AC017FB7F89480919303909181
:101FF0009403A0919503B091960366B5A89B05C084
:102000006F3F19F00196A11DB11D7FBFBA2FA92FF7
:10201000982F8827860F911DA11DB11D62E0880FA2
:10202000991FAA1FBB1F6A95D1F7BC012DC0FFB72E
:10203000F8948091930390919403A0919503B091AB
:102040009603E6B5A89B05C0EF3F19F00196A11DC8
:10205000B11DFFBFBA2FA92F982F88278E0F911D72
:10206000A11DB11DE2E0880F991FAA1FBB1FEA95B1
:10207000D1F7861B970B885E9340C8F22150304001
:102080004040504068517C4F2115310541055105B4
:1020900071F60895019739F0880F991F880F991FDD
:1020A00002970197F1F70895789484B5826084BD12
:1020B00084B5816084BD85B5826085BD85B581604C
:1020C00085BDEEE6F0E0808181608083E1E8F0E0AC
:1020D0001082808182608083808181608083E0E8DB
:1020E000F0E0808181608083E1EBF0E080818460BA
:1020F0008083E0EBF0E0808181608083EAE7F0E0BC
:10210000808184608083808182608083808181601F
:1021100080838081806880831092C1000895CF936E
:10212000DF93482F50E0CA0182539C4FFC01349149
:1021300046545C4FFA018491882369F190E0880F3E
:10214000991FFC01E456FC4FA591B491FC01EA559E
:10215000FC4FC591D491662351F42FB7F8948C911C
:10216000932F909589238C93888189230BC06230AB
:1021700061F42FB7F8948C91932F909589238C93C9
:102180008881832B88832FBF06C09FB7F8948C91DA
:10219000832B8C939FBFDF91CF910895482F50E000
:1021A000CA018E519C4FFC012491CA0182539C4F5D
:1021B000FC01949146545C4FFA013491332309F4A5
:1021C00040C0222351F1233071F0243028F4213013
:1021D000A1F0223011F514C02630B1F02730C1F043
:1021E0002430D9F404C0809180008F7703C080919F
:1021F00080008F7D8093800010C084B58F7702C0EF
:1022000084B58F7D84BD09C08091B0008F7703C0F5
:102210008091B0008F7D8093B000E32FF0E0EE0F4F
:10222000FF1FEA55FC4FA591B4912FB7F894662390
:1022300021F48C919095892302C08C91892B8C93E9
:102240002FBF0895682F70E0CB018E519C4FFC0189
:102250002491CB0182539C4FFC01449166547C4FE6
:10226000FB019491992319F420E030E03CC0222333
:1022700051F1233071F0243028F42130A1F02230C4
:1022800011F514C02630B1F02730C1F02430D9F454
:1022900004C0809180008F7703C0809180008F7D83
:1022A0008093800010C084B58F7702C084B58F7D85
:1022B00084BD09C08091B0008F7703C08091B000C9
:1022C0008F7D8093B000892F90E0880F991F8055F3
:1022D0009C4FFC01A591B4918C9120E030E08423C7
:1022E00011F021E030E0C901089508951F920F9286
:1022F0000FB60F9211242F933F934F938F939F9379
:10230000EF93FF938091C00082FD1DC04091C600F5
:102310002091DC033091DD032F5F3F4F2F7330702E
:102320008091DE039091DF032817390771F0E09167
:10233000DC03F091DD03E456FC4F40833093DD0372
:102340002093DC0302C08091C600FF91EF919F9122
:102350008F914F913F912F910F900FBE0F901F9033
:102360001895E0913004F0913104E05CFF4F8191C9
:10237000919120813181821B930B8F739070892BF7
:1023800011F00E94751108951F920F920FB60F92CF
:1023900011242F933F938F939F93EF93FF9320915B
:1023A0002004309121048091220490912304281765
:1023B000390731F48091C1008F7D8093C10014C032
:1023C000E0912204F0912304E052FC4F208180919F
:1023D00022049091230401968F73907090932304AC
:1023E000809322042093C600FF91EF919F918F91DB
:1023F0003F912F910F900FBE0F901F901895AF92A5
:10240000BF92DF92EF92FF920F931F93CF93DF93D0
:10241000EC017A018B01DD24403081EE580780E029
:10242000680780E0780711F0DD24D39491E0A92EAD
:10243000B12CEC89FD89DD2069F0C50108A002C03E
:10244000880F991F0A94E2F7808360E079E08DE3BA
:1024500090E005C0108260E874E88EE190E0A80189
:1024600097010E947D1521503040404050405695C4
:1024700047953795279580E12030380720F0DD20FB
:1024800011F0DD24D6CFE889F9893083EA89FB8908
:10249000208319A2EE89FF89408121E030E0C90143
:1024A0000C8C02C0880F991F0A94E2F7482B4083D6
:1024B000EE89FF894081C9010D8C02C0880F991FE8
:1024C0000A94E2F7482B4083EE89FF894081C901D5
:1024D0000E8C02C0880F991F0A94E2F7482B4083A4
:1024E000EE89FF8980810F8C02C0220F331F0A946E
:1024F000E2F7209528232083DF91CF911F910F9140
:10250000FF90EF90DF90BF90AF900895DC011C9694
:10251000ED91FC911D97E05CFF4F219131918081FD
:102520009181281B390B2F733070C9010895DC018C
:102530001C96ED91FC911D97E05CFF4F208131814D
:10254000E054F040DF01AE5BBF4F8D919C9111973D
:102550002817390719F42FEF3FEF07C08D919C9191
:10256000E80FF91F8081282F30E0C9010895DC01B0
:102570001C96ED91FC911D97E05CFF4F208131810D
:10258000E054F040DF01AE5BBF4F8D919C911197FD
:102590002817390719F42FEF3FEF10C08D919C9148
:1025A0001197E80FF91F20818D919C911197019649
:1025B0008F73907011969C938E9330E0C9010895AB
:1025C000DC0191968C919197882339F05496ED9186
:1025D000FC915597808186FFF9CF91961C920895C2
:1025E000CF93DF93EC01EE85FF85E05CFF4F208108
:1025F0003181E054F0402F5F3F4F2F733070DF0187
:10260000AE5BBF4F8D919C91119728173907D1F37D
:10261000E05CFF4F80819181E054F040E80FF91FAA
:102620006083EE85FF85E05CFF4F31832083EE8978
:10263000FF89208181E090E00F8C02C0880F991FF4
:102640000A94E2F7282B208381E089A3EC89FD8995
:1026500080818064808381E090E0DF91CF91089554
:10266000109227041092260488EE93E0A0E0B0E0D8
:102670008093280490932904A0932A04B0932B04F8
:102680008FE991E090932504809324048CE993E0F2
:10269000909331048093300480EE93E09093330460
:1026A0008093320485EC90E0909335048093340459
:1026B00084EC90E0909337048093360480EC90E0B3
:1026C000909339048093380481EC90E090933B041C
:1026D00080933A0482EC90E090933D0480933C0414
:1026E00086EC90E090933F0480933E0484E08093D6
:1026F000400483E08093410487E08093420485E0B6
:102700008093430481E0809344040895CF93DF9342
:102710000E9454100E94FB0DC1EBD1E10E94B20E49
:102720002097E1F30E94B111F9CFCF92DF92EF929F
:10273000FF920F931F93CF93DF937C016B018A016C
:10274000C0E0D0E00FC0D6016D916D01D701ED91D1
:10275000FC910190F081E02DC7010995C80FD91FA8
:10276000015010400115110571F7CE01DF91CF9195
:102770001F910F91FF90EF90DF90CF900895EF920F
:10278000FF920F931F938C01DC01ED91FC9101905E
:10279000F081E02D6DE009957C01D801ED91FC916F
:1027A0000190F081E02DC8016AE009959C012E0D91
:1027B0003F1DC9011F910F91FF90EF900895CF9396
:1027C000DF93EC016115710519F420E030E00FC0D2
:1027D000DB010D900020E9F71197A61BB70BE881EC
:1027E000F9810280F381E02DAD0109959C01C901B9
:1027F000DF91CF9108954F925F927F928F929F9237
:10280000AF92BF92CF92DF92EF92FF920F931F93FE
:10281000DF93CF93CDB7DEB7A1970FB6F894DEBFA5
:102820000FBECDBF2C01742ECB01223008F42AE05C
:1028300019A231E2C32ED12CCC0EDD1E822E99249A
:10284000AA24BB24672D752FA50194010E947D1534
:1028500079018A01C801B701A50194010E943715C9
:10286000472D461B0894C108D1084A3014F4405D36
:1028700001C0495CF6014083E114F1040105110532
:1028800021F07E2C5F2DC801DDCFC201B6010E9470
:10289000DF13A1960FB6F894DEBF0FBECDBFCF9168
:1028A000DF911F910F91FF90EF90DF90CF90BF903D
:1028B000AF909F908F907F905F904F900895DC0134
:1028C0002115310541F4ED91FC910190F081E02D4D
:1028D000642F099508950E94FB130895EF92FF92CB
:1028E0000F931F939A017B0100E010E0B801A7014C
:1028F0000E945F141F910F91FF90EF900895EF9247
:10290000FF920F931F939A01E62EFF2400E010E040
:10291000B801A7010E945F141F910F91FF90EF90E3
:102920000895CF92DF92EF92FF920F931F936C0165
:10293000E62E9A01FF2400E010E0B801A7010E94F2
:102940005F148C01C6010E94BF13080F191FC80134
:102950001F910F91FF90EF90DF90CF900895CF924D
:10296000DF92EF92FF920F931F93CF93DF93EC01CF
:102970006A017B012115310541F4E881F98101905B
:10298000F081E02D642F09951FC02A303105D1F464
:1029900077FF17C0E881F9810190F081E02D6DE2A9
:1029A00009958C0144275527BA014C195D096E0918
:1029B0007F09CE012AE00E94FB139801280F391FDE
:1029C00004C02AE00E94FB139C01C901DF91CF9152
:1029D0001F910F91FF90EF90DF90CF900895EF92AD
:1029E000FF920F931F937B019A010027F7FC00953C
:1029F000102FB801A7010E94AF141F910F91FF90F3
:102A0000EF900895CF92DF92EF92FF920F931F9372
:102A10006C017B019A010027F7FC0095102FB8018B
:102A2000A7010E94AF148C01C6010E94BF13080FBA
:102A3000191FC8011F910F91FF90EF90DF90CF9069
:102A400008950E94DF130895EF92FF920F931F9352
:102A50007C010E94DF138C01C7010E94BF13080F85
:102A6000191FC8011F910F91FF90EF900895629F69
:102A7000D001739FF001829FE00DF11D649FE00D76
:102A8000F11D929FF00D839FF00D749FF00D659FD7
:102A9000F00D9927729FB00DE11DF91F639FB00DD6
:102AA000E11DF91FBD01CF0111240895AA1BBB1B15
:102AB00051E107C0AA1FBB1FA617B70710F0A61B3E
:102AC000B70B881F991F5A95A9F780959095BC015F
:102AD000CD01089597FB092E07260AD077FD04D073
:102AE000E5DF06D000201AF4709561957F4F0895B8
:102AF000F6F7909581959F4F0895A1E21A2EAA1B93
:102B0000BB1BFD010DC0AA1FBB1FEE1FFF1FA2179D
:102B1000B307E407F50720F0A21BB30BE40BF50B9A
:102B2000661F771F881F991F1A9469F76095709523
:102B3000809590959B01AC01BD01CF010895EE0FEA
:0E2B4000FF1F0590F491E02D0994F894FFCF4B
:102B4E0054696D656F757421002020000D0057616A
:102B5E006974696E672073746172743A00496E709D
:102B6E007574206C6F73743A0053425553206D6F19
:102B7E0064653A0046757437353075200050504DF7
:102B8E0000206D6F64653A0020543D002054633D73
:102B9E0000204D3D0020413D0020423D0020453D9E
:102BAE0000202020200052464D206C6F636B3F00AA
:102BBE0002010C01EA01EA016348CC0100004D93C9
:102BCE0059A76DBD7FD10800020701020304050B52
:102BDE000C0D0E0F1011121314151600000000F03C
:0C2BEE001295138612B7129712E0120025
:00000001FF
