:100000000C9462000C943A140C9467140C948A00BB
:100010000C948A000C948A000C948A000C948A0038
:100020000C948A000C948A000C948A000C948A0028
:100030000C948A000C949B090C948A000C948A00FE
:100040000C9494140C948A000C94CF160C941D17E5
:100050000C948A000C948A000C948A000C948A00F8
:100060000C948A000C948A000000000024002700F1
:100070002A0000000000250028002B0000000000DE
:1000800023002600290004040404040404040202DA
:100090000202020203030303030301020408102007
:1000A0004080010204081020010204081020000012
:1000B0000007000201000003040600000000000029
:1000C0000000891811241FBECFEFD8E0DEBFCDBFDE
:1000D00015E0A0E0B1E0E0E7F6E302C005900D9284
:1000E000A83CB107D9F717E0A8ECB5E001C01D9214
:1000F000A433B107E1F710E0C4ECD0E004C02297CC
:10010000FE010E94321BC23CD107C9F70E94DF18D2
:100110000C94361B0C940000FC0188279927E89466
:1001200021912032E9F3293010F02E30C8F32B3220
:1001300041F02D3239F4689404C00E94AA00820F65
:10014000911D219120532A30C0F31EF49095819582
:100150009F4F08957AE0979F902D879F802D910D56
:100160001124089580910106813019F482E0809372
:10017000010680910106833019F484E08093010622
:100180000895EF92FF920F931F93CF93DF93DC01BB
:100190001F968C911F9770914C057150FD01C4E121
:1001A000D5E040E050E022E0E22EF12C082F10E0F4
:1001B0008281282F30E0220F331F220F331F642F3C
:1001C0004830F0F4473069F0C701042E02C0880FB0
:1001D000991F0A94E2F780239123892B11F02E5F57
:1001E0003F4F11968C91119790E0042E02C0959587
:1001F00087950A94E2F780FF05C020503C4F02C06B
:10020000220F331F6717C1F4C901805094409C012D
:1002100035952795280F391F8BEF2035380714F4B3
:1002200020E53BEFC90124E0813B920714F080EB0D
:1002300094E09C0120503C4F2454384F299339932B
:100240004F5F5F4F31964C30510509F0B1CFDF91D0
:10025000CF911F910F91FF90EF9008958091140519
:100260009091150590932D0580932C05809116058E
:100270009091170590932F0580932E058091180576
:1002800090911905909331058093300580911A055E
:1002900090911B05909333058093320580911C0546
:1002A00090911D05909335058093340580911E052E
:1002B00090911F0590933705809336058091200516
:1002C00090912105909339058093380580912205FE
:1002D0009091230590933B0580933A0580912405E6
:1002E0009091250590933D0580933C0580912605CE
:1002F0009091270590933F0580933E0580912805B6
:1003000090912905909341058093400580912A059D
:1003100090912B059093430580934205E0915F05F2
:10032000EE2391F0F0E0EE0FFF1FE65DFA4F8091B3
:10033000E4059091E50586509F4F33E0880F991FA3
:100340003A95E1F79183808381E08093E6050895F3
:10035000409A2D98409898E010C087FF07C02D98CC
:1003600000002B9A00002D9A000006C02D98000076
:100370002B9800002D9A0000880F915070F72D984F
:1003800008958F770E94A80108952D9898E010C0D5
:1003900087FF07C02D9800002B9A00002D9A0000BF
:1003A00006C02D9800002B9800002D9A0000880FA1
:1003B000915070F72D9808951F93162F80680E9412
:1003C000A801812F0E94C501409A1F9108951F9393
:1003D000809177068F5F80937706883010F01092B7
:1003E0007706E0917706F0E0EC5AFA4F108189E742
:1003F000612F0E94DC0180916005181730F0809118
:100400006105811710F0479A01C047981092DD05E9
:100410001092DC051092DF051092DE051092E105C6
:100420001092E0051092E3051092E2051F910895E5
:100430002D9880E090E0880F2D9A00001C99816033
:100440002D9800009F5F9830B1F708950E94C10178
:100450000E941802409A089583E00E942602809329
:10046000550684E00E9426028093560686E060E0EE
:100470000E94DC0187E061E00E94DC0160914B0595
:10048000662311F089E002C089E067EC0E94DC017C
:100490008AE065E00E94DC018BE062E10E94DC0101
:1004A0008CE065E10E94DC018DE06BE10E94DC01E3
:1004B0008EE060E00E94DC018FE163E00E94DC01DD
:1004C0008EE16AE00E94DC0182E160E60E94DC01CC
:1004D00083E168EF0E94DC018FE060E80E94DC01AC
:1004E0008DE160E40E94DC018CE166E20E94DC01A7
:1004F00080E264E40E94DC0181E260E00E94DC01B1
:1005000082E262EF0E94DC0183E26CE70E94DC0180
:1005100084E266E00E94DC0185E26DE70E94DC0176
:100520008AE26EE10E94DC0180E36CEA0E94DC0159
:1005300082E36CE80E94DC0183E36AE00E94DC0154
:1005400084E364E00E94DC0185E362E20E94DC0156
:1005500086E36DE20E94DC0187E364ED0E94DC012A
:1005600088E360E00E94DC0189E360E00E94DC0136
:100570008EE360E10E94DC018DE66FE00E94DC0109
:100580008EE66CE30E94DC018FE66FE90E94DC01DD
:1005900089E660E60E94DC0180E76EE20E94DC01F1
:1005A00089E760E00E94DC018AE766E00E94DC01E6
:1005B00081E763E20E94DC0182E76EE00E94DC01D9
:1005C00085E763E50E94DC0186E76CE40E94DC01BC
:1005D00087E760EE0E94DC01089587E061E00E94F9
:1005E000DC018EE764E20E94DC0188E063E00E94A7
:1005F000DC0188E060E00E94DC0187E065E00E94A9
:10060000DC0185E062E00E94DC0183E00E942602BA
:100610008093550684E00E94260280935606089532
:1006200083E00E9426028093550684E00E94260201
:100630008093560687E061E00E94DC01089585E71B
:1006400063E50E94DC0186E76CE40E94DC0187E739
:1006500060EE0E94DC0108950F931F93CF93DF9308
:1006600080917206809357069091150690935806D4
:1006700080910006882321F48091E605882319F4EF
:100680009068909358061092150602E016E026E155
:1006900036E0C9E5D6E0F9013896D8016D917C9134
:1006A0006115710511F441E001C0462FD9018C910B
:1006B000888380819181642F70E00E94CC1A6887C2
:1006C00080899189642F70E00E94CC1A688BD901CF
:1006D0001D929D0111821082118A108AD8011D92EB
:1006E0001D928D0121963296B6E002311B07A9F6C4
:1006F00010927106DF91CF911F910F910895EF92A3
:10070000FF920F931F9380914D05882309F48DC0AC
:10071000E0917106EA3168F5F0E06091470570916B
:1007200048056E0F7F1FE95AF94F8CE796E040812C
:100730000E940B14809171068F5F809371068A313D
:1007400009F04CC080914705909148054A969093D6
:10075000480580934705209145053091460582174D
:100760009307E0F188E590E0909348058093470572
:1007700035C0EA3139F4409148058CE796E06DE0E8
:1007800070E008C0EB3171F48CE796E06CE070E04B
:10079000409147050E940B14809171068F5F8093F2
:1007A00071061CC0EC31D1F48DE18093710680910B
:1007B000120690911306892B41F48CE796E06EE0C7
:1007C00070E0409172060E940B1480911206909185
:1007D0001306019690931306809312062091E70565
:1007E0003091E8054091E9055091EA058091730642
:1007F00090917406A0917506B091760679018A01F0
:10080000E81AF90A0A0B1B0BD801C70180569A4E49
:10081000A040B04050F0209373063093740640938C
:100820007506509376060E942C031F910F91FF903E
:10083000EF9008950F931F93CF93DF9304E115E09A
:10084000C0E4D0E0F80141818CE796E0BE010E944F
:100850000B1421968CE796E0BE01F80140810E94BE
:100860000B140E5F1F4F2196F5E00C321F0751F756
:10087000DF91CF911F910F910895462FBC016F5EBC
:100880007F4F8CE796E00E940B140895DF92EF9261
:10089000FF920F931F938C01D62E472FBCE7EB2EB0
:1008A000B6E0FB2EC701B8010E940B140F5F1F4F6B
:1008B000C701B8014D2D0E940B141F910F91FF909D
:1008C000EF90DF9008956F927F928F929F92AF92F8
:1008D000BF92CF92DF92EF92FF920F931F93CF932D
:1008E000DF9309E415E066247724C0E0D0E0CE0170
:1008F000F80160810E943D04F80181918F01680E2A
:10090000711C2196C530D10591F7C4E5D5E00BE007
:1009100010E0C80168810E943D048991680E711C35
:100920000F5F1F4FF5E0CC35DF0799F7CEE4D5E038
:1009300003E110E0C80168810E943D048991680EBE
:10094000711C0F5F1F4F85E0C435D80799F789E107
:1009500090E0609160050E943D04809060059924BC
:100960008AE190E0609161050E943D04009161057B
:1009700010E08CE190E0609162050E943D04A0903F
:100980006205BB2488E290E060915D050E943D0411
:10099000C0905D05DD2489E290E060915E050E94D3
:1009A0003D04E0905E05FF248AE290E060915F05DF
:1009B0000E943D04080D191D0A0D1B1D0C0D1D1D67
:1009C0000E0D1F1D80915F05080F111D060D171DCF
:1009D0008AE090E0B8010E944604DF91CF911F9118
:1009E0000F91FF90EF90DF90CF90BF90AF909F90CE
:1009F0008F907F906F900895AF92BF92CF92DF92C9
:100A0000EF92FF921F93CF93DF9394E1C92E95E06D
:100A1000D92E80E4E82EF12C18EBA12E1BE0B12E8C
:100A20008CE796E0B7010E940414182FB7016F5F9E
:100A30007F4F8CE796E00E940414D12FC0E09E0106
:100A4000280F311DC901F601318320838C56974050
:100A50008959984018F0F601B182A08222E030E076
:100A6000E20EF31EC20ED31E38E5E316F104C1F602
:100A7000DF91CF911F91FF90EF90DF90CF90BF90CB
:100A8000AF900895BC016F5E7F4F8CE796E00E94A7
:100A900004140895DF92EF92FF920F931F938C013D
:100AA0002CE7E22E26E0F22EC701B8010E940414C2
:100AB000D82E0F5F1F4FC701B8010E9404143D2DAF
:100AC00020E0280F311DC9011F910F91FF90EF9079
:100AD000DF900895EF92FF921F93CF93DF93EE2460
:100AE000FF24C0E0D0E0CE010E944205FE01E75B9A
:100AF000FA4F8083E80EF11C2196C530D10599F795
:100B0000CBE0D0E0CE010E944205FE01E75BFA4F48
:100B10008083E80EF11C2196C331D10599F7C3E11A
:100B2000D0E0CE010E944205FE01E55CFA4F8083D1
:100B3000E80EF11C2196C931D10599F780914F0536
:100B4000883008F062C0863008F060C0823010F44F
:100B500091E002C091E0891B80935005981708F43A
:100B6000891B809351051092520589E190E00E9403
:100B70004205182F809360058AE190E00E944205AB
:100B800080936105C82FD0E0C10FD11DCE0DDF1DB0
:100B90008CE190E00E944205982F8150883020F42B
:100BA00090936205C90FD11D88E290E00E94420532
:100BB000F82E80935D0589E290E00E944205182F8F
:100BC00080935E058AE290E00E94420580935F0573
:100BD00081508C3010F010925F0580915F05C80F36
:100BE000D11DCF0DD11D8AE090E00E944A0520E082
:100BF000C10FD11D8C179D0709F421E0822FDF91D1
:100C0000CF911F91FF90EF90089587E092E0A3CFDE
:100C10000F931F93CF93DF93E0E0F0E000E010E04C
:100C20008491080F111D319680E4E030F807C1F778
:100C30009091130580E020911205EC01C20FD11DA7
:100C400086E090E00E944A05C817D90761F086E067
:100C500090E0BE010E94460488E090E0B8010E9446
:100C6000460420E009C088E090E00E944A0520E0A8
:100C70008017910709F021E0822FDF91CF911F911A
:100C80000F9108951F93182F8A3028F482E197E07E
:100C900060E071E006C0843630F482E197E063E002
:100CA00071E00E94971A82E197E0612F4AE050E0DC
:100CB0000E94F51982E197E063E071E00E94971AC3
:100CC0001F9108959F92AF92BF92CF92DF92EF92C1
:100CD000FF920F931F93CF93DF93833719F020E098
:100CE000833509F421E0A22E8C3619F090E08C3483
:100CF00009F491E0B92E843619F09924843411F462
:100D000099249394222331F4992311F4AA24A394CF
:100D1000BB24B39482E197E065E071E00E94971AEA
:100D200082E197E068E570E04AE050E00E94651AD1
:100D300082E197E066E171E00E94971A60914505B3
:100D40007091460582E197E04AE050E00E94C719A1
:100D500082E197E068E171E00E94971A609147058F
:100D60007091480582E197E04AE050E00E94D8196E
:100D700082E197E060E271E00E94971AAA2031F0C8
:100D800082E197E069E271E00E94971ABB2029F0A6
:100D900082E197E069E571E004C082E197E060EAF2
:100DA00071E00E949A1AC0914705D0914805CC2461
:100DB000FF248E010F5F1F4F8CE796E0BE010E945B
:100DC0000414D82E84E68D1520F4992011F46A9627
:100DD00082C0DF10CC248D2D0E944206C3948C2D3E
:100DE0000E944206AA2089F178010894E11CF11CB6
:100DF0008CE796E0B8010E940414182F8F770E94A8
:100E0000420682E197E063E071E00E94971A812F29
:100E1000881F8827881F0E94420682E197E061EAC6
:100E200071E00E94971AB7012A968B010F5F1F4F3E
:100E30008CE796E00E9404140E944206B8010C1749
:100E40001D0799F7E701289602C0E8012996BB2003
:100E5000C9F182E197E067EA71E00E94971AAA203F
:100E600031F082E197E063E071E00E94971ABE01E1
:100E70008E01085F1F4F7B010894E11CF11C8CE779
:100E800096E00E9404140E944206E016F10611F05A
:100E9000B701F1CF82E197E06BEA71E00E94971A07
:100EA000B80160968B010F5F1F4F8CE796E00E94A0
:100EB00004140E944206B8010C171D0799F7E701B8
:100EC000289601C0609682E197E060EA71E00E9496
:100ED0009A1AA895FD2C8091450590914605C81752
:100EE000D90710F0C8E5D0E08091470590914805FA
:100EF000C817D90709F05DCFDF91CF911F910F91EE
:100F0000FF90EF90DF90CF90BF90AF909F900895AB
:100F10000F931F93CF93DF9311E000E0C02FD0E039
:100F2000FE01EC59FA4F8081811749F582E197E083
:100F3000612F4AE050E00E94F51982E197E060EBF2
:100F400071E00E94971A812F90E00E944205682F5D
:100F500082E197E04AE050E00E94F51982E197E0D3
:100F600062EB71E00E94971ACC0FDD1FC758DA4F71
:100F70006881798182E197E00E949A1A0F5F1F5F72
:100F80001B3261F6DF91CF911F910F9108950F935E
:100F90001F93CF93DF93E2E0F0E081E2809357006C
:100FA0008491843931F488EF91E0909346058093E1
:100FB00045058CE796E06CE070E00E940414082F71
:100FC00010E010934805009347058CE796E06DE02C
:100FD00070E00E940414382F20E0200F311F30935E
:100FE0004805209347052835310538F0809145059F
:100FF0009091460528173907C0F088E590E0909356
:101000004805809347058CE796E06CE070E048E582
:101010000E940B14409148058CE796E06DE070E06B
:101020000E940B141092720616C0C901CE976AE195
:1010300070E00E94CC1A882331F0281B31093093CC
:101040004805209347058CE796E06EE070E00E942B
:10105000041480937206809172068F5F80937206EB
:10106000843610F010927206A6E1B6E0FD013896C3
:10107000C2E0D6E01D9211821082118A108A199264
:101080001992329686E0AE31B807A1F71092150694
:101090008AE18093710610921306109212060E9444
:1010A000DC146093730670937406809375069093B6
:1010B0007606DF91CF911F910F910895CF93DF9323
:1010C00082E197E064EB71E00E94971AC8E5D0E0F6
:1010D00013C08CE796E0BE014FEF0E940B14CE01C7
:1010E0008F779070892B31F482E197E060ED71E0A9
:1010F0000E94971AA89521968091450590914605E2
:10110000C817D90730F388E590E09093480580939D
:101110004705109272068CE796E06CE070E048E5B7
:101120000E940B14409148058CE796E06DE070E05A
:101130000E940B148CE796E06EE070E0409172061E
:101140000E940B140E94C70782E197E062ED71E0F4
:101150000E949A1ADF91CF9108950E94100362E3D2
:1011600070E080E090E00E94EA140E94ED0200002E
:101170000895EF92FF920F931F93CF93DF93EB01AC
:10118000F42E9C01442737FD4095542F60E271EA0C
:1011900087E090E00E94151B89012530310514F489
:1011A00005E010E087E0F82288E0F82A8DE66F2D50
:1011B0000E94DC018EE064E00E94DC016AE070E0E5
:1011C00080E090E00E94EA148EE060E00E94DC0182
:1011D000A895BE01882777FD8095982F20E930EDEE
:1011E00043E050E00E94AD1A9801442737FD409536
:1011F000542F0E94151B7901C0E0D0E009C02B9A42
:10120000C8010E9443152B98C8010E9443152196DE
:10121000CE15DF05A4F3DF91CF911F910F91FF90C1
:10122000EF90089583E00E9426028093550684E0A3
:101230000E9426028093560686E060E00E94DC0150
:1012400087E061E00E94DC0189E060914B050E942B
:10125000DC018AE065E00E94DC018BE062E10E9433
:10126000DC018CE065E10E94DC018DE06AE00E9417
:10127000DC018EE060E00E94DC0180E76CE20E940D
:10128000DC0180E360E00E94DC0189E760914E05AB
:101290000E94DC018AE766E00E94DC0181E762E1EE
:1012A0000E94DC0182E762E00E94DC0183E760E0EB
:1012B0000E94DC0184E760E00E94DC01479861EB5A
:1012C00071E080E090E00E941F0360914F0567701D
:1012D00068608DE60E94DC016AE070E080E090E0EA
:1012E0000E94EA1487E069E00E94DC0188EB91E04B
:1012F00061E070E040914F050E94B9088DE591E0F2
:1013000061E070E0409150050E94B9088FEA90E0DA
:1013100061E070E0409151050E94B90885E091E0DC
:1013200061E070E0409152050E94B90887E061E0F9
:101330000E94DC0108951F920F920FB60F921124A4
:101340002F933F934F935F936F937F938F939F93CD
:10135000AF93BF93CF93DF93EF93FF93809184007C
:10136000909185008097D0F385B1887F85B988B149
:10137000817C88B98BB18F708BB98091E605882309
:1013800019F4C0E4DCE99EC080917B068F5F8093F6
:101390007B0630916305381730F41092D90510920E
:1013A000D80510927B0620917B068091D8059091FC
:1013B000D905231761F434E8803D930718F0C0E79E
:1013C000D7E113C0C0E4DCE9C81BD90B0EC0E22F83
:1013D000F0E0EE0FFF1FE45DFA4FC081D1818C0F6A
:1013E0009D1F9093D9058093D80580917806882316
:1013F00089F5243019F1253058F42130D9F0213005
:10140000B8F0223009F45DC0233009F05BC014C08D
:101410002730D1F0283030F4253091F0263009F013
:1014200051C010C0283091F0293009F04BC010C0D5
:101430002A9A48C0299A46C05F9A44C05E9A42C020
:101440005D9A40C05C9A3EC0459A3CC0449A3AC0FE
:10145000439A38C08AEF90E00E94431580917B0642
:10146000282F30E02C5F3F4F80916205281B310907
:1014700026303105E9F02730310554F424303105A8
:1014800099F02530310594F423303105C1F40AC0B8
:101490002830310589F02830310564F029303105D4
:1014A00071F40CC05F9A0BC05E9A09C05D9A07C0C8
:1014B0005C9A05C0459A03C0449A01C0439AC45F30
:1014C000D140289A80E49CE98C1B9D0B9093850069
:1014D00080938400FF91EF91DF91CF91BF91AF9105
:1014E0009F918F917F916F915F914F913F912F913C
:1014F0000F900FBE0F901F901895AF92BF92CF9292
:10150000DF92EF92FF920F931F93CF93DF935C01D3
:1015100001960E948C009C0101978E3F910510F06E
:1015200010E01EC0122F82E090E0F501E80FF91FD5
:10153000E081EE23A9F00196ED3279F48A0D9B1D2E
:101540000E948C009C01812F90E08217930740F449
:101550002F3F310528F4C22E05C08A30910529F7A6
:10156000FEEFCF2E0E942C020E94AD08479882E128
:1015700097E068ED71E00E949A1AE12EB3C089E706
:101580006E2D0E94DC018DEE92E00E94431510E06A
:101590000FEFFF24C0E0D0E083E690E00E94431507
:1015A00086E20E942602C80FD11D801708F4082F7A
:1015B000F81608F4F82E1F5F173C71F789E08E15B6
:1015C00028F082E197E060E071E007C0E3E6EE1505
:1015D00030F082E197E063E071E00E94971A82E1C7
:1015E00097E06E2D4AE050E00E94F519E4E5F5E041
:1015F0006AE380818E1509F463E2319685E0EC356B
:10160000F807B9F782E197E00E94491882E197E074
:1016100063E071E00E94971A802F0E944206CE017B
:1016200067EC70E00E94CC1A162F862F0E944206AB
:101630008F2D0E944206F50180818E3409F04CC046
:101640000A3010F4DD2408C0083418F0EDE3DE2E73
:1016500003C076EFD72ED00EF9E0FF1510F000E0B2
:1016600007C087E48F1510F40DE302C00F2D0A5058
:101670001A3010F4FF2408C0183418F06DE3F62E69
:1016800003C056EFF52EF10E10E01F1529F482E18C
:1016900097E069EE71E01BC01D1529F482E197E027
:1016A0006BEE71E014C0101729F482E197E06DEE43
:1016B00071E00DC0D11638F4101728F482E197E0DC
:1016C00060ED71E004C082E197E063E071E00E94A8
:1016D000971A1F5F0117C8F682E197E00E94181958
:1016E000A895E394CE1408F04ACFDF91CF911F91D3
:1016F0000F91FF90EF90DF90CF90BF90AF90089543
:10170000EF92FF920F931F93CF93DF937C01FC0125
:10171000108200E010E082E197E00E94DF171816C7
:101720001906DCF582E197E00E94F017469739F43C
:1017300081E7F7018083118210925C0536C082E157
:1017400097E00E941018EC011816190664F582E162
:1017500097E06C2F0E944918CD30D10519F0CA309E
:10176000D10539F482E197E060EA71E00E949A1AAB
:101770001CC0C830D10531F40115110561F20150CA
:101780001040C9CFF701E00FF11FC08311820A306A
:1017900011054CF40F5F1F4F06C061E070E080E060
:1017A00090E00E94EA14A895B6CFDF91CF911F91E7
:1017B0000F91FF90EF900895CF92DF92EF92FF92FA
:1017C0000F931F93DF93CF93CDB7DEB72C970FB650
:1017D000F894DEBF0FBECDBF82E197E06FEE71E0FF
:1017E0000E949A1A8E010F5F1F4FC8010E94800B42
:1017F0008981813709F46BC0813509F468C06801BB
:1018000082E197E069E072E00E949A1A0E948807DC
:1018100082E197E06CE272E00E949A1AC6010E948F
:10182000800B89818E3611F08E3421F4C6010E941E
:101830007D0AF4CF833711F0833549F48A818536E8
:1018400019F40E945E08EACF0E946206E7CF813752
:10185000F1F18135E1F1C6010E948C007C018BE23F
:10186000E816F10468F6C6010E94800B8981813771
:1018700071F1813561F1C6010E948C008C018F3FAE
:10188000910511F008F0BCCFE114F10419F40097B0
:1018900009F4B6CF82E197E0B7014AE050E00E9438
:1018A000651A82E197E060EB71E00E94971A82E18D
:1018B00097E0B8014AE050E00E94781AC701602F13
:1018C0000E943D040E946A050E94630499CF2C96F1
:1018D0000FB6F894DEBF0FBECDBFCF91DF911F9141
:1018E0000F91FF90EF90DF90CF90089582E197E005
:1018F0000E94DF171816190614F020E00CC082E1D0
:1019000097E00E9410188D36910521F020E08D346B
:10191000910509F421E0822F08951F93CF93DF935F
:10192000EC0110E010C06DE770E080E090E00E94F4
:10193000EA14CB30D10568F00E94760C882349F078
:101940000E94DC0B10C0812F90E08C179D0758F38C
:101950000AC0469A6DE770E080E090E00E94EA14C9
:1019600046981F5FF0CFDF91CF911F910895EF92BE
:10197000FF920F931F938091E7059091E805A09146
:10198000E905B091EA052091510630915206409147
:10199000530650915406821B930BA40BB50B44972E
:1019A000A105B10508F45FC082E197E00E94DF174E
:1019B000082F10E0BCE8EB2EFF24F39451C082E125
:1019C00097E00E941018982F80914E06882361F4AA
:1019D000963109F044C090933E06F0924E06109264
:1019E000500610925C053BC0E82FF0E0E25CF94F36
:1019F00090838F5F80934E06803188F110924E065F
:101A0000E0E4F6E090E08081982740E0892F90E0C4
:101A10009C013595279580FF03C09E2D922701C01C
:101A2000922F4F5F483091F7319686E0ED34F807FA
:101A300051F79923A1F48091E7059091E805A091D1
:101A4000E905B091EA058093510690935206A09360
:101A50005306B093540681E08093500604C01F5F84
:101A600010170CF4ACCF1F910F91FF90EF900895D9
:101A70000F931F93CF93DF93853008F5182F110F25
:101A8000C12FD0E0FE01EE0FFF1FED55FA4F008190
:101A9000802F60E00E94E815802F61E00E942716E9
:101AA000183079F482E090E00E944315802F0E9464
:101AB0007B16892BE9F0802F61E00E94E81580E019
:101AC00018C0CC0FDD1FCB55DA4F1881812F61E094
:101AD0000E94271682E090E00E944315802F0E940A
:101AE0007B16019741F7812F60E00E942716DACF1D
:101AF00081E0DF91CF911F910F9108950E94080618
:101B0000882371F080914F06882331F482E197E0B9
:101B100069E772E00E949A1A88E790E00E948D0CB3
:101B200082E00E94380D8823A9F084E090E00E94B2
:101B30008D0C0E94630480914F06882331F482E16A
:101B400097E06FE972E00E949A1A84E090E00E94A8
:101B50008D0C08950E946A05882371F480914F06C8
:101B6000882331F482E197E06BEB72E00E949A1ACD
:101B700088E790E00E948D0C08951F93E82FF62FC0
:101B800040915D05442331F4882311F010E01CC01E
:101B90001FE71AC02091790630917A06C901642F97
:101BA00070E00E94CC1A261B370BFE9FC001112447
:101BB000280F391F30937A0620937906C901642FC4
:101BC00070E00E94CC1A162F83E0612F70E00E9413
:101BD00088151093E4051092E5051F9108955F9212
:101BE0006F927F928F929F92AF92BF92CF92DF922D
:101BF000EF92FF920F931F93CF93DF9380E00E94A9
:101C0000380D80937806882319F08AE08093630565
:101C100084E00E94380D80934F0681E090E00E949E
:101C20008D0C80914F068823C1F482E197E060ED2E
:101C300072E00E949A1A82E197E061EE72E00E94DF
:101C4000971A82E197E0609112054AE050E00E9405
:101C5000071A81E090E00E948D0C0E947E0D0E9488
:101C6000C7070E94FC040E942C0263EB7BE986E01C
:101C700090E00E941F031092E6058EE028E130E01C
:101C80000FB6F894A895209360000FBE8093600073
:101C900080914F06882309F060C082E197E063EFEE
:101CA00072E00E94971A82E197E0609149054AE04C
:101CB00050E00E94071A0E94880782E197E068EFCF
:101CC00072E00E94971A84E00E942602682F70E05A
:101CD0006170707082E197E04AE050E00E94781AEB
:101CE00082E197E06DEF72E00E949A1A80E00E9414
:101CF0002602682F82E197E04AE050E00E94071A2E
:101D000081E00E942602682F82E197E04AE050E0DD
:101D10000E94071A82E00E942602682F82E197E063
:101D20004AE050E00E94071A82E197E063E073E026
:101D30000E94971A81E10E942602682F70E0605489
:101D4000704082E197E04AE050E00E94781A82E118
:101D500097E066E073E00E949A1A772477EC972E5A
:101D60006CE8562E81E0809344050E94ED020E94AB
:101D7000AD08789483E0809301060E94DC146093A0
:101D8000E7057093E8058093E9059093EA05609371
:101D9000EB057093EC058093ED059093EE05609351
:101DA000EF057093F0058093F1059093F205609331
:101DB000F3057093F4058093F5059093F605AA2436
:101DC000BB24882466246394A8958CE00E94260294
:101DD000882371F40E942C020E94AD0880914F0666
:101DE000882331F482E197E069E273E00E949A1A55
:101DF0000E94DC149B01AC016093E7057093E80539
:101E00008093E9059093EA058091F3059091F4059C
:101E1000A091F505B091F60569017A01C81AD90AB1
:101E2000EA0AFB0A80915C058823C1F08091EB05EA
:101E30009091EC05A091ED05B091EE05281B390BB2
:101E40004A0B5B0B2F5037424040504038F40E9401
:101E5000760C882329F00E94DC0B1DC00E94B70C71
:101E600080914B058823C9F582E197E00E94DF1736
:101E70001816190694F582E197E00E9410188D302B
:101E800069F490924B050E94630482E197E060E35D
:101E900073E00E949A1A0E942C0264CF8E3321F0C4
:101EA0008E3211F08E3E11F4939408C08C3329F0D9
:101EB0008C3219F0813A09F087CF9A94992011F465
:101EC00099249A9489E0692D0E94DC0182E197E0CF
:101ED000692D4AE050E00E94071A8091E705909131
:101EE000E805A091E905B091EA052091EF05309150
:101EF000F0054091F1055091F205821B930BA40B64
:101F0000B50B88559240A040B04090F180910006FA
:101F1000882371F58091E605882351F180914F0661
:101F2000882331F482E197E067E373E00E949A1A14
:101F3000609200068091E7059091E805A091E9057F
:101F4000B091EA058093F7059093F805A093F90501
:101F5000B093FA050E94FC040E942E01469880E08E
:101F600068E00E94BD0D809115068F5F8093150675
:101F70008091E7059091E805A091E905B091EA0507
:101F80002091FB053091FC054091FD055091FE0527
:101F9000821B930BA40BB50B885B9B40A040B04009
:101FA00010F06092440587E0C816D104E104F10402
:101FB000D4F48BE291E00E9443150091E00510916A
:101FC000E10586E20E942602080F111D1093E1052B
:101FD0000093E0058091E2059091E30501969093CE
:101FE000E3058093E20580914405882319F02FEFE3
:101FF00030E02EC0D701C6010A97A109B10909979F
:10200000A105B105D8F483EF91E00E94431500913A
:10201000DC051091DD0586E20E942602080F111DE5
:102020001093DD050093DC058091DE059091DF05BE
:1020300001969093DF058093DE0508C027E1C21664
:10204000D104E104F10414F40E947F0323E230E0A0
:10205000C901AA2797FDA095BA2FC816D906EA0686
:10206000FB060CF4ACC080914405882319F58091DF
:102070000006882309F4469A809177062091F3059B
:102080003091F4054091F5055091F60580FF05C0AB
:10209000205E3F4F4F4F5F4F04C0215E3F4F4F4F79
:1020A0005F4F2093F3053093F4054093F50550936B
:1020B000F60510C08091E7059091E805A091E9052B
:1020C000B091EA058093F3059093F405A093F5058C
:1020D000B093F6056091440587E0689FB001112434
:1020E0006F5F80E00E94BD0D80914F06882309F04C
:1020F0005CC082E197E06DE373E00E94971A609103
:10210000DA057091DB056F5F7F4F7093DB0560939D
:10211000DA0582E197E04AE050E00E94C719609139
:10212000E2057091E3056115710551F08091E005BC
:102130009091E1050E94CC1A7093E1056093E0054F
:1021400082E197E061E473E00E94971A60911206C1
:102150007091130682E197E04AE050E00E94C719AF
:1021600082E197E065E473E00E94971A6091770638
:1021700070E06F5F7F4F82E197E04AE050E00E949D
:10218000651A82E197E069E473E00E94971A609112
:10219000E0057091E10582E197E04AE050E00E949D
:1021A000C71982E197E00E941819E0917706F0E0E4
:1021B000EC5EF94F82818F5F82830E94E7018091FC
:1021C0000106843009F0E7C1469888B188B98FE7E5
:1021D0000E94C101C8ECD5E00E941802899385E0F5
:1021E000C83DD807C9F70E94ED02FE013E9790E076
:1021F0008081982740E0892F90E09C0135952795B4
:1022000080FF03C0952D922701C0922F4F5F483069
:1022100091F7319625E0E73DF20751F7992351F008
:1022200080914F06882309F099C182E197E06EE41E
:1022300073E00FC09091C80580914A05981761F02E
:1022400080914F06882309F089C182E197E063E518
:1022500073E00E949A1A82C1CF010F970E94C100B9
:102260008091D705813089F4772081F480914F06E1
:10227000882331F482E197E069E573E00E949A1ABD
:102280000E941A047724739401C077246091DE05BC
:102290007091DF056115710551F08091DC05909119
:1022A000DD050E94CC1A7093DD056093DC058091FA
:1022B000DC059091DD059093DF058093DE0560914C
:1022C000E2057091E3056115710551F08091E0051B
:1022D0009091E1050E94CC1A7093E1056093E005AE
:1022E0002091E0053091E1058091DC059091DD05BC
:1022F0008217930728F41092DD051092DC0506C0C2
:10230000821B930B9093DD058093DC0580915E0525
:10231000882329F08091DC059091DD0504C080912F
:10232000DE059091DF059093E5058093E4058091AB
:10233000E40561E00E94BD0D8BE20E942602C82FD9
:10234000D0E080914F06882309F04EC082E197E0EB
:102350006EE573E00E94971A6091DE057091DF05CB
:1023600082E197E04AE050E00E94C71982E197E0DD
:1023700061E473E00E94971A60911206709113064F
:1023800082E197E04AE050E00E94C71982E197E0BD
:1023900065E473E00E94971A6091770670E06F5FC2
:1023A0007F4F82E197E04AE050E00E94651A82E1A7
:1023B00097E061E673E00E94971A82E197E0BE0120
:1023C0004AE050E00E94651A82E197E069E473E018
:1023D0000E94971A6091E0057091E10582E197E013
:1023E0004AE050E00E94D819E0917706F0E0EE0F45
:1023F000FF1FDF01A25EB94F8D919C911197209133
:10240000DE053091DF05820F931F8D939C93DF01D2
:10241000A25DB94F8D919C9111972091E00530916B
:10242000E105820F931F8D939C93EE5FF94F80819E
:10243000918101969183808340914B05442309F457
:1024400052C0C038D10514F0C050D140CE014496DE
:10245000899718F020E030E006C09E0184E0220F4A
:10246000331F8A95E1F78394C50160E170E00E9413
:10247000E01AA61AB70AC90160E170E00E94E01AEA
:10248000A60EB71EC501B7FE04C0882799278A1972
:102490009B09813491053CF180E2881520F5C50146
:1024A00060E170E00E94E01AEB01D095C195DF4F2A
:1024B000642F6C0F60934B0589E00E94DC018091D2
:1024C0004F06882369F482E197E065E673E00E9495
:1024D000971A82E197E0BE014AE050E00E94781A24
:1024E000AA24BB248824109200061092FF05809134
:1024F000E7059091E805A091E905B091EA05809380
:10250000EF059093F005A093F105B093F205809349
:10251000F7059093F805A093F905B093FA05809319
:10252000FB059093FC05A093FD05B093FE0510926A
:1025300044051092DB051092DA050E942E0180916D
:102540004F06882359F086E18093C80582E197E021
:1025500068EC75E040E150E00E94EE180E94E7014F
:102560008091E7059091E805A091E905B091EA0511
:102570008093F3059093F405A093F505B093F605C9
:1025800061E070E080E090E00E94EA1483E08093D4
:10259000010688B188B980915006882309F455C096
:1025A0008091FB059091FC05A091FD05B091FE0581
:1025B0008196A11DB11D2091510630915206409186
:1025C00053065091540682179307A407B507E8F500
:1025D0008EE396E00E94C1000E942E0110925006E8
:1025E000109200061092FF058091E7059091E80592
:1025F000A091E905B091EA058093EF059093F0056D
:10260000A093F105B093F2058093F7059093F80538
:10261000A093F905B093FA0580914F06882369F4D9
:1026200082E197E06CE673E00E94971A82E197E0FE
:1026300060EA71E00E949A1A08C082E197E06EE3B6
:1026400076E040E150E00E94EE1880910006882379
:1026500009F4BACB0E947F03E090E705F090E8050B
:102660000091E9051091EA058091F7059091F80530
:10267000A091F905B091FA05E81AF90A0A0B1B0BAB
:10268000609153058091FF05882349F028E8E21600
:1026900023E1F20620E0020720E012077CF470E05C
:1026A00080E090E028EE33E040E050E00E94AD1A78
:1026B0006E157F05800791070CF086CB6092FF05B1
:1026C000809153058F3F61F080914F06882331F44C
:1026D00082E197E061E773E00E949A1A0E94120972
:1026E00080914F06882331F482E197E065E773E03B
:1026F0000E949A1A0E942C020E94ED028091E70526
:102700009091E805A091E905B091EA058093F7055D
:102710009093F805A093F905B093FA0555CB84E1A1
:1027200061E00E94E81585E161E00E94E8158CE017
:1027300060E00E94E8158BE061E00E94E8158DE002
:1027400061E00E94E81582E060E00E94E8158EE0FA
:1027500061E00E94E81580E060E00E94E81581E0F9
:1027600061E00E94E81583E061E00E94E8158AE0DC
:1027700061E00E94E81589E061E00E94E81588E0C8
:1027800061E00E94E81587E061E00E94E81586E0BC
:1027900061E00E94E81585E061E00E94E81584E0B0
:1027A00061E00E94E81583E161E00E94E81582E1A2
:1027B00061E00E94E81581E161E00E94E81582E194
:1027C00097E040E056E960E070E00E945817E1E8C9
:1027D000F0E01082109285001092840080E49CE961
:1027E000909387008093860082E0809380008AE146
:1027F000808381E080936F0080E062EB70E042E0D4
:1028000050E00E9417140895F999FECF72BD61BD82
:10281000F89A80B50895F999FECF1FBA72BD61BDCF
:1028200040BD0FB6F894FA9AF99A0FBE0895823017
:1028300000F5E82FF0E0EE0FFF1FE358F94F71832A
:102840006083882319F08130A1F408C08091690069
:102850008C7F842B80936900E89A089580916900A9
:10286000440F551F440F551F837F842B80936900AD
:10287000E99A08951F920F920FB60F9211242F9389
:102880003F934F935F936F937F938F939F93AF93F8
:10289000BF93EF93FF9380917D0690917E06892BE5
:1028A00029F0E0917D06F0917E060995FF91EF9168
:1028B000BF91AF919F918F917F916F915F914F9158
:1028C0003F912F910F900FBE0F901F9018951F9260
:1028D0000F920FB60F9211242F933F934F935F9354
:1028E0006F937F938F939F93AF93BF93EF93FF93D8
:1028F00080917F0690918006892B29F0E0917F06D8
:10290000F09180060995FF91EF91BF91AF919F9152
:102910008F917F916F915F914F913F912F910F9088
:102920000FBE0F901F9018951F920F920FB60F9227
:1029300011242F933F938F939F93AF93BF938091D5
:10294000850690918606A0918706B0918806309101
:1029500089060196A11DB11D232F2D5F2D3720F073
:102960002D570196A11DB11D2093890680938506E0
:1029700090938606A0938706B0938806809181067F
:1029800090918206A0918306B09184060196A11DC4
:10299000B11D8093810690938206A0938306B09325
:1029A0008406BF91AF919F918F913F912F910F908E
:1029B0000FBE0F901F9018958FB7F8942091850641
:1029C0003091860640918706509188068FBFB901E5
:1029D000CA0108959B01AC017FB7F89480918106EC
:1029E00090918206A0918306B091840666B5A89B5B
:1029F00005C06F3F19F00196A11DB11D7FBFBA2F11
:102A0000A92F982F8827860F911DA11DB11D62E067
:102A1000880F991FAA1FBB1F6A95D1F7BC012DC053
:102A2000FFB7F8948091810690918206A091830669
:102A3000B0918406E6B5A89B05C0EF3F19F001965A
:102A4000A11DB11DFFBFBA2FA92F982F88278E0F68
:102A5000911DA11DB11DE2E0880F991FAA1FBB1F88
:102A6000EA95D1F7861B970B885E9340C8F22150F8
:102A700030404040504068517C4F211531054105A0
:102A8000510571F60895019739F0880F991F880F45
:102A9000991F02970197F1F70895789484B58260A1
:102AA00084BD84B5816084BD85B5826085BD85B5F2
:102AB000816085BDEEE6F0E0808181608083E1E8A1
:102AC000F0E01082808182608083808181608083D9
:102AD000E0E8F0E0808181608083E1EBF0E08081DC
:102AE00084608083E0EBF0E0808181608083EAE7AE
:102AF000F0E0808184608083808182608083808137
:102B0000816080838081806880831092C1000895F5
:102B10001F93CF93DF93182FEB0161E00E94E8151C
:102B2000209709F44AC0CF3FD10509F449C0E12FED
:102B3000F0E0E255FF4F84918330C1F0843028F4F7
:102B4000813051F08230B1F50CC0863019F18730F8
:102B500049F1843079F514C084B5806884BDC7BD5F
:102B600033C084B5806284BDC8BD2EC08091800012
:102B7000806880938000D0938900C093880024C02F
:102B800080918000806280938000D0938B00C093FE
:102B90008A001AC08091B00080688093B000C09312
:102BA000B30012C08091B00080628093B000C093E7
:102BB000B4000AC0C038D1051CF4812F60E002C007
:102BC000812F61E00E942716DF91CF911F91089518
:102BD000CF93DF93482F50E0CA0186569F4FFC01E8
:102BE00034914A575F4FFA018491882369F190E04C
:102BF000880F991FFC01E859FF4FA591B491FC0182
:102C0000EE58FF4FC591D491662351F42FB7F89435
:102C10008C91932F909589238C93888189230BC065
:102C2000623061F42FB7F8948C91932F909589239B
:102C30008C938881832B88832FBF06C09FB7F8941D
:102C40008C91832B8C939FBFDF91CF910895482F58
:102C500050E0CA0182559F4FFC012491CA0186565B
:102C60009F4FFC0194914A575F4FFA0134913323EF
:102C700009F440C0222351F1233071F0243028F4AC
:102C80002130A1F0223011F514C02630B1F02730E8
:102C9000C1F02430D9F404C0809180008F7703C044
:102CA000809180008F7D8093800010C084B58F77E5
:102CB00002C084B58F7D84BD09C08091B0008F773C
:102CC00003C08091B0008F7D8093B000E32FF0E0CF
:102CD000EE0FFF1FEE58FF4FA591B4912FB7F89458
:102CE000662321F48C919095892302C08C91892BC5
:102CF0008C932FBF0895682F70E0CB0182559F4FB2
:102D0000FC012491CB0186569F4FFC0144916A57E8
:102D10007F4FFB019491992319F420E030E03CC0EF
:102D2000222351F1233071F0243028F42130A1F016
:102D3000223011F514C02630B1F02730C1F0243014
:102D4000D9F404C0809180008F7703C08091800007
:102D50008F7D8093800010C084B58F7702C084B5CA
:102D60008F7D84BD09C08091B0008F7703C08091B2
:102D7000B0008F7D8093B000892F90E0880F991F5D
:102D800084589F4FFC01A591B4918C9120E030E0D4
:102D9000842311F021E030E0C901089508951F92C5
:102DA0000F920FB60F9211242F933F934F938F934F
:102DB0009F93EF93FF938091C00082FD1DC04091CF
:102DC000C6002091CA063091CB062F5F3F4F2F736C
:102DD00030708091CC069091CD062817390771F09C
:102DE000E091CA06F091CB06E657F94F4083309345
:102DF000CB062093CA0602C08091C600FF91EF91D6
:102E00009F918F914F913F912F910F900FBE0F90F7
:102E10001F901895E0911E07F0911F07E05CFF4F8F
:102E20008191919120813181821B930B8F739070DE
:102E3000892B11F00E94CE1608951F920F920FB6A3
:102E40000F9211242F933F938F939F93EF93FF93B0
:102E500020910E0730910F07809110079091110774
:102E60002817390731F48091C1008F7D8093C1000C
:102E700014C0E0911007F0911107E253F94F20813F
:102E8000809110079091110701968F739070909325
:102E90001107809310072093C600FF91EF919F9137
:102EA0008F913F912F910F900FBE0F901F9018950B
:102EB000AF92BF92DF92EF92FF920F931F93CF9347
:102EC000DF93EC017A018B01DD24403081EE58075D
:102ED00080E0680780E0780711F0DD24D39491E06A
:102EE000A92EB12CEC89FD89DD2069F0C50108A06F
:102EF00002C0880F991F0A94E2F7808360E079E0AE
:102F00008DE390E005C0108260E874E88EE190E007
:102F1000A80197010E94F31A2150304040405040D0
:102F2000569547953795279580E12030380720F052
:102F3000DD2011F0DD24D6CFE889F9893083EA89D4
:102F4000FB89208319A2EE89FF89408121E030E0CE
:102F5000C9010C8C02C0880F991F0A94E2F7482B14
:102F60004083EE89FF894081C9010D8C02C0880F22
:102F7000991F0A94E2F7482B4083EE89FF8940812C
:102F8000C9010E8C02C0880F991F0A94E2F7482BE2
:102F90004083EE89FF8980810F8C02C0220F331F8E
:102FA0000A94E2F7209528232083DF91CF911F9187
:102FB0000F91FF90EF90DF90BF90AF900895DC01EC
:102FC0001C96ED91FC911D97E05CFF4F2191319192
:102FD00080819181281B390B2F733070C9010895AE
:102FE000DC011C96ED91FC911D97E05CFF4F208168
:102FF0003181E054F040DF01AE5BBF4F8D919C9179
:1030000011972817390719F42FEF3FEF07C08D915B
:103010009C91E80FF91F8081282F30E0C9010895A5
:10302000DC011C96ED91FC911D97E05CFF4F208127
:103030003181E054F040DF01AE5BBF4F8D919C9138
:1030400011972817390719F42FEF3FEF10C08D9112
:103050009C911197E80FF91F20818D919C911197F8
:1030600001968F73907011969C938E9330E0C901F6
:103070000895DC0191968C919197882339F05496AC
:10308000ED91FC915597808186FFF9CF91961C9226
:103090000895CF93DF93EC01EE85FF85E05CFF4F51
:1030A00020813181E054F0402F5F3F4F2F7330700B
:1030B000DF01AE5BBF4F8D919C91119728173907A7
:1030C000D1F3E05CFF4F80819181E054F040E80F44
:1030D000F91F6083EE85FF85E05CFF4F318320831D
:1030E000EE89FF89208181E090E00F8C02C0880F7B
:1030F000991F0A94E2F7282B208381E089A3EC89A9
:10310000FD8980818064808381E090E0DF91CF91B0
:103110000895109215071092140788EE93E0A0E02E
:10312000B0E08093160790931707A0931807B09309
:1031300019078BEB95E090931307809312078AE8A9
:1031400096E090931F0780931E078EEC96E0909375
:1031500021078093200785EC90E0909323078093CC
:10316000220784EC90E0909325078093240780EC5D
:1031700090E0909327078093260781EC90E090934E
:1031800029078093280782EC90E090932B07809387
:103190002A0786EC90E090932D0780932C0784E01B
:1031A00080932E0783E080932F0787E0809330077A
:1031B00085E08093310781E0809332070895CF93B3
:1031C000DF930E944D150E948F13CAE0D7E10E9441
:1031D000EF0D2097E1F30E940A17F9CFCF92DF920B
:1031E000EF92FF920F931F93CF93DF937C016B01BC
:1031F0008A01C0E0D0E00FC0D6016D916D01D7010A
:10320000ED91FC910190F081E02DC7010995C80F67
:10321000D91F015010400115110571F7CE01DF9142
:10322000CF911F910F91FF90EF90DF90CF90089575
:10323000EF92FF920F931F938C01DC01ED91FC91B3
:103240000190F081E02D6DE009957C01D801ED91B0
:10325000FC910190F081E02DC8016AE009959C0184
:103260002E0D3F1DC9011F910F91FF90EF90089502
:10327000CF93DF93EC016115710519F420E030E084
:103280000FC0DB010D900020E9F71197A61BB70BCB
:10329000E881F9810280F381E02DAD0109959C015F
:1032A000C901DF91CF9108954F925F927F928F92E3
:1032B0009F92AF92BF92CF92DF92EF92FF920F93C5
:1032C0001F93DF93CF93CDB7DEB7A1970FB6F894D6
:1032D000DEBF0FBECDBF2C01742ECB01223008F40F
:1032E0002AE019A231E2C32ED12CCC0EDD1E822E93
:1032F0009924AA24BB24672D752FA50194010E944F
:10330000F31A79018A01C801B701A50194010E944D
:10331000AD1A472D461B0894C108D1084A3014F451
:10332000405D01C0495CF6014083E114F1040105F0
:10333000110521F07E2C5F2DC801DDCFC201B60141
:103340000E943819A1960FB6F894DEBF0FBECDBF0C
:10335000CF91DF911F910F91FF90EF90DF90CF9071
:10336000BF90AF909F908F907F905F904F90089507
:10337000DC012115310541F4ED91FC910190F081C2
:10338000E02D642F099508950E9454190895EF9235
:10339000FF920F931F939A017B0100E010E0B801A8
:1033A000A7010E94B8191F910F91FF90EF90089507
:1033B000CF92DF92EF92FF920F931F936C017B01EC
:1033C0009A0100E010E0B801A7010E94B8198C0131
:1033D000C6010E941819080F191FC8011F910F91EB
:1033E000FF90EF90DF90CF900895EF92FF920F93B0
:1033F0001F939A01E62EFF2400E010E0B801A70118
:103400000E94B8191F910F91FF90EF900895CF92ED
:10341000DF92EF92FF920F931F936C01E62E9A01B9
:10342000FF2400E010E0B801A7010E94B8198C0148
:10343000C6010E941819080F191FC8011F910F918A
:10344000FF90EF90DF90CF900895CF92DF92EF92B0
:10345000FF920F931F93CF93DF93EC016A017B01DF
:103460002115310541F4E881F9810190F081E02DC9
:10347000642F09951FC02A303105D1F477FF17C09A
:10348000E881F9810190F081E02D6DE209958C01D0
:1034900044275527BA014C195D096E097F09CE01F1
:1034A0002AE00E9454199801280F391F04C02AE00D
:1034B0000E9454199C01C901DF91CF911F910F9176
:1034C000FF90EF90DF90CF900895EF92FF920F93CF
:1034D0001F937B019A010027F7FC0095102FB8017C
:1034E000A7010E94251A1F910F91FF90EF90089558
:1034F000CF92DF92EF92FF920F931F936C017B01AB
:103500009A010027F7FC0095102FB801A7010E942F
:10351000251A8C01C6010E941819080F191FC8012D
:103520001F910F91FF90EF90DF90CF9008950E9430
:1035300038190895EF92FF920F931F937C010E9418
:1035400038198C01C7010E941819080F191FC801EA
:103550001F910F91FF90EF900895629FD001739F8C
:10356000F001829FE00DF11D649FE00DF11D929F1F
:10357000F00D839FF00D749FF00D659FF00D99275E
:10358000729FB00DE11DF91F639FB00DE11DF91F82
:10359000BD01CF0111240895AA1BBB1B51E107C037
:1035A000AA1FBB1FA617B70710F0A61BB70B881FD3
:1035B000991F5A95A9F780959095BC01CD01089562
:1035C00097FB092E07260AD077FD04D0E5DF06D049
:1035D00000201AF4709561957F4F0895F6F7909545
:1035E00081959F4F0895A1E21A2EAA1BBB1BFD01D6
:1035F0000DC0AA1FBB1FEE1FFF1FA217B307E407D2
:10360000F50720F0A21BB30BE40BF50B661F771F29
:10361000881F991F1A9469F7609570958095909509
:103620009B01AC01BD01CF01089597FB092E052632
:103630000ED057FD04D0D7DF0AD0001C38F45095C7
:103640004095309521953F4F4F4F5F4F0895F6F7C6
:1036500090958095709561957F4F8F4F9F4F0895FE
:10366000EE0FFF1F0590F491E02D0994F894FFCF21
:1036700020200020004C617374207374617469739E
:103680006963733A28002D002920666F726D20004F
:10369000464E2020636E74200046536E20496E46CD
:1036A00053202044726F70733A3120202032202042
:1036B00020332020203420202035202020362020B8
:1036C000203720202038202000525353493A3120FF
:1036D000202032202020332020203420202035209C
:1036E0002020362020203720202038204E6F69737C
:1036F000653A312020203220202033202020342021
:10370000202035202020362020203720202038007F
:103710000020202020200020202000202020200029
:103720003D0009005374617469737469637320699F
:103730006E20454550524F4D2065726173652000E3
:103740002E0020646F6E650046486E3A204D696E0B
:1037500020417672204D6178002A003C003E0054E2
:103760006F20456E746572204D454E552050726530
:10377000737320454E5445520052673D56616C208C
:1037800009436F6D6D656E7473202D2D2D2D2D2DBC
:103790002D2D2D2D2D2D2D2D2D2D2D005479706598
:1037A0002052656720616E642070726573732045D6
:1037B0004E5445522C20747970652056616C7565A5
:1037C00020616E6420707265737320454E544552BB
:1037D0002028713D517569742C2073732F736C2FE1
:1037E00073613D537461742900464C415348204530
:1037F00052524F5221212120576F726B696E672000
:10380000756E7072656469637461626C65210053E2
:10381000657474696E677320726573657420746F64
:103820002064656661756C747321004572726F72F5
:1038300020726561642073657474696E677321001A
:1038400042617963686920736F6674203230313366
:10385000005258204F70656E2054696E79205632A0
:10386000204600532F4E3D004952513D00535441D4
:10387000525400543D004966206E656564206D65B4
:103880006E75202D20707265737320276D27206957
:103890006E203130207365630046694572722100E5
:1038A00046697865642100746F2066730024524C69
:1038B0000020533D0020433D0020526E3D00435206
:1038C00043210042494E4421004653205700523DB7
:1038D0000020413D0046636F72723D002453415405
:1038E00000534F5300496E69740042696E64204E64
:1038F000004672657120436F727200536572766F75
:10390000203135302520737472656368206E756DC3
:103910002028312D31322900537461746973746920
:10392000637320656E61626C6500486F7065204648
:103930003100486F706520463200486F7065204640
:103940003300486F706520463400486F706520462C
:103950003500486F706520463600486F7065204618
:103960003700486F706520463800426561636F6EAE
:103970002046202846463D64697361626C652900D3
:10398000426561636F6E20506D617820286D5774B9
:10399000293A20302D312E323B20312D323B20323E
:1039A0002D333B20332D363B20342D31323B203517
:1039B0002D32353B20362D35303B20372D31303000
:1039C00000426561636F6E20737461727420746964
:1039D0006D652028736563290053415720466D6942
:1039E0006E0053415720466D61780050504D206D58
:1039F0006F6465203173742050574D2063686E6C7E
:103A00002028312D3829205B345D00525353492042
:103A1000747970653A20736F756E642830292F6C45
:103A20006576656C28312D39393A20617665726189
:103A3000676520666163746F722900525353492091
:103A40006D6F64653A206C6576656C2830292F535C
:103A50004E20726174696F283129005253534920F6
:103A60006F7665722050574D20286368206E756D03
:103A70003A312D31322920302D206E6F742075732C
:103A800065000605B80BB80BB80BB80BB80BB80B34
:103A9000B80BB80BB80BB80BB80BB80BB80BB80B0E
:103AA000B80BB80BB80BB80BB80BB80BB80BB80BFE
:103AB000B80BB80B01000458006348CC0001650442
:103AC0000201001E4D9359A76DBD7FD10101000079
:103AD0004BD2040A010203040B0C0D0E0F1011123D
:103AE000131418191A1C28292A7A0381038B03A896
:103AF00003BA03C203CA03D203DA03E203EA03F2FE
:103B000003FA0310045104690472047B049B04CB80
:103B100004EB040A00090008000700060005000481
:103B200000130012001100000000004918EE18DF19
:083B3000171018F017391800F6
:00000001FF
