:100000000C9462000C94E5000C948A000C948A0015
:100010000C948A000C948A000C948A000C948A0038
:100020000C948A000C948A000C94B2000C948A0000
:100030000C948A000C948A000C948A000C948A0018
:100040000C948F0D0C948A000C94900F0C94DE0F7E
:100050000C948A000C948A000C948A000C948A00F8
:100060000C948A000C948A000000000024002700F1
:100070002A0000000000250028002B0000000000DE
:1000800023002600290004040404040404040202DA
:100090000202020203030303030301020408102007
:1000A0004080010204081020010204081020000012
:1000B0000007000201000003040600000000000029
:1000C00000004A1111241FBECFEFD8E0DEBFCDBF24
:1000D00013E0A0E0B1E0E2E8F7E202C005900D9283
:1000E000A83FB107D9F716E0A8EFB3E001C01D9211
:1000F000AF3DB107E1F710E0C4ECD0E004C02297B7
:10010000FE010E94BB13C23CD107C9F70E94A01197
:100110000C94BF130C940000FC0188279927E894E5
:1001200021912032E9F3293010F02E30C8F32B3220
:1001300041F02D3239F4689404C00E94AA00820F65
:10014000911D219120532A30C0F31EF49095819582
:100150009F4F08957AE0979F902D879F802D910D56
:10016000112408951F920F920FB60F9211248F93AE
:100170009F93EF93FF938091860090918700E09189
:100180009F03F091A003918380833296F093A003A4
:10019000E0939F03EE5EF54030F082E394E09093AD
:1001A000A00380939F03809181008A3111F48AE536
:1001B00001C08AE180938100FF91EF919F918F911F
:1001C0000F900FBE0F901F9018951F920F920FB6B1
:1001D0000F9211240F900FBE0F901F901895FF9251
:1001E0000F931F9390910D06993108F453C080919D
:1001F000EE05882309F04EC08091F1058F3009F09B
:1002000049C080910906882309F044C0FF24F39473
:1002100001E0A0E0B0E035C0660F771FEF2DF0E001
:10022000EF50FA4F808190E0202F30E0822393231B
:10023000892B11F0462B572B003819F4F39401E069
:1002400001C0000F1F5F1B3039F7CA01880F991FCB
:100250000596840F951F840F951F840F951F33E01B
:10026000969587953A95E1F780599C4FFD01EE0FE1
:10027000FF1FE95EFB4F918380831196AC30B1057F
:1002800031F010E040E050E061E070E0C7CF109244
:100290002F040BC0992349F08091EF059091F00550
:1002A00001969093F0058093EF051092EE05109261
:1002B0000E0610920D0610920C0610920B0610926C
:1002C0000A061F910F91FF900895209109048091D3
:1002D0001F06821B71F1992787FD909597FF03C038
:1002E000909581959F4F02978CF4609122068091A2
:1002F000200690912106332727FD3095633670F054
:1003000070E00E9484136217730799F0109221061F
:10031000109220061092220681E00895820F931F0A
:1003200090932106809320066F5F6093220680E001
:10033000089580E008958091A703882339F1809182
:1003400030048F3FD1F48091080686958695869576
:10035000809581700895F901EE0FFF1FE95EFB4F54
:1003600080819181865E934078F0808191812F5FBA
:100370003F4F8C5D974040F404C040911D0620E043
:1003800030E0241740F302C080E0089581E0089532
:100390005C9A42985C9898E010C087FF07C042982A
:1003A0000000419A0000429A000006C042980000F6
:1003B00041980000429A0000880F915070F74298CF
:1003C00008958F770E94C8010895429898E010C060
:1003D00087FF07C042980000419A0000429A00003F
:1003E00006C04298000041980000429A0000880F21
:1003F000915070F7429808951F93162F80680E94BD
:10040000C801812F0E94E5015C9A1F9108954298CE
:1004100080E090E0880F429A000030998160429815
:1004200000009F5F9830B1F708950E94E1010E949B
:1004300007025C9A089583E00E94150280932406C7
:1004400084E00E9415028093250686E060E00E9409
:10045000FC0187E061E00E94FC016091A503662336
:1004600011F089E002C089E067EC0E94FC018AE09B
:1004700065E00E94FC018BE062E10E94FC018CE0DF
:1004800065E10E94FC018EE060E00E94FC018FE1CA
:1004900063E00E94FC018EE16AE00E94FC0182E1BF
:1004A00060E60E94FC0183E168EF0E94FC018FE09E
:1004B00060E80E94FC018DE160E40E94FC018CE197
:1004C00066E20E94FC0180E264E40E94FC0181E299
:1004D00060E00E94FC0182E262EF0E94FC0183E284
:1004E0006CE70E94FC0184E266E00E94FC0185E268
:1004F0006DE70E94FC018AE26FE00E94FC0180E34C
:100500006CEA0E94FC0182E36CE80E94FC0183E338
:100510006AE00E94FC0184E364E00E94FC0185E340
:1005200062E20E94FC0186E36DE20E94FC0187E327
:1005300064ED0E94FC0188E360E00E94FC0189E315
:1005400060E00E94FC018EE360E10E94FC018DE608
:1005500068E00E94FC018EE66CE30E94FC018FE6DD
:100560006FE90E94FC0189E660E60E94FC0180E7D9
:100570006EE20E94FC0189E760E00E94FC018AE7CC
:1005800066E00E94FC0181E763E20E94FC0182E7D1
:100590006EE00E94FC0185E763E50E94FC0186E7AE
:1005A0006CE40E94FC0187E760EE0E94FC01089564
:1005B0003F924F925F926F927F928F929F92AF92F3
:1005C000BF92CF92DF92EF92FF920F931F93CF9340
:1005D000DF93F82EF894A0909F03B090A003789436
:1005E0008091A80381FF44C00E94E50D9B01AC01EE
:1005F00080910F0690911006B901681B790B8091CC
:100600000C0490910D048617970720F470930D0445
:1006100060930C0420930F0630931006409311064C
:10062000509312068091A1039091A2039501281B7B
:10063000390BC901959587959093140680931306FD
:100640008E3D910530F082529F4F90931406809317
:10065000130620911306309114068091150690918F
:1006600016068217930720F430931606209315067A
:10067000E09028068091260690912706C0912906D1
:10068000D0912A0600E010E06F2C772462E3462E1A
:1006900064E0562E992493945CE0352E88248A9445
:1006A000DAC0C190D190F093A203E093A103EE5E73
:1006B000F54020F05092A2034092A1039601281B1E
:1006C000390B809130048F3F09F460C0E394E0FE61
:1006D000BEC02C0F3D1F80919E03882371F1809135
:1006E0009E03833398F010929E03809131048B30E7
:1006F00018F080923004AAC0809130048B3018F03A
:1007000090923004A3C010923004A0C0243631056A
:1007100030F4809131048F5F8093310408C02C5DE8
:10072000354028F4809130048F5F809330048091AD
:100730009E038F5F80939E0389C08091300488233D
:1007400021F42F5F3F4F3695279599E0253C3907D7
:1007500028F010929D0310922F0478C0E2E02D3B08
:100760003E0708F49FC080919D038C3008F09AC02A
:1007700080919D03E82FF0E0EE0FFF1FE95EFB4F35
:10078000318320838F5F80939D0360C0C9010A96E7
:1007900064E170E00E9470136B3018F00E94EF006B
:1007A00055C080910C06882319F4615090920C0674
:1007B000F0900B06AF2DB0E050910A0620910C0688
:1007C00030910E067091EE0540910D062DC03F0D43
:1007D000822F90E00197FD0102C0EE0FFF1F8A9566
:1007E000E2F75E2B2F5F2C3021F02A30E0F0483109
:1007F000D0F0E42FF0E0EF50FA4F50833170730FD8
:100800004F5F493168F010920A0610920C06109260
:100810000E067093EE0540930D060E94EF0010C087
:1008200050E020E030E06150662389F650930A06DC
:1008300020930C0630930E067093EE0540930D0640
:1008400080910B06F92DF81BF0930B069E010F5FAC
:100850001F4FC601E901E091A103F091A203EA153F
:10086000FB0521F00615170508F41BCFE0922806BA
:100870009093270680932606D0932A06C0932906D4
:10088000DF91CF911F910F91FF90EF90DF90CF906C
:10089000BF90AF909F908F907F906F905F904F90A0
:1008A0003F90089530929D03D1CF6091A5036623B8
:1008B00069F08091A603882319F080910A04680FDB
:1008C00089E00E94FC0188E00E94D802809108041F
:1008D0008F5F80930804883010F010920804E09134
:1008E0000804F0E0E755FC4F89E760810E94FC01B5
:1008F000089587E061E00E94FC0183E00E941502F8
:100900008093240688E00E94D80284E00E941502A9
:100910008093250687E060E00E94FC01089583E053
:100920000E9415028093240684E00E9415028093A1
:10093000250688E00E94D80287E061E00E94FC0161
:10094000089587E061E00E94FC018EE764E20E9466
:10095000FC0188E00E94D80288E063E00E94FC016C
:1009600088E060E00E94FC0188E00E94D80287E0F5
:1009700065E00E94FC0185E062E00E94FC0188E0E5
:100980000E94D80283E00E9415028093240684E02E
:100990000E9415028093250608952F923F924F9250
:1009A0005F926F927F928F929F92AF92BF92CF92FF
:1009B000DF92EF92FF920F931F93CF93DF930E94EA
:1009C0008F0488E063E00E94FC0188E060E00E9400
:1009D000FC01E091B1038E2F81508C30C8F4F89463
:1009E000F0E0EE0FFF1FEB5EFB4FC080D1807894EC
:1009F00024E1C21625E0D20658F034EAC31636E0E8
:100A0000D30618F06091B40305C06091B30302C02F
:100A10006091B203677060930B04685F8DE60E947B
:100A2000FC016091A4036093F8038FE70E94FC012E
:100A300085E064E00E94FC0183E00E94150280933F
:100A4000240684E00E9415028093250603C081E0FD
:100A50000E94D8020E94E50D2091130430911404E5
:100A60004091150450911604621B730B840B950B77
:100A700066577A478040904050F387E069E00E94D3
:100A8000FC018091130490911404A0911504B0917D
:100A90001604845F9448AF4FBF4F80931304909324
:100AA0001404A0931504B09316040E94E50D3B01B5
:100AB0004C01BB24B3945CE8A52E41E0442E512C9C
:100AC00032E0232E312CECC00E94E50D6619770927
:100AD00088099909E616F7060807190708F0F2C011
:100AE00031E0B31609F046C0C60196958795782F78
:100AF000AAEFB3E060E010E020E030E0A601417032
:100B00005070F901EE0FFF1FE95EFB4F0190F0817D
:100B1000E02D83E0EC3DF80788F087E0EC3DF80736
:100B200028F4EC5DF340E050F24040F0C201022EA8
:100B300002C0880F991F0A94E2F7682B7C93273034
:100B400059F04115510541F0C101022E02C0880F34
:100B5000991F0A94E2F7182B2F5F3F4F1196283008
:100B6000310579F66093F9038FE70E94FC01109339
:100B7000070495C02DE02B1508F46AC03EEFB30EB4
:100B8000EB2DF0E082E0B80EEE0FFF1FE95EFB4FA9
:100B90008081918123E08C3D920718F4CC24DD24E0
:100BA0000FC037E08C3D930728F08FEFC82E83E00D
:100BB000D82E06C004E2C02E0CEFD02EC80ED91ECF
:100BC00089E08B15B8F1229792010C2E02C0220FFA
:100BD000331F0A94E2F72296522F80E0C81682E073
:100BE000D80610F0422F01C040E0852F90E0209100
:100BF000F90330E082239323242F30E082179307F8
:100C000011F5FE01E850FC4FC6019695879580834B
:100C100029E0B216C1F0952F990FC0FE04C0809153
:100C20000704982B04C09095809107049823909313
:100C3000070409C0FE01E850FC4FC6019695879550
:100C4000969587958083C850DC4F8FE7688125C0D3
:100C50003EE0B316C1F4EAEFF3E060E0808168277C
:100C600020E0862F90E0BC017595679580FD6A2590
:100C70002F5F2830B1F7319684E0E630F80771F73E
:100C800060838FE70AC080910E04823019F421E05E
:100C9000209307048FE7609107040E94FC01B3943E
:100CA000CB2DD0E02FE134E0C29FC001C39F900D57
:100CB000D29F900D1124825C974F7C010027F7FC96
:100CC0000095102F4A9B2DC00E94E50D66197709EB
:100CD00088099909675B78488040904010F588E062
:100CE0000E94D8028FE08B1568F3EECE8DEB96E074
:100CF00060E071E00E943E130E948F04DF91CF916B
:100D00001F910F91FF90EF90DF90CF90BF90AF9029
:100D10009F908F907F906F905F904F903F902F901B
:100D200008954A9BE9CFE2CF1F93182F8A3028F409
:100D30008DEB96E06CE071E006C0843630F48DEB0C
:100D400096E06FE071E00E943B138DEB96E0612F1F
:100D50004AE050E00E9499128DEB96E06FE071E05E
:100D60000E943B131F9108950E946501882341F55D
:100D70002091190630911A068091EF059091F005A7
:100D800028173907E9F490912F0480911E068917DE
:100D9000B9F4209117063091180680910C049091B7
:100DA0000D042817390761F420911B0630911C06A9
:100DB00080911506909116062817390709F417C176
:100DC00080910C0490910D0490931806809317065F
:100DD0008091EF059091F00590931A068093190683
:100DE0008091090480931F0680912F0480931E0632
:100DF000809115069091160690931C0680931B0611
:100E000080912F048F3F29F48DEB96E061E171E032
:100E10004CC080912F04863028F08DEB96E060E284
:100E200071E043C080911D068823B9F440E020E0C2
:100E300030E0F901EE0FFF1FE95EFB4F80819181E9
:100E4000892B09F04F5F2F5F3F4F2C30310589F719
:100E500040931D0688E00E94D802809130048F3FA5
:100E600029F48DEB96E06CE271E01FC080913004B4
:100E7000882331F08DEB96E067E371E00E943B132D
:100E80008DEB96E064E471E00E943B1388E00E94E1
:100E9000D8028DEB96E060911D064AE050E00E947A
:100EA00099128DEB96E068E471E00E943B1388E0B4
:100EB0000E94D8028DEB96E06FE471E00E943B1334
:100EC00060911F06772767FD70958DEB96E04AE0ED
:100ED00050E00E9409138DEB96E063E571E00E94FB
:100EE0003B1360910A04772767FD70958DEB96E0C0
:100EF0004AE050E00E94091388E00E94D8028091E5
:100F0000A80381FF3DC08DEB96E068E571E00E948B
:100F10003B1360911706709118068DEB96E04AE03E
:100F200050E00E94881288E00E94D802809130042C
:100F30008F3F31F58DEB96E06CE571E00E943B133D
:100F400060911B0670911C068DEB96E04AE050E024
:100F50000E94881288E00E94D8028DEB96E060E63D
:100F600071E00E943B136091190670911A068DEB97
:100F700096E04AE050E00E94881288E00E94D80281
:100F80008DEB96E064E671E00E943E13109223061A
:100F900081E00895E0912306F0E0EE0FFF1FE95E87
:100FA000FB4F608171818DEB96E04AE050E00E943A
:100FB000881288E00E94D8028DEB96E06FE071E025
:100FC0000E943B13809123068F5F809323069091AC
:100FD0001D06891750F08DEB96E06EE771E00E94D8
:100FE0003B131092230680E0089580E008958091DD
:100FF000A80380FFFACFCECF8DEB96E00E94A01021
:101000001816190614F020E01AC08DEB96E00E9425
:10101000D1108336910519F08334910541F4109273
:101020000D0410920C0410921606109215068D36BF
:10103000910521F020E08D34910509F421E0822F03
:101040000895EF92FF920F931F93CF93DF937C014C
:10105000FC01108200E010E0A8958DEB96E00E9464
:10106000A01018161906ECF58DEB96E00E94D11031
:10107000EC011816190684F78DEB96E06C2F0E9490
:101080000A11CD30D10519F0CA30D105A9F48DEB84
:1010900096E060E871E00E943E1310920D041092F9
:1010A0000C041092160610921506DF91CF911F9135
:1010B0000F91FF90EF900895C830D10531F40115DC
:1010C000110551F201501040C7CFF701E00FF11F99
:1010D000C0831182063011050CF0BECF0F5F1F4F89
:1010E000BBCF61E070E080E090E00E940B0EB4CFD7
:1010F000EF92FF920F931F938C010E94D70D7801FE
:1011000000E010E0E60EF71E081F191F03C088E07C
:101110000E94D8020E94D70D6E157F0580079107A7
:10112000B0F31F910F91FF90EF9008958FE060E86A
:101130000E94FC0182E090E00E94780881E10E9418
:10114000150280548093090484313CF4992787FD6B
:1011500090954E976AE070E008C0843254F0992769
:1011600087FD9095839765E070E00E9484136093FB
:101170000A0488E00E94D80208950E948F0482E346
:1011800090E00E9478080E94A1040895AF92BF9257
:10119000CF92DF92EF92FF920F931F93CF93DF9343
:1011A0005C0101960E948C009C0101978E3F910585
:1011B00010F010E01EC0122F82E090E0F501E80F61
:1011C000F91FE081EE23A9F00196ED3279F48A0D42
:1011D0009B1D0E948C009C01812F90E08217930739
:1011E00040F42F3F310528F4C22E05C08A30910506
:1011F00029F72EEFC22E0E941B020E94BD088DEB24
:1012000096E061E871E00E943E13E12EB3C089E7E9
:101210006E2D0E94FC018DEE92E00E94640E0FEF95
:10122000FF24C0E0D0E010E083E690E00E94640E6E
:1012300086E20E941502C80FD11D801708F4082FFE
:10124000F81608F4F82E1F5F173C71F789E08E1529
:1012500028F08DEB96E06CE071E007C0E3E6EE1558
:1012600030F08DEB96E06FE071E00E943B138DEB68
:1012700096E06E2D4AE050E00E949912E9EAF3E010
:101280006AE380818E1509F463E2319683E0E13BE5
:10129000F807B9F78DEB96E00E940A118DEB96E006
:1012A0006FE071E00E943B13802F0E949406CE01F4
:1012B00067EC70E00E947013162F862F0E94940630
:1012C0008F2D0E949406F50180818E3409F04CC068
:1012D0000A3010F4DD2408C0083418F09DE3D92E3C
:1012E00003C086EFD82ED00EF9E0FF1510F000E015
:1012F00007C087E48F1510F40DE302C00F2D0A50CC
:101300001A3010F4FF2408C0183418F01DE3F12E31
:1013100003C0B6EFFB2EF10E10E01F1529F48DEB84
:1013200096E062E971E01BC01D1529F48DEB96E093
:1013300064E971E014C0101729F48DEB96E066E9BA
:1013400071E00DC0D11638F4101728F48DEB96E03B
:1013500068E971E004C08DEB96E06FE071E00E94F7
:101360003B131F5F0117C8F68DEB96E00E94D91161
:10137000A895E394CE1408F04ACFDF91CF911F9146
:101380000F91FF90EF90DF90CF90BF90AF900895B6
:10139000462FBC016F5E7F4F8BE296E00E94830D6B
:1013A0000895DF92EF92FF920F931F938C01D62E38
:1013B000472F3BE2E32E36E0F32EC701B8010E942F
:1013C000830D0F5F1F4FC701B8014D2D0E94830D84
:1013D0001F910F91FF90EF90DF900895EF92FF9291
:1013E0000F931F93CF93DF9303EA13E0EE24FF24C0
:1013F000C0E0D0E0CE01F80160810E94C809F80188
:1014000081918F01E80EF11C2196C630D10591F72C
:10141000C9EAD3E00BE010E0C80168810E94C80966
:101420008991E80EF11C0F5F1F4FF3E0C13BDF070E
:1014300099F7C1EBD3E003E110E0C80168810E9495
:10144000C8098991E80EF11C0F5F1F4F83E0C53B6F
:10145000D80799F78AE090E0B7010E94D109DF919F
:10146000CF911F910F91FF90EF900895BC016F5E97
:101470007F4F8BE296E00E947C0D0895FF920F93C0
:101480001F93CF93DF93FF2401E010E0CF2DD0E036
:10149000FE01EB54FC4F808190E08017910741F5ED
:1014A0008DEB96E0B8014AE050E00E9409138DEB05
:1014B00096E06AE971E00E943B13C8010E94360A77
:1014C000682F8DEB96E04AE050E00E9499128DEB78
:1014D00096E06CE971E00E943B13CC0FDD1FCA530C
:1014E000DC4F688179818DEB96E00E943E13F39486
:1014F0000F5F1F4F0B32110549F6DF91CF911F91FE
:101500000F91FF900895DF92EF92FF920F931F9338
:101510008C015BE2E52E56E0F52EC701B8010E9472
:101520007C0DD82E0F5F1F4FC701B8010E947C0DA4
:101530003D2D20E0280F311DC9011F910F91FF9013
:10154000EF90DF9008950F931F93CF93DF9300E008
:1015500010E0C0E0D0E0CE010E94360AFE01ED5559
:10156000FC4F8083080F111D2196C630D10599F7D5
:10157000CBE0D0E0CE010E94360AFE01E256FC4FDD
:101580008083080F111D2196C331D10599F7C3E15E
:10159000D0E0CE010E94360AFE01E256FC4F808365
:1015A000080F111D2196C731D10599F78AE090E007
:1015B0000E94830A20E08017910709F421E0822F1E
:1015C000DF91CF911F910F910895CF92DF92EF920B
:1015D000FF920F931F93DF93CF93CDB7DEB728977A
:1015E0000FB6F894DEBF0FBECDBF8DEB96E06EE96F
:1015F00071E00E943E138E010F5F1F4FC8010E94D1
:1016000021088981813709F45CC0813509F459C00A
:1016100068018DEB96E068EB71E00E943E130E943A
:101620003E0A8DEB96E06BED71E00E943E13C60121
:101630000E94210889818E3611F08E3421F4C60172
:101640000E94C608F4CF8137E1F18135D1F1C6019E
:101650000E948C007C018BE2E816F104D0F6C601F2
:101660000E9421088981813761F1813551F1C601DC
:101670000E948C008C018F3F910509F050F6E11417
:10168000F10411F4009729F28DEB96E0B7014AE0DE
:1016900050E00E9409138DEB96E06AE971E00E9428
:1016A0003B138DEB96E0B8014AE050E00E941C131A
:1016B000C701602F0E94C8090E94A30A0E94EE0978
:1016C000A8CF28960FB6F894DEBF0FBECDBFCF913E
:1016D000DF911F910F91FF90EF90DF90CF900895D1
:1016E0000F931F93CF93DF938C01C0E0D0E015C020
:1016F0008DE790E00E9478082D9A8DE790E00E9497
:1017000078082D980333110538F00E94FC078823D0
:1017100019F00E94E50A04C02196C017D10740F3D2
:10172000DF91CF911F910F9108950F931F93CF9346
:10173000DF93E0E0F0E000E010E08491080F111D7D
:10174000319680E4E030F807C1F790919C0380E087
:1017500020919B03EC01C20FD11D86E090E00E9416
:10176000830AC817D90769F086E090E0BE010E949D
:10177000D10988E090E0B8010E94D10920E030E072
:101780000BC088E090E00E94830A20E030E08017E0
:10179000910711F021E030E0C901DF91CF911F9155
:1017A0000F9108950E94950B892B51F08DEB96E0D7
:1017B0006CE272E00E943E138FE59AEE0E94700B7D
:1017C0000E94A30A882351F48DEB96E062E572E053
:1017D0000E943E138FE59AEE0E94700B08958EE0F2
:1017E00060E00E94A90E8FE061E00E94A90E80E1F6
:1017F00061E00E94A90E82E060E00E94A90E84E0F0
:1018000061E00E94A90E80E060E00E94A90E81E0E4
:1018100061E00E94A90E81E161E00E94A90E8DE0C5
:1018200061E00E94A90E86E060E00E94A90E86E0B9
:1018300061E00E94E80E88E060E00E94A90E88E066
:1018400061E00E94E80E8DEB96E040E056E960E032
:1018500070E00E94191081E080939E031092300482
:1018600083E0809380008AE1809381008FEF9FEF77
:10187000909389008093880080916F0080628093AC
:101880006F00E8980E941B027894439A64E670E027
:1018900080E090E00E940B0E80E090E0FC01EE0FF3
:1018A000FF1FE95EFB4F1182108201968C3091057B
:1018B000A9F743988FEF80932F040E94A104089505
:1018C00080910E048130C1F0813018F08230D1F562
:1018D00030C086E00E943C0F892BA1F581E0809307
:1018E0000E040E94D70D60930F0470931004809330
:1018F000110490931204089586E00E943C0F892BF6
:10190000E9F40E94D70D20910F043091100440910A
:10191000110450911204621B730B840B950B655FCD
:1019200071408040904070F082E080930E042D9AC8
:10193000089586E00E943C0F892B19F010920E0446
:1019400008952D9A0895DF92EF92FF920F931F93BF
:10195000CF93DF930E94E50D7B018C018DEB96E028
:101960000E94D9118DEB96E067E672E00E943E136B
:101970008DEB96E068E772E00E943B138DEB96E0FA
:1019800060919B034AE050E00E94AB128DEB96E021
:101990006AE872E00E943E130E94D20B2EE088E1BA
:1019A00090E00FB6F894A895809360000FBE209346
:1019B000600010920D0410920C0410921606109202
:1019C0001506E0921304F09214040093150410938A
:1019D0001604DD24C8E0D0E088E00E94D802A89573
:1019E0000E94FC07882351F00E94E50AE09213044C
:1019F000F092140400931504109316048CE00E94D6
:101A000015028823A1F48DEB96E062EA72E00E9451
:101A10003E13439A0E941B020E94A1044398109215
:101A20000D0410920C04109216061092150688E010
:101A30000E94D8020E94E50D7B018C010E949B014F
:101A4000982F882309F453C080912F04873008F021
:101A50004EC00E94600C8091130490911404A091D8
:101A60001504B0911604A8019701281B390B4A0BE5
:101A70005B0BDA01C90187549147A040B04008F4DC
:101A8000ABCFD3944D2D50E080910B049E01281BC9
:101A90003109C901880F991F820F931F8417950779
:101AA00014F4DD2402C0DD2009F42D9A0E945504AF
:101AB0000E94CD040E9496082D9880912F048F5F7C
:101AC00080932F040E94B40687CF80912F04863024
:101AD00018F4992309F080CF0E9479040E94960897
:101AE0000E94B4068BE291E00E94780875CF809145
:101AF0002F048F3F51F7F2CFF999FECF72BD61BD30
:101B0000F89A80B50895F999FECF1FBA72BD61BDEC
:101B100040BD0FB6F894FA9AF99A0FBE08951F9235
:101B20000F920FB60F9211242F933F938F939F9391
:101B3000AF93BF938091300690913106A091320609
:101B4000B0913306309134060196A11DB11D232FAB
:101B50002D5F2D3720F02D570196A11DB11D20932B
:101B600034068093300690933106A0933206B093EA
:101B7000330680912C0690912D06A0912E06B091EF
:101B80002F060196A11DB11D80932C0690932D0662
:101B9000A0932E06B0932F06BF91AF919F918F9186
:101BA0003F912F910F900FBE0F901F9018958FB7F8
:101BB000F8942091300630913106409132065091D0
:101BC00033068FBFB901CA0108959FB7F8942091D9
:101BD0002C0630912D0640912E0650912F0686B589
:101BE000A89B06C08F3F21F02F5F3F4F4F4F5F4FA5
:101BF0009FBF542F432F322F2227280F311D411D05
:101C0000511D82E0220F331F441F551F8A95D1F7C3
:101C1000B901CA0108959B01AC017FB7F894809186
:101C20002C0690912D06A0912E06B0912F0666B538
:101C3000A89B05C06F3F19F00196A11DB11D7FBF84
:101C4000BA2FA92F982F8827860F911DA11DB11D8E
:101C500062E0880F991FAA1FBB1F6A95D1F7BC01CC
:101C60002DC0FFB7F89480912C0690912D06A0917D
:101C70002E06B0912F06E6B5A89B05C0EF3F19F0E0
:101C80000196A11DB11DFFBFBA2FA92F982F88273C
:101C90008E0F911DA11DB11DE2E0880F991FAA1F93
:101CA000BB1FEA95D1F7861B970B885E9340C8F25D
:101CB000215030404040504068517C4F2115310543
:101CC0004105510571F60895019739F0880F991F64
:101CD000880F991F02970197F1F70895789484B5BA
:101CE000826084BD84B5816084BD85B5826085BD18
:101CF00085B5816085BDEEE6F0E0808181608083FE
:101D0000E1E8F0E0108280818260808380818160E0
:101D10008083E0E8F0E0808181608083E1EBF0E0A7
:101D2000808184608083E0EBF0E08081816080834B
:101D3000EAE7F0E080818460808380818260808334
:101D40008081816080838081806880831092C1005F
:101D50000895CF93DF93482F50E0CA0186569F4FD6
:101D6000FC0134914A575F4FFA018491882369F14D
:101D700090E0880F991FFC01E859FF4FA591B4919D
:101D8000FC01EE58FF4FC591D491662351F42FB753
:101D9000F8948C91932F909589238C938881892333
:101DA0000BC0623061F42FB7F8948C91932F90950B
:101DB00089238C938881832B88832FBF06C09FB78C
:101DC000F8948C91832B8C939FBFDF91CF910895D2
:101DD000482F50E0CA0182559F4FFC012491CA014F
:101DE00086569F4FFC0194914A575F4FFA013491F8
:101DF000332309F440C0222351F1233071F0243001
:101E000028F42130A1F0223011F514C02630B1F0B1
:101E10002730C1F02430D9F404C0809180008F773E
:101E200003C0809180008F7D8093800010C084B5B6
:101E30008F7702C084B58F7D84BD09C08091B000CA
:101E40008F7703C08091B0008F7D8093B000E32F27
:101E5000F0E0EE0FFF1FEE58FF4FA591B4912FB7A2
:101E6000F894662321F48C919095892302C08C917B
:101E7000892B8C932FBF0895682F70E0CB0182557A
:101E80009F4FFC012491CB0186569F4FFC0144914A
:101E90006A577F4FFB019491992319F420E030E0B9
:101EA0003CC0222351F1233071F0243028F421303A
:101EB000A1F0223011F514C02630B1F02730C1F066
:101EC0002430D9F404C0809180008F7703C08091C2
:101ED00080008F7D8093800010C084B58F7702C012
:101EE00084B58F7D84BD09C08091B0008F7703C019
:101EF0008091B0008F7D8093B000892F90E0880F93
:101F0000991F84589F4FFC01A591B4918C9120E0BA
:101F100030E0842311F021E030E0C90108950895F4
:101F20001F920F920FB60F9211242F933F934F934E
:101F30008F939F93EF93FF938091C00082FD1DC00C
:101F40004091C60020917506309176062F5F3F4F75
:101F50002F73307080917706909178062817390793
:101F600071F0E0917506F0917606EB5CF94F4083D5
:101F7000309376062093750602C08091C600FF91CB
:101F8000EF919F918F914F913F912F910F900FBEA5
:101F90000F901F901895E091C906F091CA06E05C79
:101FA000FF4F8191919120813181821B930B8F731F
:101FB0009070892B11F00E948F0F08951F920F923D
:101FC0000FB60F9211242F933F938F939F93EF930C
:101FD000FF932091B9063091BA068091BB0690918B
:101FE000BC062817390731F48091C1008F7D80939A
:101FF000C10014C0E091BB06F091BC06E758F94F50
:1020000020818091BB069091BC0601968F739070E1
:102010009093BC068093BB062093C600FF91EF917E
:102020009F918F913F912F910F900FBE0F901F9016
:102030001895AF92BF92DF92EF92FF920F931F938A
:10204000CF93DF93EC017A018B01DD24403081EEE8
:10205000580780E0680780E0780711F0DD24D3940A
:1020600091E0A92EB12CEC89FD89DD2069F0C50134
:1020700008A002C0880F991F0A94E2F7808360E0ED
:1020800079E08DE390E005C0108260E874E88EE1AD
:1020900090E0A80197010E949713215030404040E2
:1020A0005040569547953795279580E12030380761
:1020B00020F0DD2011F0DD24D6CFE889F9893083C6
:1020C000EA89FB89208319A2EE89FF89408121E0FA
:1020D00030E0C9010C8C02C0880F991F0A94E2F706
:1020E000482B4083EE89FF894081C9010D8C02C0D5
:1020F000880F991F0A94E2F7482B4083EE89FF89E5
:102100004081C9010E8C02C0880F991F0A94E2F722
:10211000482B4083EE89FF8980810F8C02C0220FFB
:10212000331F0A94E2F7209528232083DF91CF9173
:102130001F910F91FF90EF90DF90BF90AF900895A7
:10214000DC011C96ED91FC911D97E05CFF4F219105
:10215000319180819181281B390B2F733070C90117
:102160000895DC011C96ED91FC911D97E05CFF4FFA
:1021700020813181E054F040DF01AE5BBF4F8D9193
:102180009C9111972817390719F42FEF3FEF07C0DB
:102190008D919C91E80FF91F8081282F30E0C901B3
:1021A0000895DC011C96ED91FC911D97E05CFF4FBA
:1021B00020813181E054F040DF01AE5BBF4F8D9153
:1021C0009C9111972817390719F42FEF3FEF10C092
:1021D0008D919C911197E80FF91F20818D919C9111
:1021E000119701968F73907011969C938E9330E0A7
:1021F000C9010895DC0191968C919197882339F05B
:102200005496ED91FC915597808186FFF9CF919678
:102210001C920895CF93DF93EC01EE85FF85E05C7F
:10222000FF4F20813181E054F0402F5F3F4F2F73EB
:102230003070DF01AE5BBF4F8D919C9111972817D5
:102240003907D1F3E05CFF4F80819181E054F04089
:10225000E80FF91F6083EE85FF85E05CFF4F318357
:102260002083EE89FF89208181E090E00F8C02C0FD
:10227000880F991F0A94E2F7282B208381E089A315
:10228000EC89FD8980818064808381E090E0DF912A
:10229000CF9108951092C0061092BF0688EE93E089
:1022A000A0E0B0E08093C1069093C206A093C3065D
:1022B000B093C4068CEE93E09093BE068093BD0667
:1022C00085E396E09093CA068093C90689E796E075
:1022D0009093CC068093CB0685EC90E09093CE064D
:1022E0008093CD0684EC90E09093D0068093CF0647
:1022F00080EC90E09093D2068093D10681EC90E040
:102300009093D4068093D30682EC90E09093D60607
:102310008093D50686EC90E09093D8068093D706FC
:1023200084E08093D90683E08093DA0687E0809387
:10233000DB0685E08093DC0681E08093DD0608956E
:10234000CF93DF930E946E0E0E94EF0BCBECDFE089
:102350000E94A30C2097E1F30E94CB0FF9CFCF92FC
:10236000DF92EF92FF920F931F93CF93DF937C0145
:102370006B018A01C0E0D0E00FC0D6016D916D0104
:10238000D701ED91FC910190F081E02DC7010995F5
:10239000C80FD91F015010400115110571F7CE016A
:1023A000DF91CF911F910F91FF90EF90DF90CF9031
:1023B0000895EF92FF920F931F938C01DC01ED9132
:1023C000FC910190F081E02D6DE009957C01D80130
:1023D000ED91FC910190F081E02DC8016AE0099532
:1023E0009C012E0D3F1DC9011F910F91FF90EF9091
:1023F0000895CF93DF93EC016115710519F420E086
:1024000030E00FC0DB010D900020E9F71197A61B0B
:10241000B70BE881F9810280F381E02DAD010995C8
:102420009C01C901DF91CF9108954F925F927F92F5
:102430008F929F92AF92BF92CF92DF92EF92FF92D4
:102440000F931F93DF93CF93CDB7DEB7A1970FB64E
:10245000F894DEBF0FBECDBF2C01742ECB0122300D
:1024600008F42AE019A231E2C32ED12CCC0EDD1ED5
:10247000822E9924AA24BB24672D752FA5019401CF
:102480000E94971379018A01C801B701A50194013F
:102490000E945113472D461B0894C108D1084A30A9
:1024A00014F4405D01C0495CF6014083E114F1047D
:1024B0000105110521F07E2C5F2DC801DDCFC20181
:1024C000B6010E94F911A1960FB6F894DEBF0FBEB7
:1024D000CDBFCF91DF911F910F91FF90EF90DF90D3
:1024E000CF90BF90AF909F908F907F905F904F90D4
:1024F0000895DC012115310541F4ED91FC91019025
:10250000F081E02D642F099508950E941512089519
:10251000EF92FF920F931F939A017B0100E010E06E
:10252000B801A7010E9479121F910F91FF90EF90BF
:102530000895EF92FF920F931F939A01E62EFF24C6
:1025400000E010E0B801A7010E9479121F910F91DD
:10255000FF90EF900895CF92DF92EF92FF920F934A
:102560001F936C01E62E9A01FF2400E010E0B801F1
:10257000A7010E9479128C01C6010E94D911080F8F
:10258000191FC8011F910F91FF90EF90DF90CF901E
:102590000895CF92DF92EF92FF920F931F93CF9304
:1025A000DF93EC016A017B012115310541F4E881DB
:1025B000F9810190F081E02D642F09951FC02A3028
:1025C0003105D1F477FF17C0E881F9810190F081DE
:1025D000E02D6DE209958C0144275527BA014C196D
:1025E0005D096E097F09CE012AE00E94151298014B
:1025F000280F391F04C02AE00E9415129C01C9014E
:10260000DF91CF911F910F91FF90EF90DF90CF90CE
:102610000895EF92FF920F931F937B019A01002779
:10262000F7FC0095102FB801A7010E94C9121F9155
:102630000F91FF90EF900895CF92DF92EF92FF926B
:102640000F931F936C017B019A010027F7FC009503
:10265000102FB801A7010E94C9128C01C6010E9467
:10266000D911080F191FC8011F910F91FF90EF900A
:10267000DF90CF9008950E94F9110895EF92FF9294
:102680000F931F937C010E94F9118C01C7010E94D6
:10269000D911080F191FC8011F910F91FF90EF90DA
:1026A0000895629FD001739FF001829FE00DF11D9C
:1026B000649FE00DF11D929FF00D839FF00D749FBC
:1026C000F00D659FF00D9927729FB00DE11DF91F68
:1026D000639FB00DE11DF91FBD01CF0111240895C5
:1026E000AA1BBB1B51E107C0AA1FBB1FA617B70738
:1026F00010F0A61BB70B881F991F5A95A9F7809554
:102700009095BC01CD01089597FB092E07260AD0AC
:1027100077FD04D0E5DF06D000201AF470956195AE
:102720007F4F0895F6F7909581959F4F0895A1E208
:102730001A2EAA1BBB1BFD010DC0AA1FBB1FEE1F3B
:10274000FF1FA217B307E407F50720F0A21BB30B86
:10275000E40BF50B661F771F881F991F1A9469F702
:1027600060957095809590959B01AC01BD01CF015E
:102770000895EE0FFF1F0590F491E02D0994F89451
:02278000FFCF89
:1027820054582074696D656F7574210020200020F3
:102792000057616974696E672073746172743A00DC
:1027A200496E707574206C6F73743A0053425553BE
:1027B200206D6F64653A0046757461626120373539
:1027C2003075200050504D00206D6F64653A002036
:1027D200543D002054633D00204C3D0020533D00F9
:1027E20020453D00202020202020202020202020C5
:1027F20020202020202020202020202020000D002A
:102802000046486E3A204D696E20417672204D6135
:1028120078002A003C003E002E003D000900546F63
:1028220020456E746572204D454E55205072657379
:102832007320454E5445520052673D56616C200943
:10284200436F6D6D656E7473202D2D2D2D2D2D2DE5
:102852002D2D2D2D2D2D2D2D2D2D005479706520F2
:1028620052656720616E6420707265737320454EF5
:102872005445522C20747970652056616C75652020
:10288200616E6420707265737320454E5445522008
:1028920028713D517569743B204E782D79203D2079
:1028A20053686F77206E6F6973652900464C4153F8
:1028B20048204552524F5221212120576F726B6995
:1028C2006E6720756E7072656469637461626C65AF
:1028D20021004572726F72207265616420736574A3
:1028E20074696E6773210042617963686920736F4E
:1028F20066742032303133005458204F70656E2098
:1029020054696E79205632204600507265737320E6
:10291200276D2720746F20656E746572204D454EB9
:10292200550052464D206C6F636B65643F004269EF
:102932006E64204E004672657120436F72720054BD
:1029420065726D20636F727220656E61626C6500E4
:10295200465320636865636B20656E61626C650037
:102962004465627567206F75747075742028312D07
:1029720050504D6275662C20322D706572666F72F2
:102982006D616E63652900486F70652046310048AD
:102992006F706520463200486F70652046330048EC
:1029A2006F706520463400486F70652046350048D8
:1029B2006F706520463600486F70652046370048C4
:1029C2006F706520463800506F77657220737769A3
:1029D200746368206368616E2028312D31322920AA
:1029E200303D6F6666202900506F776572206D69F1
:1029F2006E2028302D372900506F776572206D695F
:102A020064646C652028302D372900506F77657219
:102A1200206D61782028302D37290002070C013201
:102A22000432046348CC0100004D9359A76DBD7F69
:102A3200D10800020701020304050B0C0D0E0F1052
:102A4200111213141516AE02B502BF02D002E00233
:102A520007030F0317031F0327032F0337033F0344
:102A62004703680378038B03000000000A11AF11CB
:082A7200A010D110B110FA1000
:00000001FF
